:020000040000FA
:06000000020A110201BD1D
:03002B0002085C6C
:0300330002066A58
:030053000200EEBA
:03006B000206503A
:10008300020152010101010503010F10FEFF8F124E
:100093008F128F128F1245113F118F12801F000094
:1000A3000000E21F000000000C0000000C0001FF34
:1000B300FF01010043050000009E05E8036400649E
:1000C30000B80102020008000005020701051E0234
:1000D300051E020A0A03B80B02803E010201F1FF6A
:1000E3000A1401E096511800020206C0E074F212ED
:1000F30003D6A2AFE433FED2AFE5A7FFE5A1F5082F
:100103005F5410600612197375A1EFE5085F540878
:10011300600812197975A1F7802BEFA2E0C0D0E532
:1001230008A2E092F012094B158182F050179061FA
:1001330098E0F8900671E0C398A2D265D0335002DC
:10014300E8F075A1FEEEA2E092AF7F01020435C094
:10015300E074F21203D6A2AFE433FED2AF9061A4EF
:10016300E0F8759B00E59158540860087591F71203
:1001730019C1802AE59158541060087591EF12193E
:10018300C7801BE8A2E0C0D0E591A2E092F012097B
:100193004B158182F05007E0C2E0F0121B0B906117
:1001A300A3E0F8E5E9585404600E121AE175E9FB7F
:1001B300906193E0A2E640F2808BC0E074F21203F8
:1001C300D6A2AFE433FED2AF9061A5E0F8E5BF5805
:1001D3005404600675BFFB121B23020148C3E49855
:1001E300F8E499F91202218026C3E49AFAE49BFB0E
:1001F300E920E7E9120221E498F8E499F922C3E43B
:1002030098F8E499F9120221E498F8E499F9C3E41F
:100213009AFAE49BFB22EB20E7CFE920E7E0B90061
:1002230010BB0008E88AF084F8AAF022E4FBC8FABD
:1002330022EB70227B10C833C8C933C9335007C3BC
:100243009AC3DBF280069A50012ADBEAC833F4C86A
:10025300C933F4C9FA2275F008E4C833C8C933C9ED
:1002630033C99AC99B5004C92AC93BD5F0ECFBC8D2
:1002730033F4C8E4C9FA22080808EAC0E0EBC0E096
:1002830086F0E7A4FA180986F0E7A42AFA18098683
:10029300F0E7A42AFA180986F0E7A42AFA1986F0E7
:1002A300E7A4FBE5F02AFA190886F0E7A42BFBE59F
:1002B300F03AFA190886F0E7A42BFBE5F03AFA18AE
:1002C300180986F0E7A4C5F02BFBE43AFA1908E70E
:1002D300C5F0C6A426F6E5F03BFBE43AFA1886F02F
:1002E300E7A4F6E5F00826F6E43B08F6E43A08F658
:1002F300D0E0FBD0E0FA22E4CFC0E0E4CEC0E0E4FB
:10030300CDC0E0E4CCC0E075F020C3E633F608E6E8
:1003130033F608E633F608E633F6181818EC33FC20
:10032300ED33FDEE33FEEF33FFC3EC9709ED970991
:10033300EE9709EF97191919400FFFEC97FC09ED98
:1003430097FD09EE97FE191906D5F0BEECF709EDF6
:10035300F709EEF709EFF7191919D0E0FCD0E0FD22
:10036300D0E0FED0E0FF222518C582C0E0E51934B5
:10037300FFC583C0E0E518C3958224F810AF088554
:1003830083198582188008858319858218D2AFCE98
:10039300F0A3E520F0A37808E608F0A3DEFAEFF077
:1003A300A3E58124FAF8E608F0A3E608F0A3E6083B
:1003B300F0A30808E608F0A3E608F0A31581158169
:1003C300D0E0FED0E0F8158115811581E8C0E0EE9C
:1003D300C0E022C0D02518C582C0E0E51934FFC5AE
:1003E30083C0E0E518C3958224F310AF0885831911
:1003F3008582188008858319858218D2AFC8F0A337
:10040300E9F0A3EAF0A3EBF0A37908E709F0A3D896
:10041300FAECF0A3EDF0A3EEF0A3EFF0A3D0E0F03D
:10042300A3D0E0F0A3D0E0F0A3E520F0A3E5F0F043
:10043300A322851983851882E0C0E0A3E0F9A3E035
:10044300FAA3E0FBA37808E0F608A3DFFAE0FCA335
:10045300E0FDA3E0FEA3E0FFA3E0C0E0A3E0C0E073
:10046300A3E0F5D0A3E0F520A3E0A3F5F010AF08D7
:100473008583198582188008858319858218D2AFF0
:10048300D082D083D0E0F8D0E032120A73B90003EF
:100493000204CFE49003017843790A8002F0A3D8E1
:1004A300FCD9FA900C43AA82AB83900086786979D1
:1004B300018015E493A3AC82AD838A828B83F0A37E
:1004C300AA82AB838C828D83D8E9D9E7758276754E
:1004D30083D274031207D47582E775831D740012E7
:1004E30007D40E000975F0108E1A8F1B85821F85A5
:1004F300831E851882851983E0CEA3E0CF851F82F2
:10050300851E83EBC9EAC8EDCBECCAC3E833C8E95F
:1005130033C9EA33CAEB33CBC3EA9EF51DEB9FF530
:100523001CB35004AB1CAA1DEC33CCED33CDD5F07A
:10053300DAAE1AAF1B22D083D082ECC0E0EDC0E06C
:10054300E493A3FCE493A3FDED4C600D120611ECC0
:1005530024FFFCED34FFFD80EFE493A3FCE493A3BD
:10056300FDED4C600D1206DFEC24FFFCED34FFFDC6
:1005730080EFD0E0FDD0E0FCE493A3C0E0E493C0BF
:10058300E022D083D082E9C0E0E493A3C386F0C520
:10059300F095F0F908E493A386F0C5F095F0700B9D
:1005A300E493A3C3994005E9048002A3E475F00230
:1005B300A42582F582E5F03583F583D0E0F9E49351
:1005C300A3C0E0E493C0E022851983851882E0A3E9
:1005D300FEE0A3F5207808E0A3F608DFFAE0A3FF26
:1005E300E0A3C0E0E0A3C0E0E0A3C0E0E0A3C0E07C
:1005F300E0A3C0E010AF08858218858319800885C1
:100603008218858319D2AFD083D0820207DAC0E083
:10061300C3E49396087401939618400FE4936670AD
:100623000808740193661870007019A3A3C3E493B8
:1006330096087401939618A3A3400DD0E0D0E0D0A0
:10064300E0020575A3A3A3A3A3A3D0E022C0E07493
:10065300F21203D6E589A2E150031218A7758900A7
:10066300C2C57F01020435C0E074F21203D6E58BE4
:10067300A2E050031218A7758B00C2E880E474044B
:10068300800474028000CCC0E0EDC0E0E518C39C98
:10069300CCAD1950011D10AF068C188D1980068C36
:1006A300188D19D2AF120756D0E0FDD0E0FC2274AA
:1006B300028000CCC0E0EDC0E0E518C39CCCAD19CE
:1006C30050011D10AF068C188D1980068C188D19DA
:1006D300D2AF120734D0E0FDD0E0FC22C0E0C0F07E
:1006E30088F0E4936670080874019366187000A894
:1006F300F0A3A3700BD0F0D0E0D0E0D0E0020575FA
:10070300A3A3D0F0D0E022D083D082CCC0E0E49386
:10071300A360061207B51470FAE493A360061208E7
:10072300A61470FAD0E0FCE493A3C0E0E493C0E025
:1007330022CAC0E0E493A3C582CCC582C583CDC5DC
:1007430083F0A3C582CCC582C583CDC583DAE5D04A
:10075300E0CA22CAC0E0E0A3C582CCC582C583CD6E
:10076300C583F0A3C582CCC582C583CDC583DAE634
:10077300D0E0CA22C008C3E096F50808A3E0964279
:100783000808A3E096420808A3E09645087001D341
:10079300D008227009080808226016181818C6C362
:1007A30033C608C633C608C633C608C633C6D5E043
:1007B300EA22C0E0E493A3D39C5010E493A3C39C28
:1007C300400AD0E0D0E0D0E0020727A3A3A3D0E003
:1007D30022C09FF59FE473D09F22D083D082C09F15
:1007E300E493C0E0740193C0E0740293F59F222563
:1007F30018F58210AF08F518400215198008F5188E
:1008030040021519D2AF851983227404800A740338
:100813008006740280027401C0E0F4041207F2D06F
:10082300E0120A4E22C0D0251810AF08F518500266
:1008330005198008F51850020519D2AFD0D022BB94
:100843000102E722C082C08389828A83BB0003E05E
:100853008002E493D083D08222C0E0C0D0E8C0E01D
:10086300E5A8D2AFC2C7A2E792AFD0E0F8D0D0D00C
:10087300E0326016080808C6C313C618C613C618A4
:10088300C613C618C613C6D5E0EA22C3E0C696F659
:1008930008A3E0C696F608A3E0C696F608A3E0C64A
:1008A30096F622C0E0E493A36C7009D0E0D0E0D0C8
:1008B300E0020727A3A3D0E022251810AF08F518FC
:1008C300400215198008F51840021519D2AF22E726
:1008D3006670100809E766700A0809E7667004087D
:1008E30009E76622C3E09608A3E09608A3E096080A
:1008F300A3E096A2D265D03322E066701008A3E08D
:1009030066700A08A3E066700408A3E06622C3E0E9
:1009130096F008A3E096F008A3E096F008A3E0960B
:10092300F022E026F608A3E036F608A3E036F60840
:10093300A3E036F622E627F60809E637F60809E6C5
:1009430037F60809E637F622C0E0E8C0E0E581247F
:10095300FCF8E6A2E7D0E0F8D0E022700422600DB4
:1009630018C6C333C608C633C6D5E0F41822E65703
:10097300F60809E657F60809E657F60809E657F6B2
:1009830022E056F608A3E056F608A3E056F608A3BD
:10099300E056F622E056F008A3E056F008A3E0562E
:1009A300F008A3E056F022E647F60809E647F60802
:1009B30009E647F60809E647F622E026F008A3E031
:1009C30036F008A3E036F008A3E036F022E4C3963D
:1009D300F608E496F608E496F608E496F622C6F4DA
:1009E300C608C6F4C608C6F4C608C6F4C622C3E7DA
:1009F300960809E7960809E7960809E79622C3E0EF
:100A03009608A3E09608A3E09608A3E0962275D083
:100A1300007581407518017519030002048DE0F615
:100A230008A3E0F608A3E0F608A3E0F622600C08AA
:100A3300C6C313C618C613C6D5E0F422E6F008A34E
:100A4300E6F008A3E6F008A3E6F022CAC0E0E6F069
:100A5300A308DAFAD0E0FA22E0FAA3E0FBA3E0FC71
:100A6300A3E0FD22EAF0A3EBF0A3ECF0A3EDF02268
:100A7300E5C754F84401F5C77901222518F582E446
:100A83003519F58322C2AF75D69F020000221207E3
:100A9300DD7325001207DDAE25001207DDF2250008
:100AA3001207DD1926001207DD6A26001207DD1A78
:100AB30027001207DDD227001207DD9A280012074C
:100AC300DD5A29001207DD9E29001207DDC3290024
:100AD3001207DD062A001207DD532A001207DDABD9
:100AE3002B001207DD312C001207DD4F2C001207FB
:100AF300DD792C001207DD932C001207DDA22C00F8
:100B03001207DDAD2C001207DD6D2D001207DDC6C7
:100B13002D001207DD882E001207DD902E0012072C
:100B2300DD542F001207DDC02F001207DDEB30006C
:100B33001207DD1031001207DD2131001207DD97A6
:100B430031001207DD2932001207DD81320012075E
:100B5300DD4133001207DD6033001207DD6F34001F
:100B63001207DD8134001207DDD434001207DD11D2
:100B730035001207DD1E35001207DDA1360012070E
:100B8300DDF637001207DD2838001207DDBB380019
:100B93001207DD0939001207DD253A001207DD6E61
:100BA3003C001207DD793C001207DD843C0012078C
:100BB300DD8F3C001207DD993C001207DDA43C00E9
:100BC3001207DDBE3C001207DDC83C001207DDD270
:100BD3003C001207DDDD3C001207DD053D00120776
:100BE300DD603D001207DD6A3D001207DD8E3D002A
:100BF3001207DDB23D001207DD103E001207DD547F
:100C03003E001207DD703E001207DDE73E001207CB
:100C1300DD1F3F001207DD6B3F001207DDC83F00F9
:100C23001207DD8240001207DD6642001207DDBFB6
:100C330042001207DDEF43001207DD1544001207DF
:100C4300DD9E45001207DD1A49001207DDEC4A005C
:100C53001207DDB54C001207DD624D001207DDCD32
:100C63004E001207DD6C4F001207DDB14F00120773
:100C7300DD1B50001207DD2A50001207DDB15200C0
:100C83001207DD6354001207DDD054001207DDAFF5
:100C930055001207DDC856001207DD45580012073C
:100CA300DD6458001207DDB958001207DDBE590094
:100CB3001207DDE659001207DD3E5A001207DD1D5B
:100CC3005B001207DD615B001207DDAC5B001207FE
:100CD300DD175C001207DD585D001207DDBC5D0007
:100CE3001207DD0A5F001207DD6A61001207DD9B50
:100CF30061001207DD5363001207DDA863001207CA
:100D0300DDAC64001207DD4965001207DDA2650052
:100D13001207DD5566001207DDF766001207DD973F
:100D230067001207DD3C68001207DD7B80011207B4
:100D3300DDBA80011207DD0183011207DD4B830158
:100D43001207DD6684011207DDD684011207DD0B6D
:100D530085011207DD7F86011207DD028901120773
:100D6300DD2B8A011207DDC18A011207DDC9930158
:100D73001207DD5E94011207DD4597011207DD3886
:100D830098011207DD9998011207DDB59901120741
:100D9300DDFB9A011207DDDD9B011207DDC29D0118
:100DA3001207DDD39F011207DD3DA0011207DD0FFE
:100DB300A1011207DDC6A1011207DDD0A1011207AF
:100DC300DDFEA1011207DDBBA2011207DD92A30123
:100DD3001207DD59A4011207DD0BA5011207DD344B
:100DE300A5011207DD56A5011207DDACA701120705
:100DF300DD84A8011207DDC8A8011207DD30A901AF
:100E03001207DDE8A9011207DD1AAA011207DD5E48
:100E1300AA011207DD94AA011207DDE0AA01120755
:100E2300DD35AB011207DD3AAB011207DD8DAB01F6
:100E33001207DDB2AB011207DDC1AC011207DD25DC
:100E4300AD011207DD95AD011207DD21AE011207D9
:100E5300DDEEB0011207DDD2B1011207DD55B3019A
:100E63001207DD8BB5011207DD39B6011207DDE983
:100E7300B6011207DD2AB9011207DDCDB901120748
:100E8300DD14BA011207DDC0BB011207DDD4BB01BB
:100E93001207DDDEBB011207DD06BC011207DD12FE
:100EA300BC011207DD31BC011207DD18BE011207B8
:100EB300DD4FBE011207DD59BE011207DD8FBE01F2
:100EC3001207DDDEBF011207DD22C0011207DDCAF2
:100ED300C0011207DDADC1011207DD58C2011207BF
:100EE300DDA4C3011207DDA2C4011207DD48C50159
:100EF3001207DDD8C5011207DDEFC5011207DD2694
:100F0300C6011207DD30C6011207DD3BC601120719
:100F1300DD59C6011207DD9DC6011207DDFAC601C0
:100F23001207DD1FC7011207DD39C7011207DDC52F
:100F3300C7011207DDE2C8011207DD4FC90112071D
:100F4300DD36CA011207DD5DCA011207DDD1CA0110
:100F53001207DD4CCB011207DD50CC011207DD4631
:100F6300CD011207DDF5CD011207DD08CF01120710
:100F7300DDA4CF011207DD31D0011207DD0FD1014E
:100F83001207DD47D1011207DD9FD1011207DD688A
:100F9300D2011207DD89D2011207DD10D301120736
:100FA300DD34D3011207DD56D3011207DD9FD301D0
:100FB3001207DDB5D5011207DD9CD6011207DD4D01
:100FC300D7011207DD83D9011207DDD3D901120737
:100FD300DD13DA011207DD55DA011207DDB1DA019B
:100FE3001207DDDFDA011207DD03DB011207DD562D
:100FF300DB011207DD84DB011207DDBDDB01120714
:10100300DD12DC011207DD78DC011207DDCCDD0126
:101013001207DDEFDF011207DD5CE0011207DD855A
:10102300E0011207DD10E1011207DD77E10112078C
:10103300DDC2E1011207DDE6E1011207DD0AE2018B
:101043001207DD65E2011207DD80E2011207DD39D7
:10105300E3011207DD86E0031207DDC5E003120793
:10106300DD7880021207DDBE80021207DD9E810259
:101073001207DDA082021207DDA383021207DD2F10
:1010830085021207DD8D85021207DD4A86021207EB
:10109300DD6887021207DDD987021207DD15880292
:1010A3001207DD6388021207DD6D88021207DDB1C6
:1010B30088021207DD0D89021207DDA889021207D3
:1010C300DD258A021207DDF48A021207DD8D8B0209
:1010D3001207DDAD8B021207DDE38B021207DD146D
:1010E3008C021207DDD58C021207DDE58C02120794
:1010F300DD398D021207DD548D021207DD668D0284
:101103001207DD6F8D021207DDC98D021207DD257F
:101113008E021207DD718E021207DD8C8E0212071A
:10112300DDBD8E021207DDDA8E021207DDE68E02C6
:101133001207DD5A90021207DD7390021207DDDAFF
:1011430090021207DDED90021207DDFB90021207F9
:10115300DDAF91021207DD9392021207DD9993022C
:101163001207DD2394021207DD2D94021207DD9A84
:1011730094021207DDB194021207DDE39402120711
:10118300DD1C95021207DD4695021207DDA79502C5
:101193001207DDC795021207DDE595021207DD2B65
:1011A30096021207DD5197021207DD9E970212077E
:1011B300DDCD97021207DD4398021207DD6B98021B
:1011C3001207DDA498021207DDB298021207DD0AA6
:1011D30099021207DD5999021207DD989902120745
:1011E300DDC899021207DDF499021207DDFF9902A7
:1011F3001207DD1D9A021207DDDF9A021207DDE9ED
:101203009A021207DD249B021207DD3A9B021207A2
:10121300DD8F9B021207DDA39B021207DDB19C0247
:101223001207DDC49C021207DDD99C021207DD7B85
:101233009D021207DDFE9D021207DDBC9E0212070E
:10124300DDC79E021207DDF39F021207DD0FA00226
:101253001207DD61A0021207DDA0A0021207DDB5AF
:10126300A0021207DD17A1021207DDA6A1021207D1
:10127300DDF1A1021207DD42A4021207DDC0A402C0
:101283001207DD35A5021207DD57A7021207DD6F2E
:10129300A7021207DD72A7021207DD7EA70212075B
:1012A300DD92A7021207DD9AA7021207DDCDA7027E
:1012B3001207DD7DA8021207DDF3A8021207DD661F
:1012C300A9021207DD1AAA021207DDCFAA0212072A
:1012D300DDEEAA021207DD8EAB021207DD9AAB0226
:1012E3001207DDC5AB021207DDC8AB021207DD3200
:1012F300AC021207DD5AAD021207DD32AE0212074D
:10130300DDBDAE021207DDD6AF021207DD93B002D8
:101313001207DDCCB0021207DDFDB0021207DDBB00
:10132300B1021207DDEBB1021207DDC6B2021207EA
:10133300DD5FB3021207DDEAB3021207DD9BB402DD
:101343001207DD1EB5021207DD50B5021207DD914B
:10135300B5021207DDC58B031207DD2A8C031207C2
:10136300DD678C031207DDB68C031207DDCC8E0319
:101373001207DDAF90031207DD1994031207DD5442
:1013830094031207DD7694031207DDD99403120741
:10139300DD7DD7021207DD3595031207DD5895036E
:1013A3001207DD8595031207DD0080031207DD7E3A
:1013B30080031207DDB480031207DD2081031207C7
:1013C300DD9382031207DDAF82031207DDF482038C
:1013D3001207DD8283031207DDDB83031207DD08B7
:1013E30085031207DD1A86031207DD4D2500120758
:1013F300DDE386031207DD4487031207DD858703D8
:101403001207DD3288031207DD4489031207DD6FFB
:1014130089031207DDBA89031207DD018A03120764
:10142300DD938A031207DD4E8B031207DDB0F8024A
:101433001207DDBAF8021207DD06F9021207DD749E
:10144300F9021207DD95F9021207DD45FA021207C8
:10145300DD4EFA021207DDA1FA021207DDCAFA0213
:101463001207DD31FB021207DDC2FB021207DD04A6
:10147300FC021207DD4EFC021207DDADFC0212076F
:10148300DDD9FC021207DD6AFD021207DDA9FD02A8
:101493001207DDE8FD021207DD1DFE021207DD2F34
:1014A300FE021207DD41FE021207DD60FE02120793
:1014B300DD69FE021207DD31FF021207DD28DE03BC
:1014C3001207DD44D0031207DD7AD0031207DDC310
:1014D300D0031207DD13D2031207DD886800120759
:1014E300DDC769001207DD036A001207DDC26B0066
:1014F3001207DDEB6B001207DD7E6E001207DDC203
:101503006E001207DD4B70001207DDE37000120757
:10151300DD4B71001207DDEC71001207DD2E720046
:101523001207DD6E72001207DDF973001207DD6921
:1015330075001207DD8E77001207DDBC77001207F6
:10154300DDE377001207DDEC77001207DD47780053
:101553001207DDDA78001207DDF87B001207DDC918
:10156300E1031207DDDFE1031207DD82C503120782
:10157300DD95C5031207DD32C6031207DD6DC60311
:101583001207DD88C6031207DDADC6031207DDF2BD
:10159300C6031207DD23C7031207DD54C70312076F
:1015A300DDDAC8031207DDFBDE031207DD31DF03DB
:1015B3001207DD4DDF031207DD8FDF031207DD9F07
:1015C300DF031207DD24B3031207DD81B303120720
:1015D300DDCEB3031207DD4BB4031207DDA2B40360
:1015E3001207DDEBB5031207DD3FB6031207DDB9C2
:1015F300D7021207DD0ED8021207DD02D902120745
:10160300DD9BD9021207DDE5D9021207DD47DA02B5
:101613001207DD5BDA021207DD3DDC021207DD444F
:10162300DD021207DD7FDD021207DD7FDF02120715
:10163300DD9ADF021207DDE9DF021207DDFFDF02B9
:101643001207DD0CE0021207DD40E0021207DD594C
:10165300E0021207DD03E1021207DD5DE10212077A
:10166300DDABE1021207DDD0E2021207DDF2E20296
:101673001207DD7AE5021207DDAFE5021207DD3559
:10168300E6021207DDAAE6021207DDAFE602120741
:10169300DDEBE6021207DD4AE7021207DD1CE80272
:1016A3001207DD50E8021207DD5AE8021207DD5D7A
:1016B300E8021207DDDAE8021207DDF5E802120795
:1016C300DD21E9021207DD5CE9021207DD5FE902B1
:1016D3001207DD6AE9021207DDA6E9021207DD3609
:1016E300DD031207DD47DD031207DDCFDD0312073C
:1016F300DD73E3011207DDA1E3011207DDECE40171
:101703001207DD6AE5011207DDE6E5011207DD4F89
:10171300E6011207DD92E6011207DD1BE70112075E
:10172300DDC1E7011207DD51E8011207DD93E8018E
:101733001207DDDCEC011207DD5CEE011207DD327E
:10174300EF011207DD61EF011207DD93F1011207CB
:10175300DD13F4011207DDCCF4011207DDE9F50115
:101763001207DD40F9011207DD50F9011207DDBD53
:10177300FA011207DD49FB011207DD51FC011207D3
:10178300DD9BFD011207DDDFE9021207DD99EA02A5
:101793001207DD0BEB021207DD85EB021207DDE218
:1017A300EB021207DDE9EC021207DD59ED02120725
:1017B300DD3DF0021207DD14F1021207DD81F102B3
:1017C3001207DDFEF2021207DDC8F3021207DD3E47
:1017D300F4021207DDFDF5021207DD96F602120789
:1017E300DD5CF7021207DDD8BA031207DD2CBB0359
:1017F3001207DD84BB031207DDCFBB031207DD3104
:10180300BC031207DD9DBC031207DD50BD031207A5
:10181300DD91BD031207DDADBD031207DD09BE0374
:101823001207DD47BE031207DD81D4031207DDB2C1
:10183300D4031207DD6CD5031207DDD2D5031207DB
:10184300DDF5D2031207DD7CE1031207DD8DE10331
:101853001207DD2DFE011207DD3BFE011207DDE558
:10186300FF011207DDA9DF031207DDB9DF0312074A
:10187300DDD1DF031207DD32E0031207DD34DC03C1
:101883001207DDB9DC031207DD1DDD031207DD22BC
:10189300DB031207DD44DB031207DDAEDB031207B4
:1018A300DDB9DB031207DDFDDB031207DD797C0005
:1018B3001207DD8F7C001207DDB87C001207DDD331
:1018C3007C001207DDEE7C001207DDF87C001207B6
:1018D300DD027D001207DD157D001207DD2E7D0080
:1018E3001207DDD57D001207DD547E001207DD7877
:1018F300BE031207DD86BE031207DD00BF03120716
:10190300DDE4BF031207DD9DC1031207DDA7E10379
:101913001207DDB3A9031207DD08AA031207DD04CA
:10192300AC031207DD36AC031207DD58AC03120714
:10193300DD71AC031207DD8AAC031207DD94AD033E
:101943001207DD2FAE031207DD5BD6031207DD7F1F
:10195300D6031207DD98D6031207DDCBD603120791
:10196300DDFCD6031207DD2AD7031207DD8CD7036C
:101973001207DD9BD7031207DDA5D7031207DDB2DC
:10198300D7031207DDF1C8031207DD17C9031207D6
:10199300DD54C9031207DD63C9031207DD82C903DE
:1019A3001207DDEAC9031207DDF3C9031207DD528B
:1019B300CA031207DD76CA031207DD35CB0312070C
:1019C300DD42CB031207DD53CB031207DD13E10323
:1019D3001207DD30E1031207DDA6AE031207DD04B3
:1019E300B0031207DD11B0031207DD24B0031207A1
:1019F300DD43B0031207DD59B0031207DD6DB003F9
:101A03001207DDE2B0031207DD47B1031207DDF76A
:101A1300B1031207DDCCB2031207DDDCB2031207F8
:101A2300DDEBB2031207DD61FF021207DD85FF0262
:101A33001207DDADFF021207DDD5FF021207DD81BC
:101A4300CB031207DDA8CB031207DDC9CB031207B3
:101A5300DD2ECC031207DDE7CD031207DD00CE0335
:101A63001207DD0CCE031207DD20CE031207DD3E85
:101A7300CE031207DD48CE031207DD52CE03120751
:101A8300DD65CE031207DDB8CE031207DDF1CE0309
:101A93001207DD20CF031207DD6ECF031207DDBD72
:101AA300CF031207DDD8CF031207DDE2CF031207FE
:101AB300DDF3CF031207DD39D0031207DD35E00371
:101AC3001207DDE695031207DD1096031207DD2CDE
:101AD30096031207DD3F96031207DD55960312079F
:101AE300DDB296031207DDE596031207DD219B03A2
:101AF3001207DD479C031207DD7A9C031207DDC63C
:101B03009C031207DDF29D031207DD1A9E031207E1
:101B1300DD2F9E031207DD3F9E031207DD839E0325
:101B23001207DDE49E031207DDF49E031207DDBCFA
:101B3300D7031207DDD7D7031207DD00D803120737
:101B4300DD1AD8031207DD3FD8031207DD5ED80381
:101B53001207DD76D8031207DDA4D8031207DDBE12
:101B6300D8031207DDCFE0031207DD02C203120719
:101B7300DD09C2031207DD15C3031207DD45C303E5
:101B83001207DD6BC3031207DD8EC3031207DDB03B
:101B9300C3031207DDEAC3031207DD50C4031207B0
:101BA300DD89C4031207DDD5C4031207DD02C503B3
:101BB3001207DD22C5031207DDEFD8031207DD117B
:101BC300D9031207DD09DA031207DD0CDA03120762
:101BD300DD0FDA031207DD81DA031207DDBFDA0353
:101BE3001207DD00DB031207DD229F031207DD6806
:101BF3009F031207DD69A1031207DD4BA20312073E
:101C0300DD98A2031207DD4FA3031207DD1FA40310
:101C13001207DD68A4031207DDA1A4031207DDFD8B
:101C2300B6031207DD1CB7031207DD6BB7031207F8
:101C3300DD87B7031207DDB8B7031207DDC8B703A3
:101C43001207DDD5B7031207DDE2B7031207DDCEB6
:101C5300B8031207DD0CB9031207DD16B903120727
:101C6300DD26BA031207DD31BA031207DD43BA03D7
:101C73001207DD4CBA031207DD56BA031207DDE87B
:101C8300A4031207DD2DA9031207DD49A9031207D7
:101C9300DD4FE1031207DDE9E1031207DD75D6022B
:101CA3001207DDD2D5021207DD85D4021207DD301B
:101CB300D2021207DDC6D1021207DD7ED10212075E
:101CC300DD2ECE021207DDFACD021207DDC7CD02EB
:101CD3001207DDABCD021207DDC9CC021207DD818D
:101CE300CC021207DDCCCA021207DD4CCA0212076E
:101CF300DD49CA021207DD50C9021207DD1EC902FF
:101D03001207DD5BC8021207DD86C6021207DD1764
:101D1300C6021207DDE9C5021207DDE6C502120796
:101D2300DD3425001207DDE024001207DD3C24002A
:101D33001207DDB223001207DD5123001207DDD3A2
:101D4300C5021207DD88C5021207DD77C502120737
:101D5300DDFF22001207DD7AC4021207DD44C4024C
:101D63001207DDF2C3021207DD93C3021207DDED92
:101D730022001207DD7786031207DD62C302120712
:101D8300DD2AC0021207DDEABF021207DDDEBF0251
:101D93001207DD41BF021207DD81BE021207DD0318
:101DA300BC021207DD94B9021207DD52B902120711
:101DB300DD26B8021207DDDBB7021207DD1AB70210
:101DC3001207DDEDB6021207DD30B6021207DD00A1
:101DD300B6021207DD9BD7021207DDC6B502120752
:101DE300DD0D950300000080FBE4738F0001000DFF
:101DF30006870001000C06240002007B0C2500026C
:101E0300007D0C260002007F0C27000200810C28B5
:101E1300000100830C29000100840C840004008568
:101E23000C86000100890C2A0001008A0C2B00019A
:101E3300008B0C2C0001008E0C2D000800F7052EE2
:101E43000001008F0C2F000100900C300001009165
:101E53000C31000100920C32000100FF0533000138
:101E630000000634000100930C360001000106381F
:101E7300000100940C390001008D0C830002009EC8
:101E83000C630001000B0664000100F4056500010A
:101E9300008C0C6D0001009D0C6E000200F50543E3
:101EA300000100950C44000200960C4500010098C7
:101EB3000C46000200990C47000800030648000185
:101EC300009B0C4B0001009C0C04000100A00CA122
:101ED300000100A30C37000100A20C88000100A13F
:101EE3000C3C000100020600000000000000013667
:101EF3003601010001020100010301000104010692
:101F03000605020000070100340801000F0904015F
:101F1300010D0100FF0E0800001702000019010067
:101F2300FF1A0100011B0100FE1C0100081D020035
:101F3300001F010001200100012102000023010014
:101F43000F240200002601000127010008280200D7
:101F5300FF2A0100072B0102402C0100002D010084
:101F6300012E0100012F0100FF30010B1C3108007D
:101F7300003A0100083B01000F2F0100000300712C
:101F83000030016000110070003102200350048012
:101F9300001000610000001400630073007200620F
:101FA30000430000001300060000000000040012BC
:101FB30000000000000000000004000400370037A8
:101FC300003C024400000000000000000065000027
:101FD30000350081000000050000008300000001BF
:101FE300037103010301030103010301032203023C
:101FF30003010310030003000300030003000300B5
:102003000300034203000324030603000300030445
:1020130003120325032303250323030403040300FB
:1020230003000300034403000300032303000365C9
:1020330003210035038103000305030003000300AC
:1020430003010171010101010111010101310101CB
:102053000101018001100161013B00140063017360
:10206300017201620143010001130106013D0135C3
:102073000004011201000100010001000104010438
:1020830001330133013C01440132013600000100F8
:102093000165010001350081010001050182018311
:1020A300010001030271023001600211027002019A
:1020B30002020202028002100261023A004100633E
:1020C300027302720262024302000213023800002A
:1020D30002000204021202000200020002000204D3
:1020E300020402370037003C0244020002390000B8
:1020F300020002650200023502810200020502822B
:1021030002830200020304710402046004110470D8
:102113000402040204010402041004610400041410
:102123000463047304720462044304000413040686
:102133000400040004040412040004000400040066
:102143000451046400000400040004440400040077
:1021530004000400046504000435048104640005DC
:102163000400048304000436000100060000000F8D
:102173000000000000000000000000000003FFFF5B
:1021830000000403FFFF0000FFFF0FF4010005C47C
:10219300040320000100030B000000000000000006
:1021A30003010F0000AB17130045170100AB170223
:1021B300000F170300151704001B1705002117064E
:1021C300002D17FFFF000001730D06A90D08A30DD5
:1021D3000BC10D10EF0C02790D05970D077F0D0C48
:1021E300550D0D670DFF000003EAF5E5D5D5C5B51F
:1021F300A59595858575756565555545453535258C
:10220300251515059F11CF11A511AB11C911BD11CD
:10221300B711D511DB11E111ED11B1119911931121
:1022230000160F00000B150B020002220F320000F4
:10223300068F12A112A7126911AD1263116F11A3B8
:10224300109D10D910DF10D3108B10EF120D131344
:1022530013F5120113FB120C0E020B040B0A0708F1
:10226300000F303016181920231A1C1E30000119D4
:10227300161816161523030000034948424D181774
:10228300250502303017181921301B1D1F30003867
:102293003C3E363B3B352B432CE312B312B912C5FC
:1022A30012BF12C311E7110713F311F9110204024C
:1022B300010101010902AF10B510A910E510BB100F
:1022C300CD1000BE040A150004007F00E8030C00D3
:1022D3002800000000000308100C0A03080900048A
:1022E3000001FF1E1E0C05040F08C082C0838A82F2
:1022F3008B83E0D2E7F01216A90234CDC082C083EB
:1023030079001227B9125814C082C0839003301287
:10231300459AD083D082C3E09CA3E09D500C125E0B
:10232300E8FAA3E01223306001090234CDFBEA7519
:10233300F00BA4FAA8F075F00BEBA428FB90033282
:10234300E02AF8A3E03B8882F583E0540F2274F778
:1023530012036A89081227B912285FACF075F00BD3
:10236300E9A42CF9900332E028FEA3E039FF7401BD
:10237300650860067402650870208A828B831228C0
:102383004B1238AD74026508701B12270A1228928B
:1023930070138E828F83E4F0800BEA2403FCEB122C
:1023A300282D122839EEFAEFFB121D6F02380A743A
:1023B300F412036A12680F79008E828F83E06076CD
:1023C300890A890B8065E50A75F00BA4FAA8F075F4
:1023D300F00BE50B12233D7046E50A75F00BA4F8EC
:1023E300AAF075F00BE50B1228718E828F83E085BE
:1023F3000882850983122953850882850983A312DC
:1024030038ADEE2403FCEF12283612368B12528EAF
:10241300AA08AB09121D6F7901900330124CA3E592
:102423000A2401F50AE50B3400F50B122712E50A1D
:102433009AE50B9B4090023A2074F512036AEAFE78
:10244300EBFF740B120A7E123690750A01EC4D6095
:102453002BEC12682BED1258141238A57901121DBA
:1024630039E5084509606F850882850983A31268E9
:10247300197902AA08AB09121D39805AE5084509E2
:10248300602B125818123EE212368C12287C700C04
:10249300EEFAEFFB121D33E9F50A80CBEE2403FAC3
:1024A3001227B470317903EEFAEFFB80CA8E828F64
:1024B30083A3E064FE7003A3E0F4700BEE24030A2D
:1024C3000A0A1227B4700CEEFAEFFB121D33E9F57A
:1024D3000A8003750A00A90A7F030205CB74F71269
:1024E300036A90033012381AEA4B602FEA75F00B37
:1024F300A4FAA8F075F00BEBA428FBEAFEEBFF129D
:1025030014CF90033212381A900332124AE8601241
:10251300EEFCEFFD790012143F8007900332E4F0E4
:10252300A3F002380A900330124252C3EE98EF9997
:1025330022C082C083EC4D6005121BE380097C0836
:102543007D00790012143F0234CD74F612036A79C8
:1025530000EA4B601878008808125B5BEB125EE4BC
:1025630060047901780808E8C3940840EA0238B6A1
:1025730074F712036A74F31208BCECFEEDFF8518BE
:1025830082851983E4F004120A7EEAF0A3EB125069
:10259300147403120A7EAC82AD83EEFAEFFB121DB4
:1025A30021EEFAEFFB1213EB02380574F712036AFC
:1025B30074F31208BCECFEEDFF851882851983E4E1
:1025C300F0EAFCEBFD7403120A7E12294C7401122B
:1025D3000A7E1238A18E828F831238AD74FE687022
:1025E3000374FF696004790180027900023805747D
:1025F300F712036AEAFEEBFF122650701412265BF1
:102603008E828F83E0F4F88A828B83E058F0121D68
:102613006FA90802380A74F712036AEAFEEBFF7522
:1026230008008E828F83E06022122650701D1226CE
:102633005B8A828B83E08F838E82F8E058700CE094
:10264300F88A828B83E048F0121D6F80C4121D51FB
:10265300E9F5087401650822126824122863122719
:10266300A5FAA3E039FB2274F412036A8A088B09E2
:102673007C007D0012270A1228391227CA12681615
:102683007900850882850983A3E064FE7003A3E0D3
:10269300F460717E007F008062EEFAEF12233060F7
:1026A30057EEFAEFFBEA75F00BA4FAA8F075F00BFE
:1026B300EBA428FB900332E02AF50AA3E03BF50BD9
:1026C300850882850983A3124F62850A82850B835D
:1026D300A3E06A7003A3E06B701EE50A2403FAE526
:1026E3000B1227B5700AE50A2403FCE50B12283602
:1026F3001227BE790112582A1230A9122712EE9A14
:10270300EF9B4095023A20EA24030A0A0AEB22903F
:102713000330125401C32274F312036A8A088B092B
:102723008A828B83A31268191227B9126816750C53
:102733000012270A1227B570547E007F00804912C9
:102743002797FAA3E0398A82F583E0540F603612A3
:102753002797F50AA3E039F50BE50A2403FCE50BFB
:102763001228403400FB121BDDE964017017850A4F
:1027730082850B83A31254C2A31238AD1227BE75F0
:102783000C0112582A1230A912252840B2A90C7F35
:10279300050205CBEEF8EFF9E875F00BA4F8122764
:1027A300A522AAF075F00BE9A42AF9900332E028D8
:1027B30022EF12288C2212682AEB221227CA1258FF
:1027C30025EEF0A3EFF022E50812682BE509227449
:1027D300F512036AEAFEEBFF8E828F83A312681958
:1027E3007C007D00EE24030A0A0AEF122839EEFA70
:1027F300EFFB121D51E9F50A7401650A702912688D
:102803002412285FAAF075F00BE91228718508825B
:10281300F58312284B12287C700DE5082403FCE590
:102823000912282D1228390224D93400FDEE24037D
:10283300FAEF221228403400FB121D21223400FD3E
:10284300E5082403FAE50922A3122850221228548A
:1028530022E0F8A3E0F98E828F83A3221228632259
:102863003400F583124256E875F00BA4F8221227C0
:10287300ABF508A3E039F50922E8F0A3E9F0E50890
:102883002403FAE50912288C2212289264012234C7
:1028930000FB1213EBE92274F312036A74E61208C5
:1028A300BC12680F750C01750800750900750A00E4
:1028B300750B00851882851983E4F0EE2403FCEF81
:1028C3003400FD7403120A7E12294CE9640170235B
:1028D300740B120A7E1238A57401120A7E124F6617
:1028E3007003A3E069605185188285198385820886
:1028F300858309740D120A7EE4122953740E120A99
:102903007E1238AD740D120A7EAA82AB83120AA915
:10291300E96401700B740D120A7E85820A85830BAC
:10292300780A120815AC08AD09EEFAEFFB121D2D5B
:102933007402120828E9F50CEEFAEFFB120AA3A9B8
:102943000C741A120828022792122C1F120AAF22A3
:1029530012381512425222C082C083780079008057
:1029630003122A4A122712E89AE99B5029E8FAE946
:10297300FBEA75F00BA4FAACF075F00BEBA42CFB9F
:10298300900332E02AFCA3E03B8C82F583E0540FF2
:1029930070CF7900800279010234CDC082C0839068
:1029A30022C91242A8EC75F012A4FCA8F075F0122B
:1029B300EDA428FD79FF7AE07B0612143F0234CDA3
:1029C30074F712036AE9FEEAFF7A007B0078007964
:1029D300008028E8FCE9FDEC75F012A4FC85F00802
:1029E30075F012EDA42508122E5FC39E400AE0FC89
:1029F300EFC39C4003122F7E122A4A122E5340D358
:102A030002380AC082C083780079008003122A4A00
:102A1300122A3E501F122E63F470F2E875F012A4CE
:102A2300F8AAF075F012E9A42AF974E028FA7406FA
:102A330039FB80047A007B000234CD9022C9122F27
:102A430014C3E89AE99B22E8240108E93400F92237
:102A530074F012036A74F31208BC8A0A8B0B8C0C91
:102A63008D0D8908EC450D6016AA0CAB0D120AFDFD
:102A73008A0E8B0FAE0EAF0FEE4F6003022B1112B7
:102A83000AD38A0E8B0FA80EA90FE8FEE9FFE849C7
:102A9300607C9022D7122B73602274036508600652
:102AA3007404650870167A047903120ACD9022D74C
:102AB300122B8A40077A007B00022B709022D512DA
:102AC3002B73601B74016508600674026508700F40
:102AD3007A027901120ACD9022D5122B8A50D6851B
:102AE30018828519837401F0120A7E12528EAC0C7F
:102AF300AD0D7403120A7E122C18740B120A7E1287
:102B03003698123C56E4125276120FE38004EE4FCD
:102B1300604A780074FF2508C39404500278048E39
:102B2300828F8312528E8E828F83A3A3A3A3E50881
:102B3300F0E88E828F83A3A3A3A3A312529612025B
:102B430019122F2B8E828F83A3A3A3A3A3A3A3F076
:102B5300122F22120A5B12580E120A67122B7840A8
:102B630005900C46E4F0120EBDEEFAEFFB02425C58
:102B73001253B049227A047900120ACD9022C91265
:102B83005ECAEA98EB9922122BA37583227582C938
:102B9300E493C398F8A3E49399F9C3EA98EB9922D1
:102BA300E493F8740193F92274F212036A74F31232
:102BB30008BC8A088B09ECFEEDFF750A00EEFAEFFC
:102BC300FB120AFD8A0C8B0DA80CA90DE849603E87
:102BD30088828983E065087004A3E06509602F8813
:102BE300828983A3A3A3A3E0C3940550211256BCF7
:102BF3008518828519837401F0120A7E1256C0EE7D
:102C0300FCEFFD7403120A7E122C18750A01A90A3F
:102C1300740D024D5A122C1F120ABB22AA82AB83D7
:102C2300121D21851882851983AA82AB832274F62B
:102C330012036A122C6D600FA3A3A3A3E014C39421
:102C43000450047901800279000238B674F6120345
:102C53006A122C6D600FA3A3A3A3E014C3940250C4
:102C6300047901800279000238B6120AF78A828B4E
:102C730083E58245832274F612036A122C6D600B7E
:102C8300A3A3A3A3E070047901800279000238B6FC
:102C9300C082C083EAFCEBFD7A007B000234CAC029
:102CA30082C0837C007D000234CA74F412036A7408
:102CB300F31208BCEAFEEBFF8C0A8D0BC3EC94F80D
:102CC300ED94FF4007EE4F7003022D667508007503
:102CD3000900802E8518828519837401F01230D182
:102CE300120A7E1230DF60137403120A7EAC82ADC7
:102CF30083EEFAEFFB121BDDE97049E508240112AC
:102D03002EFF9022C9E41253B8E50898E5099950BB
:102D130052E50875F012A4F8AAF075F012E509A4BB
:102D23002AF9125EFD60D4EE4F70A974FF650A7034
:102D33000474FF650B60C41230C1650A7004A3E01C
:102D4300650B70B7E50875F012A4F508A8F075F0E7
:102D530012E509A428F50974E02508FA7406350973
:102D6300FB80047A007B00023A1B74F412036A743A
:102D7300F31208BC750800120AFD8A0A8B0BAE0A0F
:102D8300AF0BEE4F602A85188285198374011238C0
:102D93000FF8A3E0F9740B120A7E1238F9120A9D98
:102DA3007C127D0079FFEEFAEFFB12143F750801E8
:102DB300122B785009900C467401F0120EBDA9082D
:102DC300023A1B74F712036AE9FE74FE6A70037415
:102DD300FF6B7800790070058052122A4A122E5335
:102DE300504AE8FCE9FDEC75F012A4FCAFF075F075
:102DF30012EDA42F122E5FF460E0E8FCE9FDEC7500
:102E0300F012A4FC75F012EDA42FFD74E02CF582F2
:102E130074063DF583E06A7003A3E06B70BC800920
:102E2300122E6314C394044017122A4A122A3E50E6
:102E330018EE70EC122E6364016005E0640370E920
:102E43001230B2FAA3E0FB80047AFE7BFF02380A59
:102E53009022C91242ACC3E89CE99D22122FB322EF
:102E6300E8FAE9FBEA75F012A4FAACF075F012EB9C
:102E7300A42CFB74E42AF58274063BF583E022124A
:102E83000B0F0234CDC082C083790180F274F0123B
:102E9300036A8A0A8B0B7A047901120ACD8A0C8B96
:102EA3000DEA450D603EEAC333FAEB33FB1214CF50
:102EB3008A088B09AE08AF09EE4F60237AFE7BFFC9
:102EC300120B1574FE6A700374FF6B601B85088216
:102ED30085098312381AE5082402122EFF80E17552
:102EE3000C0080047E007F00850A82850B83E50C3D
:102EF300F0EEFAEFFB024261E5082407F508E50965
:102F03003400F509229022C91242ACC3EA9CEB9D1E
:102F130022E493FA740193FB2212143374032212F2
:102F2300581FE4F090805022E88E828F83A3A3A3DE
:102F3300A3A3A3A3A3122F4D7401122F4DA3F0EE4D
:102F43002410125822E4F0A3F022123C62A3A3A39C
:102F530022C082C0837A007B00800419122F7E1264
:102F63002F085010122F9DC3940550F0E970EC12F6
:102F73002F8780047A007B000234CDEA24010AEB18
:102F83003400FB22EA75F012A4FA75F012EBA428C0
:102F9300FB74E02AFA74063BFB22EAFCEBFDEC75BA
:102FA300F012A4FCA8F075F012EDA428122FB3229E
:102FB300FD74E42CF58274063DF583E02274F71268
:102FC300036A74F31208BC7E007F00023065E508D3
:102FD30075F017A4F8A9F012615EFAA3E0FBEEF80E
:102FE300EFF9E875F012A4F8ACF075F012E9A42C2F
:102FF3001230C06A7003A3E06B603FE50875F017F9
:10300300A4F8AAF0EA12615DF8A3E0F97401120AC8
:103013007EE0687003A3E0696020E50875F017A4FB
:10302300F8EAF9745C28FC740839FD7403120A7E0B
:10303300AA82AB83121BDDE96014E50875F017A4BF
:10304300F8A9F0745A28FA740839FB120FEF05082F
:103053009022DBE493F8E508C3985003022FD112C2
:1030630030A99022C91264A45039EEF8EFF9123056
:10307300B2F47003A3E0F460E685188285198374C3
:1030830001F0EEF8EFF9E875F012A4F875F012E923
:10309300A42AF91230D1120A7E1230DF60C17508FA
:1030A3000080AD023805EE24010EEF3400FF22E864
:1030B30075F012A4F8AAF075F012E9A42AF91230F7
:1030C300C52274E028F582740639F583E02274E2A0
:1030D30028F582740639124250740B22E8F0A3E9F2
:1030E300123901120AB5E922C082C08390033974F0
:1030F30091F0A3740DF090033B748BF0A3740DF067
:1031030090033F74A5F0A3740BF00234CDC082C0CA
:103113008390033D7485F0A3740DF00234CD74F7EE
:1031230012036AEAFEEBFF900373E06408601BE09E
:10313300640460168E828F83E05403640170481226
:10314300368B123D57E06406703D8E828F83A3A3B6
:10315300E064FE7003A3E0F4602D8E828F83A3A34B
:103163001238A1900364E0687003A3E069700BEE6A
:103173002415F582EF125EE46008120E4BE9F508A0
:103183008008120E5180F67508C2EEFAEFFB121496
:10319300D502261474F412036A8A088B098A828B77
:1031A30083E0F8A3E0FAE82AFAE43400FB1214CF30
:1031B3008A0A8B0BAE0AAF0BEE4F606385088285DC
:1031C3000983E0FC7D00790012143F8E828F83A374
:1031D300A3126819120E8D8E828F83A3A3A3A31249
:1031E300381A850882850983E0F8EE28F8EF340061
:1031F3001238A9850882850983A3E0C0E0EE240D77
:10320300125811D0E0F0120E9FEE240E125811E95D
:10321300124EC3E0C0E0EE2411125811D0E0F0EEDC
:10322300FAEFFB023A2074F412036A74EB1208BC3F
:103233008A088B098C0A8D0BE9FE900373E0640402
:103243006005E06408700479C2802EA37808120A2E
:103253003FEE90037A12350B120A3F7405120A7E71
:10326300E9F07404120A7E7401F07407120A7EE412
:10327300F090037374021234687415023A1D74F6E5
:1032830012036A74EB1208BCEAFEEBFF124AE56014
:10329300030233257A077B001214CF9003351238CB
:1032A3001A124AE560788E828F83120A5B90033686
:1032B300123D5A120A671266DDC0E0123331D0E0C4
:1032C300F0EE2405FAEF3400FB8A088B098A82F5B5
:1032D30083E0C0E012332CD0E0123A17E0C0E012D2
:1032E300332CA3D0E012388E120A5B85188285191D
:1032F30083120A6788828983E0C0E07405120A7E1C
:10330300D0E0F0850882850983E0C0E07404120AE6
:103313007ED0E0F07407120A7E12346780067910BB
:103323008002790174150238B3123331A32290035A
:1033330035E0FAA3E0F5838A82A3A3A3A322C08284
:10334300C083124AE5600D9003351253EF900335A5
:10335300E4F0A3F0120DBB120F8F0234CD74F01200
:10336300036A74EB1208BCECFEEDFF8908742512A6
:103373000A7E780C120A217429120A7EE0F9742A53
:10338300120A7EE0FC742B120A7EE0FD740F697052
:1033930005740F6C6012900C92E06402700579C1A1
:1033A300023462E9C39C40F6900374780C120A3F1E
:1033B300E50890037AF0E9900378F0ECA3F0ED9040
:1033C300037BF074FF6A700374FF6B701D900C9E97
:1033D300E0F47003A3E0F4700512144B800C900C1E
:1033E3009E1237E2E8F0A3E98007900371EAF0A3A5
:1033F300EBF0EE4F6017EEFAEFFB12104FE96401AA
:10340300700BEEFCEFFD7A857B03121BE3900364E4
:10341300E4F0A3F0900367F0A3F0900384F0900C22
:1034230092E064027008900378740FF0A3F09003A5
:10343300737405F014120A7EE4F0900374120A5BAD
:10344300851882851983120A6790037AE0C0E074B5
:1034530005120A7ED0E0F07407120A7E12346774F4
:103463001502425EE4123901121C4922C082C08354
:10347300900334E0700312173F120B63804CC08239
:10348300C083900334E0900C457004E4F0802D7405
:1034930001F0900334E0F460237C41E0C394415095
:1034A30002E0FCECF8E0C398F0EC75F0E8A4CCA8DB
:1034B300F075F003A428FD7A801242B47A457B0CA0
:1034C3007941121C318003120B03D083D08202078F
:1034D300DA74F412036A74EB1208BC8A088B098C41
:1034E3000A8D0B900373740112350B120A3F740596
:1034F300120A7EE9F07404120A7E7403F074071250
:103503000A7E12346702327C12389978082274F7E3
:1035130012036A7C01120B7502380A74F212036AF1
:1035230074FC1208BCE9851882851983F0EAFEEB66
:10353300FF8C0A90037112459A120DAF8A088B090A
:10354300EA4509700579CA0236868A828B83A3A36A
:10355300A3A3A3A3A3E064FE7003A3E0F47005791F
:10356300C3023686900371124F62120FF5850882EB
:10357300850983A3A3A3A3A3A3A3A3A3A3E0049065
:1035830003841237E97402120A7E7402F014120AD9
:103593007EAA82AB83120EF98A0C8B0DAE0CAF0D93
:1035A300EE4F700302367D12368B123ED67406F050
:1035B300A3A882A98390035E12542C12422FF0EE2B
:1035C3002413125811740112526E7440F0A3E412C2
:1035D3004EBCA3A31236981238ADEE241112581123
:1035E300E50AF0EEFAEFFB120B39E9FE600302364F
:1035F3007F9003737409F0122EFBAA08FB794B1218
:103603001C318508828509831237DB1238AD90039C
:1036130066E0F8851882851983E068600CE0900302
:10362300661238FD79E1121C31900C7F1238A1909B
:103633000C81E0687003A3E069601A9003371238C5
:10364300AD900C81124F62120EB7900C8112459A05
:103653007A011242B47A007B049003BEE0F912159A
:103663008F900C811236907402780812095EAC08B0
:10367300AD09FA7B041242B680027E1090052CE459
:10368300F0EEF97404024D5AEE12582022E0F508C8
:10369300A3E0F5092212369C22122854A32274F5C2
:1036A30012036A74E21208BC851882851983ECF050
:1036B300A3EDF0EAFEEBFF89087429120A7EE0F518
:1036C30009742C120A7EE0F50A900373E064046027
:1036D30005E06408700579C20237D3742A120A7EA2
:1036E300E064FE7003A3E0F4700579C30237D3905E
:1036F300037374031238FD7950121C31742A120AB1
:103703007EAA82AB83794B121C318518828519837B
:103713001237E21238ADE508900366F0742A120AF4
:103723007E1237DB1238ADE50990035E1237E97478
:10373300CE55094480C0E07412120A7ED0E0F074C2
:1037430001250A900384F0740F120A7E7402F07448
:103753002A120A7E1238A17407120A7EE8F0A3E93E
:103763001238207410120A7E1238AD7405120A7EC4
:10377300E508F0741B120A7EE4F0900379740FF0ED
:103783007A797B037954121C31900378740FF07AA1
:10379300787B037947121C31900378E0C3940F5070
:1037A300237405120A7EE0C0E07402120A7ED0E0A0
:1037B300F07404120A7E7401F004120A7EAA82AB2A
:1037C30083121C557405120A7EAA82AB83121C371E
:1037D300741E1208280224DB12425290036722123D
:1037E300425290037122F0EEFCEFFD7A857B0312C7
:1037F3001BE32274F712036AEB90037BF0120D9D17
:103803008005740D1208287F010205CB123815A319
:10381300E02212388EA322EAF0A3EBF022123894AE
:10382300F8A3E0F92274F712036A74F81208BCEAE9
:10383300FEEBFF7900900373E064087044851882FF
:1038430085198374FDF0A374FFF0120E87740212BE
:103853000A7E12381A7405120A7EE4123815E0C083
:10386300E07404120A7ED0E0123889C0E0740612B4
:103873000A7ED0E0F07407120A7EE41238FD120EBD
:10388300DB740802380712388EE022F08E828F83B1
:1038930022123899E022F085188285198322124278
:1038A3005222E0F8A3E0F912581FE8F0A3E9F0224E
:1038B3001208287F020205CBC082C083900345749F
:1038C30035F0A3740CF09003EB7435F0A3740FF090
:1038D300900349746BF0A3740CF090034B7435F0B0
:1038E300A3740CF090034D7471F0A3740CF00234C4
:1038F300CD7407023A1DE8F0A3E912390122123808
:1039030099AA82AB832274F412036A8A088B098A08
:10391300828B8312582DEE4F7003023A15900312D7
:10392300124AE860158A828B83A3A3E0F9EEFAEFCB
:10393300FB900313123D5A121DEC8E828F83A3A3B7
:10394300A3A3A3A3A3A3A3E0640270748E828F83B3
:10395300A3A3A3A3A3A3E0540270030239E785083A
:1039630082850983A3A3E064E960798E828F83A3B0
:10397300A3A3A3A3A3A3A3A3A3E07014900C95E014
:10398300048E828F83A3A3A3A3A3A3A3A3A3A3F0C0
:103993008E828F83A3A3A3A3A3A3A3A3A3A3E014B0
:1039A300123A17A3A3A37404F0900C96125268E87A
:1039B300F0A3E91263418B0BEA450B7003125D1F01
:1039C3008E828F83A3A3A3A3A3A3A3A3A3E06402D1
:1039D30060128E828F83A3A3A3A3A3A3A3A3A3E0B5
:1039E3006406702E8E828F83A3A3A3A3A3A3E0A256
:1039F300E0501F850882850983A3A3E0F9EEFAEF5F
:103A0300FB121CCD8E828F83A3A3A3A3A3A3E05495
:103A1300FEF08009123C5E22740D1208287F040216
:103A230005CB74EC12036A74DD1208BCEAFEEBFFEB
:103A33008C088D097437120A7E780C120A21750AD4
:103A4300007405120A7EAC82AD83121CAF7412128D
:103A53000A7EE070087415120A7EE0602074051275
:103A63000A7EE0A2E6501E8E828F83A3A3A3A3A3A4
:103A7300A3A3A3A3124F62120F11E96008790312E3
:103A83001BCB023C447405120A7EE0540C640470A0
:103A930005750B018003750B00E0A2E55035750A2F
:103AA30001E50BA2E0402C120E8D8A108B11A81099
:103AB300A91112368BE0687003A3E06960157405E1
:103AC300120A7E126820124F5E121CD9E960047933
:103AD3000480AC7405120A7EE0A2E650227406123A
:103AE3000A7EE0540370187405120A7EE0540C64D5
:103AF3000C600CE0540C64086005751001800375BC
:103B030010007405120A7EE05403F8740268700C06
:103B1300126820124F5E121C9D023C4474016870AF
:103B23003AE510A2E05003123C4C7405120A7EA839
:103B330082A9837403120A7EE8F0A3E91242468540
:103B43001882851983123C56E0C0E07402120A7E83
:103B5300D0E01238FD121DBD023C44E86003023C74
:103B63004490035BE0640170108E828F83A3A3A350
:103B7300A3A3A3E07003023AD27422120A7E740252
:103B8300124246741A120A7E1238ADE510A2E050B2
:103B9300087405120A7E123C4CE50BA2E0506AEE53
:103BA300240FF582EF125EE4C0E07417120A7ED090
:103BB300E0F0900314124AE87003023C44120E8DA5
:103BC3008A128B13A812A913741A120A7EE0687062
:103BD30003A3E069706B780C12080D780A120819B8
:103BE3007808120815A910740C120A7EAC82AD83F2
:103BF3007421120A7EAA82AB83900314123D5712DA
:103C03001DEC74071208288038780C12080D780A06
:103C13001208197808120815900371120685EE240C
:103C230012F582EF125C127423120A7EAC82AD830A
:103C3300740E120A7EAA82AB83121CC17409120885
:103C430028742312082802630C1268201253FD12F1
:103C53001CA922E8F0A3E9123C5E22123C6222F086
:103C63008E828F83A3A3A3A3A3A32274F712036A51
:103C730012165B02380A74F712036A1216670238C7
:103C83000A74F712036A12167302380AC082C083D9
:103C930012166D0234CD74F712036A1216790238C4
:103CA3000A74F712036A7409120A7EE0F5087808A9
:103CB3001208191216857401023807C082C08312D4
:103CC30016910234CDC082C0831216970234CD748C
:103CD300F712036A12169D02380A74F712036AEA8E
:103CE300FEEBFF89087401650870147900120CADAE
:103CF3009022E6E493FC7900EEFAEFFB120C230228
:103D0300380A74F412036A74F91208BCE9FE8A08CB
:103D13008B098C0A8D0B7413120A7E124F62900565
:103D23005C124AE86027EE851882851983F07401D6
:103D3300120A7E7808120A3FEAF8EBF97405120AB0
:103D43007E1238F990055C123D57121DEC0238F4CF
:103D5300FB900347E0F8A3E0F583888222C082C08A
:103D6300831216CD0234CD74F712036A900C48E027
:103D7300F97E00800B125ED0540D64017001190EA0
:103D8300123F645003E970ED02380A74F712036AB4
:103D9300900C49E0F97E00800B125ED0548D648153
:103DA3007001190E123F645003E970ED02380A7472
:103DB300F212036A890BE975F006A4240CF508E5F1
:103DC300F0122F038A0CE508250CFAE5093400FBF1
:103DD3001214CF8A0C8B0DAE0CAF0DEE4F6027ACD7
:103DE30008AD09790012143F12368BE50BF0EE256E
:103DF30008F8EF3509F98E828F83A3A3A3A3A3A3A6
:103E0300A3A3A31238ADEEFAEFFB024D5D74F612D5
:103E1300036AEAFEEBFF120BFF900C47E0F8E9C3DD
:103E2300984009900341124F62120C05EE2402F8E8
:103E3300EF12557290034312542C900343E004F0A5
:103E4300EEFAEFFB120C0B850882850983E0025A18
:103E530028C082C0837900900341800109124F6218
:103E63008A828B83E582458370F20234CD74F71224
:103E7300036AEAFEEBFFEE4F6056900341124AE8F5
:103E8300604E888289837A007B00EE65827003EF3F
:103E93006583600FAA82AB83123ED6E582458360B9
:103EA3002F80E7900341123EE2687002EF698E8231
:103EB3008F8370081238A1900341800312631E128E
:103EC30038ADEEFAEFFB121D8DEEFAEFFB1214D5AF
:103ED30002380A123EDA221242568882898322125B
:103EE3004252EE22C082C0839003418004888289BB
:103EF30083124AE8600B8882898312459AEC4D70DD
:103F0300EC8A828B83E4F0A3F0E849600688828917
:103F130083800390034112381A0234CD74F71203DD
:103F23006A90034180048A828B83123F5F4B602532
:103F33007E0080010E123F6450ECEE75F006A4FC87
:103F4300ADF0EA2CFCEB3DFDEC2410F582ED123FC5
:103F5300B470E180047A007B0002380A125401EA4B
:103F630022123FBDEEC3982274F712036A7D0080CC
:103F7300010D123FB9EDC3985034ED75F006A4FE60
:103F8300A8F0E8FFEA2EFEEB3FFFEE2410F582EFE8
:103F9300123FB470DCED75F006A4FEE8FFEA2EFADA
:103FA300EB3FFBEA2411F582EB125EE44CF002389E
:103FB3000A125EF06922123FBD2212682AEB340016
:103FC300F583E0F82274F612036A120D257A007B5A
:103FD300008025EAF8EBF9E875F006A4F8ACF07573
:103FE300F006E9A42C1253D61266EBA3E41254CCC8
:103FF300F0A31266F11268689022D1122B8240D38B
:104003007A007B00801C8A088B09740378081209E4
:104013005E124E8AA374FEF0A3041252ACA3E41200
:1040230068689022DA12406740DC7A007B00801DCA
:104033008A088B097403780812095E7482125B5C28
:10404300740B1263A374FEF0A3041268689022E059
:1040530012406740DB9022E4E49390034FF0124058
:10406300710238B6E493F8C3EA98EB9400227CE833
:104073007D037A107B009003BEE0F9121589227448
:10408300F012036A74F51208BC8A088B09890A8C3A
:104093000BE9A2E050147508FC7509FFA2E1500575
:1040A300D2E4024144D2E3024144124D497003A3D6
:1040B300E06970057900024211AC0A7902AA08ABE3
:1040C30009120D01E960EDE50AF50C780C120819E7
:1040D30079027CFE7DFFAA08AB09124AC4120828A4
:1040E300E9600302420FE50AC2E5F50A9003B1E075
:1040F3007051E50AA2E6404B7403120A7EAC82AD0E
:1041030083AA08AB09120A91E970321243E58A0CBB
:104113008B0DA80CA90DE8FEE9FFE8496025EE2404
:10412300020A0AEF122892601AEE2402FCEF34000E
:10413300FD7403120A7EAA82AB83121BE3E50AD243
:10414300E5F50A900344E0F50C900364E0F50EA353
:10415300E0F50F780E1208157D017C00900344E012
:10416300F9AA0EAB0F120CB97402120828E9F890E1
:104173000344E004F0E8600302420FE50AA2E550BD
:1041830004740E80027406C0E07401120A7ED0E04B
:1041930012583E8A0E8B0FAE0EAF0FEE4F606912B0
:1041A300422F124246888289837401F07478550A3B
:1041B300A3126830E50C126830A3E508F0E5091294
:1041C300421EE4F0E50AA2E5500F7403120A7EAC26
:1041D30082AD83E824061242158E828F83A3A374D3
:1041E300FDF0A374FFF0E50B60159022E7E493F86C
:1041F300E50BC3985009EE2413125811E50BF0EEAA
:10420300FAEFFB120B3980067910800279C7740B21
:104213008049FAE93400FB121BE32288828983A3D5
:10422300A3A3A312422A221255A5A322EE241712F6
:1042330058227401F0120E87EE241A125822EAF063
:10424300A3EB22F0126824340012425022F58312A9
:10425300425622E0F8A3E0F922740D1208287F08E1
:104263000205CB74F612036A7A007B10125D2C6090
:10427300089003D07401F08029900601E064019056
:104283000C937006E0FC79018004E0FC79037A006A
:104293007B00120C239022CF1242A87A007B1012CB
:1042A30042B60238B61242AC22E493FC740193FD89
:1042B300227B009003BEE0F91215832274EC1203F3
:1042C3006A8A088B098C0C8D0D890E7414120A7E70
:1042D300124CA37416120A7EE0F510A3E0F5111236
:1042E3000F11E960077AFF7BFF0243E2900C92E033
:1042F300640260030243D57900AA08AB09120D07D3
:10430300A90E120CFB8A128B13AE12AF13EE4F7071
:10431300030243BD8E828F83A3A3A3A3A3E06401FF
:104323008E828F83A3A37069124F628E828F83A3C1
:10433300A3A3A3A3A3E0541860439022E5E4938EC0
:10434300828F83A3A3A3A3F0EA650C7003EB650D2F
:104353006014EA650A7003EB650B600AEA65107086
:1043630003EB6511701F7810120815AC0AAD0BAA88
:104373000CAB0D12100D7402120828800890036311
:10438300125D16A3F074FE6A700374FF6B601D80E8
:104393004EA3A3A3E0640360298E828F83A3A3A308
:1043A300A3A3E0640470057AFE0242EA8E828F833F
:1043B300A3A3A3A3A3E0640270089003B0E0640284
:1043C30070101243E58B0BEA450B6006AA08AB0994
:1043D300800DAA08AB09900345123D57121DEC024C
:1043E300630C900371124ACA120FD12274F712039D
:1043F3006AEAFEEBFF120AE5E9700AEEFAEFFB1236
:104403000AF1E96006EEFAEFFB80047AFE7BFF0215
:10441300380A74F012036A8A0A8B0B8C0E8D0F898B
:1044230009750800120F11E97900600302458CAA8F
:104433000AAB0B120D07A909120CFB8A0C8B0DAEEC
:104443000CAF0DEE4F60198E828F83A3A3A3A3A39A
:10445300E0640270559003B0E06402700302458A81
:10446300AA0AAB0B90034B123D57121DEC120AF72D
:104473008A0C8B0DA80CA90DE849700302458A88A4
:10448300828983A3A3A3A3A3E0A2E0400302458AF6
:10449300750C01A2E150687901AC0AAD0BAA0EAB11
:1044A3000F120C53E9706402458A8E828F83A3A393
:1044B300A3A3A3E064037005750C0280528E828F60
:1044C30083A3A3A3A3A3E06401600302458A90032B
:1044D3007112459A8E828F831248EF8A0C8B0DA836
:1044E3000CA90DE84960D19022DEE493FA88828911
:1044F30083E0C39A50C2A3E0600302458A80B9886F
:10450300828983A3A3A3A3A3D2E1F0EE4F603A8EE3
:10451300828F83A3A3A3A3A3A3E05418602B7508DE
:10452300018E828F83A3A3120685750CFE750DFF82
:10453300780C1208157900AC0AAD0BAA0EAB0F125A
:104543000D197404120828803E900364E0650E7010
:1045530004A3E0650F70149022E6E493FCA909AA72
:104563000AAB0B120C23750801801CA90CAC0AAD15
:104573000BAA0EAB0F120C53E9700C750801A909B5
:10458300AA0AAB0B120CADA908024261E50C241573
:10459300F582E50D1258251252822274EA12036A3B
:1045A30074F01208BC8A0C8B0D8C088D09742612CA
:1045B3000A7EE0F514A3E0F5157512069003F112D7
:1045C3004AE8602390037112459AAA08AB09120FB7
:1045D300FB8A108B11EA4511600D8A828B83A3E05D
:1045E300700579000248D7E50C241DF50EE50D345E
:1045F30000F50F850E82124AD4F51388828983A3AE
:10460300A3A3E0FA88828983A3A3A3A3E0F9EA24FE
:1046130000FEE439FFAA08AB09120CB3850E8285AC
:104623000F83124912E029F50BE50AA2E550037541
:10463300120E7487550A70177418550A6418600FA0
:10464300E50C2417F582E50D125EE4651260077927
:1046530001121BCB808C530A78C3EE94F8EF94FFBE
:10466300501D7900EEFAEFFB1248E160128882894F
:1046730083A3A3A3A3A3A3E0541860030245E5788F
:10468300081208157D00124905120828E9F8740379
:104693006870030245E5E860030247507418550A41
:1046A3007003024805E50AD2E0F50AA2E45004D2F9
:1046B300E1F50AA90A124F5B1248E1605388828927
:1046C30083A3A3A3A3A3A3E054186044888289838C
:1046D300A3A3A3A3A3E064017036E51045116030E2
:1046E30090037112459A888289831248EF8A0E8B50
:1046F3000FA80EA90FE849601788828983A3E06099
:104703000F851082851183A3125A3350030245E5A6
:10471300E50AF50E780E1208191248F8120828E96E
:10472300702B7C007D0085148285158374FFF0A3B4
:10473300F0850C82850D83A3A3A3A3A3A3A3A3E066
:10474300600312458FA90B124F5B12168B851482DF
:10475300851583E0F47003A3E0F460399003B0E0BF
:10476300640270030245E5124C94E0FAA3E0123DA3
:1047730053121DECEA65087003EB650960030245FB
:10478300E5EEFAEF123D53121DEC85148285158375
:10479300EAF0A3EBF078081208157D01124905121F
:1047A3000828A90AEEFAEFFB120D078A088B09A85D
:1047B30008A909900364E0687003A3E06960030239
:1047C30048C8EEFAEFFB120AF78A088B09A808A972
:1047D30009E849606E88828983A3A3A3A3E06401E7
:1047E300600D88828983A3A3A3A3E0640270548528
:1047F3001882851983AC82AD83EEFAEFFB120A911E
:10480300805590035DE0600FE50AF50E780E1208FF
:10481300191248F8120828E50AF50E780E1208193D
:1048230079027CFE7DFFEEFAEFFB124AC4120828E0
:10483300E9600302475085148285158374FFF0A352
:10484300024797120E87EAFCEBFD851882851983D0
:10485300AA82AB83121BE3850C82850D83A3A3A3DA
:10486300A3A3A3A3A3E06401700F12458F740812DE
:104873000A7EAA82AB83121BE3124A9E1256AA44F3
:1048830030F50878081208197401120A7E85820827
:104893008583097808120815740B120A7E8582082D
:1048A3008583097808120815E513F50878081208B6
:1048B300197900EEFCEFFD124F5B120C4D740612DA
:1048C30008280245E5124A9E125814124912E50BB4
:1048D300F0120E9F74101208287F0E0205CB120CE3
:1048E300FB8A0E8B0FA80EA90FE84922A3A312542B
:1048F30001120FFB227901AC08AD091253F6124ADB
:10490300C422AC0BA9131253F6120CB9740222126F
:1049130056B2A3A3A3A32274F012036A74F012087D
:10492300BC8A0C8B0DECFAEDFB750F089003F112AA
:104933004AE86014125A2C8A828B83E5824583608D
:1049430007A3E07003024A99124A9E3400124AD424
:10495300F50B88828983124AA7E0FBEC2400FEE46E
:104963003BFF88828983A3A3124AA7A3A3E0FBEC9E
:10497300F508E43BF50988828983A3A3A3A3A3A332
:10498300A3E0F50EE50AA2E45003750F10A2E5506B
:10499300067408250FF50F748F550A700FE50C2464
:1049A30017F582E50D125EE4650F60087901121BAD
:1049B300CB024A99530A707800E50AA2E450221206
:1049C3004A9E125EE42408FCA3E03400FD7408123E
:1049D3000A7EAA82AB83121BE37808E50AC2E4F5D8
:1049E3000AE50AA2E55028124A9E125EE428F8A3BB
:1049F300E03400F9E82408FCE93400FD85188285D9
:104A03001983AA82AB83121BE3E50AC2E5F50AAC5C
:104A13000EA90BEEFAEFFB120CBFE9F87403686002
:104A230075900364E06E7003A3E06F605EE87054FA
:104A3300E50AF50F780F120819124AB5120828E98A
:104A43007054780A1208197401120A7E85820C8543
:104A5300830D780C120815740B120A7E85820C855F
:104A6300830D780C120815E50BF50A780A1208195C
:104A7300A90EAC08AD09EEFAEFFB120C4D74061249
:104A830008288012740468700D80B7780A12081918
:104A9300124AB5120828741002425EE50C241DF573
:104AA30082E50D22A3A3A3E0FC88828983A3A3A3A9
:104AB300A3227901124C9B125825124ACA124AC4E6
:104AC30022120C77740122E0FCA3E0FDAA08AB09D3
:104AD30022F583123EDAA3E0F50A88828983A3A331
:104AE300E02290033512545D2274E812036A74F5D0
:104AF3001208BCEAFEEBFF8C088D0989147423129B
:104B03000A7EE0F50F7424120A7EE0F512A3E0F5A5
:104B1300137426120A7EE0F516A3E0F51774281223
:104B23000A7EE0F50EA90F120CC58A108B117401D1
:104B3300120A7E7408F0E50EA2E450037410F0E547
:104B43000EA2E55004E02408F0851882851983AA93
:104B530082AB83120EF98A0C8B0DEA450D700302AA
:104B63004C7BEA2417F582EB124C8D120E87E50C71
:104B7300241AF582E50D12581412381A7403120A16
:104B83007EAC82AD83AA10AB11120A91E9601D12AB
:104B93004C857403120A7EA882A983E50C2418F5B8
:104BA30082E50D125814E8F0A3E98024E50EA2E48F
:104BB300501FE5106E7003E5116F7015124C85E5FB
:104BC3000C2418F582E50D125814E512F0A3E51331
:104BD300F0124C94124CA3850A82F5837402F0A35D
:104BE300E50E124CABE50FF0EE850A82850B83A32D
:104BF300A3A3F0EF850A82850B83A3A3A3A3124C7F
:104C0300ABA3A3A3E508F0E509850A82850B83A37B
:104C1300A3A3A3A3A3F0AA10AB11120CB3E9251409
:104C2300850A82850B83A3A3A3A3A3A3A3F075087B
:104C330000E50EA2E45011AC12AD13E50A2408FA04
:104C4300E50B124217750808E50EA2E55014AC16E1
:104C5300AD17E50A2508F8E50B3400F9E824081236
:104C63004215850C82850D83A3A3E510F0A3E511FE
:104C7300F0AA0CAB0D120B39740B1208287F10022B
:104C830005CBE50C2416F582E50D1258257401F0C9
:104C930022124C9B12582522E50C12682BE50D229B
:104CA300E0F50AA3E0F50B22F0850A82850B83A3C6
:104CB300A32274F212036A8A088B09ECFEEDFF89C2
:104CC3000A7900124D497003A3E0697004790180E9
:104CD30073750B01900364E065087004A3E0650934
:104CE300601F750B00780B120819A90AEEFCEFFD83
:104CF300AA08AB09120F4D7401120828E9F50B80BD
:104D0300417900EEFAEFFB120CFBEA4B602B8A822F
:104D13008B83A3A3A3A3A3A3E05418601C7508FE6D
:104D23007509FF78081208158A828B83A3A31206DC
:104D33008512664012082880097901EEFAEFFB120A
:104D43000BD5A90B8014120D078A0C8B0DA80CA987
:104D53000D900364E068221208287F060205CB74D5
:104D6300F412036A7508CA7509097A101263488B2D
:104D73000BEA450B700312407190034FE014F0707F
:104D83000C9022E4E49390034FF0120D137E007F06
:104D930000806C850882850983A3A3A3A3E06059DF
:104DA300F46056E5082404F582E509125D107049A4
:104DB300850882850983A3A3A3A3A3E064037019D1
:104DC300790285088285098312459A8508828509B7
:104DD30083A3A3124F62120C53850882850983A310
:104DE300A3A3A3A3E06401601085088285098374EB
:104DF300FEF0A304124EBCE4F01230A9122EFB9075
:104E030022D31264A4408C7E007F008039120E2DC1
:104E13008E088F097403780812095E74422508FC12
:104E2300740B3509FD7A5F7B0C120E1BEA4B70DDA8
:104E33008E088F097403780812095E124E8A12666F
:104E4300EBE4F01230A99022DAE493F8C3EE98EF82
:104E53009400501B8E088F097403780812095E12A0
:104E63004E92E82407F582E9125D1070D680A17E88
:104E7300007F00800A124E9D600214F01230A912C6
:104E830064A140F1023A20124E92888289832274EF
:104E9300422508F8740B3509F922EEF8EFF9E875A5
:104EA300F006A4F8AAF075F006E9A42AF974E2283A
:104EB300F582740A39F583E022124EC3A3A3A32219
:104EC300F0850882850983A3A32274F712036A7409
:104ED300E11208BCECFEEDFF750800EE4F60728A2C
:104EE300828B83E0241C125D41124AE860638A824C
:104EF3008B83124F62851882851983AC82AD83EA56
:104F0300241BF582EB125C12EA241CF582EB124F90
:104F13005E120E6F740B120A7E124F667003A3E0CB
:104F230069702E7402120A7EE064017024741D12EB
:104F33000A7E123D57E064017017741D120A7E1237
:104F43003D59A3A3E0F88E828F83E0687003750850
:104F530001A908741F023807124C9B3400F5831211
:104F6300540122122850E0682274F412036AE97093
:104F7300247900900349123D57121DEC8A0A8B0BCA
:104F8300AE0AAF0B74FE6E700374FF6F701A90223B
:104F9300E1E49360137901900349123D57121DEC2C
:104FA3008A0A8B0BAE0AAF0B120EBD02322274F6C5
:104FB30012036A74F31208BC12144B8A088B09AEED
:104FC30008AF09900364E06E7003A3E06F60E91219
:104FD3000E93EA6E7002EB6F60DEEEFAEFFB120FD8
:104FE30011E970D4EE4F60D0851882851983E4F0FF
:104FF30004120A7EEEF0A3EF125014E970BA74FEA5
:105003006E700374FF6F60B0EEFAEFFB740D02383D
:10501300B3123901120AA922C082C083120EBD0243
:1050230034CD7F0A0205CB74F212036AEAFEEBFF6A
:105033008C0A8D0B8908740E120A7EE0F50974FC44
:105043006E700374FF6F70057900024D5D79001275
:105053000D078A0C8B0DAE0CAF0D900364E06E70E0
:1050630003A3E06F7006E509A2E650DCA909126507
:105073002E706179007AFE7BFF12652E70567418CC
:1050830055097003025161780079008003122A4A9E
:105093009022D3122A414003025161E8FAE9FBEA64
:1050A30075F007A4FAACF075F007EBA42CFB74D0F1
:1050B3002AF58274093BF583E0541870D0E875F043
:1050C30007A4F8AAF075F007E9A42AF974CA28F826
:1050D300740939F988828983A3A3A3A3A3A3E05402
:1050E30018600974185509700302504B888289832C
:1050F300EEF0A3EFF074FE650A700474FF650B60B5
:105103000312528888828983A3A3A3A3A3A3E509D7
:10511300F0A2E0500D88828983A3A3A3A3A3A3D203
:10512300E2F07401650888828983A3A3A3A3A37013
:105133003874011252ACE0541860289022E5E493CD
:1051430088828983A3A3A3A3125276120FFB8B0D2C
:10515300EA450D600302504B7800790080397902EB
:1051630002504D900363E080D7E064017003025066
:105173004B88828983A3A3A3A3A3A3E05418600746
:105183009022E5E4938004900362E012421EE50856
:10519300F002504B122A4A9022DBE493FAC3E89AB6
:1051A300E99400400302504B7A007B00804BEAFCF9
:1051B300EBFDEC75F007A4FCAEF075F007EDA42E43
:1051C300FD74CC2CF58274093DF58312582DE8FC4F
:1051D300E9FDEC75F017A4FC85F00975F017EDA453
:1051E3002509FD745A2CF58274083DF583E06E7031
:1051F30003A3E06F609E122F7E9022D3122F0B40E9
:10520300AD1242A8EC6A7002ED6B7088E875F01776
:10521300A4F8AAF075F017E9A42AF9745A28FE74C1
:105223000839FF7C177D007900EEFAEFFB12143F7B
:105233008E828F8312528E900371125268A3A3A39E
:10524300A3A3A3E8F0A3E912526E7401F0EE240EB7
:105253001258117401125296120219EE240D1258AB
:1052630011E802519312369CA3A322F0EE240F12ED
:10527300582222F012527FAA0AAB0B22900371E04C
:10528300FCA3E0FD2288828983A3A3E50AF0A3E5BA
:105293000BF022F012529B229022DEE4932401F8B9
:1052A300E43400F97A027B002212422AA32274ED2D
:1052B30012036A8A088B09890E1253DF40057905A8
:1052C3000253AD1216D3AA08AB091254B19022D1DE
:1052D3001253B0650A7003E9650B70077AFE7BFF12
:1052E3001254B19022D1E41253B8E50A98E50B9910
:1052F30040030253AB1253BC6012E50A75F006A4D7
:10530300F875F006E50B1254071214D5E50E601874
:10531300E50A75F006A4F8AAF075F006E50B125439
:1053230033701A79010253ADE50A75F006A4F8AAA1
:10533300F075F006E50B125414E4F0A3F0E50A75DA
:10534300F006A4F8AAF075F006E50B1253D4A312E5
:1053530056C088828983A3AA82AB831254228A828D
:105363008B83E0603F1253BC603A8E108F1175122D
:10537300007810120811E50EC333FCE433FDE50A8F
:1053830075F006A4F50AA8F075F006E50BA428F558
:105393000B74E6250AF582740A350B124F60122F3F
:1053A3001C120828790080027907026544122BA396
:1053B300E8229022C9125ECB22E50A75F006A4F812
:1053C300AAF075F006E50B12540FF8A3E0F9E849CB
:1053D30022A42A12556888828983A322ECFEEDFF5A
:1053E3009022DCE493F8E9C39822F5831254011266
:1053F30014D522E50C12682BE50D3400F583E0FA91
:10540300A3E0FB2212540FFAA3E0FB22125414E090
:1054130022A42AF974E628F582740A39F58322E571
:105423000EF0900C9412542C22E088828983F0228F
:1054330012558CF50CE93400F50DE50EC333FAE48F
:1054430033FB1214CF850C82850D83EAF0A3EBF0B6
:10545300850C82850D8312545D22124256E849223F
:1054630074F412036AECFEEDFF740C120A7E123818
:10547300A1880889091254B1AC0AAD0BECF8EDF917
:105483009022D11254B95021E875F006A4F8AAF07D
:1054930075F006E91253D4E08E828F831254CC1236
:1054A30054C21238AD790080027904023A20120CFA
:1054B300898A0A8B0B22122F14C3EC9AED9B2212BA
:1054C3004252850882850983221255A12274F6125D
:1054D300036A7E007F008028EEF8EFF9E875F00696
:1054E300A4F8ACF075F006E9A42CF974E428F5826D
:1054F300740A12614F6A7003A3E06B60571230A9FC
:105503001264A140D312649C7002E96F704674FE6A
:105513006A700374FF6B703C7E007F00800312305F
:10552300A91264A1502E124E9D70F3EEF8EFF9E824
:1055330075F006A4F812555E125593601712557A4A
:10554300F8E912557288821253ED85088285098322
:10555300E4F0A3F0EEFAEFFB0238B675F006E912B9
:10556300556622A42AF974E228F8740A39F9223418
:1055730000F98808890922EEF8EFF9E875F006A426
:10558300F875F006E912558C22125566E8240422B8
:10559300A3A374FE12559E12545D22F0A304125568
:1055A300A522F088828983A3A3A3A32274F61203FE
:1055B3006AEA241DF582EB1256AAF9604BEA241D10
:1055C300F582EB125EE42402FCA3E03400FD1253E7
:1055D300E3400302569D780080298C828D83E0F599
:1055E30008A3E0FFE5082400E43FF509E833FEE4FF
:1055F30033FF742A2EF582740B3FF5831256C012C3
:1056030056A008E8C39940D28A828B83A3A3A3A39D
:10561300A3A3A3A3A312459A900364E06C7003A30E
:10562300E06D700F7C2A7D0B1227B9124F5E120CAE
:105633007D8067EA2411F582EB125EE4605CFC7402
:10564300FF2CF0750801780812081975082A7509E6
:105653000B7808120815E9F5087808120819EA24E6
:1056630012F582EB125EE4F5087808120819EA24B1
:1056730015F582EB125814120685ECF91227B912AC
:1056830045978A828B83A3A3A3A3A3A3A3A3A31254
:105693004F62120C9574071208280238B6EC2402E4
:1056A3000C0CED3400FD221258251256B2E022E014
:1056B300F8A3E0F5838882A32288828983E508F032
:1056C300A3E509F02274EA12036A74FD1208BC8A86
:1056D300148B158C0E8D0F890D7419120A7E1258B6
:1056E3002D741B120A7EE0F511741C120A7EE0F57C
:1056F3000C741D120A7E124CA3741F120A7EE0F56D
:10570300106008E50CC333240480027402C0E07403
:1057130001120A7ED0E012583E8A088B09EA450935
:1057230070030258098A828B83A3A3E514F0A3E5CF
:1057330015126337E50EF0A3E50FF0EA2413F582A3
:10574300EB125814E50DF0EA2414F582EB12581409
:10575300E511F0EA2417F582EB125EE46401704070
:10576300120E8D8A0E8B0FA80EA90F85088285094C
:1057730083A3A3A3A3E0687003A3E0696022EE4FB1
:105783006011E508241AF582E509125814EEF0A316
:10579300EF800CE5082417F582E509125814E4F0AC
:1057A30012581812582D8E828F837405F0A3E510BA
:1057B3007004E50C80487401250C1258377A008078
:1057C30028850A82850B83E0125833850A82850B6C
:1057D30083A3E08E828F83F0E50A2402F50AE50BAA
:1057E3003400F50BA30EAF830AEAC3950C40D21223
:1057F3000E8DEA125833120E8DEB8E828F83F0AA30
:1058030008AB09120B3974030248D9EE240CF58254
:10581300EF125825221227CA12582522EE240BF51F
:1058230082EF3400F58322900330E0FEA3E0FF22F1
:105833008E828F83F0A3AE82AF8322123901120EC0
:10584300F922C082C083E9C333FCE433FDEA2CFAB6
:10585300EB3DFBEA24FEF582EB34FF124F6002348A
:10586300CD74F212036A89098A0A1253DF4004795C
:1058730000804075080080020508E508C3950950BB
:105883002AE508C333F8E433F9EE28F582EF39F556
:1058930083C082C083120E8D8A0C8B0DD083D0827D
:1058A300E0650C7004A3E0650D70CDE50A65087032
:1058B300BE7901024D5D74F012036A74F31208BCE1
:1058C3008A088B098C0A8D0B890C750D00120F1138
:1058D300E9790060030259BBAA08AB09120D07A9B5
:1058E3000C120CFB8A0E8B0FAE0EAF0FEE4F700334
:1058F3000259B98E828F83A3A3A3A3A3A3E0A2E239
:1059030040030259B9120E8DEA650A7003EB650B69
:105913007011780D120819E4F50EF50F780E1208C0
:10592300158044AA0AAB0B120AEBE964017068857F
:1059330018828519837404F07401120A7E12528E40
:10594300851882851983AA82AB83120AA9E96401A7
:105953007045750D01780D120819E4F50EF50F78F1
:105963000E120815750D00780D120819780D12081E
:10597300197408120A7E85820E85830F780E120829
:10598300159022E7E493F9AC0AAD0BAA08AB091210
:105993000C9574071208288E828F83A3A3A3A3A355
:1059A300A3E0A2E1400D8E828F83A3A3A3A3A3A3AD
:1059B300C2E2F0750D01A90D02425C74F612036A8E
:1059C300E9FE7900120D07EEF9120CFB8A088B0928
:1059D300A808A909E8496006126872F980027904E7
:1059E3000238B674F612036A7E07900358E07034E7
:1059F300125A2C8A088B09A808A909E8496025903E
:105A0300035DE0640188828983A3A3700B125A3378
:105A1300888289835001A3A3E0F9121019E9FEEEED
:105A230070027E07EEF90238B612527F120FFB2284
:105A3300E0FA88828983A3E0C39A2274EE12036A90
:105A4300EAFEEBFF890A8C0C8D0B7412120A7E128C
:105A53003690125B081253E65051890E750F00748D
:105A630003780E12095E7448250EF582740B350F08
:105A7300F583E0F8E50CC398502DE50B6024751110
:105A8300007403781012095E74422510F8740B3504
:105A930011F988828983A3A3A3A3A3A3E50C125BB3
:105AA30012F07900025025790380F979007AFE7BA0
:105AB300FF125B08E49365107004790280E6E50B3E
:105AC30060E0890E750F007403780E12095E74424C
:105AD300250EF8740B350FF988828983A3EEF0A3A2
:105AE300EF125B121252ACE50C12422674FF1266DF
:105AF300F1E50AF0900362E088828983A3A3A3A35C
:105B0300A3A3A3809C120CF5E9F5109022DA2212CC
:105B13006834A3E508F0A3E5092274F612036AECDE
:105B2300FF120CF59022DA1253E650278908750903
:105B3300007403780812095E7447125B5C740B12DD
