:020000040000FA
:06000000020A110201BD1D
:03002B0002085C6C
:0300330002066A58
:030053000200EEBA
:03006B000206503A
:10008300020152010101010503010F10FEFF8F124E
:100093008F128F128F1245113F118F12B61F00005E
:1000A30000001820000000000C0000000C0001FFFD
:1000B300FF01010038050000009305E803640064B4
:1000C30000B80102020008000005020701051E0234
:1000D300051E020A0A03B80B02803E010201F1FF6A
:1000E3000A1401E096511800020206C0E074F212ED
:1000F30003D6A2AFE433FED2AFE5A7FFE5A1F5082F
:100103005F5410600612199D75A1EFE5085F54084E
:1001130060081219A375A1F7802BEFA2E0C0D0E508
:1001230008A2E092F012094B158182F050179061FA
:1001330098E0F8900666E0C398A2D265D0335002E7
:10014300E8F075A1FEEEA2E092AF7F01020435C094
:10015300E074F21203D6A2AFE433FED2AF9061A4EF
:10016300E0F8759B00E59158540860087591F71203
:1001730019EB802AE59158541060087591EF121914
:10018300F1801BE8A2E0C0D0E591A2E092F0120951
:100193004B158182F05007E0C2E0F0121B359061ED
:1001A300A3E0F8E5E9585404600E121B0B75E9FB54
:1001B300906193E0A2E640F2808BC0E074F21203F8
:1001C300D6A2AFE433FED2AF9061A5E0F8E5BF5805
:1001D3005404600675BFFB121B4D020148C3E4982B
:1001E300F8E499F91202218026C3E49AFAE49BFB0E
:1001F300E920E7E9120221E498F8E499F922C3E43B
:1002030098F8E499F9120221E498F8E499F9C3E41F
:100213009AFAE49BFB22EB20E7CFE920E7E0B90061
:1002230010BB0008E88AF084F8AAF022E4FBC8FABD
:1002330022EB70227B10C833C8C933C9335007C3BC
:100243009AC3DBF280069A50012ADBEAC833F4C86A
:10025300C933F4C9FA2275F008E4C833C8C933C9ED
:1002630033C99AC99B5004C92AC93BD5F0ECFBC8D2
:1002730033F4C8E4C9FA22080808EAC0E0EBC0E096
:1002830086F0E7A4FA180986F0E7A42AFA18098683
:10029300F0E7A42AFA180986F0E7A42AFA1986F0E7
:1002A300E7A4FBE5F02AFA190886F0E7A42BFBE59F
:1002B300F03AFA190886F0E7A42BFBE5F03AFA18AE
:1002C300180986F0E7A4C5F02BFBE43AFA1908E70E
:1002D300C5F0C6A426F6E5F03BFBE43AFA1886F02F
:1002E300E7A4F6E5F00826F6E43B08F6E43A08F658
:1002F300D0E0FBD0E0FA22E4CFC0E0E4CEC0E0E4FB
:10030300CDC0E0E4CCC0E075F020C3E633F608E6E8
:1003130033F608E633F608E633F6181818EC33FC20
:10032300ED33FDEE33FEEF33FFC3EC9709ED970991
:10033300EE9709EF97191919400FFFEC97FC09ED98
:1003430097FD09EE97FE191906D5F0BEECF709EDF6
:10035300F709EEF709EFF7191919D0E0FCD0E0FD22
:10036300D0E0FED0E0FF222518C582C0E0E51934B5
:10037300FFC583C0E0E518C3958224F810AF088554
:1003830083198582188008858319858218D2AFCE98
:10039300F0A3E520F0A37808E608F0A3DEFAEFF077
:1003A300A3E58124FAF8E608F0A3E608F0A3E6083B
:1003B300F0A30808E608F0A3E608F0A31581158169
:1003C300D0E0FED0E0F8158115811581E8C0E0EE9C
:1003D300C0E022C0D02518C582C0E0E51934FFC5AE
:1003E30083C0E0E518C3958224F310AF0885831911
:1003F3008582188008858319858218D2AFC8F0A337
:10040300E9F0A3EAF0A3EBF0A37908E709F0A3D896
:10041300FAECF0A3EDF0A3EEF0A3EFF0A3D0E0F03D
:10042300A3D0E0F0A3D0E0F0A3E520F0A3E5F0F043
:10043300A322851983851882E0C0E0A3E0F9A3E035
:10044300FAA3E0FBA37808E0F608A3DFFAE0FCA335
:10045300E0FDA3E0FEA3E0FFA3E0C0E0A3E0C0E073
:10046300A3E0F5D0A3E0F520A3E0A3F5F010AF08D7
:100473008583198582188008858319858218D2AFF0
:10048300D082D083D0E0F8D0E032120A73B90003EF
:100493000204CFE49003017838790A8002F0A3D8EC
:1004A300FCD9FA900C38AA82AB83900086786979DC
:1004B300018015E493A3AC82AD838A828B83F0A37E
:1004C300AA82AB838C828D83D8E9D9E775820675BE
:1004D30083D574031207D475821D75831E740012AD
:1004E30007D40E000975F0108E1A8F1B85821F85A5
:1004F300831E851882851983E0CEA3E0CF851F82F2
:10050300851E83EBC9EAC8EDCBECCAC3E833C8E95F
:1005130033C9EA33CAEB33CBC3EA9EF51DEB9FF530
:100523001CB35004AB1CAA1DEC33CCED33CDD5F07A
:10053300DAAE1AAF1B22D083D082ECC0E0EDC0E06C
:10054300E493A3FCE493A3FDED4C600D120611ECC0
:1005530024FFFCED34FFFD80EFE493A3FCE493A3BD
:10056300FDED4C600D1206DFEC24FFFCED34FFFDC6
:1005730080EFD0E0FDD0E0FCE493A3C0E0E493C0BF
:10058300E022D083D082E9C0E0E493A3C386F0C520
:10059300F095F0F908E493A386F0C5F095F0700B9D
:1005A300E493A3C3994005E9048002A3E475F00230
:1005B300A42582F582E5F03583F583D0E0F9E49351
:1005C300A3C0E0E493C0E022851983851882E0A3E9
:1005D300FEE0A3F5207808E0A3F608DFFAE0A3FF26
:1005E300E0A3C0E0E0A3C0E0E0A3C0E0E0A3C0E07C
:1005F300E0A3C0E010AF08858218858319800885C1
:100603008218858319D2AFD083D0820207DAC0E083
:10061300C3E49396087401939618400FE4936670AD
:100623000808740193661870007019A3A3C3E493B8
:1006330096087401939618A3A3400DD0E0D0E0D0A0
:10064300E0020575A3A3A3A3A3A3D0E022C0E07493
:10065300F21203D6E589A2E150031218D17589007D
:10066300C2C57F01020435C0E074F21203D6E58BE4
:10067300A2E050031218D1758B00C2E880E4740421
:10068300800474028000CCC0E0EDC0E0E518C39C98
:10069300CCAD1950011D10AF068C188D1980068C36
:1006A300188D19D2AF120756D0E0FDD0E0FC2274AA
:1006B300028000CCC0E0EDC0E0E518C39CCCAD19CE
:1006C30050011D10AF068C188D1980068C188D19DA
:1006D300D2AF120734D0E0FDD0E0FC22C0E0C0F07E
:1006E30088F0E4936670080874019366187000A894
:1006F300F0A3A3700BD0F0D0E0D0E0D0E0020575FA
:10070300A3A3D0F0D0E022D083D082CCC0E0E49386
:10071300A360061207B51470FAE493A360061208E7
:10072300A61470FAD0E0FCE493A3C0E0E493C0E025
:1007330022CAC0E0E493A3C582CCC582C583CDC5DC
:1007430083F0A3C582CCC582C583CDC583DAE5D04A
:10075300E0CA22CAC0E0E0A3C582CCC582C583CD6E
:10076300C583F0A3C582CCC582C583CDC583DAE634
:10077300D0E0CA22C008C3E096F50808A3E0964279
:100783000808A3E096420808A3E09645087001D341
:10079300D008227009080808226016181818C6C362
:1007A30033C608C633C608C633C608C633C6D5E043
:1007B300EA22C0E0E493A3D39C5010E493A3C39C28
:1007C300400AD0E0D0E0D0E0020727A3A3A3D0E003
:1007D30022C09FF59FE473D09F22D083D082C09F15
:1007E300E493C0E0740193C0E0740293F59F222563
:1007F30018F58210AF08F518400215198008F5188E
:1008030040021519D2AF851983227404800A740338
:100813008006740280027401C0E0F4041207F2D06F
:10082300E0120A4E22C0D0251810AF08F518500266
:1008330005198008F51850020519D2AFD0D022BB94
:100843000102E722C082C08389828A83BB0003E05E
:100853008002E493D083D08222C0E0C0D0E8C0E01D
:10086300E5A8D2AFC2C7A2E792AFD0E0F8D0D0D00C
:10087300E0326016080808C6C313C618C613C618A4
:10088300C613C618C613C6D5E0EA22C3E0C696F659
:1008930008A3E0C696F608A3E0C696F608A3E0C64A
:1008A30096F622C0E0E493A36C7009D0E0D0E0D0C8
:1008B300E0020727A3A3D0E022251810AF08F518FC
:1008C300400215198008F51840021519D2AF22E726
:1008D3006670100809E766700A0809E7667004087D
:1008E30009E76622C3E09608A3E09608A3E096080A
:1008F300A3E096A2D265D03322E066701008A3E08D
:1009030066700A08A3E066700408A3E06622C3E0E9
:1009130096F008A3E096F008A3E096F008A3E0960B
:10092300F022E026F608A3E036F608A3E036F60840
:10093300A3E036F622E627F60809E637F60809E6C5
:1009430037F60809E637F622C0E0E8C0E0E581247F
:10095300FCF8E6A2E7D0E0F8D0E022700422600DB4
:1009630018C6C333C608C633C6D5E0F41822E65703
:10097300F60809E657F60809E657F60809E657F6B2
:1009830022E056F608A3E056F608A3E056F608A3BD
:10099300E056F622E056F008A3E056F008A3E0562E
:1009A300F008A3E056F022E647F60809E647F60802
:1009B30009E647F60809E647F622E026F008A3E031
:1009C30036F008A3E036F008A3E036F022E4C3963D
:1009D300F608E496F608E496F608E496F622C6F4DA
:1009E300C608C6F4C608C6F4C608C6F4C622C3E7DA
:1009F300960809E7960809E7960809E79622C3E0EF
:100A03009608A3E09608A3E09608A3E0962275D083
:100A1300007581407518017519030002048DE0F615
:100A230008A3E0F608A3E0F608A3E0F622600C08AA
:100A3300C6C313C618C613C6D5E0F422E6F008A34E
:100A4300E6F008A3E6F008A3E6F022CAC0E0E6F069
:100A5300A308DAFAD0E0FA22E0FAA3E0FBA3E0FC71
:100A6300A3E0FD22EAF0A3EBF0A3ECF0A3EDF02268
:100A7300E5C754F84401F5C77901222518F582E446
:100A83003519F58322C2AF75D69F020000221207E3
:100A9300DDA925001207DDE425001207DD28260065
:100AA3001207DD4F26001207DDA026001207DD50D6
:100AB30027001207DD0828001207DDD028001207DF
:100AC300DD9029001207DDD429001207DDF9290082
:100AD3001207DD3C2A001207DD892A001207DDE137
:100AE3002B001207DD672C001207DD852C0012078F
:100AF300DDAF2C001207DDC92C001207DDD82C0056
:100B03001207DDE32C001207DDA32D001207DDFC25
:100B13002D001207DDBE2E001207DDC62E001207C0
:100B2300DD8A2F001207DDF62F001207DD213100C9
:100B33001207DD4631001207DD5731001207DDCD04
:100B430031001207DD5F32001207DDB732001207F2
:100B5300DD7733001207DD9633001207DDA534007D
:100B63001207DDB734001207DD0A35001207DD472F
:100B730035001207DD5435001207DDD736001207A2
:100B8300DD2C38001207DD5E38001207DDF1380076
:100B93001207DD3F39001207DD5B3A001207DDA4BF
:100BA3003C001207DDAF3C001207DDBA3C00120720
:100BB300DDC53C001207DDCF3C001207DDDA3C0047
:100BC3001207DDF43C001207DDFE3C001207DD08CE
:100BD3003D001207DD133D001207DD3B3D00120708
:100BE300DD963D001207DDA03D001207DDC43D0088
:100BF3001207DDE83D001207DD463E001207DD8ADD
:100C03003E001207DDA63E001207DD1D3F0012075E
:100C1300DD553F001207DDA13F001207DDFE3F0057
:100C23001207DDB840001207DD9C42001207DDF514
:100C330042001207DD2544001207DD4B4400120772
:100C4300DDD445001207DD5049001207DD224B00B9
:100C53001207DDEB4C001207DD984D001207DD0390
:100C63004F001207DDA24F001207DDE74F00120706
:100C7300DD5150001207DD6050001207DDE752001E
:100C83001207DD9954001207DD0655001207DDE552
:100C930055001207DDFE56001207DD7B58001207D0
:100CA300DD9A58001207DDEF58001207DDF45900F2
:100CB3001207DD1C5A001207DD745A001207DD53B8
:100CC3005B001207DD975B001207DDE25B00120792
:100CD300DD4D5C001207DD8E5D001207DDF25D0065
:100CE3001207DD405F001207DDA061001207DDD1AE
:100CF30061001207DD8963001207DDDE630012075E
:100D0300DDE264001207DD7F65001207DDD86500B0
:100D13001207DD8B66001207DD2D67001207DDCD9C
:100D230067001207DD7268001207DD8F800112076A
:100D3300DDCE80011207DD1583011207DD5F83011C
:100D43001207DD7A84011207DDEA84011207DD1F31
:100D530085011207DD9386011207DD16890112074B
:100D6300DD3F8A011207DDD58A011207DDDD93011C
:100D73001207DD7294011207DD5997011207DD4C4A
:100D830098011207DDAD98011207DDC99901120719
:100D9300DD0F9B011207DDF19B011207DDD69D01DB
:100DA3001207DDE79F011207DD51A0011207DD23C2
:100DB300A1011207DDDAA1011207DDE4A101120787
:100DC300DD12A2011207DDCFA2011207DDA6A301E6
:100DD3001207DD6DA4011207DD1FA5011207DD480F
:100DE300A5011207DD6AA5011207DDC0A7011207DD
:100DF300DD98A8011207DDDCA8011207DD44A90173
:100E03001207DDFCA9011207DD2EAA011207DD720C
:100E1300AA011207DDA8AA011207DDF4AA0112072D
:100E2300DD49AB011207DD4EAB011207DDA1AB01BA
:100E33001207DDC6AB011207DDD5AC011207DD39A0
:100E4300AD011207DDA9AD011207DD35AE011207B1
:100E5300DD02B1011207DDE6B1011207DD69B3015D
:100E63001207DD9FB5011207DD4DB6011207DDFD47
:100E7300B6011207DD3EB9011207DDE1B901120720
:100E8300DD28BA011207DDD4BB011207DDE8BB017F
:100E93001207DDF2BB011207DD1ABC011207DD26C2
:100EA300BC011207DD45BC011207DD2CBE01120790
:100EB300DD63BE011207DD6DBE011207DDA3BE01B6
:100EC3001207DDF2BF011207DD36C0011207DDDEB6
:100ED300C0011207DDC1C1011207DD6CC201120797
:100EE300DDB8C3011207DDB6C4011207DD5CC5011D
:100EF3001207DDECC5011207DD03C6011207DD3A57
:100F0300C6011207DD44C6011207DD4FC6011207F1
:100F1300DD6DC6011207DDB1C6011207DD0EC70183
:100F23001207DD33C7011207DD4DC7011207DDD9F3
:100F3300C7011207DDF6C8011207DD63C9011207F5
:100F4300DD4ACA011207DD71CA011207DDE5CA01D4
:100F53001207DD60CB011207DD64CC011207DD5AF5
:100F6300CD011207DD09CE011207DD1CCF011207E7
:100F7300DDB8CF011207DD45D0011207DD23D10112
:100F83001207DD5BD1011207DDB3D1011207DD7C4E
:100F9300D2011207DD9DD2011207DD24D30112070E
:100FA300DD48D3011207DD6AD3011207DDB3D30194
:100FB3001207DDC9D5011207DDB0D6011207DD61C5
:100FC300D7011207DD97D9011207DDE7D90112070F
:100FD300DD27DA011207DD69DA011207DDC5DA015F
:100FE3001207DDF3DA011207DD17DB011207DD6AF1
:100FF300DB011207DD98DB011207DDD1DB011207EC
:10100300DD26DC011207DD8CDC011207DDE0DD01EA
:101013001207DD03E0011207DD70E0011207DD991D
:10102300E0011207DD24E1011207DD8BE101120764
:10103300DDD6E1011207DDFAE1011207DD1EE2014F
:101043001207DD79E2011207DD94E2011207DD4D9B
:10105300E3011207DDB7E2031207DDF6E20312072D
:10106300DD7880021207DDBE80021207DD9E810259
:101073001207DDA082021207DDA383021207DD2F10
:1010830085021207DD8D85021207DD4A86021207EB
:10109300DD6887021207DDD987021207DD15880292
:1010A3001207DD6388021207DD6D88021207DDB1C6
:1010B30088021207DD0D89021207DDA889021207D3
:1010C300DD258A021207DDF48A021207DD8D8B0209
:1010D3001207DDAD8B021207DDE38B021207DD146D
:1010E3008C021207DDD58C021207DDE58C02120794
:1010F300DD398D021207DD548D021207DD668D0284
:101103001207DD6F8D021207DDC98D021207DD257F
:101113008E021207DD718E021207DD8C8E0212071A
:10112300DDBD8E021207DDDA8E021207DDE68E02C6
:101133001207DD5A90021207DD7390021207DDDAFF
:1011430090021207DDED90021207DDFB90021207F9
:10115300DDAF91021207DD9392021207DD9993022C
:101163001207DD2394021207DD2D94021207DD9A84
:1011730094021207DDB194021207DDE39402120711
:10118300DD1C95021207DD4695021207DDA79502C5
:101193001207DDC795021207DDE595021207DD2B65
:1011A30096021207DD5197021207DD9E970212077E
:1011B300DDCD97021207DD4398021207DD6B98021B
:1011C3001207DDA498021207DDB298021207DD0AA6
:1011D30099021207DD5999021207DD989902120745
:1011E300DDC899021207DDF499021207DDFF9902A7
:1011F3001207DD1D9A021207DDDF9A021207DDE9ED
:101203009A021207DD249B021207DD3A9B021207A2
:10121300DD8F9B021207DDA39B021207DDB19C0247
:101223001207DDC49C021207DDD99C021207DD7B85
:101233009D021207DDFE9D021207DDBC9E0212070E
:10124300DDC79E021207DDF39F021207DD0FA00226
:101253001207DD61A0021207DDA0A0021207DDB5AF
:10126300A0021207DD17A1021207DDA6A1021207D1
:10127300DDF1A1021207DD42A4021207DDC0A402C0
:101283001207DD35A5021207DD57A7021207DD6F2E
:10129300A7021207DD72A7021207DD7EA70212075B
:1012A300DD92A7021207DD9AA7021207DDCDA7027E
:1012B3001207DD7DA8021207DDF3A8021207DD661F
:1012C300A9021207DD1AAA021207DDCFAA0212072A
:1012D300DDEEAA021207DD8EAB021207DD9AAB0226
:1012E3001207DDC5AB021207DDC8AB021207DD3200
:1012F300AC021207DD5AAD021207DD32AE0212074D
:10130300DDBDAE021207DDD6AF021207DD93B002D8
:101313001207DDCCB0021207DDFDB0021207DDBB00
:10132300B1021207DDEBB1021207DDC6B2021207EA
:10133300DD5FB3021207DDEAB3021207DD9BB402DD
:101343001207DD1EB5021207DD50B5021207DD914B
:10135300B5021207DDC58B031207DD2A8C031207C2
:10136300DD678C031207DDB68C031207DDCC8E0319
:101373001207DDAF90031207DD1994031207DD5442
:1013830094031207DD7694031207DDD99403120741
:10139300DD0D95031207DD3595031207DD5895031F
:1013A3001207DD8595031207DD7DD7021207DD7E67
:1013B30080031207DDB480031207DD2081031207C7
:1013C300DD9382031207DDAF82031207DDF482038C
:1013D3001207DD8283031207DDDB83031207DD08B7
:1013E30085031207DD1A86031207DD7786031207CA
:1013F300DDE386031207DD4487031207DD858703D8
:101403001207DD8325001207DD4489031207DD6F10
:1014130089031207DDBA89031207DD018A03120764
:10142300DD938A031207DD4E8B031207DD229F0330
:101433001207DD2C9F031207DD789F031207DDE6F9
:101443009F031207DD07A0031207DDB7A0031207EE
:10145300DDC0A0031207DD13A1031207DD3CA103C6
:101463001207DDA3A1031207DD34A2031207DD7601
:10147300A2031207DDC0A2031207DD1FA303120795
:10148300DD4BA3031207DDDCA3031207DD1BA4035B
:101493001207DD5AA4031207DD8FA4031207DDA18F
:1014A300A4031207DDB3A4031207DDD2A4031207BA
:1014B300DDDBA4031207DDA3A5031207DDB8E003F8
:1014C3001207DDD4D2031207DD0AD3031207DD535B
:1014D300D3031207DDA3D4031207DDBE680012078E
:1014E300DDFD69001207DD396A001207DDF86B00C4
:1014F3001207DD216C001207DDB46E001207DDF860
:101503006E001207DD8170001207DD1971001207EA
:10151300DD8171001207DD2272001207DD647200A3
:101523001207DDA472001207DD2F74001207DD9F7E
:1015330075001207DDC477001207DDF2770012078A
:10154300DD1978001207DD2278001207DD7D7800AF
:101553001207DD1079001207DD2E7C001207DDFA79
:10156300E3031207DD10E4031207DDACCA0312071D
:10157300DDBFCA031207DD5CCB031207DD97CB0384
:101583001207DDB2CB031207DDD7CB031207DD1C35
:10159300CC031207DD4DCC031207DD7ECC0312070B
:1015A300DD04CE031207DD497F001207DD7F7F00D4
:1015B3001207DD9B7F001207DDDD7F001207DDEDE3
:1015C3007F001207DD08B4031207DD4FB4031207CF
:1015D300DD9DB4031207DD7DB5031207DDD0B5032E
:1015E3001207DD19B7031207DD6DB7031207DD5CC0
:1015F300B8031207DD78B8031207DD7BB8031207BF
:10160300DD96B8031207DD99B8031207DD9CB80312
:101613001207DD9FB8031207DDB9D7021207DD0EEB
:10162300D8021207DD02D9021207DD9BD902120785
:10163300DDE5D9021207DD47DA021207DD5BDA02C4
:101643001207DD3DDC021207DD44DD021207DD7FF8
:10165300DD021207DD7FDF021207DD9ADF021207C8
:10166300DDE9DF021207DDFFDF021207DD0CE00216
:101673001207DD40E0021207DD59E0021207DD0325
:10168300E1021207DD5DE1021207DDABE1021207A1
:10169300DDD0E2021207DDF2E2021207DD7AE50293
:1016A3001207DDAFE5021207DD35E6021207DDAAF8
:1016B300E6021207DDAFE6021207DDEBE6021207D0
:1016C300DD4AE7021207DD1CE8021207DD50E802DB
:1016D3001207DD5AE8021207DD5DE8021207DDDAC0
:1016E300E8021207DDF5E8021207DD21E90212071D
:1016F300DD5CE9021207DD5FE9021207DD6AE90238
:101703001207DDA6E9021207DDC6DF031207DDD7E4
:10171300DF031207DD5FE0031207DD87E301120732
:10172300DDB5E3011207DD00E5011207DD7EE5010A
:101733001207DDFAE5011207DD63E6011207DDA6F4
:10174300E6011207DD2FE7011207DDD5E7011207D6
:10175300DD65E8011207DDA7E8011207DDF0EC0102
:101763001207DD70EE011207DD46EF011207DD758A
:10177300EF011207DDA7F1011207DD27F4011207BC
:10178300DDE0F4011207DDFDF5011207DD54F90177
:101793001207DD64F9011207DDD1FA011207DD5DDD
:1017A300FB011207DD65FC011207DDAFFD01120726
:1017B300DDDFE9021207DD99EA021207DD0BEB0216
:1017C3001207DD85EB021207DDE2EB021207DDE90A
:1017D300EC021207DD59ED021207DD3DF00212079C
:1017E300DD14F1021207DD81F1021207DDFEF202C0
:1017F3001207DDC8F3021207DD3EF4021207DDFD16
:10180300F5021207DD96F6021207DD5CF7021207F6
:10181300DD7DBC031207DDD1BC031207DD29BD0347
:101823001207DD74BD031207DDD6BD031207DD42C7
:10183300BE031207DDF5BE031207DD36BF03120731
:10184300DD52BF031207DDAEBF031207DDECBF039A
:101853001207DD11D7031207DD42D7031207DDFCA0
:10186300D7031207DD62D8031207DD85D5031207FC
:10187300DDADE3031207DDBEE3031207DD41FE0125
:101883001207DD4FFE011207DD38E4031207DD2BDB
:10189300E2031207DD3BE2031207DD53E203120703
:1018A300DDB4E2031207DDC4DE031207DD49DF0303
:1018B3001207DDADDF031207DDB2DD031207DDD44E
:1018C300DD031207DD3EDE031207DD49DE031207E7
:1018D300DD8DDE031207DDA7C3031207DDBDC303DE
:1018E3001207DDE6C3031207DD01C4031207DD1C83
:1018F300C4031207DD26C4031207DD30C403120735
:10190300DD43C4031207DD5CC4031207DD03C50313
:101913001207DD82C5031207DD1DC0031207DD2B8D
:10192300C0031207DDA5C0031207DD89C103120737
:10193300DD42C3031207DDD8E3031207DD97AA03D1
:101943001207DDECAA031207DDE8AC031207DD1A68
:10195300AD031207DD3CAD031207DD55AD031207DE
:10196300DD6EAD031207DD78AE031207DD13AF039F
:101973001207DDEBD8031207DD0FD9031207DD28A9
:10198300D9031207DD5BD9031207DD8CD9031207D4
:10199300DDBAD9031207DD1CDA031207DD2BDA03E4
:1019A3001207DD35DA031207DD42DA031207DDB968
:1019B3007C001207DDDF7C001207DD1C7D001207AF
:1019C300DD2B7D001207DD4A7D001207DDB27D00AD
:1019D3001207DDBB7D001207DD1A7E001207DD3E14
:1019E3007E001207DDFD7E001207DD0A7F0012076D
:1019F300DD1B7F001207DD44E3031207DD61E30310
:101A03001207DD8AAF031207DDE8B0031207DDF525
:101A1300B0031207DD08B1031207DD27B103120774
:101A2300DD3DB1031207DD51B1031207DDC6B1037A
:101A33001207DD2BB2031207DDDBB2031207DDB0A1
:101A4300B3031207DDC0B3031207DDCFB3031207DD
:101A5300DD92E1031207DDB6E1031207DDDEE103E8
:101A63001207DD06E2031207DD11CE031207DD388C
:101A7300CE031207DD59CE031207DDBECE031207D4
:101A8300DD77D0031207DD90D0031207DD9CD0036E
:101A93001207DDB0D0031207DDCED0031207DDD865
:101AA300D0031207DDE2D0031207DDF5D0031207DE
:101AB300DD48D1031207DD81D1031207DDB0D10365
:101AC3001207DDFED1031207DD4DD2031207DD68D5
:101AD300D2031207DD72D2031207DD83D20312078A
:101AE300DDC9D2031207DDADFF021207DDE6950360
:101AF3001207DD1096031207DD2C96031207DD3F54
:101B030096031207DD5596031207DDB296031207FB
:101B1300DDE596031207DD219B031207DD479C03D6
:101B23001207DD7A9C031207DDC69C031207DDF260
:101B33009D031207DD1A9E031207DD2F9E03120772
:101B4300DD3F9E031207DD839E031207DDE49E0340
:101B53001207DDF49E031207DD4CDA031207DD677B
:101B6300DA031207DD90DA031207DDAADA0312079C
:101B7300DDCFDA031207DDEEDA031207DD06DB033E
:101B83001207DD34DB031207DD4EDB031207DD0032
:101B9300E3031207DD2CC7031207DD33C703120764
:101BA300DD3FC8031207DD6FC8031207DD95C803C5
:101BB3001207DDB8C8031207DDDAC8031207DD1404
:101BC300C9031207DD7AC9031207DDB3C90312077C
:101BD300DDFFC9031207DD2CCA031207DD4CCA035C
:101BE3001207DD7FDB031207DDA1DB031207DD999B
:101BF300DC031207DD9CDC031207DD9FDC03120705
:101C0300DD11DD031207DD4FDD031207DD90DD0378
:101C13001207DDB0F8021207DDB6F8021207DD0382
:101C2300F9021207DD02FB021207DDE4FB021207D1
:101C3300DD29FC021207DD5CFC021207DDCAFD028E
:101C43001207DDC8FE021207DD2DFF021207DD6653
:101C5300FF021207DDA2B8031207DDC1B8031207A2
:101C6300DD10B9031207DD2CB9031207DD5DB903DB
:101C73001207DD6DB9031207DD7AB9031207DD8799
:101C8300B9031207DD73BA031207DDB1BA031207F2
:101C9300DDBBBA031207DDCBBB031207DDD6BB03E3
:101CA3001207DDE8BB031207DDF1BB031207DDFBFF
:101CB300BB031207DDCCA5031207DD11AA0312072C
:101CC300DD2DAA031207DD80E3031207DD1AE40307
:101CD3001207DD75D6021207DDD2D5021207DD85A4
:101CE300D4021207DD30D2021207DDC6D102120779
:101CF300DD7ED1021207DD2ECE021207DDFACD0200
:101D03001207DDC7CD021207DDABCD021207DDC915
:101D1300CC021207DD81CC021207DDCCCA02120706
:101D2300DD4CCA021207DD49CA021207DD50C9029F
:101D33001207DD1EC9021207DD5BC8021207DD862A
:101D4300C6021207DD17C6021207DDE9C502120734
:101D5300DDE6C5021207DD6A25001207DD16250040
:101D63001207DD7224001207DDE823001207DD8766
:101D730023001207DDD3C5021207DD88C50212074F
:101D8300DD77C5021207DD3523001207DD7AC402B1
:101D93001207DD44C4021207DDF2C3021207DD930A
:101DA300C3021207DD2323001207DD328803120763
:101DB300DD62C3021207DD2AC0021207DDEABF0299
:101DC3001207DDDEBF021207DD41BF021207DD810C
:101DD300BE021207DD03BC021207DD94B90212072B
:101DE300DD52B9021207DD26B8021207DDDBB702A6
:101DF3001207DD1AB7021207DDEDB6021207DD3056
:101E0300B6021207DD00B6021207DD9BD7021207E6
:101E1300DDC6B5021207DD00800300000080FBE48D
:101E2300738F0001000206870001000106240002EF
:101E330000700C25000200720C26000200740C27AF
:101E4300000200760C28000100780C2900010079BB
:101E53000C840004007A0C860001007E0C2A000129
:101E6300007F0C2B000100800C2C000100830C2D43
:101E7300000800EC052E000100840C2F00010085F2
:101E83000C30000100860C31000100870C32000188
:101E930000F40533000100F50534000100880C3619
:101EA300000100F60538000100890C3900010082A9
:101EB3000C83000200930C63000100000664000120
:101EC30000E90565000100810C6D000100920C6EB4
:101ED300000200EA05430001008A0C440002008B63
:101EE3000C450001008D0C460002008E0C470008D3
:101EF30000F80548000100900C4B000100910C0410
:101F0300000100950CA1000100980C370001009717
:101F13000C88000100960C3C000100F7050000004E
:101F23000000000001363601010001020100010337
:101F33000100010401060605020000070100340840
:101F430001000F090401010D0100FF0E0800001735
:101F5300020000190100FF1A0100011B0100FE1C11
:101F63000100081D0200001F0100012001000121E2
:101F73000200002301000F240200002601000127B4
:101F8300010008280200FF2A0100072B0102402C50
:101F93000100002D0100012E0100012F0100FF307F
:101FA300010B1C310800003A0100083B01000F2F10
:101FB3000100000300710030016000110070003166
:101FC300022003500480001000610000001400632D
:101FD300007300720062004300000013000600005B
:101FE30000000004001200000000000000000004D4
:101FF300000400370037003C0244000000000000EA
:1020030000000065000000350081000000050000AD
:1020130000830000000103710301030103010301B5
:10202300030103220302030103100300030003005F
:102033000300030003000300034203000324030619
:1020430003000300030403120325032303250323CF
:102053000304030403000300030003440300030019
:1020630003230300036503210035038103000305F4
:1020730003000300030003010171010101010111C8
:102083000101013101010101018001100161013BE5
:102093000014006301730172016201430100011323
:1020A3000106013D01350004011201000100010098
:1020B30001000104010401330133013C01440132F5
:1020C30001360000010001650100013500810100B6
:1020D30001050182018301000103027102300160E5
:1020E3000211027002010202020202800210026166
:1020F300023A004100630273027202620243020069
:10210300021302380000020002040212020002005D
:10211300020002000204020402370037003C0244BA
:10212300020002390000020002650200023502814A
:102133000200020502820283020002030471040208
:102143000460041104700402040204010402041074
:1021530004610400041404630473047204620443FA
:10216300040004130406040004000404041204001D
:10217300040004000400045104640000040004008B
:10218300044404000400040004000465040004354E
:102193000481046400050400048304000436000180
:1021A30000060000000F0000000000000000000017
:1021B30000000003FFFF00000403FFFF0000FFFF18
:1021C3000FF4010005C4040320000100030B000009
:1021D30000000000000003010F0000D51713006F7B
:1021E300170100D5170200391703003F17040045F4
:1021F3001705004B1706005717FFFF000001730D6B
:1022030006A90D08A30D0BC10D10EF0C02790D05E6
:10221300970D077F0D0C550D0D670DFF000003EAA9
:10222300F5E5D5D5C5B5A5959585857575656555CB
:10223300554545353525251515059F11CF11A51193
:10224300AB11C911BD11B711D511DB11E111ED119D
:10225300B1119911931100160F00000B150B020019
:1022630002220F320000068F12A112A7126911ADCC
:102273001263116F11A3109D10D910DF10D3108BAF
:1022830010EF120D131313F5120113FB120C0E02B0
:102293000B040B0A0708000F303016181920231AF5
:1022A3001C1E30000119161816161523030000030F
:1022B3004948424D181725050230301718192130A7
:1022C3001B1D1F3000383C3E363B3B352B432CE374
:1022D30012B312B912C512BF12C311E7110713F3D8
:1022E30011F911020402010101010902AF10B51035
:1022F300A910E510BB10CD1000BE040A15000400A0
:102303007F00E8030C002800000000000308100C05
:102313000A03080900040001FF1E1E0C05040F0830
:10232300C082C0838A828B83E0D2E7F01216D30285
:102333003503C082C08379001227EF12584AC08246
:10234300C0839003301245D0D083D082C3E09CA3D6
:10235300E09D500C125F1EFAA3E012236660010990
:10236300023503FBEA75F00BA4FAA8F075F00BEB4A
:10237300A428FB900332E02AF8A3E03B8882F5838C
:10238300E0540F2274F712036A89081227EF122808
:1023930095ACF075F00BE9A42CF9900332E028FE1C
:1023A300A3E039FF740165086006740265087020B4
:1023B3008A828B831228811238E374026508701BAA
:1023C3001227401228C870138E828F83E4F0800B8B
:1023D300EA2403FCEB12286312286FEEFAEFFB12D8
:1023E3001DA502384074F412036A12684579008E01
:1023F300828F83E06076890A890B8065E50A75F030
:102403000BA4FAA8F075F00BE50B1223737046E5E5
:102413000A75F00BA4F8AAF075F00BE50B1228A7C8
:102423008E828F83E0850882850983122989850836
:1024330082850983A31238E3EE2403FCEF12286C90
:102443001236C11252C4AA08AB09121DA579019014
:102453000330124CD9E50A2401F50AE50B3400F5E3
:102463000B122748E50A9AE50B9B4090023A5674F3
:10247300F512036AEAFEEBFF740B120A7E1236C6EC
:10248300750A01EC4D602BEC126861ED12584A128B
:1024930038DB7901121D6FE5084509606F850882F5
:1024A300850983A312684F7902AA08AB09121D6F2D
:1024B300805AE5084509602B12584E123F18123610
:1024C300C21228B2700CEEFAEFFB121D69E9F50A8D
:1024D30080CBEE2403FA1227EA70317903EEFAEF88
:1024E300FB80CA8E828F83A3E064FE7003A3E0F4B3
:1024F300700BEE24030A0A0A1227EA700CEEFAEFB5
:10250300FB121D69E9F50A8003750A00A90A7F0316
:102513000205CB74F712036A900330123850EA4B6A
:10252300602FEA75F00BA4FAA8F075F00BEBA42862
:10253300FBEAFEEBFF1214CF9003321238509003E4
:1025430032124B1E6012EEFCEFFD790012143F8035
:1025530007900332E4F0A3F00238409003301242B4
:1025630088C3EE98EF9922C082C083EC4D600512B8
:102573001C0D80097C087D00790012143F0235038D
:1025830074F612036A7900EA4B601878008808121F
:102593005B91EB125F1A60047901780808E8C39431
:1025A3000840EA0238EC74F712036A74F31208BCA9
:1025B300ECFEEDFF851882851983E4F004120A7E90
:1025C300EAF0A3EB12504A7403120A7EAC82AD8385
:1025D300EEFAEFFB121D57EEFAEFFB12140302386B
:1025E3003B74F712036A74F31208BCECFEEDFF852B
:1025F3001882851983E4F0EAFCEBFD7403120A7E6A
:102603001229827401120A7E1238D78E828F8312A6
:1026130038E374FE68700374FF6960047901800213
:10262300790002383B74F712036AEAFEEBFF1226C5
:102633008670141226918E828F83E0F4F88A828B3F
:1026430083E058F0121DA5A90802384074F712035D
:102653006AEAFEEBFF7508008E828F83E060221228
:102663002686701D1226918A828B83E08F838E8249
:10267300F8E058700CE0F88A828B83E048F0121D72
:10268300A580C4121D87E9F5087401650822126844
:102693005A1228991227DBFAA3E039FB2274F412A9
:1026A300036A8A088B097C007D0012274012286F79
:1026B30012280012684C7900850882850983A3E0FB
:1026C30064FE7003A3E0F460717E007F008062EE1D
:1026D300FAEF1223666057EEFAEFFBEA75F00BA4EC
:1026E300FAA8F075F00BEBA428FB900332E02AF56F
:1026F3000AA3E03BF50B850882850983A3124F9853
:10270300850A82850B83A3E06A7003A3E06B701EC6
:10271300E50A2403FAE50B1227EB700AE50A240302
:10272300FCE50B12286C1227F47901125860123061
:10273300DF122748EE9AEF9B4095023A56EA2403AC
:102743000A0A0AEB22900330125437C32274F3129D
:10275300036A8A088B098A828B83A312684F122724
:10276300EF12684C750C001227401227EB70547E51
:10277300007F0080491227CDFAA3E0398A82F583CE
:10278300E0540F60361227CDF50AA3E039F50BE5C7
:102793000A2403FCE50B1228763400FB121C07E91C
:1027A30064017017850A82850B83A31254F8A31260
:1027B30038E31227F4750C011258601230DF12252A
:1027C3005E40B2A90C7F050205CBEEF8EFF9E87580
:1027D300F00BA4F81227DB22AAF075F00BE9A42A68
:1027E300F9900332E02822EF1228C222126860EB2C
:1027F3002212280012585BEEF0A3EFF022E5081234
:102803006861E5092274F512036AEAFEEBFF8E8222
:102813008F83A312684F7C007D00EE24030A0A0A0B
:10282300EF12286FEEFAEFFB121D87E9F50A740128
:10283300650A702912685A122895AAF075F00BE9F7
:102843001228A7850882F5831228811228B2700DF9
:10285300E5082403FCE50912286312286F02250FFB
:102863003400FDEE2403FAEF221228763400FB1223
:102873001D57223400FDE5082403FAE50922A312BB
:1028830028862212288A22E0F8A3E0F98E828F8319
:10289300A322122899223400F58312428CE875F0A2
:1028A3000BA4F8221227E1F508A3E039F50922E881
:1028B300F0A3E9F0E5082403FAE5091228C222127D
:1028C30028C86401223400FB121403E92274F312B2
:1028D300036A74E61208BC126845750C017508009A
:1028E300750900750A00750B00851882851983E444
:1028F300F0EE2403FCEF3400FD7403120A7E122968
:1029030082E964017023740B120A7E1238DB7401AE
:10291300120A7E124F9C7003A3E0696051851882EE
:10292300851983858208858309740D120A7EE41252
:102933002989740E120A7E1238E3740D120A7EAAD4
:1029430082AB83120AA9E96401700B740D120A7E2B
:1029530085820A85830B780A120815AC08AD09EE47
:10296300FAEFFB121D637402120828E9F50CEEFA64
:10297300EFFB120AA3A90C741A1208280227C81223
:102983002C55120AAF2212384B12428822C082C041
:1029930083780079008003122A80122748E89AE995
:1029A3009B5029E8FAE9FBEA75F00BA4FAACF07541
:1029B300F00BEBA42CFB900332E02AFCA3E03B8C4E
:1029C30082F583E0540F70CF7900800279010235DC
:1029D30003C082C0839022FF1242DEEC75F012A482
:1029E300FCA8F075F012EDA428FD79FF7AD57B06DB
:1029F30012143F02350374F712036AE9FEEAFF7A01
:102A0300007B00780079008028E8FCE9FDEC75F094
:102A130012A4FC85F00875F012EDA42508122E957A
:102A2300C39E400AE0FCEFC39C4003122FB4122A5A
:102A330080122E8940D3023840C082C08378007947
:102A4300008003122A80122A74501F122E99F470E8
:102A5300F2E875F012A4F8AAF075F012E9A42AF9C5
:102A630074D528FA740639FB80047A007B0002359A
:102A7300039022FF122F4AC3E89AE99B22E824011C
:102A830008E93400F92274F012036A74F31208BCE3
:102A93008A0A8B0B8C0C8D0D8908EC450D6016AAE8
:102AA3000CAB0D120AFD8A0E8B0FAE0EAF0FEE4F5D
:102AB3006003022B47120AD38A0E8B0FA80EA90FAD
:102AC300E8FEE9FFE849607C90230D122BA9602200
:102AD3007403650860067404650870167A04790344
:102AE300120ACD90230D122BC040077A007B0002FF
:102AF3002BA690230B122BA9601B7401650860069B
:102B030074026508700F7A027901120ACD90230BC3
:102B1300122BC050D68518828519837401F0120ACE
:102B23007E1252C4AC0CAD0D7403120A7E122C4EED
:102B3300740B120A7E1236CE123C8CE41252AC1283
:102B43000FE38004EE4F604A780074FF2508C394B6
:102B530004500278048E828F831252C48E828F8334
:102B6300A3A3A3A3E508F0E88E828F83A3A3A3A363
:102B7300A31252CC120219122F618E828F83A3A348
:102B8300A3A3A3A3A3F0122F58120A5B1258441253
:102B93000A67122BAE4005900C3BE4F0120EBDEE1B
:102BA300FAEFFB0242921253E649227A04790012A9
:102BB3000ACD9022FF125F00EA98EB9922122BD9DB
:102BC3007583227582FFE493C398F8A3E49399F97C
:102BD300C3EA98EB9922E493F8740193F92274F20F
:102BE30012036A74F31208BC8A088B09ECFEEDFF2A
:102BF300750A00EEFAEFFB120AFD8A0C8B0DA80C86
:102C0300A90DE849603E88828983E065087004A3C2
:102C1300E06509602F88828983A3A3A3A3E0C394FB
:102C23000550211256F28518828519837401F0121A
:102C33000A7E1256F6EEFCEFFD7403120A7E122C86
:102C43004E750A01A90A740D024D90122C55120AF1
:102C5300BB22AA82AB83121D57851882851983AACA
:102C630082AB832274F612036A122CA3600FA3A310
:102C7300A3A3E014C39404500479018002790002F1
:102C830038EC74F612036A122CA3600FA3A3A3A358
:102C9300E014C3940250047901800279000238ECF5
:102CA300120AF78A828B83E58245832274F6120324
:102CB3006A122CA3600BA3A3A3A3E0700479018081
:102CC3000279000238ECC082C083EAFCEBFD7A0093
:102CD3007B00023500C082C0837C007D000235008A
:102CE30074F412036A74F31208BCEAFEEBFF8C0A55
:102CF3008D0BC3EC94F8ED94FF4007EE4F70030285
:102D03002D9C750800750900802E8518828519830E
:102D13007401F0123107120A7E1231156013740325
:102D2300120A7EAC82AD83EEFAEFFB121C07E97048
:102D330049E5082401122F359022FFE41253EEE5F2
:102D43000898E509995052E50875F012A4F8AAF01D
:102D530075F012E509A42AF9125F3360D4EE4F70BF
:102D6300A974FF650A700474FF650B60C41230F721
:102D7300650A7004A3E0650B70B7E50875F012A44B
:102D8300F508A8F075F012E509A428F50974D5250E
:102D930008FA74063509FB80047A007B00023A5175
:102DA30074F412036A74F31208BC750800120AFD66
:102DB3008A0A8B0BAE0AAF0BEE4F602A8518828509
:102DC30019837401123845F8A3E0F9740B120A7ED3
:102DD30012392F120A9D7C127D0079FFEEFAEFFB68
:102DE30012143F750801122BAE5009900C3B74016D
:102DF300F0120EBDA908023A5174F712036AE9FEF4
:102E030074FE6A700374FF6B78007900700580525A
:102E1300122A80122E89504AE8FCE9FDEC75F01263
:102E2300A4FCAFF075F012EDA42F122E95F460E020
:102E3300E8FCE9FDEC75F012A4FC75F012EDA42F8B
:102E4300FD74D52CF58274063DF583E06A7003A307
:102E5300E06B70BC8009122E9914C39404401712BE
:102E63002A80122A745018EE70EC122E99640160B5
:102E730005E0640370E91230E8FAA3E0FB80047A0A
:102E8300FE7BFF0238409022FF1242E2C3E89CE936
:102E93009D22122FE922E8FAE9FBEA75F012A4FA5F
:102EA300ACF075F012EBA42CFB74D92AF5827406EE
:102EB3003BF583E022120B0F023503C082C08379F6
:102EC3000180F274F012036A8A0A8B0B7A04790187
:102ED300120ACD8A0C8B0DEA450D603EEAC333FA24
:102EE300EB33FB1214CF8A088B09AE08AF09EE4F00
:102EF30060237AFE7BFF120B1574FE6A700374FF66
:102F03006B601B850882850983123850E50824020B
:102F1300122F3580E1750C0080047E007F00850A46
:102F230082850B83E50CF0EEFAEFFB024297E5088E
:102F33002407F508E5093400F509229022FF12421F
:102F4300E2C3EA9CEB9D22E493FA740193FB221201
:102F53001433740322125855E4F090808422E88ECF
:102F6300828F83A3A3A3A3A3A3A3A3122F83740179
:102F7300122F83A3F0EE2410125858E4F0A3F0228A
:102F8300123C98A3A3A322C082C0837A007B008053
:102F93000419122FB4122F3E5010122FD3C39405CD
:102FA30050F0E970EC122FBD80047A007B000235EB
:102FB30003EA24010AEB3400FB22EA75F012A4FAB7
:102FC30075F012EBA428FB74D52AFA74063BFB2296
:102FD300EAFCEBFDEC75F012A4FCA8F075F012ED21
:102FE300A428122FE922FD74D92CF58274063DF52D
:102FF30083E02274F712036A74F31208BC7E007F25
:103003000002309BE50875F017A4F8A9F01261944B
:10301300FAA3E0FBEEF8EFF9E875F012A4F8ACF0D0
:1030230075F012E9A42C1230F66A7003A3E06B600A
:103033003FE50875F017A4F8AAF0EA126193F8A324
:10304300E0F97401120A7EE0687003A3E06960206E
:10305300E50875F017A4F8EAF9745128FC740839E7
:10306300FD7403120A7EAA82AB83121C07E9601463
:10307300E50875F017A4F8A9F0744F28FA74083915
:10308300FB120FEF0508902311E493F8E508C398AA
:1030930050030230071230DF9022FF1264DA5039F6
:1030A300EEF8EFF91230E8F47003A3E0F460E6857C
:1030B30018828519837401F0EEF8EFF9E875F012C0
:1030C300A4F875F012E9A42AF9123107120A7E1244
:1030D300311560C175080080AD02383BEE24010E46
:1030E300EF3400FF22E875F012A4F8AAF075F0128D
:1030F300E9A42AF91230FB2274D528F58274063923
:10310300F583E02274D728F5827406391242867457
:103113000B22E8F0A3E9123937120AB5E922C0827B
:10312300C0839003397491F0A3740DF090033B7442
:103133008BF0A3740DF090033F74A5F0A3740BF010
:10314300023503C082C08390033D7485F0A3740DE0
:10315300F002350374F712036AEAFEEBFF90037380
:10316300E06408601BE0640460168E828F83E05481
:1031730003640170481236C1123D8DE06406703D50
:103183008E828F83A3A3E064FE7003A3E0F4602D1B
:103193008E828F83A3A31238D7900364E0687003F1
:1031A300A3E069700BEE2415F582EF125F1A600835
:1031B300120E4BE9F5088008120E5180F67508C20D
:1031C300EEFAEFFB1214D502264A74F412036A8A4C
:1031D300088B098A828B83E0F8A3E0FAE82AFAE4F1
:1031E3003400FB1214CF8A0A8B0BAE0AAF0BEE4FDF
:1031F3006063850882850983E0FC7D0079001214F1
:103203003F8E828F83A3A312684F120E8D8E828FFF
:1032130083A3A3A3A3123850850882850983E0F80A
:10322300EE28F8EF34001238DF850882850983A37E
:10323300E0C0E0EE240D125847D0E0F0120E9FEEEE
:10324300240E125847E9124EF9E0C0E0EE241112A1
:103253005847D0E0F0EEFAEFFB023A5674F412034B
:103263006A74EB1208BC8A088B098C0A8D0BE9FE81
:10327300900373E064046005E06408700479C2801D
:103283002EA37808120A3FEE90037A123541120AF0
:103293003F7405120A7EE9F07404120A7E7401F089
:1032A3007407120A7EE4F0900373740212349E745E
:1032B30015023A5374F612036A74EB1208BCEAFE61
:1032C300EBFF124B1B600302335B7A077B00121484
:1032D300CF900335123850124B1B60788E828F8348
:1032E300120A5B900336123D90120A67126713C0ED
:1032F300E0123367D0E0F0EE2405FAEF3400FB8AE6
:10330300088B098A82F583E0C0E0123362D0E012B1
:103313003A4DE0C0E0123362A3D0E01238C4120A7F
:103323005B851882851983120A6788828983E0C0C6
:10333300E07405120A7ED0E0F0850882850983E0F7
:10334300C0E07404120A7ED0E0F07407120A7E1201
:10335300349D800679108002790174150238E912D0
:103363003367A322900335E0FAA3E0F5838A82A3AF
:10337300A3A3A322C082C083124B1B600D9003350D
:10338300125425900335E4F0A3F0120DBB120F8FF6
:1033930002350374F012036A74EB1208BCECFEED01
:1033A300FF89087425120A7E780C120A21742912E7
:1033B3000A7EE0F9742A120A7EE0FC742B120A7E5C
:1033C300E0FD740F697005740F6C6012900C87E058
:1033D3006402700579C1023498E9C39C40F69003F6
:1033E30074780C120A3FE50890037AF0E9900378A9
:1033F300F0ECA3F0ED90037BF074FF6A700374FFAD
:103403006B701D900C93E0F47003A3E0F47005124D
:10341300144B800C900C93123818E8F0A3E9800742
:10342300900371EAF0A3EBF0EE4F6017EEFAEFFBB7
:1034330012104FE96401700BEEFCEFFD7A857B03FC
:10344300121C0D900364E4F0A3F0900367F0A3F063
:10345300900384F0900C87E0640270089003787402
:103463000FF0A3F09003737405F014120A7EE4F0D6
:10347300900374120A5B851882851983120A679078
:10348300037AE0C0E07405120A7ED0E0F0740712FC
:103493000A7E12349D7415024294E4123937121CC9
:1034A3007F22C082C083900334E070031217691235
:1034B3000B63804CC082C083900334E0900C3A705D
:1034C30004E4F0802D7401F0900334E0F460237C75
:1034D30041E0C394415002E0FCECF8E0C398F0EC07
:1034E30075F0E8A4CCA8F075F003A428FD7A801247
:1034F30042EA7A3A7B0C7941121C678003120B0370
:10350300D083D0820207DA74F412036A74EB1208D0
:10351300BC8A088B098C0A8D0B90037374011235D6
:1035230041120A3F7405120A7EE9F07404120A7EFE
:103533007403F07407120A7E12349D0232B21238F9
:10354300CF78082274F712036A7C01120B750238D4
:103553004074F212036A74FC1208BCE98518828570
:103563001983F0EAFEEBFF8C0A9003711245D01227
:103573000DAF8A088B09EA4509700579CA0236BC82
:103583008A828B83A3A3A3A3A3A3A3E064FE7003F4
:10359300A3E0F4700579C30236BC900371124F980F
:1035A300120FF5850882850983A3A3A3A3A3A3A36D
:1035B300A3A3A3E00490038412381F7402120A7EAB
:1035C3007402F014120A7EAA82AB83120EF98A0CDB
:1035D3008B0DAE0CAF0DEE4F70030236B31236C136
:1035E300123F0C7406F0A3A882A98390035E1254C1
:1035F30062124265F0EE241312584774011252A46A
:103603007440F0A3E4124EF2A3A31236CE1238E3B1
:10361300EE2411125847E50AF0EEFAEFFB120B39CC
:10362300E9FE60030236B59003737409F0122F317B
:10363300AA08FB794B121C67850882850983123817
:10364300111238E3900366E0F8851882851983E048
:1036530068600CE090036612393379E1121C6790BD
:103663000C741238D7900C76E0687003A3E069609D
:103673001A9003371238E3900C76124F98120EB754
:10368300900C761245D07A011242EA7A007B0490BC
:1036930003BEE0F912158F900C761236C6740278C9
:1036A3000812095EAC08AD09FA7B041242EC8002F1
:1036B3007E10900521E4F0EEF97404024D90EE12B1
:1036C300585622E0F508A3E0F509221236D2221259
:1036D300288AA32274F512036A74E21208BC8518BF
:1036E30082851983ECF0A3EDF0EAFEEBFF89087401
:1036F30029120A7EE0F509742C120A7EE0F50A907D
:103703000373E064046005E06408700579C202385D
:1037130009742A120A7EE064FE7003A3E0F47005C4
:1037230079C3023809900373740312393379501241
:103733001C67742A120A7EAA82AB83794B121C6718
:103743008518828519831238181238E3E508900327
:1037530066F0742A120A7E1238111238E3E50990D2
:10376300035E12381F74CE55094480C0E0741212F0
:103773000A7ED0E0F07401250A900384F0740F12DE
:103783000A7E7402F0742A120A7E1238D774071262
:103793000A7EE8F0A3E91238567410120A7E123832
:1037A300E37405120A7EE508F0741B120A7EE4F046
:1037B300900379740FF07A797B037954121C679024
:1037C3000378740FF07A787B037947121C679003B0
:1037D30078E0C3940F50237405120A7EE0C0E074AE
:1037E30002120A7ED0E0F07404120A7E7401F0041F
:1037F300120A7EAA82AB83121C8B7405120A7EAA5C
:1038030082AB83121C6D741E12082802251112420A
:10381300889003672212428890037122F0EEFCEF36
:10382300FD7A857B03121C0D2274F712036AEB9059
:10383300037BF0120D9D8005740D1208287F010291
:1038430005CB12384BA3E0221238C4A322EAF0A31B
:10385300EBF0221238CAF8A3E0F92274F712036AD4
:1038630074F81208BCEAFEEBFF7900900373E0647E
:1038730008704485188285198374FDF0A374FFF0E2
:10388300120E877402120A7E1238507405120A7ED1
:10389300E412384BE0C0E07404120A7ED0E0123820
:1038A300BFC0E07406120A7ED0E0F07407120A7EED
:1038B300E4123933120EDB740802383D1238C4E0C7
:1038C30022F08E828F83221238CFE022F085188275
:1038D3008519832212428822E0F8A3E0F912585591
:1038E300E8F0A3E9F0221208287F020205CBC08288
:1038F300C0839003457435F0A3740CF09003EB740C
:1039030035F0A3740FF0900349746BF0A3740CF0BB
:1039130090034B7435F0A3740CF090034D7471F065
:10392300A3740CF00235037407023A53E8F0A3E9D9
:10393300123937221238CFAA82AB832274F41203CE
:103943006A8A088B098A828B83125863EE4F70034D
:10395300023A4B900312124B1E60158A828B83A38B
:10396300A3E0F9EEFAEFFB900313123D90121E222F
:103973008E828F83A3A3A3A3A3A3A3A3A3E0640221
:1039830070748E828F83A3A3A3A3A3A3E0540270B6
:1039930003023A1D850882850983A3A3E064E960D5
:1039A300798E828F83A3A3A3A3A3A3A3A3A3A3E03B
:1039B3007014900C8AE0048E828F83A3A3A3A3A325
:1039C300A3A3A3A3A3F08E828F83A3A3A3A3A3A3E1
:1039D300A3A3A3A3E014123A4DA3A3A37404F090EA
:1039E3000C8B12529EE8F0A3E91263778B0BEA4526
:1039F3000B7003125D558E828F83A3A3A3A3A3A38E
:103A0300A3A3A3E0640260128E828F83A3A3A3A364
:103A1300A3A3A3A3A3E06406702E8E828F83A3A324
:103A2300A3A3A3A3E0A2E0501F850882850983A373
:103A3300A3E0F9EEFAEFFB121D038E828F83A3A39B
:103A4300A3A3A3A3E054FEF08009123C9422740DB7
:103A53001208287F040205CB74EC12036A74DD128A
:103A630008BCEAFEEBFF8C088D097437120A7E78D6
:103A73000C120A21750A007405120A7EAC82AD830A
:103A8300121CE57412120A7EE070087415120A7E85
:103A9300E060207405120A7EE0A2E6501E8E828F3B
:103AA30083A3A3A3A3A3A3A3A3A3124F98120F11AA
:103AB300E960087903121BF5023C7A7405120A7E49
:103AC300E0540C64047005750B018003750B00E072
:103AD300A2E55035750A01E50BA2E0402C120E8DCC
:103AE3008A108B11A810A9111236C1E0687003A3C4
:103AF300E06960157405120A7E126856124F94121B
:103B03001D0FE96004790480AC7405120A7EE0A2FB
:103B1300E650227406120A7EE054037018740512EC
:103B23000A7EE0540C640C600CE0540C64086005DD
:103B330075100180037510007405120A7EE05403AA
:103B4300F8740268700C126856124F94121CD30258
:103B53003C7A740168703AE510A2E05003123C828B
:103B63007405120A7EA882A9837403120A7EE8F000
:103B7300A3E912427C851882851983123C8CE0C02C
:103B8300E07402120A7ED0E0123933121DF3023CB4
:103B93007AE86003023C7A90035BE0640170108E64
:103BA300828F83A3A3A3A3A3A3E07003023B0874A0
:103BB30022120A7E740212427C741A120A7E12388E
:103BC300E3E510A2E050087405120A7E123C82E578
:103BD3000BA2E0506AEE240FF582EF125F1AC0E0E9
:103BE3007417120A7ED0E0F0900314124B1E700378
:103BF300023C7A120E8D8A128B13A812A913741A1F
:103C0300120A7EE0687003A3E069706B780C1208F7
:103C13000D780A1208197808120815A910740C12E5
:103C23000A7EAC82AD837421120A7EAA82AB839092
:103C33000314123D8D121E2274071208288038784F
:103C43000C12080D780A1208197808120815900347
:103C530071120685EE2412F582EF125C487423126A
:103C63000A7EAC82AD83740E120A7EAA82AB8312E3
:103C73001CF77409120828742312082802634212DD
:103C83006856125433121CDF22E8F0A3E9123C9465
:103C930022123C9822F08E828F83A3A3A3A3A3A313
:103CA3002274F712036A12168502384074F712035E
:103CB3006A12169102384074F712036A12169D02B3
:103CC3003840C082C08312169702350374F712037B
:103CD3006A1216A302384074F712036A7409120AAF
:103CE3007EE0F50878081208191216AF740102383D
:103CF3003DC082C0831216BB023503C082C083124B
:103D030016C102350374F712036A1216C70238404C
:103D130074F712036AEAFEEBFF8908740165087001
:103D2300147900120CAD90231CE493FC7900EEFA95
:103D3300EFFB120C2302384074F412036A74F91275
:103D430008BCE9FE8A088B098C0A8D0B7413120ACE
:103D53007E124F98900551124B1E6027EE851882F4
:103D6300851983F07401120A7E7808120A3FEAF873
:103D7300EBF97405120A7E12392F900551123D8D0D
:103D8300121E2202392AFB900347E0F8A3E0F583D1
:103D9300888222C082C0831216F702350374F71299
:103DA300036A900C3DE0F97E00800B125F06540D10
:103DB30064017001190E123F9A5003E970ED023845
:103DC3004074F712036A900C3EE0F97E00800B12F8
:103DD3005F06548D64817001190E123F9A5003E9F6
:103DE30070ED02384074F212036A890BE975F0062C
:103DF300A4240CF508E5F0122F398A0CE508250CEC
:103E0300FAE5093400FB1214CF8A0C8B0DAE0CAF0C
:103E13000DEE4F6027AC08AD09790012143F12363E
:103E2300C1E50BF0EE2508F8EF3509F98E828F8393
:103E3300A3A3A3A3A3A3A3A3A31238E3EEFAEFFBC5
:103E4300024D9374F612036AEAFEEBFF120BFF9026
:103E53000C3CE0F8E9C3984009900341124F9812D3
:103E63000C05EE2402F8EF1255A890034312546296
:103E7300900343E004F0EEFAEFFB120C0B8508828B
:103E8300850983E0025A5EC082C0837900900341B2
:103E9300800109124F988A828B83E582458370F2F1
:103EA30002350374F712036AEAFEEBFFEE4F605626
:103EB300900341124B1E604E888289837A007B00F7
:103EC300EE65827003EF6583600FAA82AB83123FB6
:103ED3000CE5824583602F80E7900341123F186809
:103EE3007002EF698E828F8370081238D790034176
:103EF30080031263541238E3EEFAEFFB121DC3EE94
:103F0300FAEFFB1214D5023840123F102212428CF2
:103F13008882898322124288EE22C082C083900362
:103F230041800488828983124B1E600B88828983B7
:103F33001245D0EC4D70EC8A828B83E4F0A3F0E859
:103F430049600688828983800390034112385002B6
:103F5300350374F712036A90034180048A828B83CA
:103F6300123F954B60257E0080010E123F9A50EC64
:103F7300EE75F006A4FCADF0EA2CFCEB3DFDEC2461
:103F830010F582ED123FEA70E180047A007B0002B3
:103F93003840125437EA22123FF3EEC3982274F7E3
:103FA30012036A7D0080010D123FEFEDC398503478
:103FB300ED75F006A4FEA8F0E8FFEA2EFEEB3FFF46
:103FC300EE2410F582EF123FEA70DCED75F006A4E3
:103FD300FEE8FFEA2EFAEB3FFBEA2411F582EB122F
:103FE3005F1A4CF0023840125F266922123FF32217
:103FF300126860EB3400F583E0F82274F612036A6A
:10400300120D257A007B008025EAF8EBF9E875F0BC
:1040130006A4F8ACF075F006E9A42C12540C126750
:1040230021A3E4125502F0A312672712689E90237E
:1040330007122BB840D37A007B00801C8A088B09B7
:104043007403780812095E124EC0A374FEF0A30431
:104053001252E2A3E412689E90231012409D40DCAA
:104063007A007B00801D8A088B0974037808120983
:104073005E7477125B92740B1263D974FEF0A3041F
:1040830012689E90231612409D40DB90231AE493FE
:1040930090034FF01240A70238ECE493F8C3EA9878
:1040A300EB9400227CE87D037A107B009003BEE052
:1040B300F91215892274F012036A74F51208BC8A86
:1040C300088B09890A8C0BE9A2E050147508FC756A
:1040D30009FFA2E15005D2E402417AD2E302417A18
:1040E300124D7F7003A3E06970057900024247AC6B
:1040F3000A7902AA08AB09120D01E960EDE50AF598
:104103000C780C12081979027CFE7DFFAA08AB0912
:10411300124AFA120828E96003024245E50AC2E599
:10412300F50A9003B1E07051E50AA2E6404B74032F
:10413300120A7EAC82AD83AA08AB09120A91E97018
:104143003212441B8A0C8B0DA80CA90DE8FEE9FF63
:10415300E8496025EE24020A0AEF1228C8601AEE25
:104163002402FCEF3400FD7403120A7EAA82AB839F
:10417300121C0DE50AD2E5F50A900344E0F50C9014
:104183000364E0F50EA3E0F50F780E1208157D0128
:104193007C00900344E0F9AA0EAB0F120CB9740231
:1041A300120828E9F8900344E004F0E860030242AF
:1041B30045E50AA2E55004740E80027406C0E0745B
:1041C30001120A7ED0E01258748A0E8B0FAE0EAF26
:1041D3000FEE4F606912426512427C8882898374B4
:1041E30001F07478550AA3126866E50C126866A399
:1041F300E508F0E509124254E4F0E50AA2E5500FA0
:104203007403120A7EAC82AD83E8240612424B8EFD
:10421300828F83A3A374FDF0A374FFF0E50B6015F5
:1042230090231DE493F8E50BC3985009EE24131271
:104233005847E50BF0EEFAEFFB120B3980067910C5
:10424300800279C7740B8049FAE93400FB121C0D14
:104253002288828983A3A3A3A3124260221255DB7F
:10426300A322EE24171258587401F0120E87EE247D
:104273001A125858EAF0A3EB22F012685A340012CB
:10428300428622F58312428C22E0F8A3E0F92274DD
:104293000D1208287F080205CB74F612036A7A0010
:1042A3007B10125D6260089003D07401F080299046
:1042B30005F6E06401900C887006E0FC7901800447
:1042C300E0FC79037A007B00120C23902305124251
:1042D300DE7A007B101242EC0238EC1242E222E456
:1042E30093FC740193FD227B009003BEE0F9121549
:1042F300832274EC12036A8A088B098C0C8D0D8956
:104303000E7414120A7E124CD97416120A7EE0F54A
:1043130010A3E0F511120F11E960077AFF7BFF028A
:104323004418900C87E06402600302440B7900AAEE
:1043330008AB09120D07A90E120CFB8A128B13AEE0
:1043430012AF13EE4F70030243F38E828F83A3A346
:10435300A3A3A3E064018E828F83A3A37069124F8A
:10436300988E828F83A3A3A3A3A3A3E054186043CF
:1043730090231BE4938E828F83A3A3A3A3F0EA6508
:104383000C7003EB650D6014EA650A7003EB650BB3
:10439300600AEA65107003EB6511701F781012084C
:1043A30015AC0AAD0BAA0CAB0D12100D740212085A
:1043B300288008900363125D4CA3F074FE6A7003B7
:1043C30074FF6B601D804EA3A3A3E0640360298E7A
:1043D300828F83A3A3A3A3A3E0640470057AFE02E0
:1043E30043208E828F83A3A3A3A3A3E06402700858
:1043F3009003B0E06402701012441B8B0BEA450B70
:104403006006AA08AB09800DAA08AB099003451200
:104413003D8D121E22026342900371124B00120F54
:10442300D12274F712036AEAFEEBFF120AE5E97080
:104433000AEEFAEFFB120AF1E96006EEFAEFFB80EF
:10444300047AFE7BFF02384074F012036A8A0A8BF7
:104453000B8C0E8D0F8909750800120F11E9790075
:1044630060030245C2AA0AAB0B120D07A909120C7D
:10447300FB8A0C8B0DAE0CAF0DEE4F60198E828F45
:1044830083A3A3A3A3A3E0640270559003B0E064E5
:104493000270030245C0AA0AAB0B90034B123D8D79
:1044A300121E22120AF78A0C8B0DA80CA90DE849DB
:1044B30070030245C088828983A3A3A3A3A3E0A2B8
:1044C300E040030245C0750C01A2E150687901ACDC
:1044D3000AAD0BAA0EAB0F120C53E970640245C070
:1044E3008E828F83A3A3A3A3A3E064037005750C3B
:1044F3000280528E828F83A3A3A3A3A3E0640160EF
:10450300030245C09003711245D08E828F831249F6
:10451300258A0C8B0DA80CA90DE84960D1902314B2
:10452300E493FA88828983E0C39A50C2A3E06003CC
:104533000245C080B988828983A3A3A3A3A3D2E140
:10454300F0EE4F603A8E828F83A3A3A3A3A3A3E0CD
:104553005418602B7508018E828F83A3A3120685DE
:10456300750CFE750DFF780C1208157900AC0AADB9
:104573000BAA0EAB0F120D197404120828803E907B
:104583000364E0650E7004A3E0650F701490231CB0
:10459300E493FCA909AA0AAB0B120C23750801804A
:1045A3001CA90CAC0AAD0BAA0EAB0F120C53E9708D
:1045B3000C750801A909AA0AAB0B120CADA90802D4
:1045C3004297E50C2415F582E50D12585B1252B89B
:1045D3002274EA12036A74F01208BC8A0C8B0D8CE5
:1045E300088D097426120A7EE0F514A3E0F515750B
:1045F30012069003F1124B1E60239003711245D0F3
:10460300AA08AB09120FFB8A108B11EA4511600D42
:104613008A828B83A3E07005790002490DE50C249F
:104623001DF50EE50D3400F50F850E82124B0AF5CC
:104633001388828983A3A3A3E0FA88828983A3A32F
:10464300A3A3E0F9EA2400FEE439FFAA08AB0912A8
:104653000CB3850E82850F83124948E029F50BE5DB
:104663000AA2E5500375120E7487550A7017741861
:10467300550A6418600FE50C2417F582E50D125FE7
:104683001A651260077901121BF5808C530A78C3EF
:10469300EE94F8EF94FF501D7900EEFAEFFB124908
:1046A30017601288828983A3A3A3A3A3A3E054184A
:1046B300600302461B78081208157D0012493B125D
:1046C3000828E9F8740368700302461BE8600302D4
:1046D30047867418550A700302483BE50AD2E0F591
:1046E3000AA2E45004D2E1F50AA90A124F91124931
:1046F30017605388828983A3A3A3A3A3A3E05418B9
:10470300604488828983A3A3A3A3A3E064017036D2
:10471300E510451160309003711245D0888289837A
:104723001249258A0E8B0FA80EA90FE84960178836
:10473300828983A3E0600F851082851183A3125AB7
:1047430069500302461BE50AF50E780E120819128A
:10475300492E120828E9702B7C007D008514828580
:10476300158374FFF0A3F0850C82850D83A3A3A3A7
:10477300A3A3A3A3A3E060031245C5A90B124F9102
:104783001216B5851482851583E0F47003A3E0F453
:1047930060399003B0E06402700302461B124CCAF6
:1047A300E0FAA3E0123D89121E22EA65087003EBCA
:1047B3006509600302461BEEFAEF123D89121E22C1
:1047C300851482851583EAF0A3EBF07808120815A7
:1047D3007D0112493B120828A90AEEFAEFFB120DDC
:1047E300078A088B09A808A909900364E068700385
:1047F300A3E06960030248FEEEFAEFFB120AF78AB0
:10480300088B09A808A909E849606E88828983A3EF
:10481300A3A3A3E06401600D88828983A3A3A3A358
:10482300E064027054851882851983AC82AD83EEEF
:10483300FAEFFB120A91805590035DE0600FE50AE1
:10484300F50E780E12081912492E120828E50AF5FA
:104853000E780E12081979027CFE7DFFEEFAEFFB4B
:10486300124AFA120828E9600302478685148285F2
:10487300158374FFF0A30247CD120E87EAFCEBFD0C
:10488300851882851983AA82AB83121C0D850C823D
:10489300850D83A3A3A3A3A3A3A3A3E06401700F24
:1048A3001245C57408120A7EAA82AB83121C0D122C
:1048B3004AD41256E04430F50878081208197401F6
:1048C300120A7E8582088583097808120815740BFD
:1048D300120A7E8582088583097808120815E51374
:1048E300F50878081208197900EEFCEFFD124F91D4
:1048F300120C4D740612082802461B124AD4125891
:104903004A124948E50BF0120E9F74101208287FD3
:104913000E0205CB120CFB8A0E8B0FA80EA90FE813
:104923004922A3A3125437120FFB227901AC08AD1D
:104933000912542C124AFA22AC0BA91312542C124A
:104943000CB97402221256E8A3A3A3A32274F01293
:10495300036A74F01208BC8A0C8B0DECFAEDFB753C
:104963000F089003F1124B1E6014125A628A828B55
:1049730083E58245836007A3E07003024ACF124AAE
:10498300D43400124B0AF50B88828983124ADDE086
:10499300FBEC2400FEE43BFF88828983A3A3124A35
:1049A300DDA3A3E0FBECF508E43BF50988828983EA
:1049B300A3A3A3A3A3A3A3E0F50EE50AA2E45003D4
:1049C300750F10A2E550067408250FF50F748F5567
:1049D3000A700FE50C2417F582E50D125F1A650FB7
:1049E30060087901121BF5024ACF530A707800E57B
:1049F3000AA2E45022124AD4125F1A2408FCA3E04C
:104A03003400FD7408120A7EAA82AB83121C0D784F
:104A130008E50AC2E4F50AE50AA2E55028124AD4D9
:104A2300125F1A28F8A3E03400F9E82408FCE934FB
:104A330000FD851882851983AA82AB83121C0DE5BC
:104A43000AC2E5F50AAC0EA90BEEFAEFFB120CBF96
:104A5300E9F87403686075900364E06E7003A3E083
:104A63006F605EE87054E50AF50F780F12081912AB
:104A73004AEB120828E97054780A120819740112D3
:104A83000A7E85820C85830D780C120815740B122F
:104A93000A7E85820C85830D780C120815E50BF5CB
:104AA3000A780A120819A90EAC08AD09EEFAEFFB51
:104AB300120C4D74061208288012740468700D805D
:104AC300B7780A120819124AEB1208287410024226
:104AD30094E50C241DF582E50D22A3A3A3E0FC8835
:104AE300828983A3A3A3A3227901124CD112585B19
:104AF300124B00124AFA22120C77740122E0FCA333
:104B0300E0FDAA08AB0922F583123F10A3E0F50AE2
:104B130088828983A3A3E0229003351254932274DD
:104B2300E812036A74F51208BCEAFEEBFF8C088DE9
:104B33000989147423120A7EE0F50F7424120A7E85
:104B4300E0F512A3E0F5137426120A7EE0F516A32E
:104B5300E0F5177428120A7EE0F50EA90F120CC5B2
:104B63008A108B117401120A7E7408F0E50EA2E418
:104B730050037410F0E50EA2E55004E02408F0851C
:104B83001882851983AA82AB83120EF98A0C8B0DC6
:104B9300EA450D7003024CB1EA2417F582EB124C7F
:104BA300C3120E87E50C241AF582E50D12584A123A
:104BB30038507403120A7EAC82AD83AA10AB111273
:104BC3000A91E9601D124CBB7403120A7EA882A9E4
:104BD30083E50C2418F582E50D12584AE8F0A3E9A1
:104BE3008024E50EA2E4501FE5106E7003E5116FFB
:104BF3007015124CBBE50C2418F582E50D12584ACA
:104C0300E512F0A3E513F0124CCA124CD9850A82BF
:104C1300F5837402F0A3E50E124CE1E50FF0EE8587
:104C23000A82850B83A3A3A3F0EF850A82850B83F6
:104C3300A3A3A3A3124CE1A3A3A3E508F0E509856D
:104C43000A82850B83A3A3A3A3A3A3F0AA10AB118A
:104C5300120CB3E92514850A82850B83A3A3A3A3AE
:104C6300A3A3A3F0750800E50EA2E45011AC12ADA6
:104C730013E50A2408FAE50B12424D750808E50E00
:104C8300A2E55014AC16AD17E50A2508F8E50B3478
:104C930000F9E8240812424B850C82850D83A3A3F7
:104CA300E510F0A3E511F0AA0CAB0D120B39740B50
:104CB3001208287F100205CBE50C2416F582E50DBA
:104CC30012585B7401F022124CD112585B22E50C8E
:104CD300126861E50D22E0F50AA3E0F50B22F085E9
:104CE3000A82850B83A3A32274F212036A8A088BB8
:104CF30009ECFEEDFF890A7900124D7F7003A3E0F2
:104D030069700479018073750B01900364E0650891
:104D13007004A3E06509601F750B00780B12081976
:104D2300A90AEEFCEFFDAA08AB09120F4D7401129C
:104D33000828E9F50B80417900EEFAEFFB120CFB32
:104D4300EA4B602B8A828B83A3A3A3A3A3A3E05480
:104D530018601C7508FE7509FF78081208158A8209
:104D63008B83A3A31206851266761208288009791D
:104D730001EEFAEFFB120BD5A90B8014120D078A73
:104D83000C8B0DA80CA90D900364E068221208286F
:104D93007F060205CB74F412036A7508BF7509090F
:104DA3007A1012637E8B0BEA450B70031240A790B7
:104DB300034FE014F0700C90231AE49390034FF028
:104DC300120D137E007F00806C850882850983A302
:104DD300A3A3A3E06059F46056E5082404F582E533
:104DE30009125D467049850882850983A3A3A3A39D
:104DF300A3E064037019790285088285098312454B
:104E0300D0850882850983A3A3124F98120C53857A
:104E13000882850983A3A3A3A3A3E064016010858B
:104E2300088285098374FEF0A304124EF2E4F012A3
:104E330030DF122F319023091264DA408C7E007F19
:104E4300008039120E2D8E088F0974037808120919
:104E53005E74372508FC740B3509FD7A5F7B0C12F1
:104E63000E1BEA4B70DD8E088F0974037808120954
:104E73005E124EC0126721E4F01230DF902310E47B
:104E830093F8C3EE98EF9400501B8E088F097403B8
:104E9300780812095E124EC8E82407F582E9125D0C
:104EA3004670D680A17E007F00800A124ED3600236
:104EB30014F01230DF1264D740F1023A56124EC892
:104EC300888289832274372508F8740B3509F922FF
:104ED300EEF8EFF9E875F006A4F8AAF075F006E924
:104EE300A42AF974D728F582740A39F583E02212CB
:104EF3004EF9A3A3A322F0850882850983A3A322E5
:104F030074F712036A74E11208BCECFEEDFF750836
:104F130000EE4F60728A828B83E0241C125D77124D
:104F23004B1E60638A828B83124F98851882851982
:104F330083AC82AD83EA241BF582EB125C48EA243E
:104F43001CF582EB124F94120E6F740B120A7E1231
:104F53004F9C7003A3E069702E7402120A7EE06412
:104F6300017024741D120A7E123D8DE064017017D6
:104F7300741D120A7E123D8FA3A3E0F88E828F83E5
:104F8300E0687003750801A908741F02383D124CCC
:104F9300D13400F58312543722122886E068227434
:104FA300F412036AE970247900900349123D8D12CB
:104FB3001E228A0A8B0BAE0AAF0B74FE6E7003744B
:104FC300FF6F701A902317E49360137901900349DC
:104FD300123D8D121E228A0A8B0BAE0AAF0B120EE4
:104FE300BD02325874F612036A74F31208BC121429
:104FF3004B8A088B09AE08AF09900364E06E700317
:10500300A3E06F60E9120E93EA6E7002EB6F60DE4D
:10501300EEFAEFFB120F11E970D4EE4F60D0851852
:1050230082851983E4F004120A7EEEF0A3EF125096
:105033004AE970BA74FE6E700374FF6F60B0EEFAE3
:10504300EFFB740D0238E9123937120AA922C08224
:10505300C083120EBD0235037F0A0205CB74F21220
:10506300036AEAFEEBFF8C0A8D0B8908740E120AA1
:105073007EE0F50974FC6E700374FF6F70057900B0
:10508300024D937900120D078A0C8B0DAE0CAF0DF8
:10509300900364E06E7003A3E06F7006E509A2E677
:1050A30050DCA909126564706179007AFE7BFF12F6
:1050B3006564705674185509700302519778007926
:1050C300008003122A80902309122A774003025199
:1050D30097E8FAE9FBEA75F007A4FAACF075F00774
:1050E300EBA42CFB74C52AF58274093BF583E054C9
:1050F3001870D0E875F007A4F8AAF075F007E9A4D2
:105103002AF974BF28F8740939F988828983A3A31B
:10511300A3A3A3A3E05418600974185509700302EC
:10512300508188828983EEF0A3EFF074FE650A70E4
:105133000474FF650B60031252BE88828983A3A3A4
:10514300A3A3A3A3E509F0A2E0500D88828983A35A
:10515300A3A3A3A3A3D2E2F0740165088882898381
:10516300A3A3A3A3A3703874011252E2E0541860FE
:105173002890231BE49388828983A3A3A3A31252B9
:10518300AC120FFB8B0DEA450D60030250817800D2
:10519300790080397902025083900363E080D7E07D
:1051A3006401700302508188828983A3A3A3A3A30C
:1051B300A3E05418600790231BE4938004900362D8
:1051C300E0124254E508F0025081122A8090231124
:1051D300E493FAC3E89AE9940040030250817A0009
:1051E3007B00804BEAFCEBFDEC75F007A4FCAEF012
:1051F30075F007EDA42EFD74C12CF58274093DF5FD
:1052030083125863E8FCE9FDEC75F017A4FC85F004
:105213000975F017EDA42509FD744F2CF582740868
:105223003DF583E06E7003A3E06F609E122FB49090
:105233002309122F4140AD1242DEEC6A7002ED6B7E
:105243007088E875F017A4F8AAF075F017E9A42A96
:10525300F9744F28FE740839FF7C177D007900EE3E
:10526300FAEFFB12143F8E828F831252C4900371A4
:1052730012529EA3A3A3A3A3A3E8F0A3E91252A4EB
:105283007401F0EE240E12584774011252CC12022C
:1052930019EE240D125847E80251C91236D2A3A3BE
:1052A30022F0EE240F12585822F01252B5AA0AAB7C
:1052B3000B22900371E0FCA3E0FD2288828983A383
:1052C300A3E50AF0A3E50BF022F01252D1229023BA
:1052D30014E4932401F8E43400F97A027B002212E7
:1052E3004260A32274ED12036A8A088B09890E12A5
:1052F3005415400579050253E31216FDAA08AB09BC
:105303001254E79023071253E6650A7003E9650B0D
:1053130070077AFE7BFF1254E7902307E41253EEE3
:10532300E50A98E50B9940030253E11253F2601228
:10533300E50A75F006A4F875F006E50B12543D1264
:1053430014D5E50E6018E50A75F006A4F8AAF07501
:10535300F006E50B125469701A79010253E3E50A6A
:1053630075F006A4F8AAF075F006E50B12544AE4AA
:10537300F0A3F0E50A75F006A4F8AAF075F006E5C7
:105383000B12540AA31256F688828983A3AA82AB0E
:10539300831254588A828B83E0603F1253F2603A3F
:1053A3008E108F117512007810120811E50EC33399
:1053B300FCE433FDE50A75F006A4F50AA8F075F0E0
:1053C30006E50BA428F50B74DB250AF582740A3570
:1053D3000B124F96122F5212082879008002790778
:1053E30002657A122BD9E8229022FF125F0122E58F
:1053F3000A75F006A4F8AAF075F006E50B125445F9
:10540300F8A3E0F9E84922A42A12559E88828983E9
:10541300A322ECFEEDFF902312E493F8E9C3982254
:10542300F5831254371214D522E50C126861E50D89
:105433003400F583E0FAA3E0FB22125445FAA3E01B
:10544300FB2212544AE022A42AF974DB28F5827461
:105453000A39F58322E50EF0900C8912546222E09A
:1054630088828983F0221255C2F50CE93400F50DC8
:10547300E50EC333FAE433FB1214CF850C82850D9A
:1054830083EAF0A3EBF0850C82850D8312549322FB
:1054930012428CE8492274F412036AECFEEDFF74A5
:1054A3000C120A7E1238D7880889091254E7AC0A0D
:1054B300AD0BECF8EDF99023071254EF5021E8758A
:1054C300F006A4F8AAF075F006E912540AE08E82F9
:1054D3008F831255021254F81238E379008002794F
:1054E30004023A56120C898A0A8B0B22122F4AC3E2
:1054F300EC9AED9B22124288850882850983221249
:1055030055D72274F612036A7E007F008028EEF8D6
:10551300EFF9E875F006A4F8ACF075F006E9A42CF1
:10552300F974D928F582740A1261856A7003A3E0BD
:105533006B60571230DF1264D740D31264D270020B
:10554300E96F704674FE6A700374FF6B703C7E00F3
:105553007F0080031230DF1264D7502E124ED370B7
:10556300F3EEF8EFF9E875F006A4F8125594125526
:10557300C960171255B0F8E91255A888821254234E
:10558300850882850983E4F0A3F0EEFAEFFB023885
:10559300EC75F006E912559C22A42AF974D728F871
:1055A300740A39F9223400F98808890922EEF8EFE0
:1055B300F9E875F006A4F875F006E91255C222124F
:1055C300559CE8240422A3A374FE1255D4125493C9
:1055D30022F0A3041255DB22F088828983A3A3A3BC
:1055E300A32274F612036AEA241DF582EB1256E035
:1055F300F9604BEA241DF582EB125F1A2402FCA327
:10560300E03400FD12541940030256D37800802978
:105613008C828D83E0F508A3E0FFE5082400E43FD6
:10562300F509E833FEE433FF741F2EF582740B3F54
:10563300F5831256F61256D608E8C39940D28A82E9
:105643008B83A3A3A3A3A3A3A3A3A31245D09003D4
:1056530064E06C7003A3E06D700F7C1F7D0B122759
:10566300EF124F94120C7D8067EA2411F582EB123E
:105673005F1A605CFC74FF2CF0750801780812084F
:105683001975081F75090B7808120815E9F50878CC
:1056930008120819EA2412F582EB125F1AF508784A
:1056A30008120819EA2415F582EB12584A120685E6
:1056B300ECF91227EF1245CD8A828B83A3A3A3A310
:1056C300A3A3A3A3A3124F98120C9574071208283F
:1056D3000238ECEC24020C0CED3400FD2212585B72
:1056E3001256E8E022E0F8A3E0F5838882A322883B
:1056F300828983E508F0A3E509F02274EA12036ABC
:1057030074FD1208BC8A148B158C0E8D0F890D74D1
:1057130019120A7E125863741B120A7EE0F5117483
:105723001C120A7EE0F50C741D120A7E124CD97409
:105733001F120A7EE0F5106008E50CC333240480D1
:10574300027402C0E07401120A7ED0E01258748A17
:10575300088B09EA4509700302583F8A828B83A3A9
:10576300A3E514F0A3E51512636DE50EF0A3E50FB1
:10577300F0EA2413F582EB12584AE50DF0EA2414FB
:10578300F582EB12584AE511F0EA2417F582EB1281
:105793005F1A64017040120E8D8A0E8B0FA80EA93A
:1057A3000F850882850983A3A3A3A3E0687003A3DD
:1057B300E0696022EE4F6011E508241AF582E509DD
:1057C30012584AEEF0A3EF800CE5082417F582E5A2
:1057D3000912584AE4F012584E1258638E828F838E
:1057E3007405F0A3E5107004E50C80487401250CE2
:1057F30012586D7A008028850A82850B83E012583F
:1058030069850A82850B83A3E08E828F83F0E50A84
:105813002402F50AE50B3400F50BA30EAF830AEA65
:10582300C3950C40D2120E8DEA125869120E8DEBFD
:105833008E828F83F0AA08AB09120B3974030249D5
:105843000FEE240CF582EF12585B22122800125837
:105853005B22EE240BF582EF3400F58322900330B4
:10586300E0FEA3E0FF228E828F83F0A3AE82AF839C
:1058730022123937120EF922C082C083E9C333FCE6
:10588300E433FDEA2CFAEB3DFBEA24FEF582EB342C
:10589300FF124F9602350374F212036A89098A0ACA
:1058A30012541540047900804075080080020508F1
:1058B300E508C39509502AE508C333F8E433F9EE44
:1058C30028F582EF39F583C082C083120E8D8A0CCE
:1058D3008B0DD083D082E0650C7004A3E0650D705E
:1058E300CDE50A650870BE7901024D9374F0120389
:1058F3006A74F31208BC8A088B098C0A8D0B890C15
:10590300750D00120F11E9790060030259F1AA081D
:10591300AB09120D07A90C120CFB8A0E8B0FAE0EEE
:10592300AF0FEE4F70030259EF8E828F83A3A3A3B1
:10593300A3A3A3E0A2E240030259EF120E8DEA658E
:105943000A7003EB650B7011780D120819E4F50E5C
:10595300F50F780E1208158044AA0AAB0B120AEB56
:10596300E9640170688518828519837404F07401F1
:10597300120A7E1252C4851882851983AA82AB83C8
:10598300120AA9E964017045750D01780D12081911
:10599300E4F50EF50F780E120815750D00780D124B
:1059A3000819780D1208197408120A7E85820E856B
:1059B300830F780E12081590231DE493F9AC0AADFA
:1059C3000BAA08AB09120C9574071208288E828F54
:1059D30083A3A3A3A3A3A3E0A2E1400D8E828F839D
:1059E300A3A3A3A3A3A3C2E2F0750D01A90D0242D1
:1059F3009274F612036AE9FE7900120D07EEF912AA
:105A03000CFB8A088B09A808A909E84960061268F3
:105A1300A8F9800279040238EC74F612036A7E074F
:105A2300900358E07034125A628A088B09A808A9B7
:105A330009E849602590035DE0640188828983A3B6
:105A4300A3700B125A69888289835001A3A3E0F9DA
:105A5300121019E9FEEE70027E07EEF90238EC121D
:105A630052B5120FFB22E0FA88828983A3E0C39A1E
:105A73002274EE12036AEAFEEBFF890A8C0C8D0B8B
:105A83007412120A7E1236C6125B3E12541C505117
:105A9300890E750F007403780E12095E743D250E8E
:105AA300F582740B350FF583E0F8E50CC398502DA0
:105AB300E50B60247511007403781012095E7437C6
:105AC3002510F8740B3511F988828983A3A3A3A346
:105AD300A3A3E50C125B48F0790002505B790380C5
:105AE300F979007AFE7BFF125B3EE4936510700444
:105AF300790280E6E50B60E0890E750F0074037888
:105B03000E12095E7437250EF8740B350FF988826F
:105B13008983A3EEF0A3EF125B481252E2E50C1265
:105B2300425C74FF126727E50AF0900362E0888203
:105B33008983A3A3A3A3A3A3A3809C120CF5E9F5D4
