:020000040000FA
:06000000020A110201BD1D
:03002B0002085C6C
:0300330002066A58
:030053000200EEBA
:03006B000206503A
:10008300020152010101010503010F10FEFF8F124E
:100093008F128F128F1245113F118F12BC1F000058
:1000A30000001E20000000000C0000000C0001FFF7
:1000B300FF0101003B050000009605E803640064AE
:1000C30000B80102020008000005020701051E0234
:1000D300051E020A0A03B80B02803E010201F1FF6A
:1000E3000A1401E096511800020206C0E074F212ED
:1000F30003D6A2AFE433FED2AFE5A7FFE5A1F5082F
:100103005F541060061219B575A1EFE5085F540836
:1001130060081219BB75A1F7802BEFA2E0C0D0E5F0
:1001230008A2E092F012094B158182F050179061FA
:1001330098E0F8900669E0C398A2D265D0335002E4
:10014300E8F075A1FEEEA2E092AF7F01020435C094
:10015300E074F21203D6A2AFE433FED2AF9061A4EF
:10016300E0F8759B00E59158540860087591F71203
:100173001A03802AE59158541060087591EF121AFA
:1001830009801BE8A2E0C0D0E591A2E092F0120939
:100193004B158182F05007E0C2E0F0121B4D9061D5
:1001A300A3E0F8E5E9585404600E121B2375E9FB3C
:1001B300906193E0A2E640F2808BC0E074F21203F8
:1001C300D6A2AFE433FED2AF9061A5E0F8E5BF5805
:1001D3005404600675BFFB121B65020148C3E49813
:1001E300F8E499F91202218026C3E49AFAE49BFB0E
:1001F300E920E7E9120221E498F8E499F922C3E43B
:1002030098F8E499F9120221E498F8E499F9C3E41F
:100213009AFAE49BFB22EB20E7CFE920E7E0B90061
:1002230010BB0008E88AF084F8AAF022E4FBC8FABD
:1002330022EB70227B10C833C8C933C9335007C3BC
:100243009AC3DBF280069A50012ADBEAC833F4C86A
:10025300C933F4C9FA2275F008E4C833C8C933C9ED
:1002630033C99AC99B5004C92AC93BD5F0ECFBC8D2
:1002730033F4C8E4C9FA22080808EAC0E0EBC0E096
:1002830086F0E7A4FA180986F0E7A42AFA18098683
:10029300F0E7A42AFA180986F0E7A42AFA1986F0E7
:1002A300E7A4FBE5F02AFA190886F0E7A42BFBE59F
:1002B300F03AFA190886F0E7A42BFBE5F03AFA18AE
:1002C300180986F0E7A4C5F02BFBE43AFA1908E70E
:1002D300C5F0C6A426F6E5F03BFBE43AFA1886F02F
:1002E300E7A4F6E5F00826F6E43B08F6E43A08F658
:1002F300D0E0FBD0E0FA22E4CFC0E0E4CEC0E0E4FB
:10030300CDC0E0E4CCC0E075F020C3E633F608E6E8
:1003130033F608E633F608E633F6181818EC33FC20
:10032300ED33FDEE33FEEF33FFC3EC9709ED970991
:10033300EE9709EF97191919400FFFEC97FC09ED98
:1003430097FD09EE97FE191906D5F0BEECF709EDF6
:10035300F709EEF709EFF7191919D0E0FCD0E0FD22
:10036300D0E0FED0E0FF222518C582C0E0E51934B5
:10037300FFC583C0E0E518C3958224F810AF088554
:1003830083198582188008858319858218D2AFCE98
:10039300F0A3E520F0A37808E608F0A3DEFAEFF077
:1003A300A3E58124FAF8E608F0A3E608F0A3E6083B
:1003B300F0A30808E608F0A3E608F0A31581158169
:1003C300D0E0FED0E0F8158115811581E8C0E0EE9C
:1003D300C0E022C0D02518C582C0E0E51934FFC5AE
:1003E30083C0E0E518C3958224F310AF0885831911
:1003F3008582188008858319858218D2AFC8F0A337
:10040300E9F0A3EAF0A3EBF0A37908E709F0A3D896
:10041300FAECF0A3EDF0A3EEF0A3EFF0A3D0E0F03D
:10042300A3D0E0F0A3D0E0F0A3E520F0A3E5F0F043
:10043300A322851983851882E0C0E0A3E0F9A3E035
:10044300FAA3E0FBA37808E0F608A3DFFAE0FCA335
:10045300E0FDA3E0FEA3E0FFA3E0C0E0A3E0C0E073
:10046300A3E0F5D0A3E0F520A3E0A3F5F010AF08D7
:100473008583198582188008858319858218D2AFF0
:10048300D082D083D0E0F8D0E032120A73B90003EF
:100493000204CFE49003017839790A8002F0A3D8EB
:1004A300FCD9FA900C39AA82AB83900086786979DB
:1004B300018015E493A3AC82AD838A828B83F0A37E
:1004C300AA82AB838C828D83D8E9D9E77582937531
:1004D30083D274031207D475822375831E740012AA
:1004E30007D40E000975F0108E1A8F1B85821F85A5
:1004F300831E851882851983E0CEA3E0CF851F82F2
:10050300851E83EBC9EAC8EDCBECCAC3E833C8E95F
:1005130033C9EA33CAEB33CBC3EA9EF51DEB9FF530
:100523001CB35004AB1CAA1DEC33CCED33CDD5F07A
:10053300DAAE1AAF1B22D083D082ECC0E0EDC0E06C
:10054300E493A3FCE493A3FDED4C600D120611ECC0
:1005530024FFFCED34FFFD80EFE493A3FCE493A3BD
:10056300FDED4C600D1206DFEC24FFFCED34FFFDC6
:1005730080EFD0E0FDD0E0FCE493A3C0E0E493C0BF
:10058300E022D083D082E9C0E0E493A3C386F0C520
:10059300F095F0F908E493A386F0C5F095F0700B9D
:1005A300E493A3C3994005E9048002A3E475F00230
:1005B300A42582F582E5F03583F583D0E0F9E49351
:1005C300A3C0E0E493C0E022851983851882E0A3E9
:1005D300FEE0A3F5207808E0A3F608DFFAE0A3FF26
:1005E300E0A3C0E0E0A3C0E0E0A3C0E0E0A3C0E07C
:1005F300E0A3C0E010AF08858218858319800885C1
:100603008218858319D2AFD083D0820207DAC0E083
:10061300C3E49396087401939618400FE4936670AD
:100623000808740193661870007019A3A3C3E493B8
:1006330096087401939618A3A3400DD0E0D0E0D0A0
:10064300E0020575A3A3A3A3A3A3D0E022C0E07493
:10065300F21203D6E589A2E150031218E975890065
:10066300C2C57F01020435C0E074F21203D6E58BE4
:10067300A2E050031218E9758B00C2E880E4740409
:10068300800474028000CCC0E0EDC0E0E518C39C98
:10069300CCAD1950011D10AF068C188D1980068C36
:1006A300188D19D2AF120756D0E0FDD0E0FC2274AA
:1006B300028000CCC0E0EDC0E0E518C39CCCAD19CE
:1006C30050011D10AF068C188D1980068C188D19DA
:1006D300D2AF120734D0E0FDD0E0FC22C0E0C0F07E
:1006E30088F0E4936670080874019366187000A894
:1006F300F0A3A3700BD0F0D0E0D0E0D0E0020575FA
:10070300A3A3D0F0D0E022D083D082CCC0E0E49386
:10071300A360061207B51470FAE493A360061208E7
:10072300A61470FAD0E0FCE493A3C0E0E493C0E025
:1007330022CAC0E0E493A3C582CCC582C583CDC5DC
:1007430083F0A3C582CCC582C583CDC583DAE5D04A
:10075300E0CA22CAC0E0E0A3C582CCC582C583CD6E
:10076300C583F0A3C582CCC582C583CDC583DAE634
:10077300D0E0CA22C008C3E096F50808A3E0964279
:100783000808A3E096420808A3E09645087001D341
:10079300D008227009080808226016181818C6C362
:1007A30033C608C633C608C633C608C633C6D5E043
:1007B300EA22C0E0E493A3D39C5010E493A3C39C28
:1007C300400AD0E0D0E0D0E0020727A3A3A3D0E003
:1007D30022C09FF59FE473D09F22D083D082C09F15
:1007E300E493C0E0740193C0E0740293F59F222563
:1007F30018F58210AF08F518400215198008F5188E
:1008030040021519D2AF851983227404800A740338
:100813008006740280027401C0E0F4041207F2D06F
:10082300E0120A4E22C0D0251810AF08F518500266
:1008330005198008F51850020519D2AFD0D022BB94
:100843000102E722C082C08389828A83BB0003E05E
:100853008002E493D083D08222C0E0C0D0E8C0E01D
:10086300E5A8D2AFC2C7A2E792AFD0E0F8D0D0D00C
:10087300E0326016080808C6C313C618C613C618A4
:10088300C613C618C613C6D5E0EA22C3E0C696F659
:1008930008A3E0C696F608A3E0C696F608A3E0C64A
:1008A30096F622C0E0E493A36C7009D0E0D0E0D0C8
:1008B300E0020727A3A3D0E022251810AF08F518FC
:1008C300400215198008F51840021519D2AF22E726
:1008D3006670100809E766700A0809E7667004087D
:1008E30009E76622C3E09608A3E09608A3E096080A
:1008F300A3E096A2D265D03322E066701008A3E08D
:1009030066700A08A3E066700408A3E06622C3E0E9
:1009130096F008A3E096F008A3E096F008A3E0960B
:10092300F022E026F608A3E036F608A3E036F60840
:10093300A3E036F622E627F60809E637F60809E6C5
:1009430037F60809E637F622C0E0E8C0E0E581247F
:10095300FCF8E6A2E7D0E0F8D0E022700422600DB4
:1009630018C6C333C608C633C6D5E0F41822E65703
:10097300F60809E657F60809E657F60809E657F6B2
:1009830022E056F608A3E056F608A3E056F608A3BD
:10099300E056F622E056F008A3E056F008A3E0562E
:1009A300F008A3E056F022E647F60809E647F60802
:1009B30009E647F60809E647F622E026F008A3E031
:1009C30036F008A3E036F008A3E036F022E4C3963D
:1009D300F608E496F608E496F608E496F622C6F4DA
:1009E300C608C6F4C608C6F4C608C6F4C622C3E7DA
:1009F300960809E7960809E7960809E79622C3E0EF
:100A03009608A3E09608A3E09608A3E0962275D083
:100A1300007581407518017519030002048DE0F615
:100A230008A3E0F608A3E0F608A3E0F622600C08AA
:100A3300C6C313C618C613C6D5E0F422E6F008A34E
:100A4300E6F008A3E6F008A3E6F022CAC0E0E6F069
:100A5300A308DAFAD0E0FA22E0FAA3E0FBA3E0FC71
:100A6300A3E0FD22EAF0A3EBF0A3ECF0A3EDF02268
:100A7300E5C754F84401F5C77901222518F582E446
:100A83003519F58322C2AF75D69F020000221207E3
:100A9300DDAF25001207DDEA25001207DD2E260053
:100AA3001207DD5526001207DDA626001207DD56C4
:100AB30027001207DD0E28001207DDD628001207D3
:100AC300DD9629001207DDDA29001207DDFF290070
:100AD3001207DD422A001207DD8F2A001207DDE725
:100AE3002B001207DD6D2C001207DD8B2C00120783
:100AF300DDB52C001207DDCF2C001207DDDE2C0044
:100B03001207DDE92C001207DDA92D001207DD0213
:100B13002E001207DDC42E001207DDCC2E001207B3
:100B2300DD902F001207DDFC2F001207DD273100B7
:100B33001207DD4C31001207DD5D31001207DDD3F2
:100B430031001207DD6532001207DDBD32001207E6
:100B5300DD7D33001207DD9C33001207DDAB34006B
:100B63001207DDBD34001207DD1035001207DD4D1D
:100B730035001207DD5A35001207DDDD3600120796
:100B8300DD3238001207DD6438001207DDF7380064
:100B93001207DD4539001207DD613A001207DDAAAD
:100BA3003C001207DDB53C001207DDC03C00120714
:100BB300DDCB3C001207DDD53C001207DDE03C0035
:100BC3001207DDFA3C001207DD043D001207DD0EBB
:100BD3003D001207DD193D001207DD413D001207FC
:100BE300DD9C3D001207DDA63D001207DDCA3D0076
:100BF3001207DDEE3D001207DD4C3E001207DD90CB
:100C03003E001207DDAC3E001207DD233F00120752
:100C1300DD5B3F001207DDA73F001207DD04400044
:100C23001207DDBE40001207DDA242001207DDFB02
:100C330042001207DD2B44001207DD514400120766
:100C4300DDDA45001207DD5649001207DD284B00A7
:100C53001207DDF14C001207DD9E4D001207DD097E
:100C63004F001207DDA84F001207DDED4F001207FA
:100C7300DD5750001207DD6650001207DDED52000C
:100C83001207DD9F54001207DD0C55001207DDEB40
:100C930055001207DD0457001207DD8158001207C3
:100CA300DDA058001207DDF558001207DDFA5900E0
:100CB3001207DD225A001207DD7A5A001207DD59A6
:100CC3005B001207DD9D5B001207DDE85B00120786
:100CD300DD535C001207DD945D001207DDF85D0053
:100CE3001207DD465F001207DDA661001207DDD79C
:100CF30061001207DD8F63001207DDE46300120752
:100D0300DDE864001207DD8565001207DDDE65009E
:100D13001207DD9166001207DD3367001207DDD38A
:100D230067001207DD7868001207DD908001120763
:100D3300DDCF80011207DD1683011207DD60830119
:100D43001207DD7B84011207DDEB84011207DD202E
:100D530085011207DD9486011207DD178901120749
:100D6300DD408A011207DDD68A011207DDDE930119
:100D73001207DD7394011207DD5A97011207DD4D47
:100D830098011207DDAE98011207DDCA9901120717
:100D9300DD109B011207DDF29B011207DDD79D01D8
:100DA3001207DDE89F011207DD52A0011207DD24BF
:100DB300A1011207DDDBA1011207DDE5A101120785
:100DC300DD13A2011207DDD0A2011207DDA7A301E3
:100DD3001207DD6EA4011207DD20A5011207DD490C
:100DE300A5011207DD6BA5011207DDC1A7011207DB
:100DF300DD99A8011207DDDDA8011207DD45A90170
:100E03001207DDFDA9011207DD2FAA011207DD7309
:100E1300AA011207DDA9AA011207DDF5AA0112072B
:100E2300DD4AAB011207DD4FAB011207DDA2AB01B7
:100E33001207DDC7AB011207DDD6AC011207DD3A9D
:100E4300AD011207DDAAAD011207DD36AE011207AF
:100E5300DD03B1011207DDE7B1011207DD6AB3015A
:100E63001207DDA0B5011207DD4EB6011207DDFE44
:100E7300B6011207DD3FB9011207DDE2B90112071E
:100E8300DD29BA011207DDD5BB011207DDE9BB017C
:100E93001207DDF3BB011207DD1BBC011207DD27BF
:100EA300BC011207DD46BC011207DD2DBE0112078E
:100EB300DD64BE011207DD6EBE011207DDA4BE01B3
:100EC3001207DDF3BF011207DD37C0011207DDDFB3
:100ED300C0011207DDC2C1011207DD6DC201120795
:100EE300DDB9C3011207DDB7C4011207DD5DC5011A
:100EF3001207DDEDC5011207DD04C6011207DD3B54
:100F0300C6011207DD45C6011207DD50C6011207EF
:100F1300DD6EC6011207DDB2C6011207DD0FC70180
:100F23001207DD34C7011207DD4EC7011207DDDAF0
:100F3300C7011207DDF7C8011207DD64C9011207F3
:100F4300DD4BCA011207DD72CA011207DDE6CA01D1
:100F53001207DD61CB011207DD65CC011207DD5BF2
:100F6300CD011207DD0ACE011207DD1DCF011207E5
:100F7300DDB9CF011207DD46D0011207DD24D1010F
:100F83001207DD5CD1011207DDB4D1011207DD7D4B
:100F9300D2011207DD9ED2011207DD25D30112070C
:100FA300DD49D3011207DD6BD3011207DDB4D30191
:100FB3001207DDCAD5011207DDB1D6011207DD62C2
:100FC300D7011207DD98D9011207DDE8D90112070D
:100FD300DD28DA011207DD6ADA011207DDC6DA015C
:100FE3001207DDF4DA011207DD18DB011207DD6BEE
:100FF300DB011207DD99DB011207DDD2DB011207EA
:10100300DD27DC011207DD8DDC011207DDE1DD01E7
:101013001207DD04E0011207DD71E0011207DD9A1A
:10102300E0011207DD25E1011207DD8CE101120762
:10103300DDD7E1011207DDFBE1011207DD1FE2014C
:101043001207DD7AE2011207DD95E2011207DD4E98
:10105300E3011207DDCCE1031207DD0BE203120704
:10106300DD7880021207DDBE80021207DD9E810259
:101073001207DDA082021207DDA383021207DD2F10
:1010830085021207DD8D85021207DD4A86021207EB
:10109300DD6887021207DDD987021207DD15880292
:1010A3001207DD6388021207DD6D88021207DDB1C6
:1010B30088021207DD0D89021207DDA889021207D3
:1010C300DD258A021207DDF48A021207DD8D8B0209
:1010D3001207DDAD8B021207DDE38B021207DD146D
:1010E3008C021207DDD58C021207DDE58C02120794
:1010F300DD398D021207DD548D021207DD668D0284
:101103001207DD6F8D021207DDC98D021207DD257F
:101113008E021207DD718E021207DD8C8E0212071A
:10112300DDBD8E021207DDDA8E021207DDE68E02C6
:101133001207DD5A90021207DD7390021207DDDAFF
:1011430090021207DDED90021207DDFB90021207F9
:10115300DDAF91021207DD9392021207DD9993022C
:101163001207DD2394021207DD2D94021207DD9A84
:1011730094021207DDB194021207DDE39402120711
:10118300DD1C95021207DD4695021207DDA79502C5
:101193001207DDC795021207DDE595021207DD2B65
:1011A30096021207DD5197021207DD9E970212077E
:1011B300DDCD97021207DD4398021207DD6B98021B
:1011C3001207DDA498021207DDB298021207DD0AA6
:1011D30099021207DD5999021207DD989902120745
:1011E300DDC899021207DDF499021207DDFF9902A7
:1011F3001207DD1D9A021207DDDF9A021207DDE9ED
:101203009A021207DD249B021207DD3A9B021207A2
:10121300DD8F9B021207DDA39B021207DDB19C0247
:101223001207DDC49C021207DDD99C021207DD7B85
:101233009D021207DDFE9D021207DDBC9E0212070E
:10124300DDC79E021207DDF39F021207DD0FA00226
:101253001207DD61A0021207DDA0A0021207DDB5AF
:10126300A0021207DD17A1021207DDA6A1021207D1
:10127300DDF1A1021207DD42A4021207DDC0A402C0
:101283001207DD35A5021207DD57A7021207DD6F2E
:10129300A7021207DD72A7021207DD7EA70212075B
:1012A300DD92A7021207DD9AA7021207DDCDA7027E
:1012B3001207DD7DA8021207DDF3A8021207DD661F
:1012C300A9021207DD1AAA021207DDCFAA0212072A
:1012D300DDEEAA021207DD8EAB021207DD9AAB0226
:1012E3001207DDC5AB021207DDC8AB021207DD3200
:1012F300AC021207DD5AAD021207DD32AE0212074D
:10130300DDBDAE021207DDD6AF021207DD93B002D8
:101313001207DDCCB0021207DDFDB0021207DDBB00
:10132300B1021207DDEBB1021207DDC6B2021207EA
:10133300DD5FB3021207DDEAB3021207DD9BB402DD
:101343001207DD1EB5021207DD50B5021207DD914B
:10135300B5021207DDC58B031207DD2A8C031207C2
:10136300DD678C031207DDB68C031207DDCC8E0319
:101373001207DDAF90031207DD1994031207DD5442
:1013830094031207DD7694031207DDD99403120741
:10139300DD0D95031207DD3595031207DD5895031F
:1013A3001207DD8595031207DD0080031207DD7D3B
:1013B300D7021207DDB480031207DD208103120771
:1013C300DD9382031207DDAF82031207DDF482038C
:1013D3001207DD8283031207DDDB83031207DD08B7
:1013E30085031207DD1A86031207DD7786031207CA
:1013F300DDE386031207DD4487031207DD858703D8
:101403001207DD3288031207DD8925001207DD6F1D
:1014130089031207DDBA89031207DD018A03120764
:10142300DD938A031207DD4E8B031207DD78D603A3
:101433001207DDC8D6031207DD46D7031207DD19ED
:10144300D8031207DDB0F8021207DDBAF80212075B
:10145300DD06F9021207DD74F9021207DD95F902C0
:101463001207DD45FA021207DD4EFA021207DDA16B
:10147300FA021207DDCAFA021207DD31FB02120774
:10148300DDC2FB021207DD04FC021207DD4EFC0283
:101493001207DDADFC021207DDD9FC021207DD6A7B
:1014A300FD021207DDA9FD021207DDE8FD021207A6
:1014B300DD1DFE021207DD2FFE021207DD41FE02D3
:1014C3001207DD60FE021207DD69FE021207DD313D
:1014D300FF021207DD1CE0031207DD61D0031207D0
:1014E300DD97D0031207DDE0D0031207DD30D2030E
:1014F3001207DDC468001207DD036A001207DD3F2F
:101503006A001207DDFE6B001207DD276C0012076D
:10151300DDBA6E001207DDFE6E001207DD87700074
:101523001207DD1F71001207DD8771001207DD2826
:1015330072001207DD6A72001207DDAA7200120739
:10154300DD3574001207DDA575001207DDCA7700CB
:101553001207DDF877001207DD1F78001207DD2878
:1015630078001207DD8378001207DD167900120771
:10157300DD347C001207DD0FE3031207DD25E303EF
:101583001207DD39C8031207DD4CC8031207DDE972
:10159300C8031207DD24C9031207DD3FC90312077D
:1015A300DD64C9031207DDA9C9031207DDDAC90324
:1015B3001207DD0BCA031207DD91CB031207DD4FC0
:1015C3007F001207DD857F001207DDA17F00120770
:1015D300DDE37F001207DDF37F001207DD229F03A7
:1015E3001207DD609F031207DD45A0031207DD7FAD
:1015F300A0031207DD79A1031207DD93A1031207EC
:10160300DD96A1031207DDA9A1031207DDACA10337
:101613001207DDAFA1031207DDB2A1031207DDB587
:10162300A1031207DDC9A1031207DDABA303120750
:10163300DDB9D7021207DD0ED8021207DD02D90287
:101643001207DD9BD9021207DDE5D9021207DD4738
:10165300DA021207DD5BDA021207DD3DDC02120754
:10166300DD44DD021207DD7FDD021207DD7FDF02CD
:101673001207DD9ADF021207DDE9DF021207DDFF41
:10168300DF021207DD0CE0021207DD40E002120761
:10169300DD59E0021207DD03E1021207DD5DE1021D
:1016A3001207DDABE1021207DDD0E2021207DDF221
:1016B300E2021207DD7AE5021207DDAFE502120747
:1016C300DD35E6021207DDAAE6021207DDAFE60208
:1016D3001207DDEBE6021207DD4AE7021207DD1C03
:1016E300E8021207DD50E8021207DD5AE80212078A
:1016F300DD5DE8021207DDDAE8021207DDF5E80234
:101703001207DD21E9021207DD5CE9021207DD5F42
:10171300E9021207DD6AE9021207DDA6E9021207F0
:10172300DD2ADF031207DD3BDF031207DDC3DF031F
:101733001207DD88E3011207DDB6E3011207DD01BD
:10174300E5011207DD7FE5011207DDFBE501120765
:10175300DD64E6011207DDA7E6011207DD30E701CC
:101763001207DDD6E7011207DD66E8011207DDA8DF
:10177300E8011207DDF1EC011207DD71EE0112073A
:10178300DD47EF011207DD76EF011207DDA8F10156
:101793001207DD28F4011207DDE1F4011207DDFE73
:1017A300F5011207DD55F9011207DD65F90112078D
:1017B300DDD2FA011207DD5EFB011207DD66FC01D3
:1017C3001207DDB0FD011207DDDFE9021207DD9923
:1017D300EA021207DD0BEB021207DD85EB021207AB
:1017E300DDE2EB021207DDE9EC021207DD59ED023F
:1017F3001207DD3DF0021207DD14F1021207DD814D
:10180300F1021207DDFEF2021207DDC8F30212072E
:10181300DD3EF4021207DDFDF5021207DD96F60246
:101823001207DD5CF7021207DD0ABA031207DD5E59
:10183300BA031207DDB6BA031207DD01BB031207B1
:10184300DD63BB031207DDCFBB031207DD82BC03DD
:101853001207DDC3BC031207DDDFBC031207DD3B48
:10186300BD031207DD79BD031207DD9ED403120702
:10187300DDCFD4031207DD89D5031207DDEFD503CE
:101883001207DD12D3031207DDC2E2031207DDD311
:10189300E2031207DD42FE011207DD50FE011207CB
:1018A300DD4DE3031207DDEFE0031207DDFFE00385
:1018B3001207DD17E1031207DD78E1031207DD28C4
:1018C300DE031207DDADDE031207DD11DF031207AE
:1018D300DD16DD031207DD38DD031207DDA2DD03AC
:1018E3001207DDADDD031207DDF1DD031207DD3481
:1018F300C1031207DD4AC1031207DD73C1031207D7
:10190300DD8EC1031207DDA9C1031207DDB3C103D5
:101913001207DDBDC1031207DDD0C1031207DDE9E4
:10192300C1031207DD90C2031207DD0FC3031207C1
:10193300DDAABD031207DDB8BD031207DD32BE0306
:101943001207DD16BF031207DDCFC0031207DDED5B
:10195300E2031207DDBDA8031207DD12A903120774
:10196300DD0EAB031207DD40AB031207DD62AB03F1
:101973001207DD7BAB031207DD94AB031207DD9E79
:10198300AC031207DD39AD031207DD4FD80312078D
:10199300DD73D8031207DD8CD8031207DDBFD8032C
:1019A3001207DDF0D8031207DD1ED9031207DD800D
:1019B300D9031207DD8FD9031207DD99D903120763
:1019C300DDA6D9031207DDBF7C001207DDE57C002D
:1019D3001207DD227D001207DD317D001207DD5085
:1019E3007D001207DDB87D001207DDC17D001207FF
:1019F300DD207E001207DD447E001207DD037F0039
:101A03001207DD107F001207DD217F001207DD5969
:101A1300E2031207DD76E2031207DDB0AD0312071E
:101A2300DD0EAF031207DD1BAF031207DD2EAF037D
:101A33001207DD4DAF031207DD63AF031207DD7736
:101A4300AF031207DDECAF031207DD51B00312073A
:101A5300DD01B1031207DDD6B1031207DDE6B103E1
:101A63001207DDF5B1031207DD61FF021207DD8501
:101A7300FF021207DDADFF021207DDD5FF021207D9
:101A8300DD9ECB031207DDC5CB031207DDE6CB03D7
:101A93001207DD4BCC031207DD04CE031207DD1D55
:101AA300CE031207DD29CE031207DD3DCE03120755
:101AB300DD5BCE031207DD65CE031207DD6FCE03B8
:101AC3001207DD82CE031207DDD5CE031207DD0E2A
:101AD300CF031207DD3DCF031207DD8BCF031207C0
:101AE300DDDACF031207DDF5CF031207DDFFCF03E6
:101AF3001207DD10D0031207DD56D0031207DD7B7A
:101B0300E1031207DDE695031207DD1096031207C2
:101B1300DD2C96031207DD3F96031207DD5596036E
:101B23001207DDB296031207DDE596031207DD21E6
:101B33009B031207DD479C031207DD7A9C03120700
:101B4300DDC69C031207DDF29D031207DD1A9E0317
:101B53001207DD2F9E031207DD3F9E031207DD836D
:101B63009E031207DDE49E031207DDF49E031207B2
:101B7300DDB0D9031207DDCBD9031207DDF4D90396
:101B83001207DD0EDA031207DD33DA031207DD5223
:101B9300DA031207DD6ADA031207DD98DA031207A4
:101BA300DDB2DA031207DD15E2031207DDB9C40360
:101BB3001207DDC0C4031207DDCCC5031207DDFC29
:101BC300C5031207DD22C6031207DD45C60312074C
:101BD300DD67C6031207DDA1C6031207DD07C703CE
:101BE3001207DD40C7031207DD8CC7031207DDB9F7
:101BF300C7031207DDD9C7031207DDE3DA031207B0
:101C0300DD05DB031207DDFDDB031207DD00DC036B
:101C13001207DD03DC031207DD75DC031207DDB3F6
:101C2300DC031207DDF4DC031207DD2EB203120717
:101C3300DD34B2031207DDADB2031207DDF2B203E6
:101C43001207DD25B3031207DD93B4031207DD91F9
:101C5300B5031207DDF6B5031207DD2FB60312072E
:101C6300DD4EB6031207DD9DB6031207DDB9B603D9
:101C73001207DDEAB6031207DDFAB6031207DD0722
:101C8300B7031207DD14B7031207DD00B803120709
:101C9300DD3EB8031207DD48B8031207DD58B90368
:101CA3001207DD63B9031207DD75B9031207DD7E81
:101CB300B9031207DD88B9031207DDF2A303120784
:101CC300DD37A8031207DD53A8031207DD95E203EE
:101CD3001207DD2FE3031207DD75D6021207DDD2EB
:101CE300D5021207DD85D4021207DD30D2021207B6
:101CF300DDC6D1021207DD7ED1021207DD2ECE0230
:101D03001207DDFACD021207DDC7CD021207DDABE4
:101D1300CD021207DDC9CC021207DD81CC02120706
:101D2300DDCCCA021207DD4CCA021207DD49CA0222
:101D33001207DD50C9021207DD1EC9021207DD5B5F
:101D4300C8021207DD86C6021207DD17C602120794
:101D5300DDE9C5021207DDE6C5021207DD702500C5
:101D63001207DD1C25001207DD7824001207DDEEC3
:101D730023001207DD8D23001207DDD3C5021207EE
:101D8300DD88C5021207DD77C5021207DD3B23009C
:101D93001207DD7AC4021207DD44C4021207DDF222
:101DA300C3021207DD93C3021207DD2923001207C2
:101DB300DD4489031207DD62C3021207DD2AC00274
:101DC3001207DDEABF021207DDDEBF021207DD41A3
:101DD300BF021207DD81BE021207DD03BC02120738
:101DE300DD94B9021207DD52B9021207DD26B802EB
:101DF3001207DDDBB7021207DD1AB7021207DDEDAA
:101E0300B6021207DD30B6021207DD00B602120772
:101E1300DD9BD7021207DDC6B5021207DD7E800304
:101E230000000080FBE4738F0001000506870001BA
:101E330000040624000200710C25000200730C2626
:101E4300000200750C27000200770C2800010079BE
:101E53000C290001007A0C840004007B0C8600012D
:101E6300007F0C2A000100800C2B000100810C2C48
:101E7300000100840C2D000800EF052E00010085F1
:101E83000C2F000100860C30000100870C3100018B
:101E930000880C32000100F70533000100F8053417
:101EA300000100890C36000100F905380001008AA1
:101EB3000C39000100830C83000200940C630001C1
:101EC30000030664000100EC0565000100820C6D4F
:101ED300000100930C6E000200ED05430001008B2E
:101EE3000C440002008C0C450001008E0C460002DD
:101EF300008F0C47000800FB0548000100910C4BC4
:101F0300000100920C04000100960CA1000100994D
:101F13000C37000100980C88000100970C3C00016D
:101F230000FA050000000000000001363601010040
:101F3300010201000103010001040106060502007C
:101F430000070100340801000F090401010D01001D
:101F5300FF0E08000017020000190100FF1A01001C
:101F6300011B0100FE1C0100081D0200001F0100EF
:101F73000120010001210200002301000F240200BF
:101F8300002601000127010008280200FF2A0100A2
:101F9300072B0102402C0100002D0100012E01003E
:101FA300012F0100FF30010B1C310800003A010032
:101FB300083B01000F2F0100000300710030016096
:101FC30000110070003102200350048000100061F2
:101FD30000000014006300730072006200430000FD
:101FE30000130006000000000004001200000000BF
:101FF300000000000004000400370037003C0244E6
:1020030000000000000000000065000000350081B2
:1020130000000005000000830000000103710301BC
:10202300030103010301030103220302030103105C
:102033000300030003000300030003000300034243
:102043000300032403060300030003040312032510
:1020530003230325032303040304030003000300F2
:102063000344030003000323030003650321003536
:10207300038103000305030003000300030101714F
:10208300010101010111010101310101010101807E
:1020930001100161013B00140063017301720162CD
:1020A3000143010001130106013D01350004011242
:1020B30001000100010001000104010401330133A7
:1020C300013C0144013201360000010001650100B9
:1020D3000135008101000105018201830100010333
:1020E3000271023001600211027002010202020257
:1020F300028002100261023A00410063027302721D
:1021030002620243020002130238000002000204CA
:10211300021202000200020002000204020402375B
:102123000037003C0244020002390000020002654D
:1021330002000235028102000205028202830200CC
:102143000203047104020460041104700402040213
:1021530004010402041004610400041404630473FE
:10216300047204620443040004130406040004001C
:102173000404041204000400040004000451046471
:1021830000000400040004440400040004000400EC
:102193000465040004350481046400050400048319
:1021A30004000436000100060000000F00000000D8
:1021B30000000000000000000003FFFF0000040314
:1021C300FFFF0000FFFF0FF4010005C4040320001C
:1021D3000100030B000000000000000003010F00DA
:1021E30000ED17130087170100ED170200511703C5
:1021F30000571704005D170500631706006F17FFEC
:10220300FF000001730D06A90D08A30D0BC10D10EE
:10221300EF0C02790D05970D077F0D0C550D0D671A
:102223000DFF000003EAF5E5D5D5C5B5A595958560
:10223300857575656555554545353525251515054B
:102243009F11CF11A511AB11C911BD11B711D51133
:10225300DB11E111ED11B1119911931100160F006A
:10226300000B150B020002220F320000068F12A191
:1022730012A7126911AD1263116F11A3109D10D92A
:1022830010DF10D3108B10EF120D131313F512017F
:1022930013FB120C0E020B040B0A0708000F30305D
:1022A30016181920231A1C1E3000011916181616A9
:1022B3001523030000034948424D18172505023032
:1022C3003017181921301B1D1F3000383C3E363B98
:1022D3003B352B432CE312B312B912C512BF12C301
:1022E30011E7110713F311F91102040201010101AE
:1022F3000902AF10B510A910E510BB10CD1000BE38
:10230300040A150004007F00E8030C002800000005
:1023130000000308100C0A03080900040001FF1E53
:102323001E0C05040F08C082C0838A828B83E0D20F
:10233300E7F01216EB023509C082C0837900122739
:10234300F5125850C082C0839003301245D6D08313
:10235300D082C3E09CA3E09D500C125F24FAA3E05B
:1023630012236C600109023509FBEA75F00BA4FA2C
:10237300A8F075F00BEBA428FB900332E02AF8A336
:10238300E03B8882F583E0540F2274F712036A89D5
:10239300081227F512289BACF075F00BE9A42CF971
:1023A300900332E028FEA3E039FF7401650860065C
:1023B3007402650870208A828B831228871238E999
:1023C30074026508701B1227461228CE70138E8282
:1023D3008F83E4F0800BEA2403FCEB1228691228B4
:1023E30075EEFAEFFB121DAB02384674F412036A62
:1023F30012684B79008E828F83E06076890A890B9D
:102403008065E50A75F00BA4FAA8F075F00BE50BEF
:102413001223797046E50A75F00BA4F8AAF075F05B
:102423000BE50B1228AD8E828F83E0850882850928
:102433008312298F850882850983A31238E9EE2444
:1024430003FCEF1228721236C71252CAAA08AB094C
:10245300121DAB7901900330124CDFE50A2401F51C
:102463000AE50B3400F50B12274EE50A9AE50B9BA0
:102473004090023A5C74F512036AEAFEEBFF740BB8
:10248300120A7E1236CC750A01EC4D602BEC1268F1
:1024930067ED1258501238E17901121D75E50845B0
:1024A30009606F850882850983A31268557902AA9A
:1024B30008AB09121D75805AE5084509602B1258AF
:1024C30054123F1E1236C81228B8700CEEFAEFFBF6
:1024D300121D6FE9F50A80CBEE2403FA1227F07080
:1024E300317903EEFAEFFB80CA8E828F83A3E06417
:1024F300FE7003A3E0F4700BEE24030A0A0A12270A
:10250300F0700CEEFAEFFB121D6FE9F50A8003750C
:102513000A00A90A7F030205CB74F712036A90032A
:1025230030123856EA4B602FEA75F00BA4FAA8F084
:1025330075F00BEBA428FBEAFEEBFF1214E7900304
:1025430032123856900332124B246012EEFCEFFD28
:1025530079001214578007900332E4F0A3F0023895
:102563004690033012428EC3EE98EF9922C082C088
:1025730083EC4D6005121C2580097C087D007900E1
:1025830012145702350974F612036A7900EA4B6094
:102593001878008808125B97EB125F2060047901BA
:1025A300780808E8C3940840EA0238F274F7120383
:1025B3006A74F31208BCECFEEDFF8518828519835B
:1025C300E4F004120A7EEAF0A3EB125050740312F3
:1025D3000A7EAC82AD83EEFAEFFB121D5DEEFAEFDD
:1025E300FB12140902384174F712036A74F31208D8
:1025F300BCECFEEDFF851882851983E4F0EAFCEB61
:10260300FD7403120A7E1229887401120A7E12389D
:10261300DD8E828F831238E974FE68700374FF695C
:10262300600479018002790002384174F712036A69
:10263300EAFEEBFF12268C70141226978E828F838C
:10264300E0F4F88A828B83E058F0121DABA90802EC
:10265300384674F712036AEAFEEBFF7508008E82B0
:102663008F83E0602212268C701D1226978A828B3C
:1026730083E08F838E82F8E058700CE0F88A828BB7
:1026830083E048F0121DAB80C4121D8DE9F5087478
:102693000165082212686012289F1227E1FAA3E05D
:1026A30039FB2274F412036A8A088B097C007D00CB
:1026B30012274612287512280612685279008508D7
:1026C30082850983A3E064FE7003A3E0F460717E56
:1026D300007F008062EEFAEF12236C6057EEFAEF90
:1026E300FBEA75F00BA4FAA8F075F00BEBA428FB3A
:1026F300900332E02AF50AA3E03BF50B85088285B7
:102703000983A3124F9E850A82850B83A3E06A7017
:1027130003A3E06B701EE50A2403FAE50B1227F10D
:10272300700AE50A2403FCE50B1228721227FA79D2
:10273300011258661230E512274EEE9AEF9B409530
:10274300023A5CEA24030A0A0AEB22900330125489
:102753003DC32274F312036A8A088B098A828B832E
:10276300A31268551227F5126852750C00122746FA
:102773001227F170547E007F0080491227D3FAA3F9
:10278300E0398A82F583E0540F60361227D3F50AC5
:10279300A3E039F50BE50A2403FCE50B12287C348E
:1027A30000FB121C1FE964017017850A82850B83E5
:1027B300A31254FEA31238E91227FA750C0112581A
:1027C300661230E512256440B2A90C7F050205CBE1
:1027D300EEF8EFF9E875F00BA4F81227E122AAF05E
:1027E30075F00BE9A42AF9900332E02822EF1228AE
:1027F300C822126866EB22122806125861EEF0A373
:10280300EFF022E508126867E5092274F512036AFE
:10281300EAFEEBFF8E828F83A31268557C007D0056
:10282300EE24030A0A0AEF122875EEFAEFFB121DD3
:102833008DE9F50A7401650A702912686012289BF4
:10284300AAF075F00BE91228AD850882F5831228EA
:10285300871228B8700DE5082403FCE509122869DE
:102863001228750225153400FDEE2403FAEF221217
:10287300287C3400FB121D5D223400FDE50824038F
:10288300FAE50922A312288C2212289022E0F8A349
:10289300E0F98E828F83A32212289F223400F583CE
:1028A300124292E875F00BA4F8221227E7F508A369
:1028B300E039F50922E8F0A3E9F0E5082403FAE595
:1028C300091228C8221228CE6401223400FB1214F4
:1028D30009E92274F312036A74E61208BC12684B06
:1028E300750C01750800750900750A00750B0085E4
:1028F3001882851983E4F0EE2403FCEF3400FD74A1
:1029030003120A7E122988E964017023740B120AE8
:102913007E1238E17401120A7E124FA27003A3E003
:1029230069605185188285198385820885830974B6
:102933000D120A7EE412298F740E120A7E1238E9F0
:10294300740D120A7EAA82AB83120AA9E96401708C
:102953000B740D120A7E85820A85830B780A12088E
:1029630015AC08AD09EEFAEFFB121D6974021208EB
:1029730028E9F50CEEFAEFFB120AA3A90C741A125C
:1029830008280227CE122C5B120AAF2212385112EA
:10299300428E22C082C083780079008003122A8687
:1029A30012274EE89AE99B5029E8FAE9FBEA75F009
:1029B3000BA4FAACF075F00BEBA42CFB900332E004
:1029C3002AFCA3E03B8C82F583E0540F70CF79009F
:1029D30080027901023509C082C083902305124227
:1029E300E4EC75F012A4FCA8F075F012EDA428FD38
:1029F30079FF7AD87B0612145702350974F712034C
:102A03006AE9FEEAFF7A007B00780079008028E813
:102A1300FCE9FDEC75F012A4FC85F00875F012EDED
:102A2300A42508122E9BC39E400AE0FCEFC39C40E2
:102A330003122FBA122A86122E8F40D3023846C0B1
:102A430082C083780079008003122A86122A7A5082
:102A53001F122E9FF470F2E875F012A4F8AAF07515
:102A6300F012E9A42AF974D828FA740639FB800411
:102A73007A007B00023509902305122F50C3E89A90
:102A8300E99B22E8240108E93400F92274F01203D7
:102A93006A74F31208BC8A0A8B0B8C0C8D0D89089F
:102AA300EC450D6016AA0CAB0D120AFD8A0E8B0FB6
:102AB300AE0EAF0FEE4F6003022B4D120AD38A0EF8
:102AC3008B0FA80EA90FE8FEE9FFE849607C90236D
:102AD30013122BAF60227403650860067404650843
:102AE30070167A047903120ACD902313122BC64071
:102AF300077A007B00022BAC902311122BAF601BD3
:102B030074016508600674026508700F7A02790122
:102B1300120ACD902311122BC650D685188285191F
:102B2300837401F0120A7E1252CAAC0CAD0D740309
:102B3300120A7E122C54740B120A7E1236D4123CE3
:102B430092E41252B2120FE38004EE4F604A78000F
:102B530074FF2508C39404500278048E828F831275
:102B630052CA8E828F83A3A3A3A3E508F0E88E82C3
:102B73008F83A3A3A3A3A31252D2120219122F6706
:102B83008E828F83A3A3A3A3A3A3A3F0122F5E120A
:102B93000A5B12584A120A67122BB44005900C3C88
:102BA300E4F0120EBDEEFAEFFB0242981253EC4929
:102BB300227A047900120ACD902305125F06EA985F
:102BC300EB9922122BDF758323758205E493C39857
:102BD300F8A3E49399F9C3EA98EB9922E493F87480
:102BE3000193F92274F212036A74F31208BC8A087F
:102BF3008B09ECFEEDFF750A00EEFAEFFB120AFDFE
:102C03008A0C8B0DA80CA90DE849603E8882898344
:102C1300E065087004A3E06509602F88828983A3B7
:102C2300A3A3A3E0C3940550211256F88518828507
:102C330019837401F0120A7E1256FCEEFCEFFD7448
:102C430003120A7E122C54750A01A90A740D024D4F
:102C530096122C5B120ABB22AA82AB83121D5D85DE
:102C63001882851983AA82AB832274F612036A122F
:102C73002CA9600FA3A3A3A3E014C3940450047965
:102C830001800279000238F274F612036A122CA949
:102C9300600FA3A3A3A3E014C3940250047901809B
:102CA3000279000238F2120AF78A828B83E58245A1
:102CB300832274F612036A122CA9600BA3A3A3A3A5
:102CC300E070047901800279000238F2C082C08387
:102CD300EAFCEBFD7A007B00023506C082C0837CF0
:102CE300007D0002350674F412036A74F31208BC03
:102CF300EAFEEBFF8C0A8D0BC3EC94F8ED94FF40D6
:102D030007EE4F7003022DA2750800750900802E8F
:102D13008518828519837401F012310D120A7E120F
:102D2300311B60137403120A7EAC82AD83EEFAEF9B
:102D3300FB121C1FE97049E5082401122F3B902365
:102D430005E41253F4E50898E509995052E508752E
:102D5300F012A4F8AAF075F012E509A42AF9125F9B
:102D63003960D4EE4F70A974FF650A700474FF656F
:102D73000B60C41230FD650A7004A3E0650B70B7E5
:102D8300E50875F012A4F508A8F075F012E509A49A
:102D930028F50974D82508FA74063509FB80047AE6
:102DA300007B00023A5774F412036A74F31208BCEE
:102DB300750800120AFD8A0A8B0BAE0AAF0BEE4FA1
:102DC300602A851882851983740112384BF8A3E0B1
:102DD300F9740B120A7E123935120A9D7C127D009A
:102DE30079FFEEFAEFFB121457750801122BB4505A
:102DF30009900C3C7401F0120EBDA908023A5774F5
:102E0300F712036AE9FE74FE6A700374FF6B7800BD
:102E1300790070058052122A86122E8F504AE8FCE0
:102E2300E9FDEC75F012A4FCAFF075F012EDA42FE0
:102E3300122E9BF460E0E8FCE9FDEC75F012A4FCB3
:102E430075F012EDA42FFD74D82CF58274063DF5B0
:102E530083E06A7003A3E06B70BC8009122E9F1499
:102E6300C394044017122A86122A7A5018EE70EC83
:102E7300122E9F64016005E0640370E91230EEFADC
:102E8300A3E0FB80047AFE7BFF0238469023051201
:102E930042E8C3E89CE99D22122FEF22E8FAE9FBFE
:102EA300EA75F012A4FAACF075F012EBA42CFB74E3
:102EB300DC2AF58274063BF583E022120B0F023500
:102EC30009C082C083790180F274F012036A8A0A0E
:102ED3008B0B7A047901120ACD8A0C8B0DEA450D0E
:102EE300603EEAC333FAEB33FB1214E78A088B091B
:102EF300AE08AF09EE4F60237AFE7BFF120B157409
:102F0300FE6A700374FF6B601B8508828509831258
:102F13003856E5082402122F3B80E1750C0080042B
:102F23007E007F00850A82850B83E50CF0EEFAEFC5
:102F3300FB02429DE5082407F508E5093400F5097D
:102F4300229023051242E8C3EA9CEB9D22E493FA04
:102F5300740193FB2212144B74032212585BE4F0A6
:102F630090806922E88E828F83A3A3A3A3A3A3A344
:102F7300A3122F897401122F89A3F0EE2410125883
:102F83005EE4F0A3F022123C9EA3A3A322C082C05E
:102F9300837A007B00800419122FBA122F44501039
:102FA300122FD9C3940550F0E970EC122FC380049B
:102FB3007A007B00023509EA24010AEB3400FB2284
:102FC300EA75F012A4FA75F012EBA428FB74D82A60
:102FD300FA74063BFB22EAFCEBFDEC75F012A4FC51
:102FE300A8F075F012EDA428122FEF22FD74DC2C4B
:102FF300F58274063DF583E02274F712036A74F3D5
:103003001208BC7E007F000230A1E50875F017A40A
:10301300F8A9F012619AFAA3E0FBEEF8EFF9E8756C
:10302300F012A4F8ACF075F012E9A42C1230FC6A8B
:103033007003A3E06B603FE50875F017A4F8AAF0EE
:10304300EA126199F8A3E0F97401120A7EE068704C
:1030530003A3E0696020E50875F017A4F8EAF974A2
:103063005428FC740839FD7403120A7EAA82AB83C8
:10307300121C1FE96014E50875F017A4F8A9F07491
:103083005228FA740839FB120FEF0508902317E44E
:1030930093F8E508C398500302300D1230E59023EE
:1030A300051264E05039EEF8EFF91230EEF47003D4
:1030B300A3E0F460E68518828519837401F0EEF8C5
:1030C300EFF9E875F012A4F875F012E9A42AF912E1
:1030D300310D120A7E12311B60C175080080AD02EA
:1030E3003841EE24010EEF3400FF22E875F012A4FC
:1030F300F8AAF075F012E9A42AF91231012274D862
:1031030028F582740639F583E02274DA28F582748F
:10311300063912428C740B22E8F0A3E912393D12EE
:103123000AB5E922C082C0839003397491F0A37475
:103133000DF090033B748BF0A3740DF090033F7478
:10314300A5F0A3740BF0023509C082C08390033D40
:103153007485F0A3740DF002350974F712036AEA5B
:10316300FEEBFF900373E06408601BE064046016E9
:103173008E828F83E05403640170481236C7123D78
:1031830093E06406703D8E828F83A3A3E064FE7098
:1031930003A3E0F4602D8E828F83A3A31238DD9006
:1031A3000364E0687003A3E069700BEE2415F582F5
:1031B300EF125F206008120E4BE9F5088008120E2B
:1031C3005180F67508C2EEFAEFFB1214ED02265099
:1031D30074F412036A8A088B098A828B83E0F8A34A
:1031E300E0FAE82AFAE43400FB1214E78A0A8B0BAC
:1031F300AE0AAF0BEE4F6063850882850983E0FC5E
:103203007D0079001214578E828F83A3A312685511
:10321300120E8D8E828F83A3A3A3A3123856850823
:1032230082850983E0F8EE28F8EF34001238E5854B
:103233000882850983A3E0C0E0EE240D12584DD027
:10324300E0F0120E9FEE240E12584DE9124EFFE0ED
:10325300C0E0EE241112584DD0E0F0EEFAEFFB027D
:103263003A5C74F412036A74EB1208BC8A088B0983
:103273008C0A8D0BE9FE900373E064046005E0643F
:1032830008700479C2802EA37808120A3FEE9003D7
:103293007A123547120A3F7405120A7EE9F0740464
:1032A300120A7E7401F07407120A7EE4F09003732D
:1032B30074021234A47415023A5974F612036A7430
:1032C300EB1208BCEAFEEBFF124B216003023361F1
:1032D3007A077B001214E7900335123856124B21FC
:1032E30060788E828F83120A5B900336123D9612AA
:1032F3000A67126719C0E012336DD0E0F0EE2405BF
:10330300FAEF3400FB8A088B098A82F583E0C0E078
:10331300123368D0E0123A53E0C0E0123368A3D00E
:10332300E01238CA120A5B851882851983120A676C
:1033330088828983E0C0E07405120A7ED0E0F085BC
:103343000882850983E0C0E07404120A7ED0E0F0AD
:103353007407120A7E1234A3800679108002790161
:1033630074150238EF12336DA322900335E0FAA3EC
:10337300E0F5838A82A3A3A3A322C082C083124B56
:1033830021600D90033512542B900335E4F0A3F024
:10339300120DBB120F8F02350974F012036A74EB1E
:1033A3001208BCECFEEDFF89087425120A7E780C26
:1033B300120A217429120A7EE0F9742A120A7EE0A5
:1033C300FC742B120A7EE0FD740F697005740F6C98
:1033D3006012900C88E06402700579C102349EE9A2
:1033E300C39C40F6900374780C120A3FE5089003DF
:1033F3007AF0E9900378F0ECA3F0ED90037BF0749E
:10340300FF6A700374FF6B701D900C94E0F47003FB
:10341300A3E0F47005121463800C900C9412381E10
:10342300E8F0A3E98007900371EAF0A3EBF0EE4F15
:103433006017EEFAEFFB12104FE96401700BEEFC1C
:10344300EFFD7A857B03121C25900364E4F0A3F05F
:10345300900367F0A3F0900384F0900C88E064027B
:103463007008900378740FF0A3F09003737405F061
:1034730014120A7EE4F0900374120A5B85188285A5
:103483001983120A6790037AE0C0E07405120A7E7A
:10349300D0E0F07407120A7E1234A3741502429A24
:1034A300E412393D121C8522C082C083900334E0AC
:1034B3007003121781120B63804CC082C083900388
:1034C30034E0900C3B7004E4F0802D7401F0900321
:1034D30034E0F460237C41E0C394415002E0FCEC0F
:1034E300F8E0C398F0EC75F0E8A4CCA8F075F0030D
:1034F300A428FD7A801242F07A3B7B0C7941121C9E
:103503006D8003120B03D083D0820207DA74F412A6
:10351300036A74EB1208BC8A088B098C0A8D0B9022
:1035230003737401123547120A3F7405120A7EE9C8
:10353300F07404120A7E7403F07407120A7E1234C4
:10354300A30232B81238D578082274F712036A7CC2
:1035530001120B7502384674F212036A74FC1208E6
:10356300BCE9851882851983F0EAFEEBFF8C0A908B
:1035730003711245D6120DAF8A088B09EA4509700B
:103583000579CA0236C28A828B83A3A3A3A3A3A30A
:10359300A3E064FE7003A3E0F4700579C30236C2AE
:1035A300900371124F9E120FF5850882850983A33C
:1035B300A3A3A3A3A3A3A3A3A3E004900384123808
:1035C300257402120A7E7402F014120A7EAA82ABD8
:1035D30083120EF98A0C8B0DAE0CAF0DEE4F7003F8
:1035E3000236B91236C7123F127406F0A3A882A995
:1035F3008390035E12546812426BF0EE2413125848
:103603004D74011252AA7440F0A3E4124EF8A3A31E
:103613001236D41238E9EE241112584DE50AF0EEB1
:10362300FAEFFB120B39E9FE60030236BB9003731A
:103633007409F0122F37AA08FB794B121C6D850809
:10364300828509831238171238E9900366E0F885FA
:103653001882851983E068600CE09003661239399B
:1036630079E1121C6D900C751238DD900C77E068CF
:103673007003A3E069601A9003371238E9900C775E
:10368300124F9E120EB7900C771245D67A01124252
:10369300F07A007B049003BEE0F91215A7900C7733
:1036A3001236CC7402780812095EAC08AD09FA7BB5
:1036B300041242F280027E10900524E4F0EEF974C5
:1036C30004024D96EE12585C22E0F508A3E0F509DA
:1036D300221236D822122890A32274F512036A7498
:1036E300E21208BC851882851983ECF0A3EDF0EA99
:1036F300FEEBFF89087429120A7EE0F509742C1287
:103703000A7EE0F50A900373E064046005E0640850
:10371300700579C202380F742A120A7EE064FE70C3
:1037230003A3E0F4700579C302380F9003737403A5
:103733001239397950121C6D742A120A7EAA82AB8F
:1037430083794B121C6D85188285198312381E12DA
:1037530038E9E508900366F0742A120A7E123817D6
:103763001238E9E50990035E12382574CE550944F1
:1037730080C0E07412120A7ED0E0F07401250A9032
:103783000384F0740F120A7E7402F0742A120A7E04
:103793001238DD7407120A7EE8F0A3E912385C746C
:1037A30010120A7E1238E97405120A7EE508F074D5
:1037B3001B120A7EE4F0900379740FF07A797B038D
:1037C3007954121C6D900378740FF07A787B037927
:1037D30047121C6D900378E0C3940F5023740512B5
:1037E3000A7EE0C0E07402120A7ED0E0F074041294
:1037F3000A7E7401F004120A7EAA82AB83121C9122
:103803007405120A7EAA82AB83121C73741E1208FB
:103813002802251712428E9003672212428E9003CC
:103823007122F0EEFCEFFD7A857B03121C252274D6
:10383300F712036AEB90037BF0120D9D8005740D64
:103843001208287F010205CB123851A3E022123857
:10385300CAA322EAF0A3EBF0221238D0F8A3E0F9CE
:103863002274F712036A74F81208BCEAFEEBFF79BC
:1038730000900373E064087044851882851983748B
:10388300FDF0A374FFF0120E877402120A7E123841
:10389300567405120A7EE4123851E0C0E074041233
:1038A3000A7ED0E01238C5C0E07406120A7ED0E06A
:1038B300F07407120A7EE4123939120EDB7408021F
:1038C30038431238CAE022F08E828F83221238D511
:1038D300E022F08518828519832212428E22E0F8B5
:1038E300A3E0F912585BE8F0A3E9F0221208287F5D
:1038F300020205CBC082C0839003457435F0A374E4
:103903000CF09003EB7435F0A3740FF0900349743B
:103913006BF0A3740CF090034B7435F0A3740CF0AC
:1039230090034D7471F0A3740CF00235097407020F
:103933003A59E8F0A3E912393D221238D5AA82ABED
:10394300832274F412036A8A088B098A828B831296
:103953005869EE4F7003023A51900312124B2460E0
:10396300158A828B83A3A3E0F9EEFAEFFB9003138E
:10397300123D96121E288E828F83A3A3A3A3A3A313
:10398300A3A3A3E0640270748E828F83A3A3A3A373
:10399300A3A3E054027003023A23850882850983B6
:1039A300A3A3E064E960798E828F83A3A3A3A3A377
:1039B300A3A3A3A3A3E07014900C8BE0048E828FC7
:1039C30083A3A3A3A3A3A3A3A3A3A3F08E828F8301
:1039D300A3A3A3A3A3A3A3A3A3A3E014123A53A350
:1039E300A3A37404F0900C8C1252A4E8F0A3E91280
:1039F300637D8B0BEA450B7003125D5B8E828F83B5
:103A0300A3A3A3A3A3A3A3A3A3E0640260128E8230
:103A13008F83A3A3A3A3A3A3A3A3A3E06406702EEE
:103A23008E828F83A3A3A3A3A3A3E0A2E0501F8549
:103A33000882850983A3A3E0F9EEFAEFFB121D09BF
:103A43008E828F83A3A3A3A3A3A3E054FEF08009D4
:103A5300123C9A22740D1208287F040205CB74ECE1
:103A630012036A74DD1208BCEAFEEBFF8C088D09B1
:103A73007437120A7E780C120A21750A0074051233
:103A83000A7EAC82AD83121CEB7412120A7EE070C4
:103A9300087415120A7EE060207405120A7EE0A203
:103AA300E6501E8E828F83A3A3A3A3A3A3A3A3A3E2
:103AB300124F9E120F11E960087903121C0D023C8C
:103AC300807405120A7EE0540C64047005750B01C2
:103AD3008003750B00E0A2E55035750A01E50BA2E2
:103AE300E0402C120E8D8A108B11A810A9111236EA
:103AF300C7E0687003A3E06960157405120A7E12BB
:103B0300685C124F9A121D15E96004790480AC7445
:103B130005120A7EE0A2E650227406120A7EE054E1
:103B23000370187405120A7EE0540C640C600CE0F8
:103B3300540C64086005751001800375100074054A
:103B4300120A7EE05403F8740268700C12685C1267
:103B53004F9A121CD9023C80740168703AE510A296
:103B6300E05003123C887405120A7EA882A983746C
:103B730003120A7EE8F0A3E91242828518828519AE
:103B830083123C92E0C0E07402120A7ED0E0123944
:103B930039121DF9023C80E86003023C8090035B0C
:103BA300E0640170108E828F83A3A3A3A3A3A3E079
:103BB3007003023B0E7422120A7E74021242827454
:103BC3001A120A7E1238E9E510A2E05008740512B1
:103BD3000A7E123C88E50BA2E0506AEE240FF582C0
:103BE300EF125F20C0E07417120A7ED0E0F090035A
:103BF30014124B247003023C80120E8D8A128B1315
:103C0300A812A913741A120A7EE0687003A3E0696C
:103C1300706B780C12080D780A12081978081208CC
:103C230015A910740C120A7EAC82AD837421120A9A
:103C33007EAA82AB83900314123D93121E2874074D
:103C43001208288038780C12080D780A120819789F
:103C530008120815900371120685EE2412F582EFFF
:103C6300125C4E7423120A7EAC82AD83740E120A68
:103C73007EAA82AB83121CFD7409120828742312D6
:103C8300082802634812685C125439121CE522E8C2
:103C9300F0A3E9123C9A22123C9E22F08E828F837B
:103CA300A3A3A3A3A3A32274F712036A12169D026C
:103CB300384674F712036A1216A902384674F712CB
:103CC300036A1216B5023846C082C0831216AF02C9
:103CD300350974F712036A1216BB02384674F712D9
:103CE300036A7409120A7EE0F508780812081912AB
:103CF30016C77401023843C082C0831216D302353B
:103D030009C082C0831216D902350974F712036AF7
:103D13001216DF02384674F712036AEAFEEBFF89D4
:103D2300087401650870147900120CAD902322E425
:103D330093FC7900EEFAEFFB120C2302384674F47D
:103D430012036A74F91208BCE9FE8A088B098C0A0B
:103D53008D0B7413120A7E124F9E900554124B243E
:103D63006027EE851882851983F07401120A7E7824
:103D730008120A3FEAF8EBF97405120A7E12393584
:103D8300900554123D93121E28023930FB900347CD
:103D9300E0F8A3E0F583888222C082C08312170F64
:103DA30002350974F712036A900C3EE0F97E008035
:103DB3000B125F0C540D64017001190E123FA050D9
:103DC30003E970ED02384674F712036A900C3FE082
:103DD300F97E00800B125F0C548D64817001190E03
:103DE300123FA05003E970ED02384674F212036AE1
:103DF300890BE975F006A4240CF508E5F0122F3FB2
:103E03008A0CE508250CFAE5093400FB1214E78A4D
:103E13000C8B0DAE0CAF0DEE4F6027AC08AD0979DE
:103E2300001214571236C7E50BF0EE2508F8EF35EC
:103E330009F98E828F83A3A3A3A3A3A3A3A3A3128E
:103E430038E9EEFAEFFB024D9974F612036AEAFEC3
:103E5300EBFF120BFF900C3DE0F8E9C3984009908B
:103E63000341124F9E120C05EE2402F8EF1255AED9
:103E7300900343125468900343E004F0EEFAEFFB1F
:103E8300120C0B850882850983E0025A64C082C044
:103E9300837900900341800109124F9E8A828B83AC
:103EA300E582458370F202350974F712036AEAFE6C
:103EB300EBFFEE4F6056900341124B24604E888215
:103EC30089837A007B00EE65827003EF6583600F60
:103ED300AA82AB83123F12E5824583602F80E7906D
:103EE3000341123F1E687002EF698E828F83700850
:103EF3001238DD900341800312635A1238E9EEFA57
:103F0300EFFB121DC9EEFAEFFB1214ED0238461255
:103F13003F1622124292888289832212428EEE2217
:103F2300C082C083900341800488828983124B241A
:103F3300600B888289831245D6EC4D70EC8A828BA4
:103F430083E4F0A3F0E849600688828983800390C4
:103F5300034112385602350974F712036A9003417C
:103F630080048A828B83123F9B4B60257E008001F5
:103F73000E123FA050ECEE75F006A4FCADF0EA2C57
:103F8300FCEB3DFDEC2410F582ED123FF070E18077
:103F9300047A007B0002384612543DEA22123FF9AC
:103FA300EEC3982274F712036A7D0080010D123F5D
:103FB300F5EDC3985034ED75F006A4FEA8F0E8FFC4
:103FC300EA2EFEEB3FFFEE2410F582EF123FF07076
:103FD300DCED75F006A4FEE8FFEA2EFAEB3FFBEA00
:103FE3002411F582EB125F204CF0023846125F2C4D
:103FF3006922123FF922126866EB3400F583E0F878
:104003002274F612036A120D257A007B008025EADA
:10401300F8EBF9E875F006A4F8ACF075F006E9A43E
:104023002C125412126727A3E4125508F0A3126747
:104033002D1268A490230D122BBE40D37A007B006F
:10404300801C8A088B097403780812095E124EC615
:10405300A374FEF0A3041252E8A3E41268A490230D
:10406300161240A340DC7A007B00801D8A088B096E
:104073007403780812095E747A125B98740B1263E6
:10408300DF74FEF0A3041268A490231C1240A34023
:10409300DB902320E49390034FF01240AD0238F2FB
:1040A300E493F8C3EA98EB9400227CE87D037A104A
:1040B3007B009003BEE0F91215A12274F012036A8B
:1040C30074F51208BC8A088B09890A8C0BE9A2E0F3
:1040D30050147508FC7509FFA2E15005D2E40241B2
:1040E30080D2E3024180124D857003A3E06970051D
:1040F300790002424DAC0A7902AA08AB09120D01FC
:10410300E960EDE50AF50C780C12081979027CFEDA
:104113007DFFAA08AB09124B00120828E9600302CD
:10412300424BE50AC2E5F50A9003B1E07051E50A96
:10413300A2E6404B7403120A7EAC82AD83AA08AB9D
:1041430009120A91E970321244218A0C8B0DA80CD2
:10415300A90DE8FEE9FFE8496025EE24020A0AEF0B
:104163001228CE601AEE2402FCEF3400FD74031211
:104173000A7EAA82AB83121C25E50AD2E5F50A90D2
:104183000344E0F50C900364E0F50EA3E0F50F782B
:104193000E1208157D017C00900344E0F9AA0EABD2
:1041A3000F120CB97402120828E9F8900344E004D2
:1041B300F0E8600302424BE50AA2E55004740E8066
:1041C300027406C0E07401120A7ED0E012587A8AA3
:1041D3000E8B0FAE0EAF0FEE4F606912426B1242A1
:1041E30082888289837401F07478550AA312686CFB
:1041F300E50C12686CA3E508F0E50912425AE4F0F5
:10420300E50AA2E5500F7403120A7EAC82AD83E87F
:1042130024061242518E828F83A3A374FDF0A374EC
:10422300FFF0E50B6015902323E493F8E50BC398A7
:104233005009EE241312584DE50BF0EEFAEFFB1282
:104243000B3980067910800279C7740B8049FAE92B
:104253003400FB121C252288828983A3A3A3A31203
:104263004266221255E1A322EE241712585E74010E
:10427300F0120E87EE241A12585EEAF0A3EB22F036
:10428300126860340012428C22F58312429222E0BB
:10429300F8A3E0F922740D1208287F080205CB74F5
:1042A300F612036A7A007B10125D6860089003D0EF
:1042B3007401F080299005F9E06401900C8970067F
:1042C300E0FC79018004E0FC79037A007B00120CA6
:1042D3002390230B1242E47A007B101242F202383D
:1042E300F21242E822E493FC740193FD227B0090D6
:1042F30003BEE0F912159B2274EC12036A8A088B41
:10430300098C0C8D0D890E7414120A7E124CDF7405
:1043130016120A7EE0F510A3E0F511120F11E96001
:10432300077AFF7BFF02441E900C88E0640260035F
:104333000244117900AA08AB09120D07A90E120C49
:10434300FB8A128B13AE12AF13EE4F70030243F9C5
:104353008E828F83A3A3A3A3A3E064018E828F83A2
:10436300A3A37069124F9E8E828F83A3A3A3A3A3DB
:10437300A3E054186043902321E4938E828F83A398
:10438300A3A3A3F0EA650C7003EB650D6014EA6563
:104393000A7003EB650B600AEA65107003EB6511A5
:1043A300701F7810120815AC0AAD0BAA0CAB0D12D6
:1043B300100D74021208288008900363125D52A343
:1043C300F074FE6A700374FF6B601D804EA3A3A399
:1043D300E0640360298E828F83A3A3A3A3A3E06475
:1043E3000470057AFE0243268E828F83A3A3A3A3C0
:1043F300A3E0640270089003B0E0640270101244FA
:10440300218B0BEA450B6006AA08AB09800DAA08AD
:10441300AB09900345123D93121E28026348900393
:1044230071124B06120FD12274F712036AEAFEEBE4
:10443300FF120AE5E9700AEEFAEFFB120AF1E960EE
:1044430006EEFAEFFB80047AFE7BFF02384674F037
:1044530012036A8A0A8B0B8C0E8D0F89097508006B
:10446300120F11E9790060030245C8AA0AAB0B12C7
:104473000D07A909120CFB8A0C8B0DAE0CAF0DEEC8
:104483004F60198E828F83A3A3A3A3A3E06402705A
:10449300559003B0E0640270030245C6AA0AAB0B51
:1044A30090034B123D93121E28120AF78A0C8B0DB0
:1044B300A80CA90DE84970030245C688828983A325
:1044C300A3A3A3A3E0A2E040030245C6750C01A287
:1044D300E150687901AC0AAD0BAA0EAB0F120C5375
:1044E300E970640245C68E828F83A3A3A3A3A3E0CE
:1044F30064037005750C0280528E828F83A3A3A37D
:10450300A3A3E0640160030245C69003711245D67C
:104513008E828F8312492B8A0C8B0DA80CA90DE870
:104523004960D190231AE493FA88828983E0C39A7D
:1045330050C2A3E060030245C680B988828983A381
:10454300A3A3A3A3D2E1F0EE4F603A8E828F83A39D
:10455300A3A3A3A3A3E05418602B7508018E828F35
:1045630083A3A3120685750CFE750DFF780C120844
:10457300157900AC0AAD0BAA0EAB0F120D1974041A
:10458300120828803E900364E0650E7004A3E06582
:104593000F7014902322E493FCA909AA0AAB0B120F
:1045A3000C23750801801CA90CAC0AAD0BAA0EAB39
:1045B3000F120C53E9700C750801A909AA0AAB0B79
:1045C300120CADA90802429DE50C2415F582E50DF8
:1045D3001258611252BE2274EA12036A74F012086E
:1045E300BC8A0C8B0D8C088D097426120A7EE0F5AB
:1045F30014A3E0F5157512069003F1124B24602302
:104603009003711245D6AA08AB09120FFB8A108BCF
:1046130011EA4511600D8A828B83A3E0700579004E
:10462300024913E50C241DF50EE50D3400F50F8545
:104633000E82124B10F51388828983A3A3A3E0FA99
:1046430088828983A3A3A3A3E0F9EA2400FEE439C3
:10465300FFAA08AB09120CB3850E82850F8312499A
:104663004EE029F50BE50AA2E5500375120E748797
:10467300550A70177418550A6418600FE50C24174F
:10468300F582E50D125F20651260077901121C0D9A
:10469300808C530A78C3EE94F8EF94FF501D790091
:1046A300EEFAEFFB12491D601288828983A3A3A34C
:1046B300A3A3A3E054186003024621780812081547
:1046C3007D00124941120828E9F874036870030257
:1046D3004621E8600302478C7418550A70030248A8
:1046E30041E50AD2E0F50AA2E45004D2E1F50AA9B1
:1046F3000A124F9712491D605388828983A3A3A38B
:10470300A3A3A3E05418604488828983A3A3A3A32B
:10471300A3E064017036E510451160309003711217
:1047230045D68882898312492B8A0E8B0FA80EA93E
:104733000FE849601788828983A3E0600F851082A0
:10474300851183A3125A6F5003024621E50AF50E21
:10475300780E120819124934120828E9702B7C00CC
:104763007D0085148285158374FFF0A3F0850C8288
:10477300850D83A3A3A3A3A3A3A3A3E0600312456F
:10478300CBA90B124F971216CD851482851583E0A2
:10479300F47003A3E0F460399003B0E064027003A3
:1047A300024621124CD0E0FAA3E0123D8F121E28DC
:1047B300EA65087003EB65096003024621EEFAEF30
:1047C300123D8F121E28851482851583EAF0A3EB10
:1047D300F078081208157D01124941120828A90A28
:1047E300EEFAEFFB120D078A088B09A808A90990B6
:1047F3000364E0687003A3E0696003024904EEFA0E
:10480300EFFB120AF78A088B09A808A909E849608F
:104813006E88828983A3A3A3A3E06401600D8882C9
:104823008983A3A3A3A3E064027054851882851926
:1048330083AC82AD83EEFAEFFB120A9180559003AD
:104843005DE0600FE50AF50E780E1208191249347F
:10485300120828E50AF50E780E12081979027CFE73
:104863007DFFEEFAEFFB124B00120828E96003020A
:10487300478C85148285158374FFF0A30247D312F6
:104883000E87EAFCEBFD851882851983AA82AB8328
:10489300121C25850C82850D83A3A3A3A3A3A3A325
:1048A300A3E06401700F1245CB7408120A7EAA823A
:1048B300AB83121C25124ADA1256E64430F5087807
:1048C300081208197401120A7E8582088583097803
:1048D30008120815740B120A7E85820885830978ED
:1048E30008120815E513F50878081208197900EE7F
:1048F300FCEFFD124F97120C4D7406120828024666
:1049030021124ADA12585012494EE50BF0120E9F4B
:1049130074101208287F0E0205CB120CFB8A0E8B33
:104923000FA80EA90FE84922A3A312543D120FFBAF
:10493300227901AC08AD09125432124B0022AC0BA0
:10494300A913125432120CB97402221256EEA3A305
:10495300A3A32274F012036A74F01208BC8A0C8BAE
:104963000DECFAEDFB750F089003F1124B24601464
:10497300125A688A828B83E58245836007A3E070BD
:1049830003024AD5124ADA3400124B10F50B88821F
:104993008983124AE3E0FBEC2400FEE43BFF8882B8
:1049A3008983A3A3124AE3A3A3E0FBECF508E43B4A
:1049B300F50988828983A3A3A3A3A3A3A3E0F50E88
:1049C300E50AA2E45003750F10A2E550067408250A
:1049D3000FF50F748F550A700FE50C2417F582E558
:1049E3000D125F20650F60087901121C0D024AD574
:1049F300530A707800E50AA2E45022124ADA125FE1
:104A0300202408FCA3E03400FD7408120A7EAA8265
:104A1300AB83121C257808E50AC2E4F50AE50AA26D
:104A2300E55028124ADA125F2028F8A3E03400F98F
:104A3300E82408FCE93400FD851882851983AA82DD
:104A4300AB83121C25E50AC2E5F50AAC0EA90BEEF1
:104A5300FAEFFB120CBFE9F8740368607590036406
:104A6300E06E7003A3E06F605EE87054E50AF50F33
:104A7300780F120819124AF1120828E97054780ABB
:104A83001208197401120A7E85820C85830D780C35
:104A9300120815740B120A7E85820C85830D780C1F
:104AA300120815E50BF50A780A120819A90EAC08C5
:104AB300AD09EEFAEFFB120C4D74061208288012B2
:104AC300740468700D80B7780A120819124AF1123B
:104AD3000828741002429AE50C241DF582E50D2284
:104AE300A3A3A3E0FC88828983A3A3A3A3227901C0
:104AF300124CD7125861124B06124B0022120C773C
:104B0300740122E0FCA3E0FDAA08AB0922F583129D
:104B13003F16A3E0F50A88828983A3A3E0229003CA
:104B2300351254992274E812036A74F51208BCEA28
:104B3300FEEBFF8C088D0989147423120A7EE0F5BD
:104B43000F7424120A7EE0F512A3E0F51374261203
:104B53000A7EE0F516A3E0F5177428120A7EE0F545
:104B63000EA90F120CC58A108B117401120A7E74E0
:104B730008F0E50EA2E450037410F0E50EA2E55030
:104B830004E02408F0851882851983AA82AB831276
:104B93000EF98A0C8B0DEA450D7003024CB7EA241B
:104BA30017F582EB124CC9120E87E50C241AF58215
:104BB300E50D1258501238567403120A7EAC82ADBA
:104BC30083AA10AB11120A91E9601D124CC1740340
:104BD300120A7EA882A983E50C2418F582E50D123A
:104BE3005850E8F0A3E98024E50EA2E4501FE51035
:104BF3006E7003E5116F7015124CC1E50C2418F5A6
:104C030082E50D125850E512F0A3E513F0124CD0D3
:104C1300124CDF850A82F5837402F0A3E50E124C71
:104C2300E7E50FF0EE850A82850B83A3A3A3F0EFDC
:104C3300850A82850B83A3A3A3A3124CE7A3A3A393
:104C4300E508F0E509850A82850B83A3A3A3A3A343
:104C5300A3F0AA10AB11120CB3E92514850A8285BF
:104C63000B83A3A3A3A3A3A3A3F0750800E50EA23C
:104C7300E45011AC12AD13E50A2408FAE50B124215
:104C830053750808E50EA2E55014AC16AD17E50AF6
:104C93002508F8E50B3400F9E82408124251850C85
:104CA30082850D83A3A3E510F0A3E511F0AA0CAB55
:104CB3000D120B39740B1208287F100205CBE50C7B
:104CC3002416F582E50D1258617401F022124CD7B7
:104CD30012586122E50C126867E50D22E0F50AA37C
:104CE300E0F50B22F0850A82850B83A3A32274F2DD
:104CF30012036A8A088B09ECFEEDFF890A79001218
:104D03004D857003A3E069700479018073750B010D
:104D1300900364E065087004A3E06509601F750BE8
:104D230000780B120819A90AEEFCEFFDAA08AB09DB
:104D3300120F4D7401120828E9F50B80417900EE3A
:104D4300FAEFFB120CFBEA4B602B8A828B83A3A343
:104D5300A3A3A3A3E05418601C7508FE7509FF788C
:104D6300081208158A828B83A3A312068512667C18
:104D730012082880097901EEFAEFFB120BD5A90B73
:104D83008014120D078A0C8B0DA80CA90D900364D7
:104D9300E068221208287F060205CB74F412036A26
:104DA3007508C27509097A101263848B0BEA450BE7
:104DB30070031240AD90034FE014F0700C90232069
:104DC300E49390034FF0120D137E007F00806C85F7
:104DD3000882850983A3A3A3A3E06059F46056E581
:104DE300082404F582E509125D4C70498508828523
:104DF3000983A3A3A3A3A3E064037019790285081D
:104E0300828509831245D6850882850983A3A31267
:104E13004F9E120C53850882850983A3A3A3A3A3E2
:104E2300E06401601085088285098374FEF0A304A1
:104E3300124EF8E4F01230E5122F3790230F12646C
:104E4300E0408C7E007F008039120E2D8E088F0982
:104E53007403780812095E743A2508FC740B35094B
:104E6300FD7A5F7B0C120E1BEA4B70DD8E088F09F7
:104E73007403780812095E124EC6126727E4F01213
:104E830030E5902316E493F8C3EE98EF9400501B9B
:104E93008E088F097403780812095E124ECEE82437
:104EA30007F582E9125D4C70D680A17E007F0080F9
:104EB3000A124ED9600214F01230E51264DD40F19B
:104EC300023A5C124ECE8882898322743A2508F80E
:104ED300740B3509F922EEF8EFF9E875F006A4F83A
:104EE300AAF075F006E9A42AF974DA28F582740A9F
:104EF30039F583E022124EFFA3A3A322F085088293
:104F0300850983A3A32274F712036A74E11208BC10
:104F1300ECFEEDFF750800EE4F60728A828B83E032
:104F2300241C125D7D124B2460638A828B83124F93
:104F33009E851882851983AC82AD83EA241BF58292
:104F4300EB125C4EEA241CF582EB124F9A120E6FA1
:104F5300740B120A7E124FA27003A3E069702E74C1
:104F630002120A7EE064017024741D120A7E123D4F
:104F730093E064017017741D120A7E123D95A3A37A
:104F8300E0F88E828F83E0687003750801A90874C6
:104F93001F023843124CD73400F58312543D2212BA
:104FA300288CE0682274F412036AE9702479009073
:104FB3000349123D93121E288A0A8B0BAE0AAF0BCC
:104FC30074FE6E700374FF6F701A90231DE4936078
:104FD300137901900349123D93121E288A0A8B0B01
:104FE300AE0AAF0B120EBD02325E74F612036A7480
:104FF300F31208BC1214638A088B09AE08AF099038
:105003000364E06E7003A3E06F60E9120E93EA6E2F
:105013007002EB6F60DEEEFAEFFB120F11E970D452
:10502300EE4F60D0851882851983E4F004120A7E5E
:10503300EEF0A3EF125050E970BA74FE6E70037471
:10504300FF6F60B0EEFAEFFB740D0238EF12393DDB
:10505300120AA922C082C083120EBD0235097F0A3B
:105063000205CB74F212036AEAFEEBFF8C0A8D0B86
:105073008908740E120A7EE0F50974FC6E700374DD
:10508300FF6F70057900024D997900120D078A0CA4
:105093008B0DAE0CAF0D900364E06E7003A3E06F55
:1050A3007006E509A2E650DCA90912656A70617908
:1050B300007AFE7BFF12656A7056741855097003F7
:1050C30002519D780079008003122A8690230F12E3
:1050D3002A7D400302519DE8FAE9FBEA75F007A433
:1050E300FAACF075F007EBA42CFB74C82AF58274B4
:1050F300093BF583E0541870D0E875F007A4F8AACB
:10510300F075F007E9A42AF974C228F8740939F98B
:1051130088828983A3A3A3A3A3A3E054186009747B
:10512300185509700302508788828983EEF0A3EF34
:10513300F074FE650A700474FF650B60031252C4B9
:1051430088828983A3A3A3A3A3A3E509F0A2E050C4
:105153000D88828983A3A3A3A3A3A3D2E2F074013E
:10516300650888828983A3A3A3A3A370387401125B
:1051730052E8E054186028902321E49388828983BD
:10518300A3A3A3A31252B2120FFB8B0DEA450D602A
:1051930003025087780079008039790202508990A0
:1051A3000363E080D7E0640170030250878882893B
:1051B30083A3A3A3A3A3A3E054186007902321E42C
:1051C300938004900362E012425AE508F00250878C
:1051D300122A86902317E493FAC3E89AE9940040CD
:1051E300030250877A007B00804BEAFCEBFDEC75F1
:1051F300F007A4FCAEF075F007EDA42EFD74C42CEB
:10520300F58274093DF583125869E8FCE9FDEC75F4
:10521300F017A4FC85F00975F017EDA42509FD74BA
:10522300522CF58274083DF583E06E7003A3E06FA2
:10523300609E122FBA90230F122F4740AD1242E403
:10524300EC6A7002ED6B7088E875F017A4F8AAF0A9
:1052530075F017E9A42AF9745228FE740839FF7C03
:10526300177D007900EEFAEFFB1214578E828F83BD
:105273001252CA9003711252A4A3A3A3A3A3A3E837
:10528300F0A3E91252AA7401F0EE240E12584D74E1
:10529300011252D2120219EE240D12584DE8025196
:1052A300CF1236D8A3A322F0EE240F12585E22F0B9
:1052B3001252BBAA0AAB0B22900371E0FCA3E0FDE0
:1052C3002288828983A3A3E50AF0A3E50BF022F0E9
:1052D3001252D72290231AE4932401F8E43400F9FC
:1052E3007A027B0022124266A32274ED12036A8AB9
:1052F300088B09890E12541B400579050253E912E4
:105303001715AA08AB091254ED90230D1253EC653F
:105313000A7003E9650B70077AFE7BFF1254ED9068
:10532300230DE41253F4E50A98E50B994003025365
:10533300E71253F86012E50A75F006A4F875F00653
:10534300E50B1254431214EDE50E6018E50A75F0EF
:1053530006A4F8AAF075F006E50B12546F701A79DB
:10536300010253E9E50A75F006A4F8AAF075F00600
:10537300E50B125450E4F0A3F0E50A75F006A4F827
:10538300AAF075F006E50B125410A31256FC88829E
:105393008983A3AA82AB8312545E8A828B83E060E3
:1053A3003F1253F8603A8E108F1175120078101265
:1053B3000811E50EC333FCE433FDE50A75F006A4DA
:1053C300F50AA8F075F006E50BA428F50B74DE25A5
:1053D3000AF582740A350B124F9C122F58120828B3
:1053E300790080027907026580122BDFE82290237F
:1053F30005125F0722E50A75F006A4F8AAF075F016
:1054030006E50B12544BF8A3E0F9E84922A42A124B
:1054130055A488828983A322ECFEEDFF902318E430
:1054230093F8E9C39822F58312543D1214ED22E553
:105433000C126867E50D3400F583E0FAA3E0FB2264
:1054430012544BFAA3E0FB22125450E022A42AF98F
:1054530074DE28F582740A39F58322E50EF0900C88
:105463008A12546822E088828983F0221255C8F593
:105473000CE93400F50DE50EC333FAE433FB1214E3
:10548300E7850C82850D83EAF0A3EBF0850C82851A
:105493000D8312549922124292E8492274F41203A2
:1054A3006AECFEEDFF740C120A7E1238DD8808895F
:1054B300091254EDAC0AAD0BECF8EDF990230D1283
:1054C30054F55021E875F006A4F8AAF075F006E942
:1054D300125410E08E828F831255081254FE123834
:1054E300E9790080027904023A5C120C898A0A8BFA
:1054F3000B22122F50C3EC9AED9B2212428E850889
:1055030082850983221255DD2274F612036A7E0016
:105513007F008028EEF8EFF9E875F006A4F8ACF008
:1055230075F006E9A42CF974DC28F582740A12617B
:105533008B6A7003A3E06B60571230E51264DD40A1
:10554300D31264D87002E96F704674FE6A700374F4
:10555300FF6B703C7E007F0080031230E51264DD38
:10556300502E124ED970F3EEF8EFF9E875F006A459
:10557300F812559A1255CF60171255B6F8E912551D
:10558300AE8882125429850882850983E4F0A3F04A
:10559300EEFAEFFB0238F275F006E91255A222A4E7
:1055A3002AF974DA28F8740A39F9223400F98808D8
:1055B300890922EEF8EFF9E875F006A4F875F0060C
:1055C300E91255C8221255A2E8240422A3A374FEAB
:1055D3001255DA12549922F0A3041255E122F088ED
:1055E300828983A3A3A3A32274F612036AEA241D68
:1055F300F582EB1256E6F9604BEA241DF582EB12B5
:105603005F202402FCA3E03400FD12541F40030278
:1056130056D9780080298C828D83E0F508A3E0FFBA
:10562300E5082400E43FF509E833FEE433FF742280
:105633002EF582740B3FF5831256FC1256DC08E8F4
:10564300C39940D28A828B83A3A3A3A3A3A3A3A3B7
:10565300A31245D6900364E06C7003A3E06D700F52
:105663007C227D0B1227F5124F9A120C7D8067EA7C
:105673002411F582EB125F20605CFC74FF2CF07543
:105683000801780812081975082275090B780812A1
:105693000815E9F5087808120819EA2412F582EBCF
:1056A300125F20F5087808120819EA2415F582EB31
:1056B300125850120685ECF91227F51245D38A8247
:1056C3008B83A3A3A3A3A3A3A3A3A3124F9E120CF1
:1056D3009574071208280238F2EC24020C0CED34FE
:1056E30000FD221258611256EEE022E0F8A3E0F525
:1056F300838882A32288828983E508F0A3E509F0E1
:105703002274EA12036A74FD1208BC8A148B158C86
:105713000E8D0F890D7419120A7E125869741B12AB
:105723000A7EE0F511741C120A7EE0F50C741D125A
:105733000A7E124CDF741F120A7EE0F5106008E542
:105743000CC333240480027402C0E07401120A7E85
:10575300D0E012587A8A088B09EA45097003025887
:10576300458A828B83A3A3E514F0A3E51512637323
:10577300E50EF0A3E50FF0EA2413F582EB1258507F
:10578300E50DF0EA2414F582EB125850E511F0EA26
:105793002417F582EB125F2064017040120E8D8A8C
:1057A3000E8B0FA80EA90F850882850983A3A3A3D7
:1057B300A3E0687003A3E0696022EE4F6011E5087F
:1057C300241AF582E509125850EEF0A3EF800CE598
:1057D300082417F582E509125850E4F012585412C0
:1057E30058698E828F837405F0A3E5107004E50C6D
:1057F30080487401250C1258737A008028850A8228
:10580300850B83E012586F850A82850B83A3E08E94
:10581300828F83F0E50A2402F50AE50B3400F50BC9
:10582300A30EAF830AEAC3950C40D2120E8DEA127F
:10583300586F120E8DEB8E828F83F0AA08AB09127C
:105843000B397403024915EE240CF582EF125861EB
:105853002212280612586122EE240BF582EF34003F
:10586300F58322900330E0FEA3E0FF228E828F8334
:10587300F0A3AE82AF832212393D120EF922C08209
:10588300C083E9C333FCE433FDEA2CFAEB3DFBEAC6
:1058930024FEF582EB34FF124F9C02350974F21299
:1058A300036A89098A0A12541B40047900804075EF
:1058B300080080020508E508C39509502AE508C3D6
:1058C30033F8E433F9EE28F582EF39F583C082C06B
:1058D30083120E8D8A0C8B0DD083D082E0650C7001
:1058E30004A3E0650D70CDE50A650870BE79010279
:1058F3004D9974F012036A74F31208BC8A088B0979
:105903008C0A8D0B890C750D00120F11E97900605B
:10591300030259F7AA08AB09120D07A90C120CFBD5
:105923008A0E8B0FAE0EAF0FEE4F70030259F58E3A
:10593300828F83A3A3A3A3A3A3E0A2E240030259FC
:10594300F5120E8DEA650A7003EB650B7011780D85
:10595300120819E4F50EF50F780E1208158044AA03
:105963000AAB0B120AEBE96401706885188285198A
:10597300837404F07401120A7E1252CA8518828558
:105983001983AA82AB83120AA9E964017045750DD4
:1059930001780D120819E4F50EF50F780E120815AB
:1059A300750D00780D120819780D12081974081274
:1059B3000A7E85820E85830F780E120815902323A5
:1059C300E493F9AC0AAD0BAA08AB09120C95740762
:1059D3001208288E828F83A3A3A3A3A3A3E0A2E12B
:1059E300400D8E828F83A3A3A3A3A3A3C2E2F0756A
:1059F3000D01A90D02429874F612036AE9FE7900BB
:105A0300120D07EEF9120CFB8A088B09A808A909E5
:105A1300E84960061268AEF9800279040238F2742C
:105A2300F612036A7E07900358E07034125A688AAC
:105A3300088B09A808A909E849602590035DE0647B
:105A43000188828983A3A3700B125A6F888289838A
:105A53005001A3A3E0F9121019E9FEEE70027E07CC
:105A6300EEF90238F21252BB120FFB22E0FA8882DF
:105A73008983A3E0C39A2274EE12036AEAFEEBFF62
:105A8300890A8C0C8D0B7412120A7E1236CC125BAF
:105A9300441254225051890E750F007403780E126C
:105AA300095E7440250EF582740B350FF583E0F81B
:105AB300E50CC398502DE50B602475110074037831
:105AC3001012095E743A2510F8740B3511F98882A7
:105AD3008983A3A3A3A3A3A3E50C125B4EF07900D0
:105AE300025061790380F979007AFE7BFF125B44EF
:105AF300E49365107004790280E6E50B60E0890E9B
:105B0300750F007403780E12095E743A250EF8744B
:105B13000B350FF988828983A3EEF0A3EF125B4E56
:105B23001252E8E50C12426274FF12672DE50AF087
:105B3300900362E088828983A3A3A3A3A3A3A38082
