:020000040000FA
:060000000209D90201BD56
:03002B000207B910
:030033000206AB17
:030053000200EBBD
:03006B00020691F9
:10008300020152010101050301630F630F630F6353
:100093000F190E130E630F5C1C00000000BE1C0042
:1000A3000000000C0000000C0001FFFF010100F63E
:1000B300040000004805E80364006400B80102027C
:1000C3000008000005020701051E02051E020A0AB8
:1000D30003B80B02803E010201F1FF020A1401E0A2
:1000E3009651180002020612C0E074F2120441A2F3
:1000F300AFE433FED2AFE5A7FFE5A1F5085F5410E7
:1001030060061215FF75A1EFE5085F540860081239
:10011300160575A1F7802BEFA2E0C0D0E508A2E099
:1001230092F0120926158182F05017906198E0F839
:1001330090061AE0C398A2D265D0335002E8F07556
:10014300A1FE751A00EEA2E092AF7F010204A0C0E7
:10015300E074F2120441A2AFE433FED2AF9061A483
:10016300E0F8759B00E59158540860087591F71203
:10017300164D802AE59158541060087591EF1216B8
:1001830053801BE8A2E0C0D0E591A2E092F01209EF
:1001930026158182F05007E0C2E0F01217A39061A8
:1001A300A3E0F8E5E9585404600E12177975E9FBEA
:1001B300906193E0A2E640F28088C0E074F21204FA
:1001C30041A2AFE433FED2AF9061A5E0F8E5BF589A
:1001D3005404600675BFFB1217BB020145C3E498C4
:1001E300F8E499F91202218026C3E49AFAE49BFB0E
:1001F300E920E7E9120221E498F8E499F922C3E43B
:1002030098F8E499F9120221E498F8E499F9C3E41F
:100213009AFAE49BFB22EB20E7CFE920E7E0B90061
:1002230010BB0008E88AF084F8AAF022E4FBC8FABD
:1002330022EB70227B10C833C8C933C9335007C3BC
:100243009AC3DBF280069A50012ADBEAC833F4C86A
:10025300C933F4C9FA2275F008E4C833C8C933C9ED
:1002630033C99AC99B5004C92AC93BD5F0ECFBC8D2
:1002730033F4C8E4C9FA22080808EAC0E0EBC0E096
:1002830086F0E7A4FA180986F0E7A42AFA18098683
:10029300F0E7A42AFA180986F0E7A42AFA1986F0E7
:1002A300E7A4FBE5F02AFA190886F0E7A42BFBE59F
:1002B300F03AFA190886F0E7A42BFBE5F03AFA18AE
:1002C300180986F0E7A4C5F02BFBE43AFA1908E70E
:1002D300C5F0C6A426F6E5F03BFBE43AFA1886F02F
:1002E300E7A4F6E5F00826F6E43B08F6E43A08F658
:1002F300D0E0FBD0E0FA22E4CFC0E0E4CEC0E0E4FB
:10030300CDC0E0E4CCC0E075F020C3E633F608E6E8
:1003130033F608E633F608E633F6181818EC33FC20
:10032300ED33FDEE33FEEF33FFC3EC9709ED970991
:10033300EE9709EF97191919400FFFEC97FC09ED98
:1003430097FD09EE97FE191906D5F0BEECF709EDF6
:10035300F709EEF709EFF7191919D0E0FCD0E0FD22
:10036300D0E0FED0E0FF222518C582C0E0E51934B5
:10037300FFC583C0E0E518C3958224F810AF088554
:1003830083198582188008858319858218D2AFCE98
:10039300F0A3E520F0A37808E608F0A3DEFAEFF077
:1003A300A3E58124FAF8E608F0A3E608F0A3E6083B
:1003B300F0A30808E608F0A3E608F0A31581158169
:1003C300D0E0FED0E0F8158115811581E8C0E0EE9C
:1003D300C0E022120A3BB9000302042BE49003019C
:1003E300787C79088002F0A3D8FCD9FA781A9000B7
:1003F300867A01BA00028007E493A3F608DAF9903B
:100403000A7CAA82AB83900087786579018015E422
:1004130093A3AC82AD838A828B83F0A3AA82AB833E
:100423008C828D83D8E9D9E77582A67583D7740248
:1004330012079B75826175831A740012079BC0D0E3
:100443002518C582C0E0E51934FFC583C0E0E5186F
:10045300C3958224F310AF08858319858218800819
:10046300858319858218D2AFC8F0A3E9F0A3EAF017
:10047300A3EBF0A37908E709F0A3D8FAECF0A3ED16
:10048300F0A3EEF0A3EFF0A3D0E0F0A3D0E0F0A34D
:10049300D0E0F0A3E520F0A3E5F0F0A322851983D3
:1004A300851882E0C0E0A3E0F9A3E0FAA3E0FBA390
:1004B3007808E0F608A3DFFAE0FCA3E0FDA3E0FE82
:1004C300A3E0FFA3E0C0E0A3E0C0E0A3E0F5D0A376
:1004D300E0F520A3E0A3F5F010AF0885831985822A
:1004E300188008858319858218D2AFD082D083D033
:1004F300E0F8D0E03275F0108E218F2285822685B8
:100503008325851882851983E0CEA3E0CF852682D3
:10051300852583EBC9EAC8EDCBECCAC3E833C8E948
:1005230033C9EA33CAEB33CBC3EA9EF524EB9FF519
:1005330023B35004AB23AA24EC33CCED33CDD5F055
:10054300DAAE21AF2222D083D082ECC0E0EDC0E04E
:10055300E493A3FCE493A3FDED4C600D120621ECA0
:1005630024FFFCED34FFFD80EFE493A3FCE493A3AD
:10057300FDED4C600D1206EFEC24FFFCED34FFFDA6
:1005830080EFD0E0FDD0E0FCE493A3C0E0E493C0AF
:10059300E022851983851882E0A3FEE0A3F5207885
:1005A30008E0A3F608DFFAE0A3FFE0A3C0E0E0A3BE
:1005B300C0E0E0A3C0E0E0A3C0E0E0A3C0E010AF70
:1005C300088582188583198008858218858319D246
:1005D300AFD083D0820207A1D083D082E9C0E0E408
:1005E30093A3C386F0C5F095F0F908E493A386F0CE
:1005F300C5F095F0700BE493A3C3994005E904801B
:1006030002A3E475F002A42582F582E5F03583F5B3
:1006130083D0E0F9E493A3C0E0E493C0E022C0E018
:10062300C3E49396087401939618400FE49366709D
:100633000808740193661870007019A3A3C3E493A8
:1006430096087401939618A3A3400DD0E0D0E0D090
:10065300E0020585A3A3A3A3A3A3D0E0227404808F
:100663000474028000CCC0E0EDC0E0E518C39CCC6C
:10067300AD1950011D10AF068C188D1980068C180A
:100683008D19D2AF12073CD0E0FDD0E0FC22C0E0D0
:1006930074F2120441E589A2E150031214FD758935
:1006A30000C2C57F010204A0C0E074F2120441E558
:1006B3008BA2E050031214FD758B00C2E880E47432
:1006C300028000CCC0E0EDC0E0E518C39CCCAD19BE
:1006D30050011D10AF068C188D1980068C188D19CA
:1006E300D2AF12071AD0E0FDD0E0FC22C0E0C0F088
:1006F30088F0E4936670080874019366187000A884
:10070300F0A3A3700BD0F0D0E0D0E0D0E0020585D9
:10071300A3A3D0F0D0E022CAC0E0E493A3C582CC67
:10072300C582C583CDC583F0A3C582CCC582C583ED
:10073300CDC583DAE5D0E0CA22CAC0E0E0A3C58212
:10074300CCC582C583CDC583F0A3C582CCC582C584
:1007530083CDC583DAE6D0E0CA22C008C3E096F5AC
:100763000808A3E096420808A3E096420808A3E01D
:100773009645087001D3D008227009080808226042
:1007830016181818C6C333C608C633C608C633C6F8
:1007930008C633C6D5E0EA22C09FF59FE473D09F15
:1007A30022D083D082C09FE493C0E0740193C0E061
:1007B300740293F59F22C0E0C0D0E8C0E0E5A8D260
:1007C300AFC2C7751A00A2E792AFD0E0F8D0D0D07D
:1007D300E0327404800A7403800674028002740198
:1007E300C0E0F4041207F0D0E0120A16222518F52F
:1007F3008210AF08F518400215198008F518400259
:100803001519D2AF85198322BB0102E722C082C02A
:100813008389828A83BB0003E08002E493D083D080
:100823008222C0D0251810AF08F518500205198090
:1008330008F51850020519D2AFD0D0226016080867
:1008430008C6C313C618C613C618C613C618C613DC
:10085300C6D5E0EA22C3E0C696F608A3E0C696F63C
:1008630008A3E0C696F608A3E0C696F6222518105C
:10087300AF08F518400215198008F518400215193C
:10088300D2AF22E066701008A3E066700A08A3E006
:1008930066700408A3E06622C3E09608A3E0960806
:1008A300A3E09608A3E096A2D265D03322E7667050
:1008B300100809E766700A0809E76670040809E783
:1008C3006622C3E697F60809E697F60809E697F65F
:1008D3000809E697F622C3E096F008A3E096F0082D
:1008E300A3E096F008A3E096F022E627F60809E6CF
:1008F30037F60809E637F60809E637F622E026F068
:1009030008A3E036F008A3E036F008A3E036F022AF
:10091300700422600D18C6C333C608C633C6D5E0BB
:10092300F41822C0E0E8C0E0E58124FCF8E6A2E781
:10093300D0E0F8D0E022E657F60809E657F60809B2
:10094300E657F60809E657F622E056F608A3E056FE
:10095300F608A3E056F608A3E056F622E056F008A0
:10096300A3E056F008A3E056F008A3E056F022E611
:1009730047F60809E647F60809E647F60809E64791
:10098300F622E026F608A3E036F608A3E036F608DA
:10099300A3E036F622E4C396F608E496F608E49656
:1009A300F608E496F622C6F4C608C6F4C608C6F4EA
:1009B300C608C6F4C622C3E7960809E7960809E7FE
:1009C300960809E79622C3E09608A3E09608A3E0F9
:1009D3009608A3E0962275D00075814075180175BD
:1009E3001903000203D6E0F608A3E0F608A3E0F635
:1009F30008A3E0F622600C08C6C313C618C613C6C4
:100A0300D5E0F422E6F008A3E6F008A3E6F008A395
:100A1300E6F022CAC0E0E6F0A308DAFAD0E0FA2250
:100A2300E0FAA3E0FBA3E0FCA3E0FD22EAF0A3EBE2
:100A3300F0A3ECF0A3EDF022E5C754F84401F5C7A9
:100A43007901222518F582E43519F58322C2AF75A1
:100A5300D69F020000221207A402A5011207A4A632
:100A6300A5011207A4FAA5011207A413A6011207F0
:100A7300A439A6011207A474A6011207A4B8A601FB
:100A83001207A4DFA6011207A430A7011207A4E0EE
:100A9300A7011207A498A8011207A460A9011207CD
:100AA300A43DAA011207A4C3AA011207A4D2AA0152
:100AB3001207A4DDAA011207A4E6AB011207A4F7EB
:100AC300AB011207A46DAC011207A4FFAC0112071E
:100AD300A457AD011207A41DAE011207A44EAE0127
:100AE3001207A493AE011207A4A0AE011207A43407
:100AF300B0011207A497B1011207A4B3B201120700
:100B0300A41DB5011207A428B5011207A432B5012B
:100B13001207A43DB5011207A447B5011207A4515A
:100B2300B5011207A45CB5011207A467B50112074A
:100B3300A498B5011207A4BCB5011207A4E0B5013E
:100B43001207A445B6011207A489B6011207A4A58A
:100B5300B6011207A41CB7011207A454B701120768
:100B6300A4A0B7011207A4FDB7011207A4DFB901BE
:100B73001207A465BA011207A436BB011207A446E3
:100B8300BE011207A49BBE011207A4C7BE01120730
:100B9300A413C0011207A463C0011207A4B8C001C3
:100BA3001207A4B9C1011207A451C2011207A4D3A9
:100BB300C2011207A473C3011207A4CD1E001207BA
:100BC300A4061F001207A4E020001207A41F21009F
:100BD3001207A46921001207A40E22001207A46DB4
:100BE30022001207A4A122001207A40E2300120759
:100BF300A42B24001207A43325001207A4C925003F
:100C03001207A41029001207A4B929001207A495FA
:100C13002A001207A4F62A001207A4132C001207B5
:100C2300A43D2E001207A4F42E001207A4FE2E00EA
:100C33001207A4312F001207A4F82F001207A49360
:100C430030001207A4F830001207A4213100120764
:100C5300A44331001207A47233001207A4493400DD
:100C63001207A48D34001207A4FA34001207A4B5A6
:100C730035001207A4E735001207A42B360012072C
:100C8300A45E36001207A4B336001207A408370087
:100C93001207A49C37001207A4FE37001207A466AC
:100CA30038001207A40F3A001207A4F73A001207FC
:100CB300A4393C001207A4673E001207A4273F0093
:100CC3001207A45641001207A4F941001207A437E2
:100CD30042001207A4E343001207A4F743001207DC
:100CE300A40144001207A42B44001207A4374400B4
:100CF3001207A45644001207A40D45001207A44C82
:100D030045001207A45645001207A40A460012071D
:100D1300A40947001207A40248001207A49F480031
:100D23001207A44149001207A45849001207A48FCF
:100D330049001207A4AD49001207A4F149001207A4
:100D4300A4164A001207A4FC4A001207A4684B0029
:100D53001207A4E24B001207A4F14C001207A430BF
:100D63004E001207A4924E001207A44C4F00120724
:100D7300A46F4F001207A44350001207A48E500023
:100D83001207A4D050001207A42751001207A45E33
:100D930051001207A48C51001207A4C55100120779
:100DA300A4EA51001207A47252001207A49554003A
:100DB3001207A4F454001207A48855001207A4F4E0
:100DC30055001207A44856001207A432EA0212077C
:100DD300A471EA021207A49A57001207A4F4570059
:100DE3001207A45058001207A49C58001207A4B776
:100DF30058001207A4E858001207A4055900120767
:100E0300A41159001207A4855A001207A49E5A0080
:100E13001207A4055B001207A4185B001207A4269F
:100E23005B001207A4DA5B001207A4BE5C00120782
:100E3300A4C45D001207A44A5E001207A4545E0016
:100E43001207A4C15E001207A4D85E001207A40A09
:100E53005F001207A4435F001207A46D5F0012072F
:100E6300A4CE5F001207A4EE5F001207A40C60007B
:100E73001207A45260001207A47861001207A4C5E8
:100E830061001207A4F461001207A46A620012074A
:100E9300A49262001207A4CB62001207A4D96200D5
:100EA3001207A43163001207A48063001207A4BFD2
:100EB30063001207A4EF63001207A41B6400120768
:100EC300A42664001207A44464001207A406650064
:100ED3001207A41065001207A44B65001207A46152
:100EE30065001207A46A65001207A4BF6500120714
:100EF300A4D365001207A4E166001207A4F46600F8
:100F03001207A40B67001207A42067001207A4C2EC
:100F130067001207A44568001207A40369001207BB
:100F2300A40E69001207A4346A001207A4506A00D1
:100F33001207A4A26A001207A4E16A001207A4F62A
:100F43006A001207A4386B001207A4856D0012070C
:100F5300A4036E001207A4766E001207A498700013
:100F63001207A4B070001207A4B370001207A4BF45
:100F730070001207A4D370001207A4DB70001207DD
:100F8300A40E71001207A4BE71001207A4347200EC
:100F93001207A4A772001207A45B73001207A41020
:100FA30074001207A42F74001207A4CF7400120751
:100FB300A4DB74001207A40675001207A4097500C8
:100FC3001207A43875001207A44D75001207A4B7C1
:100FD30075001207A4DF76001207A4B77700120783
:100FE300A44278001207A45B79001207A4187A00C0
:100FF3001207A4517A001207A4827A001207A422CE
:101003007B001207A4527B001207A42D7C00120759
:10101300A4C67C001207A4517D001207A4027E001F
:101023001207A4847E001207A4B67E001207A4F759
:101033007E001207A42C7F001207A4C58B0212079F
:10104300A42A8C021207A4678C021207A4B68C028E
:101053001207A4CC8E021207A4AF90021207A419A0
:1010630094021207A45494021207A476940212075E
:10107300A4D994021207A40D95021207A435950270
:101083001207A45895021207A48595021207A4001B
:1010930080021207A47E80021207A4B48002120702
:1010A300A42081021207A49382021207A4AF820232
:1010B3001207A4F482021207A48283021207A4DB9C
:1010C30083021207A40885021207A41A86021207D4
:1010D300A47786021207A4E386021207A4448702B8
:1010E3001207A48587021207A43288021207A444B8
:1010F30089021207A46F89021207A4BA8902120790
:10110300A4018A021207A4938A021207A44E8B0237
:101113001207A4229F021207A46E9F021207A4DCE7
:101123009F021207A4FD9F021207A4ADA00212079B
:10113300A4B6A0021207A409A1021207A432A102B5
:101143001207A499A1021207A42AA2021207A46CEF
:10115300A2021207A4B6A2021207A415A302120741
:10116300A4A6A3021207A4E5A3021207A424A402BF
:101173001207A459A4021207A46BA4021207A47DA8
:10118300A4021207A49CA4021207A4A5A402120796
:10119300A472A5021207A4F3E5021207A474D502F0
:1011A3001207A4AAD5021207A4F3D5021207A44377
:1011B300D7021207A4259E011207A465C5011207D1
:1011C300A4A1C5011207A460C7011207A489C7011E
:1011D3001207A41CCA011207A460CA011207A4E9DA
:1011E300CB011207A481CC011207A4E9CC01120799
:1011F300A48ACD011207A4CCCD011207A40CCE0101
:101203001207A497CF011207A407D1011207A42C38
:10121300D3011207A478A4011207A481D3011207F2
:10122300A48AD3011207A4E5D3011207A478D40139
:101233001207A496D7011207A4E4E9021207A4FA3D
:10124300E9021207A409EA021207A416B802120758
:10125300A429B8021207A4C6B8021207A402B9024D
:101263001207A419B9021207A43EB9021207A480F7
:10127300B9021207A4B1B9021207A4ECB90212070A
:10128300A466BB021207A4A7BB021207A478E70255
:101293001207A4AEE7021207A4CAE7021207A40CBE
:1012A300E8021207A41CE8021207A42DD3021207B6
:1012B300A488D3021207A4E0D3021207A455D402D0
:1012C3001207A4A4D4021207A4D0D4021207A417AD
:1012D300D8011207A46CD8011207A424D90112075C
:1012E300A4BFD9011207A409DA011207A41DDA0168
:1012F3001207A4E7DB011207A462DC011207A48C26
:10130300DC011207A446DE011207A461DE01120705
:10131300A4B0DE011207A4C6DE011207A4D3DE01C6
:101323001207A407DF011207A41DDF011207A4A8F7
:10133300DF011207A402E0011207A450E001120723
:10134300A45AE1011207A4DCE3011207A476E40125
:101353001207A4B8E4011207A44DE5011207A46A19
:10136300E5011207A46DE5011207A470E501120758
:10137300A4E3E5011207A4FEE5011207A42AE6018E
:101383001207A465E6011207A468E6011207A46127
:10139300E9021207A46DE9021207A4A7E9021207E2
:1013A300A4A1E6011207A4CCE6011207A48EE7016B
:1013B3001207A413E8011207A47CE8011207A4C8CA
:1013C300E8011207A447E9011207A4D9E9011207AA
:1013D300A469EA011207A4ABEA011207A4F4EE011F
:1013E3001207A474F0011207A4CBF1011207A4574A
:1013F300F2011207A44EF3011207A4C3F40112076A
:10140300A47DF5011207A4EFF5011207A469F60103
:101413001207A4CEF6011207A43EF7011207A47225
:10142300F8011207A44EF9011207A4BFF90112072C
:10143300A43CFB011207A4FEFB011207A415FD0146
:101443001207A4B4FD011207A471FE011207A43907
:10145300C9021207A48DC9021207A4E5C902120723
:10146300A430CA021207A492CA021207A42BCB0209
:101473001207A493CB021207A49FCB021207A48DD9
:10148300DB021207A4BEDB021207A478DC021207F8
:10149300A4DEDC021207A425D8021207A443EB0240
:1014A3001207A454EB021207A467DD021207A47506
:1014B300DD021207A4E77F001207A4C6E8021207A1
:1014C300A4D6E8021207A4EEE8021207A45BE9021D
:1014D3001207A4F1E4021207A476E5021207A4DAC4
:1014E300E5021207A4BDE1021207A4DFE10212071D
:1014F300A449E2021207A454E2021207A498E202EA
:101503001207A4CFE2021207A4D2E2021207A4B484
:10151300BB021207A4CABB021207A4F3BB02120741
:10152300A40EBC021207A429BC021207A433BC02F6
:101533001207A43DBC021207A450BC021207A469FF
:10154300BC021207A410BD021207A48FBD0212072A
:10155300A421B4021207A42FB4021207A4A9B4024F
:101563001207A48DB5021207A446B7021207A4AB53
:10157300B7021207A402B8021207A4F87F001207E9
:10158300A4B1D9021207A4D3D9021207A406DB021D
:101593001207A48ADB021207A4B2AA021207A40745
:1015A300AB021207A403AD021207A435AD02120762
:1015B300A457AD021207A470AD021207A489AD02AD
:1015C3001207A493AE021207A42EAF021207A41FA0
:1015D300DF021207A443DF021207A45CDF02120733
:1015E300A48FDF021207A4C0DF021207A4EEDF02FA
:1015F3001207A4F8DF021207A45AE0021207A46933
:10160300E0021207A473E0021207A480E0021207AB
:10161300A4DACB021207A400CC021207A43DCC0229
:101623001207A44CCC021207A46BCC021207A4D35A
:10163300CC021207A4DCCC021207A43BCD02120792
:10164300A45FCD021207A41ECE021207A42BCE0262
:101653001207A43CCE021207A407EB021207A4242C
:10166300EB021207A4D3A5021207A431A7021207A3
:10167300A43EA7021207A451A7021207A470A7024F
:101683001207A486A7021207A49AA7021207A40F9F
:10169300A8021207A474A8021207A4FCA802120746
:1016A300A485A9021207A45AAA021207A46AAA02CD
:1016B3001207A479AA021207A42DE8021207A45163
:1016C300E8021207A479E8021207A4A1E8021207AC
:1016D300A46ACE021207A491CE021207A4B2CE02CC
:1016E3001207A417CF021207A4D0D0021207A4E94D
:1016F300D0021207A4F5D0021207A409D1021207DF
:10170300A427D1021207A431D1021207A43BD102AC
:101713001207A44ED1021207A4A1D1021207A4DA20
:10172300D1021207A409D2021207A457D202120748
:10173300A4A6D2021207A4C1D2021207A4CBD202DA
:101743001207A4DCD2021207A422D3021207A48A2E
:101753007F001207A4DB7F001207A4E6950212079D
:10176300A41096021207A42C96021207A43F960215
:101773001207A45596021207A4B296021207A4E513
:1017830096021207A4219B021207A4479C02120788
:10179300A47A9C021207A4C69C021207A4F29D021B
:1017A3001207A41A9E021207A42F9E021207A43F37
:1017B3009E021207A4839E021207A4E49E0212074C
:1017C300A4F49E021207A48AE0021207A4A5E00271
:1017D3001207A4CEE0021207A4E8E0021207A40D48
:1017E300E1021207A42CE1021207A444E10212074A
:1017F300A472E1021207A48CE1021207A4C6E60256
:101803001207A40AE7021207A439BF021207A44071
:10181300BF021207A44CC0021207A47CC002120725
:10182300A4A2C0021207A4C5C0021207A4E7C00203
:101833001207A421C1021207A487C1021207A4C080
:10184300C1021207A40CC2021207A439C202120772
:10185300A459C2021207A4EEE3021207A400E40291
:101863001207A4EBE4021207A4EEE4021207A4DBBE
:10187300E2021207A44DE3021207A48BE30212074C
:10188300A4CCE3021207A4B9C2021207A40CC30238
:101893001207A47CC3021207A4C9C3021207A480BF
:1018A300C4021207A450C5021207A499C502120765
:1018B300A4D2C5021207A419C6021207A435C60290
:1018C3001207A484C6021207A4A0C6021207A4D159
:1018D300C6021207A4E1C6021207A4CDC70212076B
:1018E300A4D7C7021207A4E4C7021207A4F4C802CC
:1018F3001207A408C9021207A411C9021207A46D92
:10190300AF021207A4B2B3021207A4B7B3021207BD
:10191300A47BEA021207A4C6FF011207A4C1EA02CC
:101923001207A4B69D011207A46E9D011207A43BE2
:101933009A011207A4079A011207A4D49901120766
:10194300A4B899011207A4EA98011207A4A2980166
:101953001207A4D796011207A45796011207A4549D
:1019630096011207A46595011207A4339501120786
:10197300A47094011207A49B92011207A42C920154
:101983001207A4FE91011207A4FB91011207A4E818
:1019930091011207A48A91011207A47991011207F8
:1019A300A46B90011207A43590011207A417A40198
:1019B3001207A4C5A3011207A4B3A3011207A48BA2
:1019C300A3011207A46DA3011207A4F88F01120744
:1019D300A4998F011207A4688F011207A46AA201B8
:1019E3001207A4238C011207A4148B011207A4A3CA
:1019F3008A011207A4688A011207A4C7A10112076A
:101A0300A45AD3011207A4338A011207A4278A0117
:101A13001207A48A89011207A4D188011207A4A47A
:101A230086011207A43084011207A4EE8301120772
:101A3300A4B982011207A46E82011207A4A0810136
:101A43001207A4F780011207A4CD80011207A47422
:101A5300A0011207A49380011207A426C401000069
:101A63000080FBE4738F000100B40587000100D3FD
:101A73000A24000200AE0A25000200B00A26000272
:101A830000B20A27000200B40A28000100B60A299E
:101A9300000100B70A84000400B80A86000100BCF4
:101AA3000A2A000100BD0A2B000100BE0A2C000116
:101AB30000C10A2D0008009F052E000100C20A2F55
:101AC300000100C30A30000100C40A31000100C54F
:101AD3000A32000100A70533000100A80534000104
:101AE30000C60A36000100A90538000100C70A39FB
:101AF300000100C00A83000200D10A63000100B3A1
:101B030005640001009C0565000100BF0A6D00012A
:101B130000D00A6E0002009D0543000100C80A447C
:101B2300000200C90A45000100CB0A46000200CCAE
:101B33000A47000800AB0548000100CE0A4B00012C
:101B430000CF0A04000100D40AA1000100D70A371C
:101B5300000100D60A88000100D50A3C000100AA52
:101B630005000000000000000136360101000102FB
:101B7300010001030100010401060605020000073C
:101B83000100340801000F090401010D0100FF0EDB
:101B930008000017020000190100FF1A0100011BD1
:101BA3000100FE1C0100081D0200001F01000120AE
:101BB300010001210200002301000F24020000267E
:101BC30001000127010008280200FF2A0100072B5A
:101BD3000102402C0100002D0100012E0100012F04
:101BE3000100FF30010B1C310800003A0100083BE3
:101BF30001000F2F01000003027102300160021186
:101C03000270020102020202028002100261023A21
:101C13000041006302730272026202430200021374
:101C23000238000002000204021202000200020055
:101C330002000204020402370037003C024402009F
:101C4300023900000200026502000235028102002F
:101C53000205028202830200020300710030016068
:101C63000011007000310220035004800010006155
:101C73000000001400630073007200620043000060
:101C83000013000600000000000400120000000022
:101C9300000000000004000400370037003C024449
:101CA3000000000000000000006500000035008116
:101CB3000000000500000083000000010371030120
:101CC30003010301030103010322030203010310C0
:101CD30003000300030003000300030003000342A7
:101CE3000300032403060300030003040312032574
:101CF3000323032503230304030403000300030056
:101D03000344030003000323030003650321003599
:101D130003810300030503000300030003010171B2
:101D230001010101011101010131010101010180E1
:101D330001100161013B0014006301730172016230
:101D43000143010001130106013D013500040112A5
:101D5300010001000100010001040104013301330A
:101D6300013C01440132013600000100016501001C
:101D73000135008101000105018201830100013663
:101D8300000100060000000F00000000000000003A
:101D9300000000000003FFFF00000403FFFF00003A
:101DA300FFFF0FF4010005C4040320000100030B2F
:101DB300000000000000000003010F0100191402DD
:101DC30000B9130300BF130400C5130500CB1306AA
:101DD30000D713FFFF0000730EA30E790E7F0E9D35
:101DE3000E910E8B0EA90EAF0EB50EC10E850E6DA4
:101DF3000E670E03EAF5E5D5D5C5B5A59595858599
:101E03007575656555554545353525251515050AFA
:101E13003F0C02090C051B0C070F0C0CEB0B0DFD03
:101E23000BFF000000160F00000B150B020002222F
:101E33000F32000006630F750F7B0F3D0E810F37C6
:101E43000E430ECF0FED0FF30FD50FE10FDB0F0096
:101E5300034948424D18172505020C0E020B040BCB
:101E63000A0708000F000119161816161523030098
:101E730000383C3E363B3B352B432C30301718198A
:101E830021301B1D1F30303016181920231A1C1E39
:101E930030970EBB0EE70FC70ECD0EB70F870F8D12
:101EA3000F990F930F02040201010101090200BE01
:101EB300040AE8030E000400150028000804050ABC
:101EC300030908FF1E1E0F040C0C74F712036AE9C2
:101ED3009003ACF0900361E4F01218579003B1E45F
:101EE300F0A3F09003ADF0A3F0120D7712185D90FC
:101EF3000330E4F0A3F0901EC993FA79021218EDAF
:101F0300024B6374F212036AEAFEEBFF54806069CA
:101F13009003ACE0F91211438A088B09EA45096082
:101F23004F7C0080010CEC75F003A4F8A9F0741247
:101F330028F582741E39F583E493F4602CE493F856
:101F43008508828B83E06870DCAA08EC75F003A433
:101F5300F8741328F582741E39F583E493C0E07492
:101F63000193F583D082121A66AA08AB09121137BE
:101F7300EEFAEF6480FB0220D3EF5420601D120CB5
:101F8300998A088B09EA4509600A120BFDAA08AB76
:101F930009121137EEFAEF642080DAEEA2E0501A4C
:101FA300900366E0640F700B7900120BC7E96003BE
:101FB3001220D6EE6401FAEF80BB54207003022096
:101FC300A1750C001235A88B09EA450970107C0233
:101FD3007D007A207B009003ACE0F91212697C004B
:101FE30079047A007B00120C758A088B09801885A6
:101FF3000882850983A3A3A3A3A3A3A3A3A3740113
:10200300F0850A08850B09E5084509606D7C0079B0
:1020130004AA08AB09120C758A0A8B0B750C01E52F
:10202300082404F8E50912334C24FFF0A3E034FF3D
:1020330012563F70CC850882850983A3A3A3A3A36B
:10204300A3A3A3A3A3E0640170A5850882850983E4
:10205300A3A3A3A3A3A3E0540470948508828509D2
:1020630083A3A3A3A3A3A3A3A3A37406F07AB7850F
:1020730008828509831222028087120C457C00792D
:10208300017A007B00120C758B09EA45097009E59A
:102093000C70057A20124502EE6420021FB9EF543A
:1020A30002600B120D71EEFAEF6402021F78EF5417
:1020B3000460191246991245B9790190035F1249D8
:1020C3001D120B0DEEFAEF6404021F787A007B00F9
:1020D300022309900AAE1229A0120BDF22C082C08C
:1020E3008374EA120870851882851983AA82AB83E8
:1020F300794B1218C37408120A467402F074091259
:102103000A46AA82AB8379501218C37413120A4683
:10211300E4124AEC1218E17416023AC674F7120379
:102123006A74E1120870EAFEEBFFEE4F6033851824
:1021330082851983AC82AD83120CBD7406120A46E4
:10214300E0601E7417120A46E0FD7401120A46E0AD
:10215300FCEEFAEFFB79001219C5E9600479A4805B
:10216300027900024B5E74F612036AEAFEEBFF8EFD
:10217300828F83A3A3A3A3A3A3E05440601B124FA6
:10218300DB1222D060067AFF7BFF801A8E828F8358
:10219300123752FAA3E0FB8003120CE174FE6A705B
:1021A3000374FF6B6041124FDB124546120D35E994
:1021B3008E828F8360061221FBE480051221FB745B
:1021C30001F07CCD7D0B8E828F8312491D1218E79F
:1021D300E9F5087015EE4F60097901EEFAEFFB128D
:1021E3000C51A9080245777508CDAA088E828F8302
:1021F300122202E960DF80EAE0240D123C2122E092
:10220300240C123C21E0F9120BD92274F612036A52
:10221300E9FEEAFF7A0F7B00121131EA4B60198A5B
:10222300828B83740CF0EEA3A3F0EF8A828B83A3DB
:10223300F01245A27900802FEEF9120C7B8A088BED
:1022430009A808A909E849601C88828983A3A3A374
:10225300A3A3A3A3A3A37406125266E0F9120B91DE
:10226300EEF9120C577910024577C082C0839003B0
:1022730066E0640F7014EA4B6010900361E0640839
:102283006005E064047003122290023AF0EAFCEB6A
:10229300FD7A017B009003ACE0F912126322C08245
:1022A300C0837900EA241DF582EB12374F24FD60C9
:1022B3000B14600824FD600424FD700109023AF048
:1022C3008E828F83A3A3A3A3A3A3A3A3A31222D426
:1022D30022123797FB120D35E9228E828F83A3A337
:1022E300A3A3A3A3A3A3A31222D46402228E828F47
:1022F30083A3A3A3A3A3A3A3A3A3123AE790035285
:10230300E068221208257F0602059574F412036A19
:1023130074FD1208708A088B098A828B83A3A3E059
:10232300F9120C7B8A0A8B0BAE0AAF0BEE4F7003CC
:10233300022415850882850983A3E064F160308552
:102343000882850983A3E064CD602485088285091A
:1023530083A3E0641A6018850882850983A3E06477
:10236300E9600C850882850983A3E064E17008793C
:1023730000120C51E9706C850882850983A3E0C0C3
:10238300E07402120A46D0E0123ACBEEF0A3EF1249
:102393002DF6851882851983AA82AB837005120AEC
:1023A300F58003120D1D7402120A46E064E97033CE
:1023B3008E828F83122421750A01780A1207E17530
:1023C3000AE9780A1207E1E508240CF582E5091207
:1023D30028E8122DD3FCA3E0FD8A828B83122DED16
:1023E3001208258E828F83A3A3A3A3A3A3A3A3A3CE
:1023F300E0640270108E828F83A3A3A3A3A3A3A37D
:10240300A3A37406F0850882850983A3A3E0F912C8
:102413000C57120C45900AB21220D90229A5E0F8F4
:10242300A3E0F9E8FAE9FB2274F412036AEAFEEB8B
:10243300FF7508008E828F83A3A3A3A3A3E060424A
:102443007508088E828F83A3A3A3A3A3A3A3A312B8
:1024530039FA8B0BEA450B601075082C8E828F833B
:10246300A3A3A3A3A3E0D2E0F08E828F83A3A3A3AD
:10247300A3A3E0540364016003022514430811027B
:102483002514EE24181229B26033EE241A1229B24D
:10249300700F1222F07003A3E06970757508228033
:1024A30070EE241BF582EF122519241AF582EF1220
:1024B3002DFEEE241912500F120B7F80541222DDD1
:1024C30070037508011222F07003A3E0697006E53A
:1024D30008D2E1F508E50860158E828F83A3A3E097
:1024E3007006E508D2E58004E508D2E6F508122275
:1024F300C364017006E508D2E0F5088E828F83A3DA
:10250300A3E0600D12252764016006E508C2E0F52B
:1025130008A9080229AA12373D12252022E0FCA3AC
:10252300E0FDEE2212373712376FF9120D23E9223D
:10253300C082C08379018A828B83A3A3E0C3940200
:102543004001198A828B83A3A3A3A3E0C39402400F
:102553000279008A828B83A3A3A3A3A3A3A3A3A328
:10256300E064F87003A3E0F460458A828B83A3A33D
:10257300A3A3A3A3A3A3A3E064F97003A3E0F4605C
:102583002E8A828B83A3A3A3A3A3A3A3A3A3E06401
:10259300FA7003A3E0F460178A828B83A3A3A3A337
:1025A300A3A3A3A3A3E064FB7003A3E0F4700279E5
:1025B300008A828B83A3A3A3E0F890034FE06860B3
:1025C300027900023AF074F012036A74DE120870A2
:1025D300EAFEEBFF8E828F83A3A3A3A3E0600E909A
:1025E3000AB012456E6006900AB01220D974031225
:1025F3000A46AC82AD838E828F83A3A3A31245F0D8
:10260300124E29E9600F7403120A46AA82AB8312A1
:102613000BF7E9700879011218690228DDEE241B13
:102623001237427410120A461245B97409120A4647
:10263300E06021741A120A46E0FD7404120A46E0AF
:10264300FC8E828F8312491B79011219C5E960043C
:10265300790280C37403120A46AA82AB83120BF178
:10266300E9F50A7409120A46E0702A900349E0600A
:10267300247422550A6422601C7442550A64427011
:10268300CF7420120A461228FB600A7420120A46ED
:102693001228F470BBE9A2E650417403120A46AA59
:1026A30082AB83120BE5E970030226187420120A29
:1026B300461237526403700F7420120A46A3124560
:1026C30060A3E0640D60147403120A46AA82AB830C
:1026D300120D47E9640170030228DDEE242C122851
:1026E300E5122C097003A3E069701C7508007808D3
:1026F3001207E178081207E1EE242E12500F122977
:1027030001122DED1208257409120A46E070030226
:1027130027BA12290112491D120D9B8A088B09EA57
:10272300450970030228577404120A46E0F88E82A2
:102733008F83A3A3E028F8A3E03400F9E8240D1263
:1027430028EC8A828B83A3A3A3E068601CE88A82B7
:102753008B83A3A3A3F0908050120A23850882855C
:102763000983A3A3A3A3120A2F7904E9120A461229
:102773004E062AF8A3E034008882F583A3AA82AB2D
:10278300831211258A0C8B0D8C0E8D0F8508828583
:102793000983A3A3A3A3780C12075D40030228DDDA
:1027A300908054780C120985850882850983A3A338
:1027B300A3A3780C120A07900361E064046008E0A5
:1027C300640960030228DDE50AA2E54003022895B7
:1027D300EE242E1229B2851882851983F0EE242F58
:1027E3001229B2C0E07401120A46D0E0F0EE2430A0
:1027F3001229B2C0E07402120A46D0E0F074141237
:102803000A46E064017027740E120A46123748EE36
:1028130024121229B2687003A3E0697011740C12B8
:102823000A461222EA70077414120A46E4F0EE24F0
:10283300241228E51206607404120A46AC82AD83A2
:102843007407120A46AA82AB83120AFB74041208A5
:10285300250228DD9003A6E0640160030227BA7411
:1028630020120A461228FB7009E50AA2E650030269
:1028730027BA7410120A46E0F47003A3E0F4605A16
:10288300EEFCEFFD7403120A46AA82AB83120C031B
:102893008048A2E650447420120A4612492C701A4A
:1028A300741A120A46E0640270307403120A46AACC
:1028B30082AB837900120D1180207420120A461214
:1028C30028F47016741A120A46E06404700C740338
:1028D300120A46AA82AB83120D0B7422024CD8EE65
:1028E300240BF582EF12373D22F582E91245D2F827
:1028F30022124FEDE064072212376F640622EE24A2
:102903002A12373A122520241212373A2274F4126B
:10291300036AEAFEEBFF8C088D099005A7E0600FC0
:102923001222F07003A3E0697005120B6D804F79DA
:1029330000124910120B9D8A828B83E582458360C6
:1029430035A3A3A3A3A3A3E05418602AE508241B7B
:10295300F582E5091228E8120664122FE61228E828
:10296300120664EE241812500F122983120BAF744F
:102973000412082580087900122983120B7380271B
:102983008E828F83A3A3A3A3A3A3A3A3A312252010
:10299300240BF582EF12299C223400F5831237971A
:1029A300FB2274031208257F04020595EE2417F514
:1029B30082EF1245D22274F712036A74F712087079
:1029C300EAFEEBFF900361E06403600DE0640160E5
:1029D30008E064096003022A838E828F83A3E07078
:1029E3007E7C007D007A027B00121863EE2402FADB
:1029F300EF1233531237489003521245B9795312E9
:102A030018C97900122A88E064096003122E1B8515
:102A13001882851983740112458F9003617404F041
:102A23007401120A46AA82AB83794A1218C374014D
:102A3300120A46AC82AD837A577B03121881900346
:102A430052124E1F7A03122E2590034CE0A2E3503C
:102A530004D2F08002C2F012457C1220D6801E8E72
:102A6300828F83A3AE82AF83FC7D007A037B101237
:102A730018638E828F83E0F9122A88E4F0120C2DFA
:102A83007409024B6090035F1229A0120B0D90038F
:102A93006122C082C08390033012456E701F900381
:102AA30061E014600924FC600A14600C800F900339
:102AB300388032900334802D9003368028E84960B3
:102AC30008900331122DCD700C8A828B83A3E0F919
:102AD300120B01801B9003311230827005120D65B9
:102AE300800E9003CE12456E6006124560121A6680
:102AF300023AF074F412036A74FB1208708A088BAA
:102B0300097A0F7B001211318A0A8B0BAE0AAF0BC5
:102B1300EE4F7003022BFD8E828F83124AEA7950A7
:102B23001218C3850882850983A3E06003022BE59D
:102B330090035FE0F47003A3E0F4603490035FE07C
:102B430064FE7003A3E0F46027851882851983125D
:102B53002C097003A3E0696017850882850983A3A4
:102B630074EA122E037A5F7B0379501218C98072BC
:102B7300851882851983124FCE1245B97A527B0389
:102B830079531218C39003521245EA1245B97A5584
:102B93007B03794B1218C37A547B0379E11218C370
:102BA300900366E0C3940F5021900354E0C0E07497
:102BB30002120A46D0E0F07404120A467401F004CB
:102BC300120A46AA82AB831218DB750A00780A122E
:102BD30007E1780A1207E1900ADEE0F9122DE41208
:102BE3000825850882850983122C02A3F0900361CE
:102BF3007403F0EEFAEFFB1245A274050229A7A3B2
:102C0300E08E828F8322124FD2E06822123C282268
:102C130074F512036A74D81208708A088B098A82C1
:102C23008B83A3A3A31237747415120A46AC82AD27
:102C3300838A828B83A3A3A3A3A3A3A3A3122DD3CA
:102C4300FAA3E0FB120C337415120A46E0706B858D
:102C53000882850983A3A3A3A3A3A3A3A3E0C39487
:102C63000B40578E828F83A3A3A3A3A3A3A3A3E0A5
:102C730064027046EE240B1229B2F4703D90036196
:102C8300E06402603AE06406603590033012456EFA
:102C93006005122DCD604F900361E064086005E08C
:102CA300640470167417120A46E0F9741C120A467B
:102CB300AC82AD83124910120C3974280254EC9083
:102CC300033012456E701F75080078081207E1780B
:102CD300081207E1EE24101228E512502712343BA4
:102CE300122DED1208258E828F8312488C123365C4
:102CF3001237487402120A461245B9EE240D1229FE
:102D0300B2C0E07404120A46D0E0122DF6F508A30F
:102D1300E0F509740F78081209F87405120A46E5FC
:102D230008F07419120A46E0C0E07406120A46D08D
:102D3300E0F0741B120A46E0C0E07407120A46D0A2
:102D4300E0F07416120A46E0C0E07409120A46D095
:102D5300E0F07417120A46E0C0E07408120A46D085
:102D6300E0F0EE24101229B2C0E0740A120A46D031
:102D7300E0F0741A120A46E0C0E0740B120A46D05F
:102D8300E0F07427120A46E0C0E0740C120A46D041
:102D9300E0F0741C120A46A982AA8389088A09757D
:102DA3000A0078081207D97C087D007410120A46BD
:102DB300AA82AB8312411D120825851882851983C7
:102DC300AA82AB83120B07022CBD12308864012246
:102DD300E0F98A828B83A3A3A3A3A3A3A3A3A3E062
:102DE3002290035F124E239003551229A0120CF375
:102DF300740222F0EE240B1245CF221245D2FA229E
:102E0300F07A527B037953122E0E221218C97A5587
:102E13007B03794B1218C92290035F1229A0120D6C
:102E230095227B00121863900355124E237A047B7C
:102E33000012186322F01250322274F212036A74E1
:102E4300F8120870EAFEEBFF8C0A8D0B890C8518CB
:102E530082851983AC82AD8375838075823874084B
:102E630012073CF50DEEFCEFFD851882851983AA48
:102E730082AB831247ED7003750D019003AD803B68
:102E8300EEFCEFFDE508240BFAE50934001247ECEC
:102E9300601E850882850983A3A3E0650C701185F4
:102EA3000882850983E0650A7004A3E0650B603836
:102EB300E5082414F582E5091228E812335DE508D4
:102EC30045096024E50DA2E040B6850882850983A3
:102ED300E0650A7004A3E0650B70D5850882850957
:102EE30083A3A3E0650C70C8AA08AB097408022386
:102EF30006C082C0839003AD023AED74F712036AF1
:102F03009003AD1237978012EA2414F582EB12284E
:102F1300E81237741211AFEEFAEFFBEA4B70E99047
:102F230003ADE4F0A3F0024B637F0702059574F150
:102F330012036AEAFEEBFF890A8C088D098E828FE1
:102F430083E08C828D83123A04AE82AF83E0124118
:102F5300DD12414EC41241DD122FEFE054038C8287
:102F63008D8312414CA2E2E4338C828D8312414B58
:102F7300131313541F1241DD12414AA2E7E4338CA9
:102F8300828D83A3A3A3A3122FEF8E0C8F0D750E37
:102F930000780C1207D97C087D00E5082407124D40
:102FA30092120825124DFD8E0C8F0D780C1207D945
:102FB3007C037D00E508240F124D92120825E50AD3
:102FC300C3940F40148E828F83A3A3A3E0C0E012A7
:102FD3002FE61228E8D0E08006122FE612525AF0AC
:102FE300022F2CE5082412F582E50922A3A3123A45
:102FF300080EAF832274F412036A74F9120870EA9C
:10300300FEEBFF890890033012456E600E1230828A
:103013007009EEFAEFFB120D5F805F90035FE06EC5
:103023007003A3E06F70537401650860097A737BC2
:10303300031247ED70447A007B021235AC8B0BEA26
:10304300450B7036900362120A2385188285198313
:10305300120A2F900368E0C0E07404120A46D0E01D
:10306300F07405120A467401F07406120A46124AF5
:10307300EA120AD1E9609B120AD774070229A71240
:103083003088640222124FEEA3A3A3A3A3A3E022DA
:1030930074F512036A8A088B098A828B83A3AE8232
:1030A300AF83E0F9120B258E828F83E064EB600C13
:1030B300850882850983A3E064E170098508828518
:1030C3000983A3E4F01220D6750A01780A1207E1F6
:1030D300850882850983A3E0F50878081207E1795A
:1030E30000122DE4120825120C450254EFEAF0A356
:1030F300EBF0023AF074F612036A9003B0E0701B2F
:103103007C0079017A007B00120C75EA4B600C8A13
:10311300828B8312456E6003120BD3024577C08204
:10312300C083123594401079FF120C6FE9F8901E9A
:10313300CCE493C3985004790180027900023AF0F9
:1031430074F012036A8A088B09890B750C008A8252
:103153008B83A3A3A3A3A3A3A3A3E0F9120C7B8A4A
:103163000E8B0FAE0EAF0F750A01EE4F60030232E6
:1031730021850882850983A3A3A3A3A3A3124E1FBA
:10318300850882850983A3A3A3A3A3A3A3123F1D39
:1031930012491D120C638A0C8B0DAE0CAF0DEE4F52
:1031A30070030233448E828F83A3A3A3A3E4F0A30B
:1031B300F0E508240B123350E0C0E01228E2D0E01F
:1031C300F0120D3BEE240CF582EF124542E5082484
:1031D3000EF582E509123745EE240EF582EF12450E
:1031E300B6750C01EE2406F8EF12334C547FF0A3AE
:1031F300E054FC125084E0540460030232A7900AA6
:10320300B6123F0E740778081209138E828F83A3B8
:10321300A3A3A3A3A3E04508F0A3E04509F08E828E
:103223008F83A3A3A3A312335B740778081209F84F
:10323300E5085407F508E50B607A8E828F83A3A314
:10324300A3A3A3A3A3A3A3740212414F240D123C6F
:103253001DE0A2E2500B90034D1245EAA3A31245D1
:10326300B9E5087003023319EE2406F8EF3400F9C8
:10327300E8FAE9FB8A828B83E0547FFCA3E054FCE9
:10328300FDE50824FFF508E434FFF5097407780821
:10329300120913EC4508F8ED4509F98A828B83126C
:1032A30045B980728E828F83A3A3A3A3A3A3E04413
:1032B30080023220E5087005750A0080598E828FDE
:1032C30083A3A3A3A3A3A3E05420601212112BEAA8
:1032D300547F245F8E828F83A3A3A3A380238E8234
:1032E3008F83A3A3A3A3A3A3E05410600A12112BFB
:1032F300EA540F240A80DD8E828F83A3A3A3A374D1
:1033030001F0A3E412336574041235A38B09EA4573
:10331300097003124535E50CA2E050288E828F8395
:10332300A3A3A3A3124B50F9EEFAEFFB120C69E926
:103333006012124564600312372DEEFAEFFB12118F
:10334300AF750A00A90A024CDB1246AD22FAE50961
:103353003400FB8A828B8322A3A3E0F508A3E0F564
:10336300092212336922124DAEA3A3A3A3A322748D
:10337300F412036A74F71208707E00120C7BEA4B96
:1033830070030234348A828B83A3A3A3A3A3A3A3CE
:10339300A3A3E0640660030234348A828B83A3A36D
:1033A300A3A3A3A3A3E0FF8A828B83123C30E0C0D4
:1033B300E07408120A46D0E01237681247F3124548
:1033C300B9120C8DEF540860668518828519831233
:1033D3004E1F7A007B00120C5D8B0BEA450B704F7E
:1033E30090035F1238581218F37C007D007A007B3B
:1033F3000080288E828F83123752F47003A3E0F487
:10340300602D90035F12343B12491D12159FE9642E
:103413001A601C7C007D00EEFAEFFB120C5D8A0A39
:103423008B0BAE0AAF0BEE4F70C979001218F97E01
:1034330001EEF974090229A712343F22E0FCA3E04C
:10344300FD8E828F8322C082C083EA4B7005900376
:10345300B180068A828B83A3A312365860258A82A1
:103463008B83A3A3A3A3A3A3A3E0540860E5EC4D1C
:1034730060158A828B831237526C7003A3E06D70E0
:10348300D280047A007B00023AF074F212036AEAF3
:10349300FEEBFF890A8C088D097A107B001211A9B3
:1034A300EA4B603F8A828B83A3A3A3A3A3A3A3A313
:1034B300A3E4123756A3E50A124FF4A31234F08A99
:1034C300828B83A3A3A3A3E4F0A3123762A3F01216
:1034D3004E88EA240CF582EB1239F41234E9A3A3E3
:1034E300F0A3F0022309A3F08A828B8322A3A3E52E
:1034F30008F0A3E509F02274F412036AEAFEEBFF75
:1035030089088C0A8D0BEE4F6055740165087014A1
:103513007901120C6FE9F8901EC5E493C398500F1C
:103523007911806A74046508702F12359440F18E06
:10353300828F83A3A3A3A3A3A3A3A3A3E508123A00
:1035430004A31255798E828F83A3A3E4F0A3F09092
:1035530003B112456E6021800D7402650860D07955
:10356300C1802BE0F8A31245E3A3A3123658888247
:103573008983A3A370ED80039003B1EEF0A3EF1250
:1035830035A38B0BEA450B700312453579000229ED
:10359300AA7904120C6FE9F8901EC1E493C3982230
:1035A300F01235A8227A207B009003ACE0F91212C6
:1035B3007522C082C083E9F879009003B1801D8A27
:1035C300828B83A3A3A3A3A3A3A3A3A3E068600500
:1035D30074FF687001098A828B83A3A31236587023
:1035E300DE023AF074F712036AEA4B70059003B1F6
:1035F30080068A828B83A3A312365860248A828B27
:1036030083A3A3A3A3A3A3A3A3A3E06970E4EC6090
:10361300148A828B83E0240D124E10A2E240D380E1
:10362300047A007B00024B63C082C0839003B180A5
:10363300068A828B83A3A312365860128A828B83F5
:10364300A3A3A3A3A3A3A3A3E06970E580047A00C3
:103653007B00023AF01229A0EA4B2274F212036AA9
:103663008A0A8B0B8C0C8D0D750800750900EA45D1
:103673000B602E9003B180068E828F83A3A3123634
:10368300AB601EAC0CAD0DEEFAEFFB850A82850B29
:1036930083121A66E9640170DFEEF8EFF98808898E
:1036A30009AA08AB09022309E0FEA3E0FFEE4F22BB
:1036B30074F712036A9003B11237487C007D0080CF
:1036C3000DE8FCE9FD88828983A3A3123748E84902
:1036D3006030EA687002EB6970E79003B112491D2C
:1036E300E86A7002E96B88828983A3A370081237A2
:1036F300489003B180091237488C828D83A3A312AB
:1037030045B9024B6374F712036AEAFEEBFFEE4F0F
:103713006015120C8712377A124564600312372D35
:10372300EEFAEFFB1211AF024B63EE240C12373AA1
:1037330012378F22EE241DF582EF3400F58322F534
:1037430082EF12373D123AE722F582EF12373D122C
:10375300376F2212375A22124FFCA3A3A3A32212BC
:10376300375AA3A3221234EA12376F22124FE7E02B
:1037730022E0FEA3E0FF228E828F83E0241C123C12
:103783002112378F8E828F8312378F22123797FB46
:103793001211AF22E0FAA3E022C082C083EAFCEB5D
:1037A300FDEC4D700479058044EC24FBF582ED3487
:1037B300FF12456C70071237F3E0F46005121137FE
:1037C30080E39003ACE0C0E01237F3D0E0F0901E4A
:1037D300C2E493F97AB37B03121161E96401700BBC
:1037E3007A007B20124539790080027904023AF08D
:1037F300EC24FFF582ED34FFF5832274F412036A9F
:10380300A2AFE433F508C2AF9003B31236AB60380E
:10381300EE24FBF582EF34FF12456C7A007B209097
:1038230003AC600512453C8005E0F912116DE4F527
:103833000AF50B780A1207DDEEFCEFFD7AB37B0382
:1038430012115B7402120825E508A2E092AFEEFAAA
:10385300EFFB0229AA124E23851882851983AA82B7
:10386300AB832274F212036A74FC120870EAFEEB53
:10387300FF750AFE750BFF120C4BE9600579110207
:1038830039E9EE24151229B26037900ACFE0C43328
:1038930054E0F8E0333354FC48C0E0EE241512281A
:1038A300E5D0E0123A041239FA8B09EA45096011AE
:1038B300750AFFEE240F1229B244041245C7D2E061
:1038C300F08E828F831222CE6006EE24121239F11B
:1038D300EE24131229B27010901EC8E493C0E0EED8
:1038E30024131228E5D0E0F08E828F83E0A2E75004
:1038F300045403801CEE24141229B2701590033E65
:10390300E0C0E0EE24141228E5D0E0F090033EE09E
:1039130004F0EE24111229B26401701690059CE0A4
:10392300600D900349E0700A8E828F83E07003126A
:1039330039EE8E828F83E064017013EE240B12370D
:103943004C64027009EE240F1229B24440F085182A
:1039530082851983AC82AD83EEFAEFFB120CB18A38
:10396300088B0974FE650A700374FFF470098E8274
:103973008F83A3A3124D9EEA450960668E828F83CF
:10398300E0C0E07401120A46D0E0F07402120A4665
:10399300124E8C7401120A4685820C85830D780CB5
:1039A3001207DDEE240F1228E5120664EE240E1230
:1039B30029B2F50C780C1207E190035212066474D5
:1039C30007120A46E0F9AC0AAD0B120CAB740712EE
:1039D3000825E9FE74106E700BAA08AB091211AF2B
:1039E30080027E10EEF97404022306EE2411F582A0
:1039F300EF12373DE4F022A31229A079FF1219290F
:103A030022123A0822F08E828F83A322C082C083BF
:103A130074DE1208708A828B83A3A3A3A312374890
:103A2300740E120A46E8F0A3E9123ADE740C120A85
:103A330046123AD7240DF582EB1229B5C0E0741A69
:103A4300120A46D0E0F0124CEBEB12374574201209
:103A53000A46123AD72415F582EB1229B5C0E07451
:103A630008120A46D0E0F0EA241CF582EB1237452F
:103A73007412120A46123AD72411F582EB1229B5B1
:103A8300C0E07409120A46D0E0123ACB74FFF07416
:103A930001120A4674FFF07402120A4674FFF09092
:103AA30080501206607404120A46AC82AD83740718
:103AB300120A46AA82AB83120AFB74041208257900
:103AC3000074221208258025123ACF22F08518822D
:103AD30085198322E8F0A3E9F0EA221234EAA3125B
:103AE3003AE622A3E0F8A3E0F92212491DD083D0DD
:103AF300820207A174EC12036A74EE1208708A1230
:103B03008B13ECFEEDFF89097426120A46124D9EB3
:103B13007428120A46E0F5107429120A46123C1260
:103B2300742B120A46E0F50EA3E0F50F7508107A20
:103B33001E7B001211A97402120A46124546740232
:103B4300120A4612456E7003023C0B8518828519D2
:103B530083AA82AB83795012442112491D74021245
:103B63000A46123C30A31245467410120A461255F7
:103B73007B7402120A46E0240B123C1D7402F012FD
:103B83000A46123C307402F0120A46124FDF124EFC
:103B93008C7402120A46124932E509F07402120AC1
:103BA30046E0240C123C1DE510F07402120A461282
:103BB3003C1AE512F0A3E513F07408120A46E50C6B
:103BC300F0A3E50DF0740A120A46E510F0850E82A3
:103BD300850F83C082C083740D120A46AC82AD8305
:103BE300D083D082740312073CF97402120A46AAE6
:103BF30082AB83120C51E9640170057508008008DB
:103C03007402120A46123733A9087412024DB5E042
:103C1300F50CA3E0F50D22E0241C123C2122F8A3AD
:103C2300E0123C28223400F9888289832212492534
:103C3300A3A3A3A3A32274EE12036AEAFEEBFF8CF1
:103C4300088D098E828F83A37408124602E06008F0
:103C53008E828F83A37410F01229AF60098E828F36
:103C630083A3E02408F0EE24151229B260088E82A3
:103C73008F83A3E004F08E828F83A3A3A3A3A3A3C4
:103C8300E060198E828F83A3A3A3A3A3A3A3E0C39E
:103C9300332402F88E828F83A3E028F0EE241112DE
:103CA30029B26005750B0E8003750B008E828F831E
:103CB300A3C082C083EE240D1229B2D083D082F830
:103CC300E028250B8C828D83F0EE24111229B2603B
:103CD3000512412D28F0850882850983E0C3947578
:103CE3004009750800750900023E1BE0FA7B0012CB
:103CF3004F3A7003023E1BEEFAEFFB120CB7EA8554
:103D03000882850983124547EE2402F8EF122C0F2F
:103D1300123F15123E57F0EE24040808EF122C0F41
:103D2300124357A3123E57A3A3F0EE2413123E3DB2
:103D3300F0EE2414123E3DA3F0750A08EE24161289
:103D430029B26010EE2418124E1CE5082408125004
:103D53001D750A101229AF6016EE241A124E1C8527
:103D63000A0CE508250C12501D7408250AF50A8E65
:103D7300828F83A3A3A3A3A3A3E06059EE2407F533
:103D830010EF3400F511851082F583E0C0E0123E98
:103D9300241228E8D0E0123E47E0C0E0123E24128D
:103DA30028E8D0E0123E47A3123E301207D985100F
:103DB30082851183E0C333FCE433FD850A0CE508F7
:103DC300250C124D92120825851082851183E0C3BC
:103DD30033250AF50AEE24151229B2600BC0E0124E
:103DE3003E241228E8D0E0F01228E2123E301207F7
:103DF300D9EE240D1229B2FC7D00850B0A8E828F29
:103E030083A3E0F8E50828F8E5093400F9E8250A72
:103E1300FAE9124D95120825AA08AB097F0A020593
:103E230095850A0CE508250CF582E50922E0F50CD9
:103E3300A3E0F50D750E00780C2212373A123E619D
:103E4300A3A3A322F0050A8E828F83A3A3A3A3A314
:103E5300A3A3A322A3A3125088A3123E6122124359
:103E63005BA3A32274F612036A8A828B83E0FC901D
:103E7300034F123F0E74027808120913EC4508FC35
:103E8300AD09EA2412123F0874067808120913ECEC
:103E93004508FCED4509FDEA2415F582EB1229B529
:103EA3006004780180027800E4C8F9ED49FDEA2452
:103EB30011F582EB1229B5F50888097409780812FF
:103EC3000913ED4509FDEA2416123F08740B78081F
:103ED300120913ED4509FDEA2417123F08740C7803
:103EE30008120913ED4509FD8A828B83A3A3A3A3BB
:103EF300A3A3123F0E740A7808120913ECFAED45D6
:103F030009FB024577F582EB12373DE0F5087509A9
:103F13000022E085088285098322A3E0F9850882CF
:103F23008509832274EE12036A8A0A8B0BECFEED79
:103F3300FF750F01E9C394085005790002411A8EF9
:103F4300828F83E9F0124380E96003750F00124307
:103F5300648E828F831243AEEE124CECEF1243A3B6
:103F6300C0E0EE24111228E5D0E012439BC0E0EE3E
:103F730024121228E5D0E0123A047408124DA6A3C5
:103F8300A3A3E0601512434CEE2413F582EF124510
:103F9300B68E828F83A3E02408F08E828F83A3A33F
:103FA300A3A3A3A3A3A3E060218E828F83A385820F
:103FB3000885830912438FEE2415F582EF1245B667
:103FC300850882850983E02408F08E828F83A3A36A
:103FD300A3A3A3E0601A8E828F83A38582088583BF
:103FE300091243738E828F83A3A3A3A3A312413F1A
:103FF300EE24191239F1EE241B1239F1A31245FAFA
:10400300E070030240AEEE2419F8EF3400F98E821B
:104013008F83A3858208858309E0FAE50A2AF5825E
:10402300E50B1229B58882898312413FFAE50A2AF2
:10403300F582E50B1229B5C0E0EE241A1228E5D06B
:10404300E012413F88828983E06059F8901ECBE4F7
:1040530093C398500575110C8008EE24191229B2E8
:10406300F5118E828F83A3E0F8E50A28F50CE50BA2
:104073001241231207D9E511C333FCE433FD7A75EA
:104083007B0912411D120825EE241B1228E57475C5
:10409300F0A37409F0E511C333F885088285098319
:1040A300E0288006EE2418125257F08E828F83A3E5
:1040B300E0F88E828F83E0C3985003023F3DA3E074
:1040C300FA8A08E50A2508F8E50B3400F9EE241D01
:1040D300F582EF1246C212414FC39AC0E0EE241795
:1040E3001228E5D0E01245BF602BEE2417F8EF3419
:1040F30000F9880889098882F583E024F21246A32F
:10410300240EFAA3E03400FB888289831245461209
:10411300412DC398F0A90F023E1F121113740322FD
:104123003400F50D750E00780C2290034AE0F91265
:1041330019BFE9F8850882850983E022F0850882A2
:10414300850983E004F022A3A3A3A3A3F08E828FA7
:1041530083E02274F412036A8A088B09EA1241E4A9
:10416300F0EA1313543F1241DDA3A3A3F0EAC413EF
:10417300131241E4A3A3F0EB1241D61241EE7409EA
:10418300780A1209F81241D41241ED740A780A121E
:1041930009F8E50A5401C0E0EC2418F582ED122871
:1041A300E8D0E01241F3740B780A1209F81241D4F3
:1041B300A31241ED740C780A1209F81241D4A3A397
:1041C300A3A3A3A3A3A3F0740D78081209F80225EF
:1041D30014E50A54018C828D8322540F8C828D83C3
:1041E3002254038C828D83A3A322A3A3A3A3A3A3FB
:1041F300F08A0A8B0B22C082C08379008A828B8368
:10420300A3A3A3A3A3A3E0900349600FE070228AB2
:10421300828B83A3A3E07019098016E060138A825E
:104223008B83124914900352E06A7003A3E06B700E
:10423300E7023AF074F012036A8A0A8B0B890C8C3A
:10424300088D09124380124364850882850983120D
:1042530043AEE508124CECE5091243A3C0E0E508C0
:104263002411F582E5091228E8D0E012439BC0E04F
:10427300122FE61228E8D0E01246CA74081246E369
:10428300601112434CE50824131246BE1246CAE0DD
:104293002408F0850882850983A3A3A3A3A3A3A36A
:1042A300A3E06017850882850983A312438BE50881
:1042B30024151246BE12414F2408F0850882850951
:1042C30083A3A3A3A3A3E06019850882850983A31D
:1042D300AE82AF8312437385088285098312414AF4
:1042E30004F0AA08AB09120CC9E9F50D705685084C
:1042F30082850983A3A3A3A3A3A31243577014E046
:10430300FA8A0EE50A250EF8E50B1245ABE50CC358
:104313009A802112438BE8240EF8E91245AB9003EF
:104323004AE0F91219BF8E828F83E0F8E50CC39837
:1043330024F2C399C0E0E5082417F582E5091228A1
:10434300E8D0E0F0A90D024CDBE50A2408F8E50B00
:104353003400F92212435B22E0850882850983A396
:1043630022850A82850B83A3A31243C4E0F9EA22C0
:10437300E0F8E50A28F582E50B1245D2228A828B02
:1043830083124CE0120CC322AE82AF83E0F8E50A3D
:1043930028F8E50B3400F9221243D7A3A3A3E022A4
:1043A30012373DE81243D0A3A3E022A3A3A3A3A300
:1043B300A3A3A3A31243D01243C4A3A3E0F9EAF82F
:1043C30022E0FA850A82850B83A3A3A322F0A3E943
:1043D3001243D722F0850A82850B83A3A3A3A322CA
:1043E300C082C0837AC17B0379E21218C37AC17B8E
:1043F30003023AF0C082C083900352023AEDC082B6
:10440300C08374FE120870851882851983AA82AB53
:1044130083794B12442112491D7402023AC61218C1
:10442300C385188285198322C082C083794A1218F2
:10443300C3023AF074F612036A9003C9E0FE04F073
:10444300EEF9120C7B8B09EA450970EDEE60EAF98F
:1044530002457774F012036AEAFEEBFF8C088D09BC
:10446300890A7410120A46E0F50B7411120A46E029
:10447300F50C120D9BEA4B7013E50C7042A90AACC4
:1044830008AD09EEFAEFFB120DB3806EE50A602169
:10449300EA2402F582EB1229B5850A082508F8E417
:1044A300340013E813F070098A828B83A3A3740189
:1044B300F0E50C6045E50B70068A828B83E4F074AB
:1044C30001650C7035E50B9003D07004E4F0802A8D
:1044D300E004F0900AB7E0F89003D0E0C398401AE4
:1044E300E4F0900355E06E7003A3E06F700CEEFAF6
:1044F300EFFB7901120B1F124500024CDB7A017BA3
:10450300009003ACE0F912126F22C082C0837401E1
:104513006A7001EB70077A011245378012900AAE78
:10452300124546EA4B6005122290800312450002B1
:104533003AF07A207B009003ACE0F9121167223441
:1045430000F583EAF0A3EBF022C082C083900AB0A7
:104553000230F0C082C083900AB20230F0124FEEF4
:1045630022EE240CF582EF3400F583123AE7E84992
:10457300221208257F02020595A2F0E433851882F2
:1045830085198312459879521218C92212459879D0
:10459300421218C922F0AA82AB8322AA08AB09905F
:1045A30003ACE0F912113D223400F9E508241DF5AE
:1045B30082E50912373DE8F0A3E9F022124DAAA3E0
:1045C300A3E022A3F0EE24151245CF22F582EF34A7
:1045D30000F583E0221245DC223400F583E0F8A3E2
:1045E300E0F98882898322E0F81245F022A3E0F9FA
:1045F3008E828F83A3A322F0EE241812373A22F07F
:10460300EE241612373A2274F412036AEAFEEBFF21
:104613007A007B041245041246991245B99003614E
:104623007409F0120CD58A088B09AC08AD09EE2485
:10463300131228E512491D1247ED640170487A0FE1
:1046430012468C60418A828B8374021246A3FAA3BA
:10465300E0FB8A828B83A3E0FC8A828B83A3A3E0A3
:10466300FBEC850882850983A3A3124547888289C9
:1046730083124921123F151245C6FAA3E0FB794A7A
:104683001218C912459E0229AA7B001211318A0809
:104693008B09EA450922900332123AE7900AB222C3
:1046A300F0EE241DF8EF1246AD22123C28E0221250
:1046B30046B6223400F5837401F022F582E509122F
:1046C300373DE8F0A3E9221246CE221246D222F069
:1046D300850882850983A3221246D2A3A3A3A3221A
:1046E3001246DBA3A3E022124AF4120D2922EE2480
:1046F30017F582EF1246B6120CD5EE241A12373A8A
:10470300EAF0A3EBF02274F412036A74F312087054
:104713008908EAFEEBFF7C0D7D0079008518828510
:104723001983AA82AB8312111FEE241D1228E512EE
:104733004FDFA3E0F8741F58600A790112186979F2
:10474300000247E4E8A2E55008740C120A4674011B
:10475300F0E8A2E75008740B120A467401F0E8A2CD
:10476300E6740A5008120A467401F08008120A46D9
:10477300E064017005EE24138003EE2415124E1C31
:104783007402120A46AA82AB831218811228E2121B
:1047930047F21245B9740A120A46E06401703312F3
:1047A30022C3703B120CE18A0A8B0BA80AA90BEEF9
:1047B300240B1229B2687003A3E0697022120CD58E
:1047C300EAFCEBFD7402120A46AA82AB831247EDA0
:1047D300600D851882851983AA82AB83120B19A9F0
:1047E30008740D0229A7EEFAEFFB12187BE922E009
:1047F3001247F722F8A3E0F98518828519832274FA
:10480300F612036A74F31208708A088B09ECFEED42
:10481300FF7C0D7D007900851882851983AA82AB00
:1048230083125184A3A3A3A3A3A3A3A3A312488C7A
:10483300124895F8A2E55008740B120A467401F069
:10484300E8A2E75008740A120A467401F0E8A2E6E7
:10485300EE5004241380022415124E1C7402120A13
:104863004612487EA3A3E0C0E0740C120A46D0E0CF
:10487300124AEC120B13740D024574AA82AB831215
:10488300188185088285098322E01247F7E8F0A39F
:10489300E922F0123737124FE3A3E02274F7120331
:1048A3006A74E1120870EAFEEBFF8E828F8312496D
:1048B30021A3A3A3E0A2E050518E828F831224236D
:1048C3008A828B83A3A3A3A3A3A3E054FE12493933
:1048D3008A828B83124932E0F98A828B83E0241C1B
:1048E300FAA3E012335312491D120CCFE9701B7463
:1048F3001D120A4612492C7011851882851983AC42
:1049030082AD83EEFAEFFB120D17024B5E8E828FA0
:1049130083A3A3A3A3A3A3A3A3A31229A0221249FE
:104923002522124FE7A3A3A32212376F640422E0C8
:10493300241B123C2122123ACFAC82AD8322E9F828
:104943007900740468600A740A6860057403687007
:1049530001090207A174F612036A8A828B83742009
:10496300F0A3A37401F0120AC58A088B09AE08AF3D
:1049730009EE4F60108E828F837401F090039FE0E5
:1049830070031246F1EEFAEFFB024577C082C08353
:104993009003B57401F0E9A2E350037403F0E9A2B4
:1049A300E15004E0D2E2F0023AF074F612036A79BD
:1049B300007C008A088B0978081205DBF8FF07E002
:1049C30049DE49DE49DE49DE49D749DB49E049D4BE
:1049D300490C80097C0480050C80F67C089003B5A3
:1049E300E05C6003098003EC60010902457774F61B
:1049F30012036A8A828B83E07012A312456E600CE5
:104A03008A828B8312491C1219A180047A007B00CD
:104A130002457774F512036A74F31208708A088BDF
:104A230009ECFEEDFF750A12EA45097005790002EB
:104A33004AE5900352E065087004A3E06509701429
:104A4300120CD5EAFCEBFD1247E97005750A0180EB
:104A530003750A00851882851983E4F004120A4657
:104A6300E508F0A3E509124AEC120A89E960277404
:104A730003120A46AA82AB83120A6BE96401701619
:104A8300750A017403120A46AC82AD831247E960CA
:104A930021750A00801C7412650A701690039EE04B
:104AA3006402700EEEFCEFFDAA08AB09120AA1E93D
:104AB30070DFEEFCEFFDAA08AB09120DA1E9F87453
:104AC3000A687005750A01801774A0687012EEFCFD
:104AD300EFFDAA08AB09120DADAA08AB09120DBF71
:104AE300A90A740D0254EC7402124AF022124AF419
:104AF30022123ACFAA82AB832274F712036AEAFE28
:104B0300EBFF8E828F83A3A3A3A3A3A3A3A3E0603E
:104B130015EE24151228E5122990120D41E96401BE
:104B23007004790180258E828F83A3A3A3A3A3A3FB
:104B3300A3E06015EE24131228E5124B50FAA3E00C
:104B4300FB120D41E9640160D97900801312343FEF
:104B5300A3A3A3A3A3A3A3A3A3E022741F120825C3
:104B63007F0102059574F012036A74FD1208708ABE
:104B7300088B09ECFEEDFF890B7413120A46E0F56E
:104B83000C750A017401120A467404125017604826
:104B9300E50C601DEA2417F582EB12525A125005F8
:104BA3008A828B83E0D2E7F0EA2414F582EB123990
:104BB300F4124CEBEB1245D8740312557DEE888248
:104BC3008983A3A3F0EF88828983A3A31234E91214
:104BD30034F0120ABFE9F50AA90A7403024CD87427
:104BE300EC12036A74F51208708A0A8B0B890C8C19
:104BF3000E8D0F741F120A46E0F50D7420120A463B
:104C0300E0F510A3E0F5117E01EE120A46740AF0F6
:104C1300E97007E50DC333240AF0124DBD7003029A
:104C23004CBF124DD27409F0A3E50CC43354E045D4
:104C33000D124DE4E50C702D7C008023ECC333F89A
:104C4300E433F9E51028F8E51139F98882898312EC
:104C53004CCC88828983122C02F0A30EAF830CEC18
:104C6300C3950D40D7E5082417F582E5091246B22E
:104C7300120CD5E508241AF582E50912454274039E
:104C8300120A46AC82AD83AA0AAB0B120A71E96021
:104C930019E5082416F582E509124CC6120A46A83E
:104CA30082A983E50824181245B285088285098301
:104CB300125579AA08AB09120ABFE9FEEEF9740B83
:104CC300024DB51246B6740322E08E828F83F0A3A1
:104CD300AE82AF83221208257F080205951237970B
:104CE300F9EA2400E439FB22EA240BF5822274EE6C
:104CF30012036A8A0C8B0D890E8C088D09741212AB
:104D03000A46E0F50F7413120A46124D9E90050BE6
:104D130012456E6077E50FC333F8E433F9E8240EE8
:104D2300FAE93400FB1211318A108B11AE10AF1166
:104D3300EE4F60588E828F8374D4F0A3A3E50CF0FA
:104D4300A3E50D124DA6E50EF0AC08AD09EE240562
:104D5300FAEF125020EE240D1228E5E50FF0850A34
:104D630008850B09750A0078081207D9E50FC333C4
:104D7300FCE433FDEE240EFAEF124D95120825EEF6
:104D8300FAEFFB90050B124FDF121A66023E1FFA71
:104D9300E5093400FB121113740322E0F50AA3E0C2
:104DA300F50B22124DAA22124DAE22123A08A3A3EA
:104DB300A3221208257F0C02059585188285198385
:104DC300AA82AB83120D298A088B09EA450922EAD4
:104DD300240BF582EB1245D2FEA3E0FF8E828F8374
:104DE30022F0A3AE82AF83AC0EAD0FEEFAEFFB124F
:104DF3004DF622121881124DFD22EE2408FEEF34E7
:104E030000FF22E0FA8E828F83A3A3E022FEA3E0B9
:104E13003400FF8E828F83E02212373A124E232210
:104E2300E0FCA3E0FD221229A0120CBD2274F612AD
:104E3300036AEAFEEBFF9003B6801388828983E05E
:104E43006E7003A3E06F603A88828983A3A312453F
:104E53006E70E87A047B001211A98A088B09A808EE
:104E6300A909E849601C88828983124E8C9003B695
:104E730012491D88828983A3A31245469003B61263
:104E830045B90245778A828B83EEF0A3EFF0227453
:104E9300F412036A7E009003B680070E888289832A
:104EA300A3A312456E70F4EEC333FAE433FB124F3F
:104EB3003A607E7F009003B6802488828983124EF5
:104EC3001FEFC333FAE433FBE5082AF582E5093B18
:104ED300F583ECF0A3EDF00F88828983A3A3124539
:104EE3006E70D79003A71222FD7003A3E0697808C0
:104EF30070191207DDEEF50A780A1207E17C737D5B
:104F03000379009003A7124F45801A1207DDEEF5CF
:104F13000A780A1207E17C737D0379009003A712D4
:104F2300491D120D537403120825AA08AB09121167
:104F3300AF120AD70229AA1211A98A088B09EA45D6
:104F430009221229A0120D5922C082C08380128A1D
:104F5300828B83A3A31237489003B61245B912116B
:104F6300AF9003B612365870E6023AF074F61203A5
:104F73006A90035F1237749003CA124FCE1245B979
:104F83007ACA7B0379501218C99003CA12251CFAF6
:104F9300EFFB120DB99003CA12377490050D124539
:104FA3006E60257A067B00121131EA4B601A8A8201
:104FB3008B8374D5F0A3A3E4124FF404125005902D
:104FC300050D124FDF121A66024577124FD222E007
:104FD300F8A3E0F990035F228E828F83124FE322BE
:104FE300124FE722E0F8124FED22A3E0F583888207
:104FF30022124FF822124FFC22F08A828B83A3A342
:10500300A322124FF8A3EEF0A3EFF022F582EF12E2
:1050130045D2F9221246EAEA4B22FAE5093400FBAB
:10502300121881221245F1A3A3A3A3A3A3A3229041
:105033001EC3E4932401F8E43400F97A027B0022CE
:1050430074F712036A7E0080041256300E12515414
:1050530040F77E00EE12506F74FEF0A304125084EA
:10506300E4F00EEEC3940340EB024B6375F003A42C
:10507300F8A9F074B828F8740339F988828983A3EE
:105083002212508822F0888289832274F712036ADD
:105093007F0080010F901EC0E493F8EFC398502661
:1050A300EF1252406A7003A3E06B70E81255DD6C97
:1050B3007003A3E06D600A74FF6C700374FF6D707E
:1050C300D312514B80047A007B00024B6374F612B7
:1050D300036A7CFF7DFF7AFE7BFF120D7DEA4B7036
:1050E300407508008036E50875F017A4F8A9F07438
:1050F3001028F5827408125252600C740F28F5823E
:1051030074081252527013740128FE740839FF8E0A
:10511300828F8312525FEEFAEFFB05081251BA40F9
:10512300C502457774F412036A8A088B09ECFEED15
:10513300FF800B120D8FEEFCEFFDAA08AB09120DD9
:105143007DEA4B70EE0229AA740128FA740839FB30
:1051530022901EC0E493F8EEC3982274F712036AF8
:10516300EAFEEBFFEE4F601012517E74FEF0A304D3
:1051730012558314F0A304F0024B637C177D00796E
:105183000012111F8E828F832274F712036AEAFEC4
:10519300EBFF7508008018E50875F017A4F8A9F06F
:1051A3001255E87003A3E06F600312563805081226
:1051B30051BA40E3024B63901EC0E493F8E508C381
:1051C300982274F612036A120D7D8A088B09A808C7
:1051D300A909E849600AE8240DFAE93400FB8004D0
:1051E3007A007B0002457774F412036A8A0A8B0BF8
:1051F300ECFEEDFF750800750900802EE50975F0DA
:1052030017A4F8A9F0125623601EE509125240654F
:105213000A7004A3E0650B700375080AEEFCEFFD4A
:105223001254DF60034308A00509901EC0E493F8FD
:10523300E509C3985004E50860C202251475F01708
:10524300A4F8A9F012524B22740128F5827408398C
:10525300F583E022F582EF12373DE4221229A012F2
:105263000BB522125088A3A3A3A3A3A3A3A32274C1
:10527300F212036A8A088B09ECFEEDFF740E120A20
:1052830046124D9E750C007C007D01801012112B7F
:10529300E50CF5F0EA84ACF0750C007D007800793C
:1052A30000800312541C125478400302533EE8FA60
:1052B300E9FBEA75F017A4FA85F00D75F017EBA476
:1052C300250D1254547003A3E0F460D712543265D1
:1052D300087004A3E0650960CA1254326E7003A318
:1052E300E06F60BF125432650A7004A3E0650B607F
:1052F300B2E8FAE9FBEA75F017A4FA75F017EBA424
:10530300250DFB740F2AF5827408125413509474FC
:10531300016D050C608DE50CC39C4087E875F017A3
:10532300A4F8AAF075F017E9A42AF9740128F58204
:10533300740839F58312491D0254107800790080EE
:105343000312541C12548540030253F7E8FAE9FB95
:10535300EA75F012A4FA85F00D12546464FE70032A
:10536300A3E0F460DC12545A65087004A3E06509F5
:1053730060CF12545A6E7003A3E06F60C412545A84
:10538300650A7004A3E0650B60B7E8FAE9FBEA7508
:10539300F012A4FA75F012EBA4250DFB74902AF514
:1053A3008274061254135099E8FAE9FBEA75F01275
:1053B300A4FA75F012EBA4250D1254256401608143
:1053C300E06402700302534474016D050C70030220
:1053D3005344E50CC39C5003025344E875F012A4F4
:1053E300F8AAF075F012E9A42AF9748728F58274F3
:1053F30006025335E50C6011EC700E7401650C6008
:10540300030252907C0102529B7AFE7BFF02230926
:105413003BF583E014C3940622E8240108E9340031
:10542300F922FB748B2AF58274063BF583E022E8AC
:10543300FAE9FBEA75F017A4FA75F017EBA4250D4A
:1054430012544722FB74012AF58274083BF583E06A
:105453002212544764FE22E8FAE9FBEA75F012A42B
:10546300FA75F012EBA4250DFB74872AF5827406F6
:105473003BF583E022901EC0E493FAC3E89AE994D3
:105483000022901EBBE493FA740193FBC3E89AE9EC
:105493009B2274F512036A8A088B09ECFEEDFF75F3
:1054A3000A008002050A901EC0E493F8E50AC39837
:1054B3005028EEFCEFFDE50A75F017A4F8A9F012E9
:1054C30054DF60E0E50A75F017A4F8A9F074012829
:1054D300F582740839F5831234F28010740328FAC4
:1054E300740839FB12187BE9221208257F03020591
:1054F3009574F012036A8A088B098C0A8D0B890C48
:10550300120D838A0E8B0FAE0EAF0FEE4F60551246
:10551300517EE508F0A3E50912558312557BE50C8E
:10552300600AEE240F1228E5E50C8006EE240F1224
:105533005573F09003CC12456E601A9003A6E06495
:10554300017008EE240E1252578010EE240E12281A
:10555300E574078006EE240E125573122E381202DC
:105563001912556A024CDBEE240D12373AE8F02289
:1055730012373A740122A3A3E50AF0A3E50BF02244
:10558300123369A32274F512036A8A088B09ECFEAD
:10559300EDFF750A00800F1255E87003A3E06F60FA
:1055A30003125638050A901EC0E493F8E50AC3981F
:1055B3005025E50A75F017A4F8A9F01255DD650822
:1055C3007004A3E0650970CF740B28F58274083961
:1055D300F583124E8C80CD0254EF740B28F5827440
:1055E3000812525222740B28F58274081252526E1A
:1055F3002274F712036AEAFEEBFF7508008019E5CF
:10560300081252406E7003A3E06F700A12562370A3
:1056130005E50812563105081251BA40E2024B6300
:10562300740328FA740839FB120A6BE922EE75F049
:1056330017A4F8A9F012514B120D8F2212508812A1
:105643003AE7E84922C082C08374F81208708518CB
:1056530082851983AC82AD8375838075823074082B
:1056630012073C851882851983AC82AD831247EDFE
:10567300640170047900800279017408023AC61249
:105683006A16F9EA22E0F508E4F509F50AF50B22B2
:1056930074091208257F04020595EE2412FAEF34EB
:1056A30000FB120F3FE9227905120F4B740422E02D
:1056B30024F5C39412221256BD221215E18A0C8BD3
:1056C3000D8C0E8D0F2212102F9006521271B27A8A
:1056D300147B0022FB1256E2E8F0A3E9F0EE22125B
:1056E30056EA8A828B83228A828B83E024FFF8A383
:1056F300E034FFF922EE240E1274087401221257CB
:10570300421208257F0802059512573CA2E5221292
:10571300740BE4F0227F05020595E508126D51E54F
:105723000912573C227AD17B0312115B74022212B5
:10573300573622EE2410F582EF3400F583E022126F
:105743001023740422F582EF12573CF822EE240D45
:10575300F582EF12573C640122E0FEA3E0FFEE4F17
:1057630022F582EF12573C22FAEF3400FB79E11263
:1057730016E322F0EEFAEFFB22EE240EF582EF128F
:10578300740B22F0A3F0025ED1F582EB12573CFAC0
:105793002212082502632CC082C08374FE12087093
:1057A30080077AD17B031257D89003D11267BC705C
:1057B300F19003D31267BC60097AD37B031257D8E5
:1057C30080EF9003D1E4F0A3F09003D7F0A3F0A30C
:1057D300F074028016121155851882851983EAF038
:1057E300A3EB1279EF120F2D227411120825025E1A
:1057F300D174F612036AE9FF8F0874731268DB74BD
:105803001E1268E0FE8E08FA7B00121131EA4B602B
:1058130017EA2508F8EB3400F98A828B8312729B0E
:10582300A3A3A3A3E4F080227A027B00121131EA3E
:105833004B60138F08747E1268DB741E125BBBF01F
:10584300A3741A125BD07A007B00027356E9FDEA57
:10585300FC74062DFAECA2E0501EEA75F00A84A847
:10586300F0E86014740A2AC398FAE8C39405400464
:10587300740A2AFA740B2AFAEDC3941340047814B9
:1058830080027806E82A2409F8E43400F97A0A7BCE
:1058930000120219E8F90207A1C082C08390040133
:1058A300E05402600A121905E96004790180027963
:1058B30000025ED1C082C083900401E054026014F0
:1058C3009003D7E0700A1267B960091258DC5004DC
:1058D300790180027900025ED19003DAE02410128C
:1058E3005DABA2E722C082C08390804DE0F89003B5
:1058F300D9E0C398500512113180047A007B00026D
:105903005ED1C082C083120F2D7900025ED1C082A6
:10591300C08374FE120870851882851983125A7722
:10592300600D14606524FE70030259B1025A3B9066
:105933000632E0640F6018120F03E97012851882B3
:10594300851983126A11900A85125E32121A6690C3
:10595300065AE0C0E08518828519831264D4D0E02A
:10596300125A5DF8125A4B7414125A5DFCA3E0FDEF
:105973007AD37B0312114FE5A8F8C2AF9003D91273
:105983005A6E7920120EEB0257D4120EF7E98518DE
:10599300828519836011125E32740D125A5DFAA367
:1059A300E0FB1218FF80E0125E32741580BB125DBB
:1059B300B17003025A3B85188285198312732CC078
:1059C300E0125A50D0E0125A5D2402F8125CA2246D
:1059D30001FAA3E03400FB88828983125A7714C347
:1059E30094095020125DB1FA851882851983A31298
:1059F3007C16A3A3A3E0F874A728F582741E12688B
:105A0300E06A600F125A50E06408702C125DB164B2
:105A1300087025851882851983E0F8125DB7141282
:105A23005A7B240AC0E0851882851983125A4BD009
:105A3300E0125A7B0402596C851882851983AA8265
:105A4300AB83120F2D02598AA3125E3D2285188261
:105A5300851983127C23A3A3A322125A6122127AEB
:105A6300DFE022E5A8F8C2AF9003D8E004F0E8A293
:105A7300E792AF22EAF0A3EB125A61F8125DBCA3DE
:105A8300E022C082C0839003DC1267BC6008125A14
:105A93004C121A6680027900025ED174F712036A0F
:105AA300EAFEEBFFEE240D1256FBF0EE242F125705
:105AB30064C0E012577CD0E0F0EE2430125764C08B
:105AC300E0EE241212577FD0E0127062C0E0EE24A1
:105AD3001312577FD0E0F0EE242B12577F12066487
:105AE300EE2422FCEF3400FDEE242D125764F9124C
:105AF3006E59120825E97007EEFAEFFB120E310218
:105B0300632CC082C083120F03E9600479208002F2
:105B13007901025ED1C082C083EA126D48E0D2E00F
:105B2300025788C082C083126D41125756701112FA
:105B33005BC5400C8A828B83A3E0F9120EF1806966
