:020000040000FA
:060000000209D90201BD56
:03002B000207B910
:030033000206AB17
:030053000200EBBD
:03006B00020691F9
:10008300020152010101050301630F630F630F6353
:100093000F190E130E630F861C00000000E81C00EE
:1000A3000000000C0000000C0001FFFF010100F63E
:1000B300040000004805E80364006400B80102027C
:1000C3000008000005020701051E02051E020A0AB8
:1000D30003B80B02803E010201F1FF020A1401E0A2
:1000E3009651180002020612C0E074F2120441A2F3
:1000F300AFE433FED2AFE5A7FFE5A1F5085F5410E7
:10010300600612162975A1EFE5085F54086008120E
:10011300162F75A1F7802BEFA2E0C0D0E508A2E06F
:1001230092F0120926158182F05017906198E0F839
:1001330090061AE0C398A2D265D0335002E8F07556
:10014300A1FE751A00EEA2E092AF7F010204A0C0E7
:10015300E074F2120441A2AFE433FED2AF9061A483
:10016300E0F8759B00E59158540860087591F71203
:100173001677802AE59158541060087591EF12168E
:100183007D801BE8A2E0C0D0E591A2E092F01209C5
:1001930026158182F05007E0C2E0F01217CD90617E
:1001A300A3E0F8E5E9585404600E1217A375E9FBC0
:1001B300906193E0A2E640F28088C0E074F21204FA
:1001C30041A2AFE433FED2AF9061A5E0F8E5BF589A
:1001D3005404600675BFFB1217E5020145C3E4989A
:1001E300F8E499F91202218026C3E49AFAE49BFB0E
:1001F300E920E7E9120221E498F8E499F922C3E43B
:1002030098F8E499F9120221E498F8E499F9C3E41F
:100213009AFAE49BFB22EB20E7CFE920E7E0B90061
:1002230010BB0008E88AF084F8AAF022E4FBC8FABD
:1002330022EB70227B10C833C8C933C9335007C3BC
:100243009AC3DBF280069A50012ADBEAC833F4C86A
:10025300C933F4C9FA2275F008E4C833C8C933C9ED
:1002630033C99AC99B5004C92AC93BD5F0ECFBC8D2
:1002730033F4C8E4C9FA22080808EAC0E0EBC0E096
:1002830086F0E7A4FA180986F0E7A42AFA18098683
:10029300F0E7A42AFA180986F0E7A42AFA1986F0E7
:1002A300E7A4FBE5F02AFA190886F0E7A42BFBE59F
:1002B300F03AFA190886F0E7A42BFBE5F03AFA18AE
:1002C300180986F0E7A4C5F02BFBE43AFA1908E70E
:1002D300C5F0C6A426F6E5F03BFBE43AFA1886F02F
:1002E300E7A4F6E5F00826F6E43B08F6E43A08F658
:1002F300D0E0FBD0E0FA22E4CFC0E0E4CEC0E0E4FB
:10030300CDC0E0E4CCC0E075F020C3E633F608E6E8
:1003130033F608E633F608E633F6181818EC33FC20
:10032300ED33FDEE33FEEF33FFC3EC9709ED970991
:10033300EE9709EF97191919400FFFEC97FC09ED98
:1003430097FD09EE97FE191906D5F0BEECF709EDF6
:10035300F709EEF709EFF7191919D0E0FCD0E0FD22
:10036300D0E0FED0E0FF222518C582C0E0E51934B5
:10037300FFC583C0E0E518C3958224F810AF088554
:1003830083198582188008858319858218D2AFCE98
:10039300F0A3E520F0A37808E608F0A3DEFAEFF077
:1003A300A3E58124FAF8E608F0A3E608F0A3E6083B
:1003B300F0A30808E608F0A3E608F0A31581158169
:1003C300D0E0FED0E0F8158115811581E8C0E0EE9C
:1003D300C0E022120A3BB9000302042BE49003019C
:1003E300787C79088002F0A3D8FCD9FA781A9000B7
:1003F300867A01BA00028007E493A3F608DAF9903B
:100403000A7CAA82AB83900087786579018015E422
:1004130093A3AC82AD838A828B83F0A3AA82AB833E
:100423008C828D83D8E9D9E77582267583D97402C6
:1004330012079B75828B75831A740012079BC0D0B9
:100443002518C582C0E0E51934FFC583C0E0E5186F
:10045300C3958224F310AF08858319858218800819
:10046300858319858218D2AFC8F0A3E9F0A3EAF017
:10047300A3EBF0A37908E709F0A3D8FAECF0A3ED16
:10048300F0A3EEF0A3EFF0A3D0E0F0A3D0E0F0A34D
:10049300D0E0F0A3E520F0A3E5F0F0A322851983D3
:1004A300851882E0C0E0A3E0F9A3E0FAA3E0FBA390
:1004B3007808E0F608A3DFFAE0FCA3E0FDA3E0FE82
:1004C300A3E0FFA3E0C0E0A3E0C0E0A3E0F5D0A376
:1004D300E0F520A3E0A3F5F010AF0885831985822A
:1004E300188008858319858218D2AFD082D083D033
:1004F300E0F8D0E03275F0108E218F2285822685B8
:100503008325851882851983E0CEA3E0CF852682D3
:10051300852583EBC9EAC8EDCBECCAC3E833C8E948
:1005230033C9EA33CAEB33CBC3EA9EF524EB9FF519
:1005330023B35004AB23AA24EC33CCED33CDD5F055
:10054300DAAE21AF2222D083D082ECC0E0EDC0E04E
:10055300E493A3FCE493A3FDED4C600D120621ECA0
:1005630024FFFCED34FFFD80EFE493A3FCE493A3AD
:10057300FDED4C600D1206EFEC24FFFCED34FFFDA6
:1005830080EFD0E0FDD0E0FCE493A3C0E0E493C0AF
:10059300E022851983851882E0A3FEE0A3F5207885
:1005A30008E0A3F608DFFAE0A3FFE0A3C0E0E0A3BE
:1005B300C0E0E0A3C0E0E0A3C0E0E0A3C0E010AF70
:1005C300088582188583198008858218858319D246
:1005D300AFD083D0820207A1D083D082E9C0E0E408
:1005E30093A3C386F0C5F095F0F908E493A386F0CE
:1005F300C5F095F0700BE493A3C3994005E904801B
:1006030002A3E475F002A42582F582E5F03583F5B3
:1006130083D0E0F9E493A3C0E0E493C0E022C0E018
:10062300C3E49396087401939618400FE49366709D
:100633000808740193661870007019A3A3C3E493A8
:1006430096087401939618A3A3400DD0E0D0E0D090
:10065300E0020585A3A3A3A3A3A3D0E0227404808F
:100663000474028000CCC0E0EDC0E0E518C39CCC6C
:10067300AD1950011D10AF068C188D1980068C180A
:100683008D19D2AF12073CD0E0FDD0E0FC22C0E0D0
:1006930074F2120441E589A2E1500312152775890A
:1006A30000C2C57F010204A0C0E074F2120441E558
:1006B3008BA2E05003121527758B00C2E880E47407
:1006C300028000CCC0E0EDC0E0E518C39CCCAD19BE
:1006D30050011D10AF068C188D1980068C188D19CA
:1006E300D2AF12071AD0E0FDD0E0FC22C0E0C0F088
:1006F30088F0E4936670080874019366187000A884
:10070300F0A3A3700BD0F0D0E0D0E0D0E0020585D9
:10071300A3A3D0F0D0E022CAC0E0E493A3C582CC67
:10072300C582C583CDC583F0A3C582CCC582C583ED
:10073300CDC583DAE5D0E0CA22CAC0E0E0A3C58212
:10074300CCC582C583CDC583F0A3C582CCC582C584
:1007530083CDC583DAE6D0E0CA22C008C3E096F5AC
:100763000808A3E096420808A3E096420808A3E01D
:100773009645087001D3D008227009080808226042
:1007830016181818C6C333C608C633C608C633C6F8
:1007930008C633C6D5E0EA22C09FF59FE473D09F15
:1007A30022D083D082C09FE493C0E0740193C0E061
:1007B300740293F59F22C0E0C0D0E8C0E0E5A8D260
:1007C300AFC2C7751A00A2E792AFD0E0F8D0D0D07D
:1007D300E0327404800A7403800674028002740198
:1007E300C0E0F4041207F0D0E0120A16222518F52F
:1007F3008210AF08F518400215198008F518400259
:100803001519D2AF85198322BB0102E722C082C02A
:100813008389828A83BB0003E08002E493D083D080
:100823008222C0D0251810AF08F518500205198090
:1008330008F51850020519D2AFD0D0226016080867
:1008430008C6C313C618C613C618C613C618C613DC
:10085300C6D5E0EA22C3E0C696F608A3E0C696F63C
:1008630008A3E0C696F608A3E0C696F6222518105C
:10087300AF08F518400215198008F518400215193C
:10088300D2AF22E066701008A3E066700A08A3E006
:1008930066700408A3E06622C3E09608A3E0960806
:1008A300A3E09608A3E096A2D265D03322E7667050
:1008B300100809E766700A0809E76670040809E783
:1008C3006622C3E697F60809E697F60809E697F65F
:1008D3000809E697F622C3E096F008A3E096F0082D
:1008E300A3E096F008A3E096F022E627F60809E6CF
:1008F30037F60809E637F60809E637F622E026F068
:1009030008A3E036F008A3E036F008A3E036F022AF
:10091300700422600D18C6C333C608C633C6D5E0BB
:10092300F41822C0E0E8C0E0E58124FCF8E6A2E781
:10093300D0E0F8D0E022E657F60809E657F60809B2
:10094300E657F60809E657F622E056F608A3E056FE
:10095300F608A3E056F608A3E056F622E056F008A0
:10096300A3E056F008A3E056F008A3E056F022E611
:1009730047F60809E647F60809E647F60809E64791
:10098300F622E026F608A3E036F608A3E036F608DA
:10099300A3E036F622E4C396F608E496F608E49656
:1009A300F608E496F622C6F4C608C6F4C608C6F4EA
:1009B300C608C6F4C622C3E7960809E7960809E7FE
:1009C300960809E79622C3E09608A3E09608A3E0F9
:1009D3009608A3E0962275D00075814075180175BD
:1009E3001903000203D6E0F608A3E0F608A3E0F635
:1009F30008A3E0F622600C08C6C313C618C613C6C4
:100A0300D5E0F422E6F008A3E6F008A3E6F008A395
:100A1300E6F022CAC0E0E6F0A308DAFAD0E0FA2250
:100A2300E0FAA3E0FBA3E0FCA3E0FD22EAF0A3EBE2
:100A3300F0A3ECF0A3EDF022E5C754F84401F5C7A9
:100A43007901222518F582E43519F58322C2AF75A1
:100A5300D69F020000221207A416A5011207A4BA0A
:100A6300A5011207A40EA6011207A427A6011207C7
:100A7300A44DA6011207A488A6011207A4CCA601BF
:100A83001207A4F3A6011207A444A7011207A4F4B2
:100A9300A7011207A4ACA8011207A474A9011207A5
:100AA300A451AA011207A4D7AA011207A4E6AA0116
:100AB3001207A4F1AA011207A4FAAB011207A40BAF
:100AC300AC011207A481AC011207A413AD011207F4
:100AD300A46BAD011207A431AE011207A462AE01EB
:100AE3001207A4A7AE011207A4B4AE011207A448CB
:100AF300B0011207A4ABB1011207A4C7B2011207D8
:100B0300A431B5011207A43CB5011207A446B501EF
:100B13001207A451B5011207A45BB5011207A4651E
:100B2300B5011207A470B5011207A47BB501120722
:100B3300A4ACB5011207A4D0B5011207A4F4B50102
:100B43001207A459B6011207A49DB6011207A4B94E
:100B5300B6011207A430B7011207A468B701120740
:100B6300A4B4B7011207A411B8011207A4F3B90181
:100B73001207A479BA011207A44ABB011207A45AA7
:100B8300BE011207A4AFBE011207A4DBBE01120708
:100B9300A427C0011207A477C0011207A4CCC00187
:100BA3001207A4CDC1011207A465C2011207A4E76D
:100BB300C2011207A487C3011207A4F71E0012077C
:100BC300A4301F001207A40A21001207A449210020
:100BD3001207A49321001207A43822001207A49736
:100BE30022001207A4CB22001207A4382300120705
:100BF300A45524001207A45D25001207A4F32500C1
:100C03001207A43A29001207A4E329001207A4BF7C
:100C13002A001207A4202B001207A43D2C00120760
:100C2300A4672E001207A41E2F001207A4282F006A
:100C33001207A45B2F001207A42230001207A4BDE1
:100C430030001207A42231001207A44B310012070F
:100C5300A46D31001207A49C33001207A47334005F
:100C63001207A4B734001207A42435001207A4DF27
:100C730035001207A41136001207A45536001207D7
:100C8300A48836001207A4DD36001207A432370009
:100C93001207A4C637001207A42838001207A4902D
:100CA30038001207A4393A001207A4213B001207A7
:100CB300A4633C001207A4913E001207A4513F0015
:100CC3001207A48041001207A42342001207A46163
:100CD30042001207A40D44001207A4214400120786
:100CE300A42B44001207A45544001207A461440036
:100CF3001207A48044001207A43745001207A47604
:100D030045001207A48045001207A43446001207C9
:100D1300A43347001207A42C48001207A4C94800B3
:100D23001207A46B49001207A48249001207A4B951
:100D330049001207A4D749001207A41B4A0012074F
:100D4300A4404A001207A4264B001207A4924B00AA
:100D53001207A40C4C001207A41B4D001207A45A3F
:100D63004E001207A4BC4E001207A4764F001207D0
:100D7300A4994F001207A46D50001207A4B85000A5
:100D83001207A4FA50001207A45151001207A488B5
:100D930051001207A4B651001207A4EF5100120725
:100DA300A41452001207A49C52001207A4BF5400BB
:100DB3001207A41E55001207A4B255001207A41E61
:100DC30056001207A47256001207A40FEC02120772
:100DD300A44EEC021207A4C457001207A41E580025
:100DE3001207A47A58001207A4C658001207A4E1F8
:100DF30058001207A41259001207A42F5900120712
:100E0300A43B59001207A4AF5A001207A4C85A0002
:100E13001207A42F5B001207A4425B001207A45021
:100E23005B001207A4045C001207A4E85C0012072D
:100E3300A4EE5D001207A4745E001207A47E5E0098
:100E43001207A4EB5E001207A4025F001207A4348A
:100E53005F001207A46D5F001207A4975F001207DB
:100E6300A4F85F001207A41860001207A4366000FC
:100E73001207A47C60001207A4A261001207A4EF6A
:100E830061001207A41E62001207A49462001207F5
:100E9300A4BC62001207A4F562001207A403630056
:100EA3001207A45B63001207A4AA63001207A4E954
:100EB30063001207A41964001207A4456400120713
:100EC300A45064001207A46E64001207A4306500E6
:100ED3001207A43A65001207A47565001207A48BD4
:100EE30065001207A49465001207A4E965001207C0
:100EF300A4FD65001207A40B67001207A41E670078
:100F03001207A43567001207A44A67001207A4EC6E
:100F130067001207A46F68001207A42D6900120767
:100F2300A43869001207A45E6A001207A47A6A0053
:100F33001207A4CC6A001207A40B6B001207A420AB
:100F43006B001207A4626B001207A4AF6D001207B7
:100F5300A42D6E001207A4A06E001207A4C2700095
:100F63001207A4DA70001207A4DD70001207A4E9C7
:100F730070001207A4FD70001207A4057100120788
:100F8300A43871001207A4E871001207A45E72006E
:100F93001207A4D172001207A48573001207A43AA2
:100FA30074001207A45974001207A4F974001207FD
:100FB300A40575001207A43075001207A433750049
:100FC3001207A46275001207A47775001207A4E143
:100FD30075001207A40977001207A4E1770012072E
:100FE300A46C78001207A48579001207A4427A0042
:100FF3001207A47B7A001207A4AC7A001207A44C50
:101003007B001207A47C7B001207A4577C00120705
:10101300A4F07C001207A47B7D001207A42C7E00A1
:101023001207A4AE7E001207A4E07E001207A421DB
:101033007F001207A4567F001207A4C58B02120774
:10104300A42A8C021207A4678C021207A4B68C028E
:101053001207A4CC8E021207A4AF90021207A419A0
:1010630094021207A45494021207A476940212075E
:10107300A4D994021207A40D95021207A435950270
:101083001207A45895021207A48595021207A4001B
:1010930080021207A47E80021207A4B48002120702
:1010A300A42081021207A49382021207A4AF820232
:1010B3001207A4F482021207A48283021207A4DB9C
:1010C30083021207A40885021207A41A86021207D4
:1010D300A47786021207A4E386021207A4448702B8
:1010E3001207A48587021207A43288021207A444B8
:1010F30089021207A46F89021207A4BA8902120790
:10110300A4018A021207A4938A021207A44E8B0237
:101113001207A4229F021207A46E9F021207A4DCE7
:101123009F021207A4FD9F021207A4ADA00212079B
:10113300A4B6A0021207A409A1021207A432A102B5
:101143001207A499A1021207A42AA2021207A46CEF
:10115300A2021207A4B6A2021207A415A302120741
:10116300A4A6A3021207A4E5A3021207A424A402BF
:101173001207A459A4021207A46BA4021207A47DA8
:10118300A4021207A49CA4021207A4A5A402120796
:10119300A472A5021207A473E7021207A4F4D602ED
:1011A3001207A42AD7021207A473D7021207A4C3F3
:1011B300D8021207A43AC4011207A479C501120781
:1011C300A4B5C5011207A474C7011207A4399E016F
:1011D3001207A430CA011207A474CA011207A4FD9E
:1011E300CB011207A495CC011207A4FDCC01120771
:1011F300A49ECD011207A4E0CD011207A420CE01C5
:101203001207A4ABCF011207A41BD1011207A440FC
:10121300D3011207A46ED3011207A495D3011207B9
:10122300A49ED3011207A48CA4011207A48CD40199
:101233001207A4AAD7011207A4C1EB021207A4D76D
:10124300EB021207A4E6EB021207A47BBC0212070F
:10125300A48EBC021207A42BBD021207A467BD0211
:101263001207A47EBD021207A4A3BD021207A4E5C0
:10127300BD021207A416BE021207A451BE02120732
:10128300A4CBBF021207A40CC0021207A4F8E80201
:101293001207A42EE9021207A44AE9021207A48C3A
:1012A300E9021207A49CE9021207A431CA02120739
:1012B300A48BCA021207A4E3CA021207A48ECB02AC
:1012C3001207A4D9CB021207A405CC021207A4B0BB
:1012D300CC021207A4CACC021207A4E4CC02120760
:1012E300A4E7CC021207A4EACC021207A4EDCC02B5
:1012F3001207A4F0CC021207A42BD8011207A48072
:10130300D8011207A438D9011207A4D3D9011207AF
:10131300A41DDA011207A431DA011207A4FBDB01D1
:101323001207A476DC011207A4A0DC011207A45A59
:10133300DE011207A475DE011207A4C4DE01120741
:10134300A4DADE011207A4E7DE011207A41BDF0102
:101353001207A431DF011207A4BCDF011207A41690
:10136300E0011207A464E0011207A46EE101120771
:10137300A4F0E3011207A48AE4011207A4CCE40158
:101383001207A461E5011207A47EE5011207A481F7
:10139300E5011207A484E5011207A4F7E50112078A
:1013A300A412E6011207A43EE6011207A479E6019E
:1013B3001207A47CE6011207A4E1EA021207A4EDD6
:1013C300EA021207A427EB021207A4B5E6011207EB
:1013D300A4E0E6011207A4A2E7011207A427E8018B
:1013E3001207A490E8011207A4DCE8011207A45B2A
:1013F300E9011207A4EDE9011207A47DEA0112072E
:10140300A4BFEA011207A408EF011207A488F001A0
:101413001207A4DFF1011207A46BF2011207A46201
:10142300F3011207A4D7F4011207A491F5011207DF
:10143300A403F6011207A47DF6011207A4E2F60144
:101443001207A452F7011207A486F8011207A46237
:10145300F9011207A4D3F9011207A450FB011207E3
:10146300A412FC011207A429FD011207A4C8FD015F
:101473001207A485FE011207A400CD021207A4548B
:10148300CD021207A4ACCD021207A4F7CD021207B6
:10149300A459CE021207A4F2CE021207A45ACF0215
:1014A3001207A466CF021207A40DDD021207A43EA1
:1014B300DD021207A4F8DD021207A45EDE021207A2
:1014C300A4A5D9021207A411ED021207A422ED026A
:1014D3001207A4E7DE021207A4F5DE021207A4DA5C
:1014E300FF011207A446EA021207A456EA021207F2
:1014F300A46EEA021207A4DBEA021207A471E60251
:101503001207A4F6E6021207A45AE7021207A43D43
:10151300E3021207A45FE3021207A4C9E30212075E
:10152300A4D4E3021207A418E4021207A44FE402AE
:101533001207A452E4021207A419C0021207A42F2F
:10154300C0021207A458C0021207A473C0021207F4
:10155300A48EC0021207A498C0021207A4A2C0025C
:101563001207A4B5C0021207A4CEC0021207A475C5
:10157300C1021207A4F4C1021207A486B80212071B
:10158300A494B8021207A40EB9021207A4F2B90276
:101593001207A4ABBB021207A410BC021207A46774
:1015A300BC021207A4F87F001207A431DB02120762
:1015B300A453DB021207A486DC021207A40ADD028D
:1015C3001207A4B2AA021207A407AB021207A403CC
:1015D300AD021207A435AD021207A457AD021207DC
:1015E300A470AD021207A489AD021207A493AE0240
:1015F3001207A42EAF021207A49FE0021207A4C38E
:10160300E0021207A4DCE0021207A40FE1021207B2
:10161300A440E1021207A46EE1021207A478E102DA
:101623001207A4DAE1021207A4E9E1021207A4F304
:10163300E1021207A400E2021207A4A1CF021207DB
:10164300A4C7CF021207A404D0021207A413D00226
:101653001207A432D0021207A49AD0021207A4A33D
:10166300D0021207A402D1021207A426D102120744
:10167300A4E5D1021207A4F2D1021207A403D202F5
:101683001207A4B47F001207A4D17F001207A4D3CA
:10169300A5021207A431A7021207A43EA70212074C
:1016A300A451A7021207A470A7021207A486A702D7
:1016B3001207A49AA7021207A40FA8021207A47480
:1016C300A8021207A4FCA8021207A485A902120704
:1016D300A45AAA021207A46AAA021207A479AA02A8
:1016E3001207A4ADE9021207A4D1E9021207A4F973
:1016F300E9021207A421EA021207A431D202120757
:10170300A458D2021207A479D2021207A4DED2028D
:101713001207A497D4021207A4B0D4021207A4BCE0
:10172300D4021207A4D0D4021207A4EED4021207E3
:10173300A4F8D4021207A402D5021207A415D502F5
:101743001207A468D5021207A4A1D5021207A4D0D8
:10175300D5021207A41ED6021207A46DD6021207E1
:10176300A488D6021207A492D6021207A4A3D60213
:101773001207A4E9D6021207A464EB021207A4B568
:10178300EB021207A4E695021207A41096021207B1
:10179300A42C96021207A43F96021207A4559602A0
:1017A3001207A4B296021207A4E596021207A42117
:1017B3009B021207A4479C021207A47A9C021207F9
:1017C300A4C69C021207A4F29D021207A41A9E0249
:1017D3001207A42F9E021207A43F9E021207A4839E
:1017E3009E021207A4E49E021207A4F49E021207AB
:1017F300A40AE2021207A425E2021207A44EE2029F
:101803001207A468E2021207A48DE2021207A4AC35
:10181300E2021207A4C4E2021207A4F2E2021207D0
:10182300A40CE3021207A446E8021207A48AE80202
:101833001207A49EC3021207A4A5C3021207A4B1F0
:10184300C4021207A4E1C4021207A407C5021207C7
:10185300A42AC5021207A44CC5021207A486C50216
:101863001207A4ECC5021207A425C6021207A4712D
:10187300C6021207A49EC6021207A4BEC60212071E
:10188300A46EE5021207A480E5021207A46BE60228
:101893001207A46EE6021207A45BE4021207A4CDAA
:1018A300E4021207A40BE5021207A44CE502120797
:1018B300A421B4021207A47BB4021207A4E8B40261
:1018C3001207A435B5021207A4A3B6021207A4A1F6
:1018D300B7021207A406B8021207A43FB802120700
:1018E300A41EC7021207A43AC7021207A489C7029B
:1018F3001207A4A5C7021207A4D6C7021207A4E6BB
:10190300C7021207A4D2C8021207A4DCC802120736
:10191300A4E9C8021207A4F9C9021207A40DCA0256
:101923001207A416CA021207A46DAF021207A4B2CB
:10193300B3021207A4B7B3021207A458EC021207AA
:10194300A4E4EC021207A49EEC021207A4CA9D01B0
:101953001207A4829D011207A44F9A011207A41B28
:101963009A011207A4E899011207A4CC990112075E
:10197300A4FE98011207A4B698011207A4EB9601DE
:101983001207A46B96011207A46896011207A479A3
:1019930095011207A44795011207A4849401120725
:1019A300A4AF92011207A44092011207A41292015C
:1019B3001207A40F92011207A4FC91011207A49E1F
:1019C30091011207A48D91011207A47F90011207C0
:1019D300A44990011207A42BA4011207A4D9A301BF
:1019E3001207A4C7A3011207A49FA3011207A4818E
:1019F300A3011207A40C90011207A4AD8F011207D3
:101A0300A47C8F011207A47EA2011207A4378C01C4
:101A13001207A4288B011207A4B78A011207A47C1A
:101A23008A011207A4DBA1011207A4F9D30112074B
:101A3300A4478A011207A43B8A011207A49E8901C5
:101A43001207A4E588011207A4B886011207A4446B
:101A530084011207A40284011207A4CD8201120794
:101A6300A48282011207A4B481011207A40B81018D
:101A73001207A4E180011207A488A0011207A4A7FA
:101A830080011207A49DC70100000080FBE4738F4F
:101A9300000100B40587000100D30A24000200AE50
:101AA3000A25000200B00A26000200B20A2700023B
:101AB30000B40A28000100B60A29000100B70A840D
:101AC300000400B80A86000100BC0A2A000100BD18
:101AD3000A2B000100BE0A2C000100C10A2D0008D8
:101AE300009F052E000100C20A2F000100C30A3027
:101AF300000100C40A31000100C50A32000100A739
:101B03000533000100A80534000100C60A360001B0
:101B130000A90538000100C70A39000100C00A8383
:101B2300000200D10A63000100B305640001009CB8
:101B33000565000100BF0A6D000100D00A6E0002B6
:101B4300009D0543000100C80A44000200C90A457C
:101B5300000100CB0A46000200CC0A47000800AB94
:101B63000548000100CE0A4B000100CF0A04000122
:101B730000D40AA1000100D70A37000100D60A8861
:101B8300000100D50A3C000100AA05000000000086
:101B930000000136360101000102010001030100CA
:101BA30001040106060502000007010034080100D4
:101BB3000F090401010D0100FF0E080000170200C8
:101BC30000190100FF1A0100011B0100FE1C0100A6
:101BD300081D0200001F0100012001000121020075
:101BE300002301000F240200002601000127010049
:101BF30008280200FF2A0100072B0102402C0100E4
:101C0300002D0100012E0100012F0100FF30010B07
:101C13001C310800003A0100083B01000F2F0100AE
:101C2300000302710230016002110270020102021C
:101C33000202028002100261023A00410063027351
:101C43000272026202430200021302380000020021
:101C53000204021202000200020002000204020453
:101C630002370037003C0244020002390000020040
:101C7300026502000235028102000205028202832C
:101C83000200020300710030016000110070003196
:101C93000220035004800010006100000014006360
:101CA300007300720062004300000013000600008E
:101CB3000000000400120000000000000000000407
:101CC300000400370037003C02440000000000001D
:101CD30000000065000000350081000000050000E1
:101CE30000830000000103710301030103010301E9
:101CF3000301032203020301031003000300030093
:101D0300030003000300030003420300032403064C
:101D13000300030003040312032503230325032302
:101D2300030403040300030003000344030003004C
:101D33000323030003650321003503810300030527
:101D430003000300030003010171010101010111FB
:101D53000101013101010101018001100161013B18
:101D63000014006301730172016201430100011356
:101D73000106013D013500040112010001000100CB
:101D830001000104010401330133013C0144013228
:101D930001360000010001650100013500810100E9
:101DA30001050182018301000136000100060000E4
:101DB300000F00000000000000000000000000030E
:101DC300FFFF00000403FFFF0000FFFF0FF401000B
:101DD30005C4040320000100030B00000000000001
:101DE300000003010F010043140200E3130300E9A1
:101DF300130400EF130500F51306000114FFFF00A1
:101E030000730EA30E790E7F0E9D0E910E8B0EA9FD
:101E13000EAF0EB50EC10E850E6D0E670E03EAF5FD
:101E2300E5D5D5C5B5A5959585857575656555556F
:101E33004545353525251515050A3F0C02090C05C1
:101E43001B0C070F0C0CEB0B0DFD0BFF000000161A
:101E53000F00000B150B020002220F320000066375
:101E63000F750F7B0F3D0E810F370E430ECF0FED16
:101E73000FF30FD50FE10FDB0F00034948424D1855
:101E8300172505020C0E020B040B0A0708000F00AE
:101E93000119161816161523030000383C3E363B6D
:101EA3003B352B432C303017181921301B1D1F30A5
:101EB300303016181920231A1C1E30970EBB0EE75C
:101EC3000FC70ECD0EB70F870F8D0F990F930F020C
:101ED300040201010101090200BE040AE8030E0025
:101EE3000400150028000804050A030908FF1E1E44
:101EF3000F040C0C74F712036AE99003ACF090031F
:101F030061E4F01218819003B1E4F0A3F09003AD03
:101F1300F0A3F0120D77121887900330E4F0A3F0CA
:101F2300901EF393FA7902121917024B8D74F21271
:101F3300036AEAFEEBFF548060699003ACE0F91298
:101F430011438A088B09EA4509604F7C0080010C24
:101F5300EC75F003A4F8A9F0743C28F582741E39DB
:101F6300F583E493F4602CE493F88508828B83E093
:101F73006870DCAA08EC75F003A4F8743D28F582B8
:101F8300741E39F583E493C0E0740193F583D08222
:101F9300121A90AA08AB09121137EEFAEF6480FB0C
:101FA3000220FDEF5420601D120C998A088B09EA68
:101FB3004509600A120BFDAA08AB09121137EEFAA4
:101FC300EF642080DAEEA2E0501A900366E0640F1B
:101FD300700B7900120BC7E96003122100EE640154
:101FE300FAEF80BB542070030220CB750C0012352E
:101FF300D28B09EA450970107C027D007A207B00B0
:102003009003ACE0F91212697C0079047A007B003A
:10201300120C758A088B098018850882850983A3A9
:10202300A3A3A3A3A3A3A3A37401F0850A08850B09
:1020330009E5084509606D7C007904AA08AB09121B
:102043000C758A0A8B0B750C01E5082404F8E50965
:1020530012337624FFF0A3E034FF12566970CC8567
:102063000882850983A3A3A3A3A3A3A3A3A3A3E094
:10207300640170A5850882850983A3A3A3A3A3A3F1
:10208300E054047094850882850983A3A3A3A3A3C2
:10209300A3A3A3A37406F07AB785088285098312E4
:1020A300222C8087120C457C0079017A007B001278
:1020B3000C758B09EA45097009E50C70057A201245
:1020C300452CEE6420021FE3EF5402600B120D71E6
:1020D300EEFAEF6402021FA2EF540460191246C322
:1020E3001245E3790190035F124947120B0DEEFA93
:1020F300EF6404021FA27A007B00022333900AAE2E
:102103001229CA120BDF22C082C08374EA1208703C
:10211300851882851983AA82AB83794B1218ED74D3
:1021230008120A467402F07409120A46AA82AB83A3
:1021330079501218ED7413120A46E4124B16121951
:102143000B7416023AF074F712036A74E112087002
:10215300EAFEEBFFEE4F6033851882851983AC826C
:10216300AD83120CBD7406120A46E0601E7417128A
:102173000A46E0FD7401120A46E0FCEEFAEFFB7931
:10218300001219EFE9600479A480027900024B88F8
:1021930074F612036AEAFEEBFF8E828F83A3A3A376
:1021A300A3A3A3E05440601B1250051222FA600659
:1021B3007AFF7BFF801A8E828F8312377CFAA3E02B
:1021C300FB8003120CE174FE6A700374FF6B6041C1
:1021D300125005124570120D35E98E828F83600609
:1021E300122225E480051222257401F07CCD7D0B9B
:1021F3008E828F83124947121911E9F5087015EE83
:102203004F60097901EEFAEFFB120C51A908024560
:10221300A17508CDAA088E828F8312222CE960DF74
:1022230080EAE0240D123C4B22E0240C123C4BE0EC
:10223300F9120BD92274F612036AE9FEEAFF7A0F48
:102243007B00121131EA4B60198A828B83740CF084
:10225300EEA3A3F0EF8A828B83A3F01245CC79001F
:10226300802FEEF9120C7B8A088B09A808A909E8CC
:1022730049601C88828983A3A3A3A3A3A3A3A3A3C5
:102283007406125290E0F9120B91EEF9120C577981
:10229300100245A1C082C083900366E0640F7014EE
:1022A300EA4B6010900361E064086005E064047029
:1022B300031222BA023B1AEAFCEBFD7A017B00907F
:1022C30003ACE0F912126322C082C0837900EA24CE
:1022D3001DF582EB12377924FD600B14600824FD91
:1022E300600424FD700109023B1A8E828F83A3A32D
:1022F300A3A3A3A3A3A3A31222FE221237C1FB12FB
:102303000D35E9228E828F83A3A3A3A3A3A3A3A343
:10231300A31222FE6402228E828F83A3A3A3A3A30C
:10232300A3A3A3A3123B11900352E0682212082532
:102333007F0602059574F412036A74FD1208708A0D
:10234300088B098A828B83A3A3E0F9120C7B8A0A88
:102353008B0BAE0AAF0BEE4F700302243F8508824E
:10236300850983A3E064F16030850882850983A32E
:10237300E064CD6024850882850983A3E0641A6044
:1023830018850882850983A3E064E9600C850882C7
:10239300850983A3E064E170087900120C51E970A8
:1023A3006C850882850983A3E0C0E07402120A46A3
:1023B300D0E0123AF5EEF0A3EF122E2085188285B5
:1023C3001983AA82AB837005120AF58003120D1DCF
:1023D3007402120A46E064E970338E828F831224FA
:1023E3004B750A01780A1207E1750AE9780A1207A0
:1023F300E1E508240CF582E509122912122DFDFCF2
:10240300A3E0FD8A828B83122E171208258E828FFA
:1024130083A3A3A3A3A3A3A3A3A3E0640270108E27
:10242300828F83A3A3A3A3A3A3A3A3A37406F0856B
:102433000882850983A3A3E0F9120C57120C459077
:102443000AB21221030229CFE0F8A3E0F9E8FAE97E
:10245300FB2274F412036AEAFEEBFF7508008E8216
:102463008F83A3A3A3A3A3E060427508088E828F82
:1024730083A3A3A3A3A3A3A3A3123A248B0BEA4589
:102483000B601075082C8E828F83A3A3A3A3A3E0F4
:10249300D2E0F08E828F83A3A3A3A3A3E0540364AB
:1024A30001600302253E43081102253EEE24181263
:1024B30029DC6033EE241A1229DC700F12231A7000
:1024C30003A3E06970757508228070EE241BF58202
:1024D300EF122543241AF582EF122E28EE24191247
:1024E3005039120B7F8054122307700375080112B1
:1024F300231A7003A3E0697006E508D2E1F508E545
:102503000860158E828F83A3A3E07006E508D2E5E9
:102513008004E508D2E6F5081222ED64017006E5B1
:1025230008D2E0F5088E828F83A3A3E0600D122505
:102533005164016006E508C2E0F508A9080229D440
:1025430012376712254A22E0FCA3E0FDEE22123780
:1025530061123799F9120D23E922C082C0837901F0
:102563008A828B83A3A3E0C394024001198A828BDE
:1025730083A3A3A3A3E0C39402400279008A828BBE
:1025830083A3A3A3A3A3A3A3A3A3E064F87003A3B8
:10259300E0F460458A828B83A3A3A3A3A3A3A3A38D
:1025A300A3E064F97003A3E0F4602E8A828B83A313
:1025B300A3A3A3A3A3A3A3A3E064FA7003A3E0F4D8
:1025C30060178A828B83A3A3A3A3A3A3A3A3A3E0DC
:1025D30064FB7003A3E0F4700279008A828B83A307
:1025E300A3A3E0F890034FE06860027900023B1A6E
:1025F30074F012036A74DE120870EAFEEBFF8E8237
:102603008F83A3A3A3A3E0600E900AB01245986042
:1026130006900AB01221037403120A46AC82AD83FA
:102623008E828F83A3A3A312461A124E53E9600F1F
:102633007403120A46AA82AB83120BF7E970087976
:1026430001121893022907EE241B12376C7410121F
:102653000A461245E37409120A46E06021741A120D
:102663000A46E0FD7404120A46E0FC8E828F831250
:10267300494579011219EFE96004790280C37403B3
:10268300120A46AA82AB83120BF1E9F50A74091206
:102693000A46E0702A900349E060247422550A64D4
:1026A30022601C7442550A644270CF7420120A4699
:1026B300122925600A7420120A4612291E70BBE9EA
:1026C300A2E650417403120A46AA82AB83120BE5B9
:1026D300E970030226427420120A4612377C64030F
:1026E300700F7420120A46A312458AA3E0640D609A
:1026F300147403120A46AA82AB83120D47E96401DC
:102703007003022907EE242C12290F122C337003B5
:10271300A3E069701C75080078081207E1780812B5
:1027230007E1EE242E12503912292B122E1712080C
:10273300257409120A46E070030227E412292B12BA
:102743004947120D9B8A088B09EA45097003022841
:10275300817404120A46E0F88E828F83A3A3E028D3
:10276300F8A3E03400F9E8240D1229168A828B833A
:10277300A3A3A3E068601CE88A828B83A3A3A3F0CE
:1027830090806C120A23850882850983A3A3A3A3DF
:10279300120A2F7904E9120A46124E302AF8A3E0EE
:1027A30034008882F583A3AA82AB831211258A0C95
:1027B3008B0D8C0E8D0F850882850983A3A3A3A39C
:1027C300780C12075D4003022907908064780C128D
:1027D3000985850882850983A3A3A3A3780C120A1C
:1027E30007900361E064046008E064096003022960
:1027F30007E50AA2E540030228BFEE242E1229DCD6
:10280300851882851983F0EE242F1229DCC0E07429
:1028130001120A46D0E0F0EE24301229DCC0E07445
:1028230002120A46D0E0F07414120A46E064017002
:1028330027740E120A46123772EE24121229DC682C
:102843007003A3E0697011740C120A46122314700A
:10285300077414120A46E4F0EE242412290F120618
:10286300607404120A46AC82AD837407120A46AA46
:1028730082AB83120AFB7404120825022907900312
:10288300A6E0640160030227E47420120A461229B9
:10289300257009E50AA2E650030227E47410120A20
:1028A30046E0F47003A3E0F4605AEEFCEFFD74031A
:1028B300120A46AA82AB83120C038048A2E6504454
:1028C3007420120A46124956701A741A120A46E004
:1028D300640270307403120A46AA82AB8379001231
:1028E3000D1180207420120A4612291E7016741AC4
:1028F300120A46E06404700C7403120A46AA82ABFF
:1029030083120D0B7422024D02EE240BF582EF129B
:10291300376722F582E91245FCF822125017E0646A
:102923000722123799640622EE242A1237641225ED
:102933004A24121237642274F412036AEAFEEBFF8C
:102943008C088D099005A7E0600F12231A7003A36A
:10295300E0697005120B6D804F790012493A120B32
:102963009D8A828B83E58245836035A3A3A3A3A3BA
:10297300A3E05418602AE508241BF582E50912290F
:1029830012120664123010122912120664EE241871
:102993001250391229AD120BAF74041208258008A6
:1029A30079001229AD120B7380278E828F83A3A324
:1029B300A3A3A3A3A3A3A312254A240BF582EF1277
:1029C30029C6223400F5831237C1FB22740312088F
:1029D300257F04020595EE2417F582EF1245FC22AC
:1029E30074F712036A74F7120870EAFEEBFF9003A0
:1029F30061E06403600DE064016008E06409600362
:102A0300022AAD8E828F83A3E0707E7C007D007AE4
:102A1300027B0012188DEE2402FAEF12337D123777
:102A2300729003521245E379531218F37900122A74
:102A3300B2E064096003122E4585188285198374F8
:102A4300011245B99003617404F07401120A46AA95
:102A530082AB83794A1218ED7401120A46AC82AD37
:102A6300837A577B031218AB900352124E497A03B1
:102A7300122E4F90034CE0A2E35004D2F08002C226
:102A8300F01245A6122100801E8E828F83A3AE8290
:102A9300AF83FC7D007A037B1012188D8E828F83A7
:102AA300E0F9122AB2E4F0120C2D7409024B8A9059
:102AB300035F1229CA120B0D90036122C082C083E7
:102AC300900330124598701F900361E0146009244D
:102AD300FC600A14600C800F90033880329003343A
:102AE300802D9003368028E8496008900331122D29
:102AF300F7700C8A828B83A3E0F9120B01801B9081
:102B030003311230AC7005120D65800E9003CE12A6
:102B13004598600612458A121A90023B1A74F41201
:102B2300036A74FB1208708A088B097A0F7B001200
:102B330011318A0A8B0BAE0AAF0BEE4F7003022CD6
:102B4300278E828F83124B1479501218ED850882D9
:102B5300850983A3E06003022C0F90035FE0F47008
:102B630003A3E0F4603490035FE064FE7003A3E02A
:102B7300F46027851882851983122C337003A3E030
:102B8300696017850882850983A374EA122E2D7A5A
:102B93005F7B0379501218F380728518828519833D
:102BA300124FF81245E37A527B0379531218ED90D2
:102BB30003521246141245E37A557B03794B1218DC
:102BC300ED7A547B0379E11218ED900366E0C39428
:102BD3000F5021900354E0C0E07402120A46D0E083
:102BE300F07404120A467401F004120A46AA82AB76
:102BF30083121905750A00780A1207E1780A120789
:102C0300E1900ADEE0F9122E0E120825850882856E
:102C13000983122C2CA3F09003617403F0EEFAEFF6
:102C2300FB1245CC74050229D1A3E08E828F832247
:102C3300124FFCE06822123C522274F512036A74AC
:102C4300D81208708A088B098A828B83A3A3A312E4
:102C5300379E7415120A46AC82AD838A828B83A396
:102C6300A3A3A3A3A3A3A3122DFDFAA3E0FB120C1A
:102C7300337415120A46E0706B850882850983A3B5
:102C8300A3A3A3A3A3A3A3E0C3940B40578E828F54
:102C930083A3A3A3A3A3A3A3A3E064027046EE2488
:102CA3000B1229DCF4703D900361E06402603AE0AA
:102CB300640660359003301245986005122DF76065
:102CC3004F900361E064086005E0640470167417B4
:102CD300120A46E0F9741C120A46AC82AD8312490B
:102CE3003A120C3974280255169003301245987025
:102CF3001F75080078081207E178081207E1EE242F
:102D03001012290F125051123465122E1712082572
:102D13008E828F831248B612338F12377274021267
:102D23000A461245E3EE240D1229DCC0E0740412B6
:102D33000A46D0E0122E20F508A3E0F509740F78B7
:102D4300081209F87405120A46E508F07419120A04
:102D530046E0C0E07406120A46D0E0F0741B120A83
:102D630046E0C0E07407120A46D0E0F07416120A77
:102D730046E0C0E07409120A46D0E0F07417120A64
:102D830046E0C0E07408120A46D0E0F0EE241012C8
:102D930029DCC0E0740A120A46D0E0F0741A120A61
:102DA30046E0C0E0740B120A46D0E0F07427120A22
:102DB30046E0C0E0740C120A46D0E0F0741C120A1C
:102DC30046A982AA8389088A09750A007808120726
:102DD300D97C087D007410120A46AA82AB83124183
:102DE30047120825851882851983AA82AB83120BA3
:102DF30007022CE71230B2640122E0F98A828B8346
:102E0300A3A3A3A3A3A3A3A3A3E02290035F124EB0
:102E13004D9003551229CA120CF3740222F0EE24CA
:102E23000B1245F9221245FCFA22F07A527B037900
:102E330053122E38221218F37A557B03794B12184A
:102E4300F32290035F1229CA120D95227B001218F8
:102E53008D900355124E4D7A047B0012188D22F08B
:102E630012505C2274F212036A74F8120870EAFEBC
:102E7300EBFF8C0A8D0B890C851882851983AC8234
:102E8300AD83758380758244740812073CF50DEE9B
:102E9300FCEFFD851882851983AA82AB831248173C
:102EA3007003750D019003AD803BEEFCEFFDE5086B
:102EB300240BFAE5093400124816601E8508828542
:102EC3000983A3A3E0650C7011850882850983E05B
:102ED300650A7004A3E0650B6038E5082414F582E5
:102EE300E509122912123387E50845096024E50D27
:102EF300A2E040B6850882850983E0650A7004A3D1
:102F0300E0650B70D5850882850983A3A3E0650C72
:102F130070C8AA08AB097408022330C082C083902A
:102F230003AD023B1774F712036A9003AD1237C166
:102F33008012EA2414F582EB12291212379E121121
:102F4300AFEEFAEFFBEA4B70E99003ADE4F0A3F0C8
:102F5300024B8D7F0702059574F112036AEAFEEBBB
:102F6300FF890A8C088D098E828F83E08C828D8382
:102F7300123A2EAE82AF83E0124207124178C41296
:102F83004207123019E054038C828D83124176A2DA
:102F9300E2E4338C828D83124175131313541F1291
:102FA3004207124174A2E7E4338C828D83A3A3A367
:102FB300A31230198E0C8F0D750E00780C1207D9E1
:102FC3007C087D00E5082407124DBC120825124E2B
:102FD300278E0C8F0D780C1207D97C037D00E50832
:102FE300240F124DBC120825E50AC3940F40148E1A
:102FF300828F83A3A3A3E0C0E0123010122912D062
:10300300E08006123010125284F0022F56E5082495
:1030130012F582E50922A3A3123A320EAF8322747A
:10302300F412036A74F9120870EAFEEBFF89089040
:103033000330124598600E1230AC7009EEFAEFFBC4
:10304300120D5F805F90035FE06E7003A3E06F700B
:10305300537401650860097A737B0312481770443F
:103063007A007B021235D68B0BEA450B7036900340
:1030730062120A23851882851983120A2F90036826
:10308300E0C0E07404120A46D0E0F07405120A4668
:103093007401F07406120A46124B14120AD1E96045
:1030A3009B120AD774070229D11230B2640222128A
:1030B3005018A3A3A3A3A3A3E02274F512036A8A5F
:1030C300088B098A828B83A3AE82AF83E0F9120B4C
:1030D300258E828F83E064EB600C850882850983EB
:1030E300A3E064E17009850882850983A3E4F012F3
:1030F3002100750A01780A1207E185088285098390
:10310300A3E0F50878081207E17900122E0E1208E1
:1031130025120C45025519EAF0A3EBF0023B1A7491
:10312300F612036A9003B0E0701B7C0079017A0009
:103133007B00120C75EA4B600C8A828B83124598D4
:103143006003120BD30245A1C082C0831235BE4077
:103153001079FF120C6FE9F8901EF6E493C39850B0
:1031630004790180027900023B1A74F012036A8A1F
:10317300088B09890B750C008A828B83A3A3A3A3F5
:10318300A3A3A3A3E0F9120C7B8A0E8B0FAE0EAFA1
:103193000F750A01EE4F600302324B8508828509E1
:1031A30083A3A3A3A3A3A3124E49850882850983FE
:1031B300A3A3A3A3A3A3A3123F47124947120C63DC
:1031C3008A0C8B0DAE0CAF0DEE4F700302336E8E77
:1031D300828F83A3A3A3A3E4F0A3F0E508240B1237
:1031E300337AE0C0E012290CD0E0F0120D3BEE245C
:1031F3000CF582EF12456CE508240EF582E5091201
:10320300376FEE240EF582EF1245E0750C01EE24C4
:1032130006F8EF123376547FF0A3E054FC1250AE5D
:10322300E0540460030232D1900AB6123F387407A7
:1032330078081209138E828F83A3A3A3A3A3A3E009
:103243004508F0A3E04509F08E828F83A3A3A3A3CF
:10325300123385740778081209F8E5085407F5084E
:10326300E50B607A8E828F83A3A3A3A3A3A3A3A357
:10327300A37402124179240D123C47E0A2E2500BE1
:1032830090034D124614A3A31245E3E5087003020D
:103293003343EE2406F8EF3400F9E8FAE9FB8A82B7
:1032A3008B83E0547FFCA3E054FCFDE50824FFF589
:1032B30008E434FFF50974077808120913EC45088C
:1032C300F8ED4509F98A828B831245E380728E8279
:1032D3008F83A3A3A3A3A3A3E0448002324AE508F8
:1032E3007005750A0080598E828F83A3A3A3A3A3BD
:1032F300A3E05420601212112BEA547F245F8E82C4
:103303008F83A3A3A3A380238E828F83A3A3A3A3CB
:10331300A3A3E05410600A12112BEA540F240A806D
:10332300DD8E828F83A3A3A3A37401F0A3E41233DE
:103333008F74041235CD8B09EA4509700312455F7A
:10334300E50CA2E050288E828F83A3A3A3A3124B84
:103353007AF9EEFAEFFB120C69E9601212458E60FE
:1033630003123757EEFAEFFB1211AF750A00A90AE1
:10337300024D051246D722FAE5093400FB8A828BF7
:103383008322A3A3E0F508A3E0F5092212339322D5
:10339300124DD8A3A3A3A3A32274F412036A74F750
:1033A3001208707E00120C7BEA4B700302345E8AB3
:1033B300828B83A3A3A3A3A3A3A3A3A3E064066015
:1033C3000302345E8A828B83A3A3A3A3A3A3A3E0F4
:1033D300FF8A828B83123C5AE0C0E07408120A46CB
:1033E300D0E012379212481D1245E3120C8DEF54B0
:1033F300086066851882851983124E497A007B001E
:10340300120C5D8B0BEA450B704F90035F123882F1
:1034130012191D7C007D007A007B0080288E828F2C
:103423008312377CF47003A3E0F4602D90035F12E2
:1034330034651249471215C9E9641A601C7C007D82
:1034430000EEFAEFFB120C5D8A0A8B0BAE0AAF0B90
:10345300EE4F70C979001219237E01EEF974090247
:1034630029D112346922E0FCA3E0FD8E828F8322EE
:10347300C082C083EA4B70059003B180068A828BB9
:1034830083A3A312368260258A828B83A3A3A3A37B
:10349300A3A3A3E0540860E5EC4D60158A828B83F7
:1034A30012377C6C7003A3E06D70D280047A007BCA
:1034B30000023B1A74F212036AEAFEEBFF890A8CDC
:1034C300088D097A107B001211A9EA4B603F8A82AA
:1034D3008B83A3A3A3A3A3A3A3A3A3E4123780A3D0
:1034E300E50A12501EA312351A8A828B83A3A3A363
:1034F300A3E4F0A312378CA3F0124EB2EA240CF526
:1035030082EB123A1E123513A3A3F0A3F002233366
:10351300A3F08A828B8322A3A3E508F0A3E509F035
:103523002274F412036AEAFEEBFF89088C0A8D0BFE
:10353300EE4F60557401650870147901120C6FE940
:10354300F8901EEFE493C398500F7911806A7404C6
:103553006508702F1235BE40F18E828F83A3A3A31B
:10356300A3A3A3A3A3A3E508123A2EA31255A38EE4
:10357300828F83A3A3E4F0A3F09003B11245986074
:1035830021800D7402650860D079C1802BE0F8A317
:1035930012460DA3A312368288828983A3A370EDFA
:1035A30080039003B1EEF0A3EF1235CD8B0BEA4508
:1035B3000B700312455F79000229D47904120C6F52
:1035C300E9F8901EEBE493C39822F01235D2227AE5
:1035D300207B009003ACE0F912127522C082C083F5
:1035E300E9F879009003B1801D8A828B83A3A3A39A
:1035F300A3A3A3A3A3A3E068600574FF68700109F4
:103603008A828B83A3A312368270DE023B1A74F77D
:1036130012036AEA4B70059003B180068A828B839A
:10362300A3A312368260248A828B83A3A3A3A3A3BA
:10363300A3A3A3A3E06970E4EC60148A828B83E004
:10364300240D124E3AA2E240D380047A007B00029A
:103653004B8DC082C0839003B180068A828B83A383
:10366300A312368260128A828B83A3A3A3A3A3A38C
:10367300A3A3E06970E580047A007B00023B1A1281
:1036830029CAEA4B2274F212036A8A0A8B0B8C0C46
:103693008D0D750800750900EA450B602E9003B186
:1036A30080068E828F83A3A31236D5601EAC0CAD29
:1036B3000DEEFAEFFB850A82850B83121A90E964FB
:1036C3000170DFEEF8EFF988088909AA08AB09024F
:1036D3002333E0FEA3E0FFEE4F2274F712036A9058
:1036E30003B11237727C007D00800DE8FCE9FD8890
:1036F300828983A3A3123772E8496030EA687002B3
:10370300EB6970E79003B1124947E86A7002E96B0D
:1037130088828983A3A370081237729003B180094A
:103723001237728C828D83A3A31245E3024B8D74EF
:10373300F712036AEAFEEBFFEE4F6015120C8712D5
:1037430037A412458E6003123757EEFAEFFB1211BE
:10375300AF024B8DEE240C1237641237B922EE24DC
:103763001DF582EF3400F58322F582EF12376712DD
:103773003B1122F582EF12376712379922123784F1
:1037830022125026A3A3A3A322123784A3A3221297
:10379300351412379922125011E022E0FEA3E0FF04
:1037A300228E828F83E0241C123C4B1237B98E8207
:1037B3008F831237B9221237C1FB1211AF22E0FAFD
:1037C300A3E022C082C083EAFCEBFDEC4D700479D8
:1037D300058044EC24FBF582ED34FF124596700717
:1037E30012381DE0F4600512113780E39003ACE05A
:1037F300C0E012381DD0E0F0901EECE493F97AB3E8
:103803007B03121161E96401700B7A007B2012457E
:1038130063790080027904023B1AEC24FFF582ED00
:1038230034FFF5832274F412036AA2AFE433F5087C
:10383300C2AF9003B31236D56038EE24FBF582EFA6
:1038430034FF1245967A007B209003AC6005124545
:10385300668005E0F912116DE4F50AF50B780A129A
:1038630007DDEEFCEFFD7AB37B0312115B740212EA
:103873000825E508A2E092AFEEFAEFFB0229D41285
:103883004E4D851882851983AA82AB832274F21266
:10389300036A74FC120870EAFEEBFF750AFE750BEF
:1038A300FF120C4BE960057911023A13EE2415124D
:1038B30029DC6037900ACFE0C43354E0F8E03333B7
:1038C30054FC48C0E0EE241512290FD0E0123A2E22
:1038D300123A248B09EA45096011750AFFEE240F99
:1038E3001229DC44041245F1D2E0F08E828F831258
:1038F30022F86006EE2412123A1BEE24131229DC7E
:103903007010901EF2E493C0E0EE241312290FD03E
:10391300E0F08E828F83E0A2E750045403801CEE14
:1039230024141229DC701590033EE0C0E0EE241449
:1039330012290FD0E0F090033EE004F0EE241112C0
:1039430029DC6401701690059CE0600D900349E04A
:10395300700A8E828F83E07003123A188E828F83EF
:10396300E064017013EE240B12377664027009EEE3
:10397300240F1229DC4440F0851882851983AC8218
:10398300AD83EEFAEFFB120CB18A088B0974FE6566
:103993000A700374FFF470098E828F83A3A3124D00
:1039A300C8EA450960668E828F83E0C0E074011225
:1039B3000A46D0E0F07402120A46124EB67401129F
:1039C3000A4685820C85830D780C1207DDEE240FE1
:1039D30012290F120664EE240E1229DCF50C780C62
:1039E3001207E19003521206647407120A46E0F9C3
:1039F300AC0AAD0B120CAB7407120825E9FE741068
:103A03006E700BAA08AB091211AF80027E10EEF99B
:103A13007404022330EE2411F582EF123767E4F0C9
:103A230022A31229CA79FF12195322123A3222F021
:103A33008E828F83A322C082C08374DE1208708AB1
:103A4300828B83A3A3A3A3123772740E120A46E8D0
:103A5300F0A3E9123B08740C120A46123B01240D31
:103A6300F582EB1229DFC0E0741A120A46D0E0F0A7
:103A7300124D15EB12376F7420120A46123B0124C4
:103A830015F582EB1229DFC0E07408120A46D0E074
:103A9300F0EA241CF582EB12376F7412120A4612F5
:103AA3003B012411F582EB1229DFC0E07409120AED
:103AB30046D0E0123AF574FFF07401120A4674FF1F
:103AC300F07402120A4674FFF090806C1206607460
:103AD30004120A46AC82AD837407120A46AA82AB6B
:103AE30083120AFB74041208257900742212082534
:103AF3008025123AF922F085188285198322E8F08D
:103B0300A3E9F0EA22123514A3123B1022A3E0F832
:103B1300A3E0F922124947D083D0820207A174ECB3
:103B230012036A74EE1208708A128B13ECFEEDFF17
:103B330089097426120A46124DC87428120A46E0EF
:103B4300F5107429120A46123C3C742B120A46E003
:103B5300F50EA3E0F50F7508107A1E7B001211A96C
:103B63007402120A461245707402120A46124598EC
:103B73007003023C35851882851983AA82AB837949
:103B83005012444B1249477402120A46123C5AA37C
:103B93001245707410120A461255A57402120A4691
:103BA300E0240B123C477402F0120A46123C5A748A
:103BB30002F0120A46125009124EB67402120A4655
:103BC30012495CE509F07402120A46E0240C123C27
:103BD30047E510F07402120A46123C44E512F0A3C2
:103BE300E513F07408120A46E50CF0A3E50DF07432
:103BF3000A120A46E510F0850E82850F83C082C043
:103C030083740D120A46AC82AD83D083D0827403D1
:103C130012073CF97402120A46AA82AB83120C51B2
:103C2300E96401700575080080087402120A4612DF
:103C3300375DA9087412024DDFE0F50CA3E0F50D22
:103C430022E0241C123C4B22F8A3E0123C52223403
:103C530000F9888289832212494FA3A3A3A3A32235
:103C630074EE12036AEAFEEBFF8C088D098E828FD5
:103C730083A3740812462CE060088E828F83A3749A
:103C830010F01229D960098E828F83A3E02408F0F3
:103C9300EE24151229DC60088E828F83A3E004F0E2
:103CA3008E828F83A3A3A3A3A3A3E060198E828F25
:103CB30083A3A3A3A3A3A3A3E0C3332402F88E8205
:103CC3008F83A3E028F0EE24111229DC6005750B25
:103CD3000E8003750B008E828F83A3C082C083EE98
:103CE300240D1229DCD083D082F8E028250B8C82A6
:103CF3008D83F0EE24111229DC600512415728F060
:103D0300850882850983E0C39475400975080075A9
:103D13000900023E45E0FA7B00124F647003023E45
:103D230045EEFAEFFB120CB7EA8508828509831288
:103D33004571EE2402F8EF122C39123F3F123E81F7
:103D4300F0EE24040808EF122C39124381A3123E2B
:103D530081A3A3F0EE2413123E67F0EE2414123E67
:103D630067A3F0750A08EE24161229DC6010EE240E
:103D730018124E46E5082408125047750A101229F6
:103D8300D96016EE241A124E46850A0CE508250C56
:103D93001250477408250AF50A8E828F83A3A3A3C2
:103DA300A3A3A3E06059EE2407F510EF3400F51147
:103DB300851082F583E0C0E0123E4E122912D0E056
:103DC300123E71E0C0E0123E4E122912D0E0123EC4
:103DD30071A3123E5A1207D9851082851183E0C35D
:103DE30033FCE433FD850A0CE508250C124DBC12A7
:103DF3000825851082851183E0C333250AF50AEE71
:103E030024151229DC600BC0E0123E4E122912D099
:103E1300E0F012290C123E5A1207D9EE240D122992
:103E2300DCFC7D00850B0A8E828F83A3E0F8E50816
:103E330028F8E5093400F9E8250AFAE9124DBF121A
:103E43000825AA08AB097F0A020595850A0CE5082F
:103E5300250CF582E50922E0F50CA3E0F50D750EBE
:103E630000780C22123764123E8BA3A3A322F00521
:103E73000A8E828F83A3A3A3A3A3A3A3A322A3A393
:103E83001250B2A3123E8B22124385A3A32274F6CF
:103E930012036A8A828B83E0FC90034F123F3874CB
:103EA300027808120913EC4508FCAD09EA24121242
:103EB3003F3274067808120913EC4508FCED4509F6
:103EC300FDEA2415F582EB1229DF600478018002F4
:103ED3007800E4C8F9ED49FDEA2411F582EB1229D3
:103EE300DFF508880974097808120913ED4509FDFF
:103EF300EA2416123F32740B7808120913ED4509B0
:103F0300FDEA2417123F32740C7808120913ED45A9
:103F130009FD8A828B83A3A3A3A3A3A3123F3874AF
:103F23000A7808120913ECFAED4509FB0245A1F5DD
:103F330082EB123767E0F50875090022E0850882F5
:103F430085098322A3E0F98508828509832274EE1B
:103F530012036A8A0A8B0BECFEEDFF750F01E9C3AE
:103F63009408500579000241448E828F83E9F01250
:103F730043AAE96003750F0012438E8E828F83126A
:103F830043D8EE124D16EF1243CDC0E0EE241112CA
:103F9300290FD0E01243C5C0E0EE241212290FD03E
:103FA300E0123A2E7408124DD0A3A3A3E0601512B9
:103FB3004376EE2413F582EF1245E08E828F83A3BE
:103FC300E02408F08E828F83A3A3A3A3A3A3A3A3B8
:103FD300E060218E828F83A3858208858309124343
:103FE300B9EE2415F582EF1245E085088285098331
:103FF300E02408F08E828F83A3A3A3A3A3E0601A17
:104003008E828F83A385820885830912439D8E82C6
:104013008F83A3A3A3A3A3124169EE2419123A1B0E
:10402300EE241B123A1BA3124624E070030240D86D
:10403300EE2419F8EF3400F98E828F83A38582086A
:10404300858309E0FAE50A2AF582E50B1229DF8860
:10405300828983124169FAE50A2AF582E50B12295E
:10406300DFC0E0EE241A12290FD0E01241698882E2
:104073008983E06059F8901EF5E493C39850057561
:10408300110C8008EE24191229DCF5118E828F831E
:10409300A3E0F8E50A28F50CE50B12414D1207D908
:1040A300E511C333FCE433FD7A757B0912414712F2
:1040B3000825EE241B12290F7475F0A37409F0E58B
:1040C30011C333F8850882850983E0288006EE242E
:1040D30018125281F08E828F83A3E0F88E828F8331
:1040E300E0C3985003023F67A3E0FA8A08E50A2574
:1040F30008F8E50B3400F9EE241DF582EF1246ECC7
:10410300124179C39AC0E0EE241712290FD0E012AE
:1041130045E9602BEE2417F8EF3400F98808890984
:104123008882F583E024F21246CD240EFAA3E0340C
:1041330000FB88828983124570124157C398F0A906
:104143000F023E491211137403223400F50D750E4C
:1041530000780C2290034AE0F91219E9E9F885087E
:1041630082850983E022F0850882850983E004F0D3
:1041730022A3A3A3A3A3F08E828F83E02274F4125D
:10418300036A8A088B09EA12420EF0EA1313543FBA
:10419300124207A3A3A3F0EAC4131312420EA3A36C
:1041A300F0EB1242001242187409780A1209F8124D
:1041B30041FE124217740A780A1209F8E50A5401FB
:1041C300C0E0EC2418F582ED122912D0E012421D52
:1041D300740B780A1209F81241FEA3124217740CE9
:1041E300780A1209F81241FEA3A3A3A3A3A3A3A3CE
:1041F300F0740D78081209F802253EE50A54018C83
:10420300828D8322540F8C828D832254038C828D62
:1042130083A3A322A3A3A3A3A3A3F08A0A8B0B22A2
:10422300C082C08379008A828B83A3A3A3A3A3A3A1
:10423300E0900349600FE070228A828B83A3A3E09E
:104243007019098016E060138A828B8312493E90AD
:104253000352E06A7003A3E06B70E7023B1A74F049
:1042630012036A8A0A8B0B890C8C088D091243AAE4
:1042730012438E8508828509831243D8E508124DBF
:1042830016E5091243CDC0E0E5082411F582E509DE
:10429300122912D0E01243C5C0E0123010122912C5
:1042A300D0E01246F4740812470D6011124376E50C
:1042B3000824131246E81246F4E02408F085088225
:1042C300850983A3A3A3A3A3A3A3A3E060178508DE
:1042D30082850983A31243B5E50824151246E81223
:1042E30041792408F0850882850983A3A3A3A3A3A6
:1042F300E06019850882850983A3AE82AF831243E8
:104303009D85088285098312417404F0AA08AB09CC
:10431300120CC9E9F50D7056850882850983A3A39C
:10432300A3A3A3A31243817014E0FA8A0EE50A251E
:104333000EF8E50B1245D5E50CC39A80211243B55F
:10434300E8240EF8E91245D590034AE0F91219E979
:104353008E828F83E0F8E50CC39824F2C399C0E002
:10436300E5082417F582E509122912D0E0F0A90D1A
:10437300024D05E50A2408F8E50B3400F92212433F
:104383008522E0850882850983A322850A82850B1D
:1043930083A3A31243EEE0F9EA22E0F8E50A28F545
:1043A30082E50B1245FC228A828B83124D0A120C82
:1043B300C322AE82AF83E0F8E50A28F8E50B3400A8
:1043C300F922124401A3A3A3E022123767E81243A0
:1043D300FAA3A3E022A3A3A3A3A3A3A3A3A3124388
:1043E300FA1243EEA3A3E0F9EAF822E0FA850A827F
:1043F300850B83A3A3A322F0A3E912440122F08532
:104403000A82850B83A3A3A3A322C082C0837AC19C
:104413007B0379E21218ED7AC17B03023B1AC08257
:10442300C083900352023B17C082C08374FE1208FC
:1044330070851882851983AA82AB83794B12444B0A
:104443001249477402023AF01218ED851882851951
:104453008322C082C083794A1218ED023B1A74F694
:1044630012036A9003C9E0FE04F0EEF9120C7B8B91
:1044730009EA450970EDEE60EAF90245A174F0120C
:10448300036AEAFEEBFF8C088D09890A7410120A8D
:1044930046E0F50B7411120A46E0F50C120D9BEA87
:1044A3004B7013E50C7042A90AAC08AD09EEFAEFA4
:1044B300FB120DB3806EE50A6021EA2402F582EB5C
:1044C3001229DF850A082508F8E4340013E813F0FD
:1044D30070098A828B83A3A37401F0E50C6045E520
:1044E3000B70068A828B83E4F07401650C7035E5EA
:1044F3000B9003D07004E4F0802AE004F0900AB734
:10450300E0F89003D0E0C398401AE4F0900355E03C
:104513006E7003A3E06F700CEEFAEFFB7901120BE0
:104523001F12452A024D057A017B009003ACE0F986
:1045330012126F22C082C08374016A7001EB70078C
:104543007A011245618012900AAE124570EA4B60FF
:10455300051222BA800312452A023B1A7A207B00F5
:104563009003ACE0F9121167223400F583EAF0A35B
:10457300EBF022C082C083900AB002311AC082C01D
:1045830083900AB202311A12501822EE240CF582DB
:10459300EF3400F583123B11E849221208257F020C
:1045A300020595A2F0E4338518828519831245C26A
:1045B30079521218F3221245C279421218F322F0EB
:1045C300AA82AB8322AA08AB099003ACE0F91211CB
:1045D3003D223400F9E508241DF582E50912376709
:1045E300E8F0A3E9F022124DD4A3A3E022A3F0EE56
:1045F30024151245F922F582EF3400F583E02212E7
:104603004606223400F583E0F8A3E0F98882898323
:1046130022E0F812461A22A3E0F98E828F83A3A325
:1046230022F0EE241812376422F0EE2416123764B7
:104633002274F412036AEAFEEBFF7A007B0412454C
:104643002E1246C31245E39003617409F0120CD590
:104653008A088B09AC08AD09EE241312290F1249FD
:1046630047124817640170487A0F1246B660418AB0
:10467300828B8374021246CDFAA3E0FB8A828B837A
:10468300A3E0FC8A828B83A3A3E0FBEC85088285ED
:104693000983A3A31245718882898312494B123F70
:1046A3003F1245F0FAA3E0FB794A1218F31245C80A
:1046B3000229D47B001211318A088B09EA450922A9
:1046C300900332123B11900AB222F0EE241DF8EF50
:1046D3001246D722123C52E0221246E0223400F561
:1046E300837401F022F582E509123767E8F0A3E944
:1046F300221246F8221246FC22F08508828509839D
:10470300A3221246FCA3A3A3A322124705A3A3E05B
:1047130022124B1E120D2922EE2417F582EF1246A8
:10472300E0120CD5EE241A123764EAF0A3EBF02260
:1047330074F412036A74F31208708908EAFEEBFF3B
:104743007C0D7D007900851882851983AA82AB834D
:1047530012111FEE241D12290F125009A3E0F87441
:104763001F58600A7901121893790002480EE8A2D3
:10477300E55008740C120A467401F0E8A2E75008E9
:10478300740B120A467401F0E8A2E6740A50081288
:104793000A467401F08008120A46E064017005EECF
:1047A30024138003EE2415124E467402120A46AAFD
:1047B30082AB831218AB12290C12481C1245E37406
:1047C3000A120A46E0640170331222ED703B120CA8
:1047D300E18A0A8B0BA80AA90BEE240B1229DC68C9
:1047E3007003A3E0697022120CD5EAFCEBFD74029E
:1047F300120A46AA82AB83124817600D8518828578
:104803001983AA82AB83120B19A908740D0229D14B
:10481300EEFAEFFB1218A5E922E012482122F8A3D1
:10482300E0F98518828519832274F612036A74F3FA
:104833001208708A088B09ECFEEDFF7C0D7D007970
:1048430000851882851983AA82AB831251AEA3A374
:10485300A3A3A3A3A3A3A31248B61248BFF8A2E538
:104863005008740B120A467401F0E8A2E75008746A
:104873000A120A467401F0E8A2E6EE5004241380FB
:10488300022415124E467402120A461248A8A3A324
:10489300E0C0E0740C120A46D0E0124B16120B1360
:1048A300740D02459EAA82AB831218AB85088285DC
:1048B300098322E0124821E8F0A3E922F0123761CC
:1048C30012500DA3E02274F712036A74E112087008
:1048D300EAFEEBFF8E828F8312494BA3A3A3E0A2D0
:1048E300E050518E828F8312244D8A828B83A3A33F
:1048F300A3A3A3A3E054FE1249638A828B831249C4
:104903005CE0F98A828B83E0241CFAA3E012337DF6
:10491300124947120CCFE9701B741D120A46124943
:10492300567011851882851983AC82AD83EEFAEF38
:10493300FB120D17024B888E828F83A3A3A3A3A31D
:10494300A3A3A3A31229CA2212494F22125011A3CF
:10495300A3A322123799640422E0241B123C4B22A6
:10496300123AF9AC82AD8322E9F8790074046860E5
:104973000A740A6860057403687001090207A17468
:10498300F612036A8A828B837420F0A3A37401F066
:10499300120AC58A088B09AE08AF09EE4F60108E64
:1049A300828F837401F090039FE0700312471BEE24
:1049B300FAEFFB0245A1C082C0839003B57401F0F6
:1049C300E9A2E350037403F0E9A2E15004E0D2E268
:1049D300F0023B1A74F612036A79007C008A088B92
:1049E3000978081205DBF8FF070A4A084A084A084B
:1049F3004A084A014A054A0A4AFE490C80097C04CE
:104A030080050C80F67C089003B5E05C60030980A8
:104A130003EC6001090245A174F612036A8A828BD2
:104A230083E07012A3124598600C8A828B8312492B
:104A3300461219CB80047A007B000245A174F5125B
:104A4300036A74F31208708A088B09ECFEEDFF7594
:104A53000A12EA450970057900024B0F900352E0F0
:104A630065087004A3E065097014120CD5EAFCEB29
:104A7300FD1248137005750A018003750A00851835
:104A830082851983E4F004120A46E508F0A3E509D8
:104A9300124B16120A89E960277403120A46AA8286
:104AA300AB83120A6BE964017016750A0174031271
:104AB3000A46AC82AD831248136021750A00801C3C
:104AC3007412650A701690039EE06402700EEEFC89
:104AD300EFFDAA08AB09120AA1E970DFEEFCEFFDB6
:104AE300AA08AB09120DA1E9F8740A687005750AE2
:104AF30001801774A0687012EEFCEFFDAA08AB09E1
:104B0300120DADAA08AB09120DBFA90A740D025507
:104B1300167402124B1A22124B1E22123AF9AA825F
:104B2300AB832274F712036AEAFEEBFF8E828F8354
:104B3300A3A3A3A3A3A3A3A3E06015EE24151229A3
:104B43000F1229BA120D41E964017004790180251D
:104B53008E828F83A3A3A3A3A3A3A3E06015EE2454
:104B63001312290F124B7AFAA3E0FB120D41E964E9
:104B73000160D979008013123469A3A3A3A3A3A36B
:104B8300A3A3A3E022741F1208257F0102059574D5
:104B9300F012036A74FD1208708A088B09ECFEEDAB
:104BA300FF890B7413120A46E0F50C750A017401B0
:104BB300120A4674041250416048E50C601DEA2451
:104BC30017F582EB12528412502F8A828B83E0D224
:104BD300E7F0EA2414F582EB123A1E124D15EB129C
:104BE300460274031255A7EE88828983A3A3F0EFCC
:104BF30088828983A3A312351312351A120ABFE9D7
:104C0300F50AA90A7403024D0274EC12036A74F5DF
:104C13001208708A0A8B0B890C8C0E8D0F741F126D
:104C23000A46E0F50D7420120A46E0F510A3E0F5FC
:104C3300117E01EE120A46740AF0E97007E50DC30E
:104C430033240AF0124DE77003024CE9124DFC7451
:104C530009F0A3E50CC43354E0450D124E0EE50CE8
:104C6300702D7C008023ECC333F8E433F9E510287E
:104C7300F8E51139F988828983124CF68882898391
:104C8300122C2CF0A30EAF830CECC3950D40D7E58B
:104C9300082417F582E5091246DC120CD5E5082431
:104CA3001AF582E50912456C7403120A46AC82AD0B
:104CB30083AA0AAB0B120A71E96019E5082416F5F9
:104CC30082E509124CF0120A46A882A983E508245A
:104CD300181245DC8508828509831255A3AA08ABFF
:104CE30009120ABFE9FEEEF9740B024DDF1246E02A
:104CF300740322E08E828F83F0A3AE82AF832212ED
:104D030008257F080205951237C1F9EA2400E43922
:104D1300FB22EA240BF5822274EE12036A8A0C8BBF
:104D23000D890E8C088D097412120A46E0F50F7472
:104D330013120A46124DC890050B1245986077E589
:104D43000FC333F8E433F9E8240EFAE93400FB1215
:104D530011318A108B11AE10AF11EE4F60588E8255
:104D63008F8374D4F0A3A3E50CF0A3E50D124DD00B
:104D7300E50EF0AC08AD09EE2405FAEF12504AEE49
:104D8300240D12290FE50FF0850A08850B09750A12
:104D93000078081207D9E50FC333FCE433FDEE2492
:104DA3000EFAEF124DBF120825EEFAEFFB90050B3A
:104DB300125009121A90023E49FAE5093400FB1217
:104DC3001113740322E0F50AA3E0F50B22124DD46C
:104DD30022124DD822123A32A3A3A3221208257F0E
:104DE3000C020595851882851983AA82AB83120D5F
:104DF300298A088B09EA450922EA240BF582EB127A
:104E030045FCFEA3E0FF8E828F8322F0A3AE82AF28
:104E130083AC0EAD0FEEFAEFFB124E20221218AB4D
:104E2300124E2722EE2408FEEF3400FF22E0FA8E12
:104E3300828F83A3A3E022FEA3E03400FF8E828F40
:104E430083E022123764124E4D22E0FCA3E0FD22E0
:104E53001229CA120CBD2274F612036AEAFEEBFF92
:104E63009003B6801388828983E06E7003A3E06F9A
:104E7300603A88828983A3A312459870E87A047BF9
:104E8300001211A98A088B09A808A909E849601C1E
:104E930088828983124EB69003B612494788828965
:104EA30083A3A31245709003B61245E30245A18A7A
:104EB300828B83EEF0A3EFF02274F412036A7E0078
:104EC3009003B680070E88828983A3A31245987046
:104ED300F4EEC333FAE433FB124F64607E7F009039
:104EE30003B6802488828983124E49EFC333FAE4E0
:104EF30033FBE5082AF582E5093BF583ECF0A3EDE6
:104F0300F00F88828983A3A312459870D79003A7D3
:104F13001223277003A3E069780870191207DDEEE6
:104F2300F50A780A1207E17C737D0379009003A7E1
:104F3300124F6F801A1207DDEEF50A780A1207E1A5
:104F43007C737D0379009003A7124947120D5374B4
:104F530003120825AA08AB091211AF120AD70229B6
:104F6300D41211A98A088B09EA4509221229CA1207
:104F73000D5922C082C08380128A828B83A3A3121D
:104F830037729003B61245E31211AF9003B612368F
:104F93008270E6023B1A74F612036A90035F1237BB
:104FA3009E9003CA124FF81245E37ACA7B037950E5
:104FB3001218F39003CA122546FAEFFB120DB990AB
:104FC30003CA12379E90050D12459860257A067B19
:104FD30000121131EA4B601A8A828B8374D5F0A3D5
:104FE300A3E412501E0412502F90050D1250091203
:104FF3001A900245A1124FFC22E0F8A3E0F99003B6
:105003005F228E828F8312500D2212501122E0F8FC
:1050130012501722A3E0F583888222125022221213
:10502300502622F08A828B83A3A3A322125022A3A9
:10503300EEF0A3EFF022F582EF1245FCF9221247BE
:1050430014EA4B22FAE5093400FB1218AB2212468C
:105053001BA3A3A3A3A3A3A322901EEDE493240164
:10506300F8E43400F97A027B002274F712036A7EB3
:1050730000800412565A0E12517E40F77E00EE1243
:10508300509974FEF0A3041250AEE4F00EEEC394F4
:105093000340EB024B8D75F003A4F8A9F074B82814
:1050A300F8740339F988828983A3221250B222F05B
:1050B300888289832274F712036A7F0080010F902C
:1050C3001EEAE493F8EFC3985026EF12526A6A700F
:1050D30003A3E06B70E81256076C7003A3E06D60E6
:1050E3000A74FF6C700374FF6D70D31251758004E2
:1050F3007A007B00024B8D74F612036A7CFF7DFFFE
:105103007AFE7BFF120D7DEA4B70407508008036F6
:10511300E50875F017A4F8A9F0741028F58274084F
:1051230012527C600C740F28F582740812527C7042
:1051330013740128FE740839FF8E828F83125289FB
:10514300EEFAEFFB05081251E440C50245A174F4E1
:1051530012036A8A088B09ECFEEDFF800B120D8F98
:10516300EEFCEFFDAA08AB09120D7DEA4B70EE02CF
:1051730029D4740128FA740839FB22901EEAE493B7
:10518300F8EEC3982274F712036AEAFEEBFFEE4FC0
:1051930060101251A874FEF0A3041255AD14F0A3CD
:1051A30004F0024B8D7C177D00790012111F8E8253
:1051B3008F832274F712036AEAFEEBFF75080080FF
:1051C30018E50875F017A4F8A9F01256127003A396
:1051D300E06F600312566205081251E440E3024B8C
:1051E3008D901EEAE493F8E508C3982274F612033F
:1051F3006A120D7D8A088B09A808A909E849600A83
:10520300E8240DFAE93400FB80047A007B000245B0
:10521300A174F412036A8A0A8B0BECFEEDFF750886
:1052230000750900802EE50975F017A4F8A9F0129E
:10523300564D601EE50912526A650A7004A3E065C3
:105243000B700375080AEEFCEFFD1255096003436A
:1052530008A00509901EEAE493F8E509C3985004F1
:10526300E50860C202253E75F017A4F8A9F01252B2
:105273007522740128F582740839F583E022F582DA
:10528300EF123767E4221229CA120BB5221250B269
:10529300A3A3A3A3A3A3A3A32274F212036A8A085A
:1052A3008B09ECFEEDFF740E120A46124DC8750C05
:1052B300007C007D01801012112BE50CF5F0EA84CF
:1052C300ACF0750C007D0078007900800312544621
:1052D3001254A24003025368E8FAE9FBEA75F01797
:1052E300A4FA85F00D75F017EBA4250D12547E700A
:1052F30003A3E0F460D712545C65087004A3E0656F
:105303000960CA12545C6E7003A3E06F60BF12544D
:105313005C650A7004A3E0650B60B2E8FAE9FBEA96
:1053230075F017A4FA75F017EBA4250DFB740F2A7B
:10533300F582740812543D509474016D050C608D10
:10534300E50CC39C4087E875F017A4F8AAF075F044
:1053530017E9A42AF9740128F582740839F5831230
:10536300494702543A780079008003125446125494
:10537300AF4003025421E8FAE9FBEA75F012A4FAFC
:1053830085F00D12548E64FE7003A3E0F460DC120A
:10539300548465087004A3E0650960CF1254846ED9
:1053A3007003A3E06F60C4125484650A7004A3E021
:1053B300650B60B7E8FAE9FBEA75F012A4FA75F039
:1053C30012EBA4250DFB74902AF582740612543D4A
:1053D3005099E8FAE9FBEA75F012A4FA75F012EBBA
:1053E300A4250D12544F64016081E064027003022E
:1053F300536E74016D050C700302536EE50CC39C70
:10540300500302536EE875F012A4F8AAF075F01277
:10541300E9A42AF9748728F582740602535FE50C20
:105423006011EC700E7401650C60030252BA7C01CA
:105433000252C57AFE7BFF0223333BF583E014C39C
:10544300940622E8240108E93400F922FB748B2A2C
:10545300F58274063BF583E022E8FAE9FBEA75F08E
:1054630017A4FA75F017EBA4250D12547122FB74DF
:10547300012AF58274083BF583E02212547164FE1D
:1054830022E8FAE9FBEA75F012A4FA75F012EBA42C
:10549300250DFB74872AF58274063BF583E0229081
:1054A3001EEAE493FAC3E89AE9940022901EE5E425
:1054B30093FA740193FBC3E89AE99B2274F51203F0
:1054C3006A8A088B09ECFEEDFF750A008002050A63
:1054D300901EEAE493F8E50AC3985028EEFCEFFD2A
:1054E300E50A75F017A4F8A9F012550960E0E50A7A
:1054F30075F017A4F8A9F0740128F582740839F53A
:105503008312351C8010740328FA740839FB1218AF
:10551300A5E9221208257F0302059574F012036A98
:105523008A088B098C0A8D0B890C120D838A0E8BCA
:105533000FAE0EAF0FEE4F60551251A8E508F0A362
:10554300E5091255AD1255A5E50C600AEE240F12BC
:10555300290FE50C8006EE240F12559DF09003CC25
:10556300124598601A9003A6E064017008EE240EB9
:105573001252818010EE240E12290F74078006EE5A
:10558300240E12559D122E62120219125594024DC9
:1055930005EE240D123764E8F022123764740122F9
:1055A300A3A3E50AF0A3E50BF022123393A322741D
:1055B300F512036A8A088B09ECFEEDFF750A008079
:1055C3000F1256127003A3E06F6003125662050AAE
:1055D300901EEAE493F8E50AC3985025E50A75F0AE
:1055E30017A4F8A9F012560765087004A3E065092B
:1055F30070CF740B28F582740839F583124EB68088
:10560300CD025519740B28F582740812527C22744A
:105613000B28F582740812527C6E2274F712036A07
:10562300EAFEEBFF7508008019E50812526A6E70F6
:1056330003A3E06F700A12564D7005E50812565B1E
:1056430005081251E440E2024B8D740328FA7408F2
:1056530039FB120A6BE922EE75F017A4F8A9F012D0
:105663005175120D8F221250B2123B11E84922C01C
:1056730082C08374F8120870851882851983AC82FE
:10568300AD8375838075823C740812073C8518824C
:10569300851983AC82AD83124817640170047900C5
:1056A300800279017408023AF0126A40F9EA22E0B2
:1056B300F508E4F509F50AF50B2274091208257FAC
:1056C30004020595EE2412FAEF3400FB120F3FE9B2
:1056D300227905120F4B740422E024F5C39412229D
:1056E3001256E72212160B8A0C8B0D8C0E8D0F228D
:1056F30012102F9006521271DC7A147B0022FB12D7
:10570300570CE8F0A3E9F0EE221257148A828B8338
:10571300228A828B83E024FFF8A3E034FFF922EE90
:10572300240E12743274012212576C1208257F085A
:10573300020595125766A2E522127435E4F0227F22
:1057430005020595E508126D7BE509125766227A75
:10575300D17B0312115B74022212576022EE2410D4
:10576300F582EF3400F583E022121023740422F54E
:1057730082EF125766F822EE240DF582EF12576678
:10578300640122E0FEA3E0FFEE4F22F582EF125701
:105793006622FAEF3400FB79E112170D22F0EEFADC
:1057A300EFFB22EE240EF582EF12743522F0A3F004
:1057B300025EFBF582EB125766FA2212082502639A
:1057C30056C082C08374FE12087080077AD17B03AF
:1057D3001258029003D11267E670F19003D3126757
:1057E300E660097AD37B0312580280EF9003D1E479
:1057F300F0A3F09003D7F0A3F0A3F0740280161285
:105803001155851882851983EAF0A3EB127A1912D0
:105813000F2D227411120825025EFB74F612036A1F
:10582300E9FF8F08749D126905741E12690AFE8EC2
:1058330008FA7B00121131EA4B6017EA2508F8EBEE
:105843003400F98A828B831272C5A3A3A3A3E4F065
:1058530080227A027B00121131EA4B60138F0874A5
:10586300A8126905741E125BE5F0A3741A125BFAA1
:105873007A007B00027380E9FDEAFC74062DFAECE2
:10588300A2E0501EEA75F00A84A8F0E86014740AD6
:105893002AC398FAE8C394054004740A2AFA740BDD
:1058A3002AFAEDC394134004781480027806E82A98
:1058B3002409F8E43400F97A0A7B00120219E8F9A2
:1058C3000207A1C082C083900401E05402600A125F
:1058D300192FE96004790180027900025EFBC0821E
:1058E300C083900401E0540260149003D7E0700A6F
:1058F3001267E360091259065004790180027900A6
:10590300025EFB9003DAE02410125DD5A2E722C009
:1059130082C083908061E0F89003D9E0C39850057A
:1059230012113180047A007B00025EFBC082C083C7
:10593300120F2D7900025EFBC082C08374FE120831
:1059430070851882851983125AA1600D146065242D
:10595300FE70030259DB025A65900632E0640F6061
:1059630018120F03E97012851882851983126A3B96
:10597300900A85125E5C121A9090065AE0C0E08588
:1059830018828519831264FED0E0125A87F8125ADE
:10599300757414125A87FCA3E0FD7AD37B031211AA
:1059A3004FE5A8F8C2AF9003D9125A987920120E86
:1059B300EB0257FE120EF7E98518828519836011F1
:1059C300125E5C740D125A87FAA3E0FB1219298048
:1059D300E0125E5C741580BB125DDB7003025A65D6
:1059E300851882851983127356C0E0125A7AD0E063
:1059F300125A872402F8125CCC2401FAA3E0340083
:105A0300FB88828983125AA114C394095020125D22
:105A1300DBFA851882851983A3127C40A3A3A3E034
:105A2300F874D128F582741E12690A6A600F125A3B
:105A33007AE06408702C125DDB6408702585188297
:105A4300851983E0F8125DE114125AA5240AC0E017
:105A5300851882851983125A75D0E0125AA504025B
:105A63005996851882851983AA82AB83120F2D025A
:105A730059B4A3125E6722851882851983127C4D5F
:105A8300A3A3A322125A8B22127B09E022E5A8F8D2
:105A9300C2AF9003D8E004F0E8A2E792AF22EAF0A5
:105AA300A3EB125A8BF8125DE6A3E022C082C083F7
:105AB3009003DC1267E66008125A76121A9080028D
:105AC3007900025EFB74F712036AEAFEEBFFEE2431
:105AD3000D125725F0EE242F12578EC0E01257A651
:105AE300D0E0F0EE243012578EC0E0EE24121257AD
:105AF300A9D0E012708CC0E0EE24131257A9D0E0B5
:105B0300F0EE242B1257A9120664EE2422FCEF3484
:105B130000FDEE242D12578EF9126E83120825E92B
:105B23007007EEFAEFFB120E31026356C082C08398
:105B3300120F03E96004792080027901025EFBC041
