:020000040000FA
:060000000209D90201BD56
:03002B000207B910
:030033000206AB17
:030053000200EBBD
:03006B00020691F9
:10008300020152010101050301630F630F630F6353
:100093000F190E130E630F7A1C00000000DC1C0006
:1000A3000000000C0000000C0001FFFF010100F63E
:1000B300040000004805E80364006400B80102027C
:1000C3000008000005020701051E02051E020A0AB8
:1000D30003B80B02803E010201F1FF020A1401E0A2
:1000E3009651180002020612C0E074F2120441A2F3
:1000F300AFE433FED2AFE5A7FFE5A1F5085F5410E7
:10010300600612162975A1EFE5085F54086008120E
:10011300162F75A1F7802BEFA2E0C0D0E508A2E06F
:1001230092F0120926158182F05017906198E0F839
:1001330090061AE0C398A2D265D0335002E8F07556
:10014300A1FE751A00EEA2E092AF7F010204A0C0E7
:10015300E074F2120441A2AFE433FED2AF9061A483
:10016300E0F8759B00E59158540860087591F71203
:100173001677802AE59158541060087591EF12168E
:100183007D801BE8A2E0C0D0E591A2E092F01209C5
:1001930026158182F05007E0C2E0F01217CD90617E
:1001A300A3E0F8E5E9585404600E1217A375E9FBC0
:1001B300906193E0A2E640F28088C0E074F21204FA
:1001C30041A2AFE433FED2AF9061A5E0F8E5BF589A
:1001D3005404600675BFFB1217E5020145C3E4989A
:1001E300F8E499F91202218026C3E49AFAE49BFB0E
:1001F300E920E7E9120221E498F8E499F922C3E43B
:1002030098F8E499F9120221E498F8E499F9C3E41F
:100213009AFAE49BFB22EB20E7CFE920E7E0B90061
:1002230010BB0008E88AF084F8AAF022E4FBC8FABD
:1002330022EB70227B10C833C8C933C9335007C3BC
:100243009AC3DBF280069A50012ADBEAC833F4C86A
:10025300C933F4C9FA2275F008E4C833C8C933C9ED
:1002630033C99AC99B5004C92AC93BD5F0ECFBC8D2
:1002730033F4C8E4C9FA22080808EAC0E0EBC0E096
:1002830086F0E7A4FA180986F0E7A42AFA18098683
:10029300F0E7A42AFA180986F0E7A42AFA1986F0E7
:1002A300E7A4FBE5F02AFA190886F0E7A42BFBE59F
:1002B300F03AFA190886F0E7A42BFBE5F03AFA18AE
:1002C300180986F0E7A4C5F02BFBE43AFA1908E70E
:1002D300C5F0C6A426F6E5F03BFBE43AFA1886F02F
:1002E300E7A4F6E5F00826F6E43B08F6E43A08F658
:1002F300D0E0FBD0E0FA22E4CFC0E0E4CEC0E0E4FB
:10030300CDC0E0E4CCC0E075F020C3E633F608E6E8
:1003130033F608E633F608E633F6181818EC33FC20
:10032300ED33FDEE33FEEF33FFC3EC9709ED970991
:10033300EE9709EF97191919400FFFEC97FC09ED98
:1003430097FD09EE97FE191906D5F0BEECF709EDF6
:10035300F709EEF709EFF7191919D0E0FCD0E0FD22
:10036300D0E0FED0E0FF222518C582C0E0E51934B5
:10037300FFC583C0E0E518C3958224F810AF088554
:1003830083198582188008858319858218D2AFCE98
:10039300F0A3E520F0A37808E608F0A3DEFAEFF077
:1003A300A3E58124FAF8E608F0A3E608F0A3E6083B
:1003B300F0A30808E608F0A3E608F0A31581158169
:1003C300D0E0FED0E0F8158115811581E8C0E0EE9C
:1003D300C0E022120A3BB9000302042BE49003019C
:1003E300787C79088002F0A3D8FCD9FA781A9000B7
:1003F300867A01BA00028007E493A3F608DAF9903B
:100403000A7CAA82AB83900087786579018015E422
:1004130093A3AC82AD838A828B83F0A3AA82AB833E
:100423008C828D83D8E9D9E77582197583D97402D3
:1004330012079B75827F75831A740012079BC0D0C5
:100443002518C582C0E0E51934FFC583C0E0E5186F
:10045300C3958224F310AF08858319858218800819
:10046300858319858218D2AFC8F0A3E9F0A3EAF017
:10047300A3EBF0A37908E709F0A3D8FAECF0A3ED16
:10048300F0A3EEF0A3EFF0A3D0E0F0A3D0E0F0A34D
:10049300D0E0F0A3E520F0A3E5F0F0A322851983D3
:1004A300851882E0C0E0A3E0F9A3E0FAA3E0FBA390
:1004B3007808E0F608A3DFFAE0FCA3E0FDA3E0FE82
:1004C300A3E0FFA3E0C0E0A3E0C0E0A3E0F5D0A376
:1004D300E0F520A3E0A3F5F010AF0885831985822A
:1004E300188008858319858218D2AFD082D083D033
:1004F300E0F8D0E03275F0108E218F2285822685B8
:100503008325851882851983E0CEA3E0CF852682D3
:10051300852583EBC9EAC8EDCBECCAC3E833C8E948
:1005230033C9EA33CAEB33CBC3EA9EF524EB9FF519
:1005330023B35004AB23AA24EC33CCED33CDD5F055
:10054300DAAE21AF2222D083D082ECC0E0EDC0E04E
:10055300E493A3FCE493A3FDED4C600D120621ECA0
:1005630024FFFCED34FFFD80EFE493A3FCE493A3AD
:10057300FDED4C600D1206EFEC24FFFCED34FFFDA6
:1005830080EFD0E0FDD0E0FCE493A3C0E0E493C0AF
:10059300E022851983851882E0A3FEE0A3F5207885
:1005A30008E0A3F608DFFAE0A3FFE0A3C0E0E0A3BE
:1005B300C0E0E0A3C0E0E0A3C0E0E0A3C0E010AF70
:1005C300088582188583198008858218858319D246
:1005D300AFD083D0820207A1D083D082E9C0E0E408
:1005E30093A3C386F0C5F095F0F908E493A386F0CE
:1005F300C5F095F0700BE493A3C3994005E904801B
:1006030002A3E475F002A42582F582E5F03583F5B3
:1006130083D0E0F9E493A3C0E0E493C0E022C0E018
:10062300C3E49396087401939618400FE49366709D
:100633000808740193661870007019A3A3C3E493A8
:1006430096087401939618A3A3400DD0E0D0E0D090
:10065300E0020585A3A3A3A3A3A3D0E0227404808F
:100663000474028000CCC0E0EDC0E0E518C39CCC6C
:10067300AD1950011D10AF068C188D1980068C180A
:100683008D19D2AF12073CD0E0FDD0E0FC22C0E0D0
:1006930074F2120441E589A2E1500312152775890A
:1006A30000C2C57F010204A0C0E074F2120441E558
:1006B3008BA2E05003121527758B00C2E880E47407
:1006C300028000CCC0E0EDC0E0E518C39CCCAD19BE
:1006D30050011D10AF068C188D1980068C188D19CA
:1006E300D2AF12071AD0E0FDD0E0FC22C0E0C0F088
:1006F30088F0E4936670080874019366187000A884
:10070300F0A3A3700BD0F0D0E0D0E0D0E0020585D9
:10071300A3A3D0F0D0E022CAC0E0E493A3C582CC67
:10072300C582C583CDC583F0A3C582CCC582C583ED
:10073300CDC583DAE5D0E0CA22CAC0E0E0A3C58212
:10074300CCC582C583CDC583F0A3C582CCC582C584
:1007530083CDC583DAE6D0E0CA22C008C3E096F5AC
:100763000808A3E096420808A3E096420808A3E01D
:100773009645087001D3D008227009080808226042
:1007830016181818C6C333C608C633C608C633C6F8
:1007930008C633C6D5E0EA22C09FF59FE473D09F15
:1007A30022D083D082C09FE493C0E0740193C0E061
:1007B300740293F59F22C0E0C0D0E8C0E0E5A8D260
:1007C300AFC2C7751A00A2E792AFD0E0F8D0D0D07D
:1007D300E0327404800A7403800674028002740198
:1007E300C0E0F4041207F0D0E0120A16222518F52F
:1007F3008210AF08F518400215198008F518400259
:100803001519D2AF85198322BB0102E722C082C02A
:100813008389828A83BB0003E08002E493D083D080
:100823008222C0D0251810AF08F518500205198090
:1008330008F51850020519D2AFD0D0226016080867
:1008430008C6C313C618C613C618C613C618C613DC
:10085300C6D5E0EA22C3E0C696F608A3E0C696F63C
:1008630008A3E0C696F608A3E0C696F6222518105C
:10087300AF08F518400215198008F518400215193C
:10088300D2AF22E066701008A3E066700A08A3E006
:1008930066700408A3E06622C3E09608A3E0960806
:1008A300A3E09608A3E096A2D265D03322E7667050
:1008B300100809E766700A0809E76670040809E783
:1008C3006622C3E697F60809E697F60809E697F65F
:1008D3000809E697F622C3E096F008A3E096F0082D
:1008E300A3E096F008A3E096F022E627F60809E6CF
:1008F30037F60809E637F60809E637F622E026F068
:1009030008A3E036F008A3E036F008A3E036F022AF
:10091300700422600D18C6C333C608C633C6D5E0BB
:10092300F41822C0E0E8C0E0E58124FCF8E6A2E781
:10093300D0E0F8D0E022E657F60809E657F60809B2
:10094300E657F60809E657F622E056F608A3E056FE
:10095300F608A3E056F608A3E056F622E056F008A0
:10096300A3E056F008A3E056F008A3E056F022E611
:1009730047F60809E647F60809E647F60809E64791
:10098300F622E026F608A3E036F608A3E036F608DA
:10099300A3E036F622E4C396F608E496F608E49656
:1009A300F608E496F622C6F4C608C6F4C608C6F4EA
:1009B300C608C6F4C622C3E7960809E7960809E7FE
:1009C300960809E79622C3E09608A3E09608A3E0F9
:1009D3009608A3E0962275D00075814075180175BD
:1009E3001903000203D6E0F608A3E0F608A3E0F635
:1009F30008A3E0F622600C08C6C313C618C613C6C4
:100A0300D5E0F422E6F008A3E6F008A3E6F008A395
:100A1300E6F022CAC0E0E6F0A308DAFAD0E0FA2250
:100A2300E0FAA3E0FBA3E0FCA3E0FD22EAF0A3EBE2
:100A3300F0A3ECF0A3EDF022E5C754F84401F5C7A9
:100A43007901222518F582E43519F58322C2AF75A1
:100A5300D69F020000221207A416A5011207A4BA0A
:100A6300A5011207A40EA6011207A427A6011207C7
:100A7300A44DA6011207A488A6011207A4CCA601BF
:100A83001207A4F3A6011207A444A7011207A4F4B2
:100A9300A7011207A4ACA8011207A474A9011207A5
:100AA300A451AA011207A4D7AA011207A4E6AA0116
:100AB3001207A4F1AA011207A4FAAB011207A40BAF
:100AC300AC011207A481AC011207A413AD011207F4
:100AD300A46BAD011207A431AE011207A462AE01EB
:100AE3001207A4A7AE011207A4B4AE011207A448CB
:100AF300B0011207A4ABB1011207A4C7B2011207D8
:100B0300A431B5011207A43CB5011207A446B501EF
:100B13001207A451B5011207A45BB5011207A4651E
:100B2300B5011207A470B5011207A47BB501120722
:100B3300A4ACB5011207A4D0B5011207A4F4B50102
:100B43001207A459B6011207A49DB6011207A4B94E
:100B5300B6011207A430B7011207A468B701120740
:100B6300A4B4B7011207A411B8011207A4F3B90181
:100B73001207A479BA011207A44ABB011207A45AA7
:100B8300BE011207A4AFBE011207A4DBBE01120708
:100B9300A427C0011207A477C0011207A4CCC00187
:100BA3001207A4CDC1011207A465C2011207A4E76D
:100BB300C2011207A487C3011207A4EB1E00120788
:100BC300A4241F001207A4FE20001207A43D210045
:100BD3001207A48721001207A42C22001207A48B5A
:100BE30022001207A4BF22001207A42C230012071D
:100BF300A44924001207A45125001207A4E72500E5
:100C03001207A42E29001207A4D729001207A4B3A0
:100C13002A001207A4142B001207A4312C00120778
:100C2300A45B2E001207A4122F001207A41C2F008E
:100C33001207A44F2F001207A41630001207A4B105
:100C430030001207A41631001207A43F3100120727
:100C5300A46131001207A49033001207A467340083
:100C63001207A4AB34001207A41835001207A4D34B
:100C730035001207A40536001207A44936001207EF
:100C8300A47C36001207A4D136001207A42637002D
:100C93001207A4BA37001207A41C38001207A48451
:100CA30038001207A42D3A001207A4153B001207BF
:100CB300A4573C001207A4853E001207A4453F0039
:100CC3001207A47441001207A41742001207A45587
:100CD30042001207A40144001207A415440012079E
:100CE300A41F44001207A44944001207A45544005A
:100CF3001207A47444001207A42B45001207A46A28
:100D030045001207A47445001207A42846001207E1
:100D1300A42747001207A42048001207A4BD4800D7
:100D23001207A45F49001207A47649001207A4AD75
:100D330049001207A4CB49001207A40F4A00120767
:100D4300A4344A001207A41A4B001207A4864B00CE
:100D53001207A4004C001207A40F4D001207A44E63
:100D63004E001207A4B04E001207A46A4F001207E8
:100D7300A48D4F001207A46150001207A4AC5000C9
:100D83001207A4EE50001207A44551001207A47CD9
:100D930051001207A4AA51001207A4E3510012073D
:100DA300A40852001207A49052001207A4B35400DF
:100DB3001207A41255001207A4A655001207A41285
:100DC30056001207A46656001207A4B4EB021207DA
:100DD300A4F3EB021207A4B857001207A412580099
:100DE3001207A46E58001207A4BA58001207A4D51C
:100DF30058001207A40659001207A423590012072A
:100E0300A42F59001207A4A35A001207A4BC5A0026
:100E13001207A4235B001207A4365B001207A44445
:100E23005B001207A4F85B001207A4DC5C00120746
:100E3300A4E25D001207A4685E001207A4725E00BC
:100E43001207A4DF5E001207A4F65E001207A428AF
:100E53005F001207A4615F001207A48B5F001207F3
:100E6300A4EC5F001207A40C60001207A42A600020
:100E73001207A47060001207A49661001207A4E38E
:100E830061001207A41262001207A488620012070D
:100E9300A4B062001207A4E962001207A4F762007B
:100EA3001207A44F63001207A49E63001207A4DD78
:100EB30063001207A40D64001207A439640012072B
:100EC300A44464001207A46264001207A42465000A
:100ED3001207A42E65001207A46965001207A47FF8
:100EE30065001207A48865001207A4DD65001207D8
:100EF300A4F165001207A4FF66001207A41267009D
:100F03001207A42967001207A43E67001207A4E092
:100F130067001207A46368001207A421690012077F
:100F2300A42C69001207A4526A001207A46E6A0077
:100F33001207A4C06A001207A4FF6A001207A414D0
:100F43006B001207A4566B001207A4A36D001207CF
:100F5300A4216E001207A4946E001207A4B67000B9
:100F63001207A4CE70001207A4D170001207A4DDEB
:100F730070001207A4F170001207A4F970001207A1
:100F8300A42C71001207A4DC71001207A452720092
:100F93001207A4C572001207A47973001207A42EC6
:100FA30074001207A44D74001207A4ED7400120715
:100FB300A4F974001207A42475001207A42775006E
:100FC3001207A45675001207A46B75001207A4D567
:100FD30075001207A4FD76001207A4D57700120747
:100FE300A46078001207A47979001207A4367A0066
:100FF3001207A46F7A001207A4A07A001207A44074
:101003007B001207A4707B001207A44B7C0012071D
:10101300A4E47C001207A46F7D001207A4207E00C5
:101023001207A4A27E001207A4D47E001207A415FF
:101033007F001207A44A7F001207A4C58B02120780
:10104300A42A8C021207A4678C021207A4B68C028E
:101053001207A4CC8E021207A4AF90021207A419A0
:1010630094021207A45494021207A476940212075E
:10107300A4D994021207A40D95021207A435950270
:101083001207A45895021207A48595021207A4001B
:1010930080021207A47E80021207A4B48002120702
:1010A300A42081021207A49382021207A4AF820232
:1010B3001207A4F482021207A48283021207A4DB9C
:1010C30083021207A40885021207A41A86021207D4
:1010D300A47786021207A4E386021207A4448702B8
:1010E3001207A48587021207A43288021207A444B8
:1010F30089021207A46F89021207A4BA8902120790
:10110300A4018A021207A4938A021207A44E8B0237
:101113001207A4229F021207A46E9F021207A4DCE7
:101123009F021207A4FD9F021207A4ADA00212079B
:10113300A4B6A0021207A409A1021207A432A102B5
:101143001207A499A1021207A42AA2021207A46CEF
:10115300A2021207A4B6A2021207A415A302120741
:10116300A4A6A3021207A4E5A3021207A424A402BF
:101173001207A459A4021207A46BA4021207A47DA8
:10118300A4021207A49CA4021207A4A5A402120796
:10119300A472A5021207A466E7021207A4E7D60207
:1011A3001207A41DD7021207A466D7021207A4B61A
:1011B300D8021207A43AC4011207A479C501120781
:1011C300A4B5C5011207A4399E011207A49DC70146
:1011D3001207A430CA011207A474CA011207A4FD9E
:1011E300CB011207A495CC011207A4FDCC01120771
:1011F300A49ECD011207A4E0CD011207A420CE01C5
:101203001207A4ABCF011207A41BD1011207A440FC
:10121300D3011207A46ED3011207A495D3011207B9
:10122300A48CA4011207A4F9D3011207A48CD4013E
:101233001207A4AAD7011207A4A87F001207A4BE0D
:101243007F001207A4CD7F001207A47BBC02120704
:10125300A48EBC021207A42BBD021207A467BD0211
:101263001207A47EBD021207A4A3BD021207A4E5C0
:10127300BD021207A416BE021207A451BE02120732
:10128300A4CBBF021207A40CC0021207A4EBE8020E
:101293001207A421E9021207A43DE9021207A47F61
:1012A300E9021207A48FE9021207A431CA02120746
:1012B300A48BCA021207A4E3CA021207A480CB02BA
:1012C3001207A4CBCB021207A403CC021207A4A3D8
:1012D300CC021207A4BDCC021207A4D7CC0212077A
:1012E300A4DACC021207A4DDCC021207A4E0CC02DC
:1012F3001207A4E3CC021207A42BD8011207A4807F
:10130300D8011207A438D9011207A4D3D9011207AF
:10131300A41DDA011207A431DA011207A4FBDB01D1
:101323001207A476DC011207A4A0DC011207A45A59
:10133300DE011207A475DE011207A4C4DE01120741
:10134300A4DADE011207A4E7DE011207A41BDF0102
:101353001207A431DF011207A4BCDF011207A41690
:10136300E0011207A464E0011207A46EE101120771
:10137300A4F0E3011207A48AE4011207A4CCE40158
:101383001207A461E5011207A47EE5011207A481F7
:10139300E5011207A484E5011207A4F7E50112078A
:1013A300A412E6011207A43EE6011207A479E6019E
:1013B3001207A47CE6011207A4D4EA021207A4E0F0
:1013C300EA021207A41AEB021207A4B5E6011207F8
:1013D300A4E0E6011207A4A2E7011207A427E8018B
:1013E3001207A490E8011207A4DCE8011207A45B2A
:1013F300E9011207A4EDE9011207A47DEA0112072E
:10140300A4BFEA011207A408EF011207A488F001A0
:101413001207A4DFF1011207A46BF2011207A46201
:10142300F3011207A4D7F4011207A491F5011207DF
:10143300A403F6011207A47DF6011207A4E2F60144
:101443001207A452F7011207A486F8011207A46237
:10145300F9011207A4D3F9011207A450FB011207E3
:10146300A412FC011207A429FD011207A4C8FD015F
:101473001207A485FE011207A4F3CC021207A447A6
:10148300CD021207A49FCD021207A4EACD021207D0
:10149300A44CCE021207A4E5CE021207A44DCF023C
:1014A3001207A459CF021207A400DD021207A431C8
:1014B300DD021207A4EBDD021207A451DE021207BC
:1014C300A498D9021207A466EC021207A477EC02CF
:1014D3001207A4DADE021207A4E8DE021207A4DA76
:1014E300FF011207A439EA021207A449EA0212070C
:1014F300A461EA021207A4CEEA021207A464E60278
:101503001207A4E9E6021207A44DE7021207A4306A
:10151300E3021207A452E3021207A4BCE302120778
:10152300A4C7E3021207A40BE4021207A442E402D5
:101533001207A445E4021207A419C0021207A42F3C
:10154300C0021207A458C0021207A473C0021207F4
:10155300A48EC0021207A498C0021207A4A2C0025C
:101563001207A4B5C0021207A4CEC0021207A475C5
:10157300C1021207A4F4C1021207A486B80212071B
:10158300A494B8021207A40EB9021207A4F2B90276
:101593001207A4ABBB021207A410BC021207A46774
:1015A300BC021207A4F87F001207A424DB0212076F
:1015B300A446DB021207A479DC021207A4FDDC02B5
:1015C3001207A4B2AA021207A407AB021207A403CC
:1015D300AD021207A435AD021207A457AD021207DC
:1015E300A470AD021207A489AD021207A493AE0240
:1015F3001207A42EAF021207A492E0021207A4B6A8
:10160300E0021207A4CFE0021207A402E1021207CC
:10161300A433E1021207A461E1021207A46BE10201
:101623001207A4CDE1021207A4DCE1021207A4E62B
:10163300E1021207A4F3E1021207A494CF021207F6
:10164300A4BACF021207A4F7CF021207A406D0024E
:101653001207A425D0021207A48DD0021207A49664
:10166300D0021207A4F5D0021207A419D10212075F
:10167300A4D8D1021207A4E5D1021207A4F6D1021D
:101683001207A4FDEB021207A41AEC021207A4D35B
:10169300A5021207A431A7021207A43EA70212074C
:1016A300A451A7021207A470A7021207A486A702D7
:1016B3001207A49AA7021207A40FA8021207A47480
:1016C300A8021207A4FCA8021207A485A902120704
:1016D300A45AAA021207A46AAA021207A479AA02A8
:1016E3001207A4A0E9021207A4C4E9021207A4EC9A
:1016F300E9021207A414EA021207A424D202120771
:10170300A44BD2021207A46CD2021207A4D1D202B4
:101713001207A48AD4021207A4A3D4021207A4AF07
:10172300D4021207A4C3D4021207A4E1D4021207FD
:10173300A4EBD4021207A4F5D4021207A408D5021D
:101743001207A45BD5021207A494D5021207A4C3FF
:10175300D5021207A411D6021207A460D6021207FB
:10176300A47BD6021207A485D6021207A496D6023A
:101773001207A4DCD6021207A457EB021207A4A88F
:10178300EB021207A4E695021207A41096021207B1
:10179300A42C96021207A43F96021207A4559602A0
:1017A3001207A4B296021207A4E596021207A42117
:1017B3009B021207A4479C021207A47A9C021207F9
:1017C300A4C69C021207A4F29D021207A41A9E0249
:1017D3001207A42F9E021207A43F9E021207A4839E
:1017E3009E021207A4E49E021207A4F49E021207AB
:1017F300A4FDE1021207A418E2021207A441E202C7
:101803001207A45BE2021207A480E2021207A49F5C
:10181300E2021207A4B7E2021207A4E5E2021207EA
:10182300A4FFE2021207A439E8021207A47DE8022A
:101833001207A49EC3021207A4A5C3021207A4B1F0
:10184300C4021207A4E1C4021207A407C5021207C7
:10185300A42AC5021207A44CC5021207A486C50216
:101863001207A4ECC5021207A425C6021207A4712D
:10187300C6021207A49EC6021207A4BEC60212071E
:10188300A461E5021207A473E5021207A45EE6024F
:101893001207A461E6021207A44EE4021207A4C0D1
:1018A300E4021207A4FEE4021207A43FE5021207B2
:1018B300A421B4021207A47BB4021207A4E8B40261
:1018C3001207A435B5021207A4A3B6021207A4A1F6
:1018D300B7021207A406B8021207A43FB802120700
:1018E300A41EC7021207A43AC7021207A489C7029B
:1018F3001207A4A5C7021207A4D6C7021207A4E6BB
:10190300C7021207A4D2C8021207A4DCC802120736
:10191300A4E9C8021207A4F9C9021207A40DCA0256
:101923001207A416CA021207A46DAF021207A4B2CB
:10193300B3021207A4B7B3021207A439EC021207C9
:10194300A4CA9D011207A4829D011207A44F9A0104
:101953001207A41B9A011207A4E899011207A4CC49
:1019630099011207A4FE98011207A4B69801120761
:10197300A4EB96011207A46B96011207A4689601C3
:101983001207A47995011207A44795011207A484AD
:1019930094011207A4AF92011207A4409201120707
:1019A300A41292011207A40F92011207A4FC910141
:1019B3001207A49E91011207A48D91011207A47F1F
:1019C30090011207A44990011207A42BA401120746
:1019D300A4D9A3011207A4C7A3011207A49FA301BB
:1019E3001207A481A3011207A40C90011207A4AD4E
:1019F3008F011207A47C8F011207A47EA201120794
:101A0300A4378C011207A4288B011207A4B78A01FB
:101A13001207A47C8A011207A4DBA1011207A49E6A
:101A2300D3011207A4478A011207A43B8A011207B4
:101A3300A49E89011207A4E588011207A4B88601B0
:101A43001207A44484011207A40284011207A4CD3F
:101A530082011207A48282011207A4B48101120732
:101A6300A40B81011207A4E180011207A488A0013D
:101A73001207A4A780011207A474C7010000008005
:101A8300FBE4738F000100B40587000100D30A242F
:101A9300000200AE0A25000200B00A26000200B2CE
:101AA3000A27000200B40A28000100B60A2900012F
:101AB30000B70A84000400B80A86000100BC0A2AA1
:101AC300000100BD0A2B000100BE0A2C000100C169
:101AD3000A2D0008009F052E000100C20A2F0001F5
:101AE30000C30A30000100C40A31000100C50A32F4
:101AF300000100A70533000100A80534000100C65A
:101B03000A36000100A90538000100C70A3900019F
:101B130000C00A83000200D10A63000100B3056418
:101B23000001009C0565000100BF0A6D000100D0A3
:101B33000A6E0002009D0543000100C80A4400022A
:101B430000C90A45000100CB0A46000200CC0A473F
:101B5300000800AB0548000100CE0A4B000100CF8E
:101B63000A04000100D40AA1000100D70A370001CA
:101B730000D60A88000100D50A3C000100AA05002E
:101B830000000000000001363601010001020100DF
:101B9300010301000104010606050200000701001C
:101BA300340801000F090401010D0100FF0E0800B4
:101BB3000017020000190100FF1A0100011B0100B8
:101BC300FE1C0100081D0200001F0100012001008E
:101BD30001210200002301000F240200002601005E
:101BE3000127010008280200FF2A0100072B010238
:101BF300402C0100002D0100012E0100012F0100E6
:101C0300FF30010B1C310800003A0100083B0100C2
:101C13000F2F0100000302710230016002110270F4
:101C2300020102020202028002100261023A004132
:101C3300006302730272026202430200021302385B
:101C4300000002000204021202000200020002006D
:101C53000204020402370037003C02440200023946
:101C63000000020002650200023502810200020543
:101C7300028202830200020300710030016000113E
:101C83000070003102200350048000100061000046
:101C9300001400630073007200620043000000132D
:101CA3000006000000000004001200000000000015
:101CB30000000004000400370037003C0244000029
:101CC30000000000000000650000003500810000F6
:101CD30000050000008300000001037103010301FC
:101CE30003010301030103220302030103100300A1
:101CF3000300030003000300030003000342030087
:101D03000324030603000300030403120325032330
:101D13000325032303040304030003000300034414
:101D2300030003000323030003650321003503813C
:101D33000300030503000300030003010171010114
:101D430001010111010101310101010101800110B2
:101D53000161013B001400630173017201620143DD
:101D6300010001130106013D0135000401120100C8
:101D73000100010001000104010401330133013CAE
:101D83000144013201360000010001650100013503
:101D93000081010001050182018301000136000178
:101DA30000060000000F000000000000000000001B
:101DB30000000003FFFF00000403FFFF0000FFFF1C
:101DC3000FF4010005C4040320000100030B00000D
:101DD30000000000000003010F010043140200E3B0
:101DE300130300E9130400EF130500F513060001C4
:101DF30014FFFF0000730EA30E790E7F0E9D0E914C
:101E03000E8B0EA90EAF0EB50EC10E850E6D0E67AD
:101E13000E03EAF5E5D5D5C5B5A595958585757503
:101E2300656555554545353525251515050A3F0C79
:101E330002090C051B0C070F0C0CEB0B0DFD0BFF24
:101E4300000000160F00000B150B020002220F32D8
:101E5300000006630F750F7B0F3D0E810F370E4396
:101E63000ECF0FED0FF30FD50FE10FDB0F0003497B
:101E730048424D18172505020C0E020B040B0A07E6
:101E830008000F0001191618161615230300003851
:101E93003C3E363B3B352B432C3030171819213051
:101EA3001B1D1F30303016181920231A1C1E3097A3
:101EB3000EBB0EE70FC70ECD0EB70F870F8D0F9911
:101EC3000F930F02040201010101090200BE040A7B
:101ED300E8030E000400150028000804050A03099E
:101EE30008FF1E1E0F040C0C74F712036AE990031B
:101EF300ACF0900361E4F01218819003B1E4F0A315
:101F0300F09003ADF0A3F0120D7712188790033011
:101F1300E4F0A3F0901EE793FA7902121917024B2B
:101F23008174F212036AEAFEEBFF54806069900346
:101F3300ACE0F91211438A088B09EA4509604F7C2A
:101F43000080010CEC75F003A4F8A9F0743028F5B7
:101F530082741E39F583E493F4602CE493F88508C6
:101F6300828B83E06870DCAA08EC75F003A4F87434
:101F73003128F582741E39F583E493C0E07401932C
:101F8300F583D082121A84AA08AB09121137EEFA2C
:101F9300EF6480FB0220F1EF5420601D120C998A3C
:101FA300088B09EA4509600A120BFDAA08AB09125E
:101FB3001137EEFAEF642080DAEEA2E0501A9003B4
:101FC30066E0640F700B7900120BC7E960031220FF
:101FD300F4EE6401FAEF80BB542070030220BF7556
:101FE3000C001235C68B09EA450970107C027D008E
:101FF3007A207B009003ACE0F91212697C0079042B
:102003007A007B00120C758A088B09801885088278
:10201300850983A3A3A3A3A3A3A3A3A37401F08507
:102023000A08850B09E5084509606D7C007904AA57
:1020330008AB09120C758A0A8B0B750C01E5082491
:1020430004F8E50912336A24FFF0A3E034FF1256C3
:102053005D70CC850882850983A3A3A3A3A3A3A34F
:10206300A3A3A3E0640170A5850882850983A3A3C4
:10207300A3A3A3A3E054047094850882850983A3D2
:10208300A3A3A3A3A3A3A3A37406F07AB78508828B
:102093008509831222208087120C457C0079017AFE
:1020A300007B00120C758B09EA45097009E50C7079
:1020B300057A20124520EE6420021FD7EF540260F8
:1020C3000B120D71EEFAEF6402021F96EF540460D7
:1020D300191246B71245D7790190035F12493B1293
:1020E3000B0DEEFAEF6404021F967A007B000223C5
:1020F30027900AAE1229BE120BDF22C082C083745E
:10210300EA120870851882851983AA82AB83794BFA
:102113001218ED7408120A467402F07409120A4682
:10212300AA82AB8379501218ED7413120A46E41293
:102133004B0A12190B7416023AE474F712036A7409
:10214300E1120870EAFEEBFFEE4F603385188285DB
:102153001983AC82AD83120CBD7406120A46E0608B
:102163001E7417120A46E0FD7401120A46E0FCEEE3
:10217300FAEFFB79001219E3E9600479A48002798C
:1021830000024B7C74F612036AEAFEEBFF8E828F29
:1021930083A3A3A3A3A3A3E05440601B124FF9128C
:1021A30022EE60067AFF7BFF801A8E828F831237BE
:1021B30070FAA3E0FB8003120CE174FE6A700374EF
:1021C300FF6B6041124FF9124564120D35E98E829F
:1021D3008F836006122219E480051222197401F01C
:1021E3007CCD7D0B8E828F8312493B121911E9F549
:1021F300087015EE4F60097901EEFAEFFB120C51EE
:10220300A9080245957508CDAA088E828F831222EC
:1022130020E960DF80EAE0240D123C3F22E0240C39
:10222300123C3FE0F9120BD92274F612036AE9FE5D
:10223300EAFF7A0F7B00121131EA4B60198A828B15
:1022430083740CF0EEA3A3F0EF8A828B83A3F012C6
:1022530045C07900802FEEF9120C7B8A088B09A800
:1022630008A909E849601C88828983A3A3A3A3A3BF
:10227300A3A3A3A37406125284E0F9120B91EEF9FF
:10228300120C577910024595C082C083900366E013
:10229300640F7014EA4B6010900361E064086005FA
:1022A300E0640470031222AE023B0EEAFCEBFD7AFB
:1022B300017B009003ACE0F912126322C082C08359
:1022C3007900EA241DF582EB12376D24FD600B14AF
:1022D300600824FD600424FD700109023B0E8E8218
:1022E3008F83A3A3A3A3A3A3A3A3A31222F22212C4
:1022F30037B5FB120D35E9228E828F83A3A3A3A3E7
:10230300A3A3A3A3A31222F26402228E828F83A328
:10231300A3A3A3A3A3A3A3A3123B05900352E06823
:10232300221208257F0602059574F412036A74FDD0
:102333001208708A088B098A828B83A3A3E0F9129F
:102343000C7B8A0A8B0BAE0AAF0BEE4F7003022491
:1023530033850882850983A3E064F16030850882B0
:10236300850983A3E064CD6024850882850983A35E
:10237300E0641A6018850882850983A3E064E96034
:102383000C850882850983A3E064E1700879001253
:102393000C51E9706C850882850983A3E0C0E07461
:1023A30002120A46D0E0123AE9EEF0A3EF122E141D
:1023B300851882851983AA82AB837005120AF5807A
:1023C30003120D1D7402120A46E064E970338E8213
:1023D3008F8312243F750A01780A1207E1750AE90F
:1023E300780A1207E1E508240CF582E509122906AB
:1023F300122DF1FCA3E0FD8A828B83122E0B1208AF
:10240300258E828F83A3A3A3A3A3A3A3A3A3E06483
:102413000270108E828F83A3A3A3A3A3A3A3A3A35A
:102423007406F0850882850983A3A3E0F9120C578B
:10243300120C45900AB21220F70229C3E0F8A3E078
:10244300F9E8FAE9FB2274F412036AEAFEEBFF757A
:1024530008008E828F83A3A3A3A3A3E06042750821
:10246300088E828F83A3A3A3A3A3A3A3A3123A18C3
:102473008B0BEA450B601075082C8E828F83A3A308
:10248300A3A3A3E0D2E0F08E828F83A3A3A3A3A38D
:10249300E05403640160030225324308110225322C
:1024A300EE24181229D06033EE241A1229D0700FAB
:1024B30012230E7003A3E06970757508228070EE15
:1024C300241BF582EF122537241AF582EF122E1CF6
:1024D300EE241912502D120B7F80541222FB70032D
:1024E30075080112230E7003A3E0697006E508D294
:1024F300E1F508E50860158E828F83A3A3E07006DB
:10250300E508D2E58004E508D2E6F5081222E16485
:10251300017006E508D2E0F5088E828F83A3A3E05D
:10252300600D12254564016006E508C2E0F508A9BF
:10253300080229C812375B12253E22E0FCA3E0FD06
:10254300EE2212375512378DF9120D23E922C0827C
:10255300C08379018A828B83A3A3E0C394024001E1
:10256300198A828B83A3A3A3A3E0C39402400279B5
:10257300008A828B83A3A3A3A3A3A3A3A3A3E0643F
:10258300F87003A3E0F460458A828B83A3A3A3A31B
:10259300A3A3A3A3A3E064F97003A3E0F4602E8ACA
:1025A300828B83A3A3A3A3A3A3A3A3A3E064FA702F
:1025B30003A3E0F460178A828B83A3A3A3A3A3A33B
:1025C300A3A3A3E064FB7003A3E0F4700279008A81
:1025D300828B83A3A3A3E0F890034FE068600279A2
:1025E30000023B0E74F012036A74DE120870EAFEF6
:1025F300EBFF8E828F83A3A3A3A3E0600E900AB0A8
:1026030012458C6006900AB01220F77403120A4632
:10261300AC82AD838E828F83A3A3A312460E124E88
:1026230047E9600F7403120A46AA82AB83120BF7C1
:10263300E9700879011218930228FBEE241B123764
:10264300607410120A461245D77409120A46E060F4
:1026530021741A120A46E0FD7404120A46E0FC8E45
:10266300828F8312493979011219E3E960047902EF
:1026730080C37403120A46AA82AB83120BF1E9F5F5
:102683000A7409120A46E0702A900349E060247430
:1026930022550A6422601C7442550A644270CF7446
:1026A30020120A46122919600A7420120A461229B6
:1026B3001270BBE9A2E650417403120A46AA82AB28
:1026C30083120BE5E970030226367420120A4612C0
:1026D30037706403700F7420120A46A312457EA359
:1026E300E0640D60147403120A46AA82AB83120DD0
:1026F30047E9640170030228FBEE242C122903121C
:102703002C277003A3E069701C7508007808120772
:10271300E178081207E1EE242E12502D12291F1220
:102723002E0B1208257409120A46E070030227D8FB
:1027330012291F12493B120D9B8A088B09EA45098E
:1027430070030228757404120A46E0F88E828F83A0
:10275300A3A3E028F8A3E03400F9E8240D12290A22
:102763008A828B83A3A3A3E068601CE88A828B839D
:10277300A3A3A3F090806C120A23850882850983A2
:10278300A3A3A3A3120A2F7904E9120A46124E2423
:102793002AF8A3E034008882F583A3AA82AB8312CC
:1027A30011258A0C8B0D8C0E8D0F8508828509836C
:1027B300A3A3A3A3780C12075D40030228FB908018
:1027C30064780C120985850882850983A3A3A3A3D2
:1027D300780C120A07900361E064046008E064095E
:1027E30060030228FBE50AA2E540030228B3EE24B6
:1027F3002E1229D0851882851983F0EE242F1229F1
:10280300D0C0E07401120A46D0E0F0EE2430122961
:10281300D0C0E07402120A46D0E0F07414120A46E3
:10282300E064017027740E120A46123766EE241212
:102833001229D0687003A3E0697011740C120A4660
:1028430012230870077414120A46E4F0EE242412CB
:1028530029031206607404120A46AC82AD8374071E
:10286300120A46AA82AB83120AFB740412082502D9
:1028730028FB9003A6E0640160030227D8742012AA
:102883000A461229197009E50AA2E650030227D85D
:102893007410120A46E0F47003A3E0F4605AEEFCED
:1028A300EFFD7403120A46AA82AB83120C0380481D
:1028B300A2E650447420120A4612494A701A741A46
:1028C300120A46E0640270307403120A46AA82AB0D
:1028D300837900120D1180207420120A46122912E6
:1028E3007016741A120A46E06404700C7403120A18
:1028F30046AA82AB83120D0B7422024CF6EE240B14
:10290300F582EF12375B22F582E91245F0F82212C5
:10291300500BE064072212378D640622EE242A123C
:10292300375812253E24121237582274F412036AC0
:10293300EAFEEBFF8C088D099005A7E0600F1223D8
:102943000E7003A3E0697005120B6D804F790012BE
:10295300492E120B9D8A828B83E58245836035A3C2
:10296300A3A3A3A3A3E05418602AE508241BF582BC
:10297300E50912290612066412300412290612060A
:1029830064EE241812502D1229A1120BAF740412F5
:102993000825800879001229A1120B7380278E82E3
:1029A3008F83A3A3A3A3A3A3A3A3A312253E240BB3
:1029B300F582EF1229BA223400F5831237B5FB22D0
:1029C30074031208257F04020595EE2417F582EFA0
:1029D3001245F02274F712036A74F7120870EAFEC4
:1029E300EBFF900361E06403600DE064016008E0C5
:1029F30064096003022AA18E828F83A3E0707E7C28
:102A0300007D007A027B0012188DEE2402FAEF1289
:102A130033711237669003521245D779531218F364
:102A23007900122AA6E064096003122E3985188200
:102A330085198374011245AD9003617404F0740128
:102A4300120A46AA82AB83794A1218ED7401120A5C
:102A530046AC82AD837A577B031218AB90035212B4
:102A63004E3D7A03122E4390034CE0A2E35004D26E
:102A7300F08002C2F012459A1220F4801E8E828FDB
:102A830083A3AE82AF83FC7D007A037B1012188D83
:102A93008E828F83E0F9122AA6E4F0120C2D7409BA
:102AA300024B7E90035F1229BE120B0D900361222D
:102AB300C082C08390033012458C701F900361E085
:102AC30014600924FC600A14600C800F90033880A2
:102AD30032900334802D9003368028E849600890B3
:102AE3000331122DEB700C8A828B83A3E0F9120B56
:102AF30001801B9003311230A07005120D65800E0A
:102B03009003CE12458C600612457E121A84023B56
:102B13000E74F412036A74FB1208708A088B097A24
:102B23000F7B001211318A0A8B0BAE0AAF0BEE4FEB
:102B33007003022C1B8E828F83124B08795012185C
:102B4300ED850882850983A3E06003022C039003CB
:102B53005FE0F47003A3E0F4603490035FE064FE8D
:102B63007003A3E0F46027851882851983122C274C
:102B73007003A3E0696017850882850983A374EA5B
:102B8300122E217A5F7B0379501218F38072851815
:102B930082851983124FEC1245D77A527B037953FE
:102BA3001218ED9003521246081245D77A557B034B
:102BB300794B1218ED7A547B0379E11218ED9003E7
:102BC30066E0C3940F5021900354E0C0E0740212F6
:102BD3000A46D0E0F07404120A467401F004120AA3
:102BE30046AA82AB83121905750A00780A1207E117
:102BF300780A1207E1900ADEE0F9122E0212082584
:102C0300850882850983122C20A3F0900361740345
:102C1300F0EEFAEFFB1245C074050229C5A3E08E5E
:102C2300828F8322124FF0E06822123C462274F511
:102C330012036A74D81208708A088B098A828B83FC
:102C4300A3A3A31237927415120A46AC82AD838AEA
:102C5300828B83A3A3A3A3A3A3A3A3122DF1FAA3FC
:102C6300E0FB120C337415120A46E0706B85088280
:102C7300850983A3A3A3A3A3A3A3A3E0C3940B40A6
:102C8300578E828F83A3A3A3A3A3A3A3A3E064026A
:102C93007046EE240B1229D0F4703D900361E0647A
:102CA30002603AE06406603590033012458C60059B
:102CB300122DEB604F900361E064086005E064044B
:102CC30070167417120A46E0F9741C120A46AC8295
:102CD300AD8312492E120C39742802550A90033021
:102CE30012458C701F75080078081207E1780812E6
:102CF30007E1EE2410122903125045123459122E03
:102D03000B1208258E828F831248AA12338312373F
:102D1300667402120A461245D7EE240D1229D0C05A
:102D2300E07404120A46D0E0122E14F508A3E0F56D
:102D330009740F78081209F87405120A46E508F0B9
:102D43007419120A46E0C0E07406120A46D0E0F095
:102D5300741B120A46E0C0E07407120A46D0E0F082
:102D63007416120A46E0C0E07409120A46D0E0F075
:102D73007417120A46E0C0E07408120A46D0E0F065
:102D8300EE24101229D0C0E0740A120A46D0E0F0F3
:102D9300741A120A46E0C0E0740B120A46D0E0F03F
:102DA3007427120A46E0C0E0740C120A46D0E0F021
:102DB300741C120A46A982AA8389088A09750A0023
:102DC30078081207D97C087D007410120A46AA827B
:102DD300AB8312413B120825851882851983AA8289
:102DE300AB83120B07022CDB1230A6640122E0F93D
:102DF3008A828B83A3A3A3A3A3A3A3A3A3E0229069
:102E0300035F124E419003551229BE120CF3740254
:102E130022F0EE240B1245ED221245F0FA22F07A4D
:102E2300527B037953122E2C221218F37A557B030B
:102E3300794B1218F32290035F1229BE120D9522CB
:102E43007B0012188D900355124E417A047B0012B9
:102E5300188D22F01250502274F212036A74F81281
:102E63000870EAFEEBFF8C0A8D0B890C85188285AE
:102E73001983AC82AD83758380758244740812070D
:102E83003CF50DEEFCEFFD851882851983AA82AB14
:102E93008312480B7003750D019003AD803BEEFC6C
:102EA300EFFDE508240BFAE509340012480A601E19
:102EB300850882850983A3A3E0650C7011850882C8
:102EC300850983E0650A7004A3E0650B6038E508B3
:102ED3002414F582E50912290612337BE508450916
:102EE3006024E50DA2E040B6850882850983E0658C
:102EF3000A7004A3E0650B70D5850882850983A356
:102F0300A3E0650C70C8AA08AB097408022324C0A7
:102F130082C0839003AD023B0B74F712036A9003E4
:102F2300AD1237B58012EA2414F582EB122906128A
:102F330037921211AFEEFAEFFBEA4B70E99003AD53
:102F4300E4F0A3F0024B817F0702059574F11203AD
:102F53006AEAFEEBFF890A8C088D098E828F83E073
:102F63008C828D83123A22AE82AF83E01241FB1230
:102F7300416CC41241FB12300DE054038C828D83EB
:102F830012416AA2E2E4338C828D831241691313E6
:102F930013541F1241FB124168A2E7E4338C828D64
:102FA30083A3A3A3A312300D8E0C8F0D750E00788F
:102FB3000C1207D97C087D00E5082407124DB012D6
:102FC3000825124E1B8E0C8F0D780C1207D97C032B
:102FD3007D00E508240F124DB0120825E50AC394BD
:102FE3000F40148E828F83A3A3A3E0C0E0123004AA
:102FF300122906D0E08006123004125278F0022F14
:103003004AE5082412F582E50922A3A3123A260E03
:10301300AF832274F412036A74F9120870EAFEEBA8
:10302300FF890890033012458C600E1230A070099E
:10303300EEFAEFFB120D5F805F90035FE06E7003AB
:10304300A3E06F70537401650860097A737B031200
:10305300480B70447A007B021235CA8B0BEA450B8E
:103063007036900362120A23851882851983120A27
:103073002F900368E0C0E07404120A46D0E0F074B5
:1030830005120A467401F07406120A46124B08121E
:103093000AD1E9609B120AD774070229C51230A628
:1030A30064022212500CA3A3A3A3A3A3E02274F5EA
:1030B30012036A8A088B098A828B83A3AE82AF8349
:1030C300E0F9120B258E828F83E064EB600C850898
:1030D30082850983A3E064E17009850882850983F9
:1030E300A3E4F01220F4750A01780A1207E18508B7
:1030F30082850983A3E0F50878081207E1790012B5
:103103002E02120825120C4502550DEAF0A3EBF02E
:10311300023B0E74F612036A9003B0E0701B7C004E
:1031230079017A007B00120C75EA4B600C8A828B62
:103133008312458C6003120BD3024595C082C08372
:103143001235B2401079FF120C6FE9F8901EEAE4D1
:1031530093C3985004790180027900023B0E74F006
:1031630012036A8A088B09890B750C008A828B8388
:10317300A3A3A3A3A3A3A3A3E0F9120C7B8A0E8B9F
:103183000FAE0EAF0F750A01EE4F600302323F859B
:103193000882850983A3A3A3A3A3A3124E3D850895
:1031A30082850983A3A3A3A3A3A3A3123F3B12492D
:1031B3003B120C638A0C8B0DAE0CAF0DEE4F7003FC
:1031C3000233628E828F83A3A3A3A3E4F0A3F0E56B
:1031D30008240B12336EE0C0E0122900D0E0F01295
:1031E3000D3BEE240CF582EF124560E508240EF545
:1031F30082E509123763EE240EF582EF1245D4758A
:103203000C01EE2406F8EF12336A547FF0A3E05466
:10321300FC1250A2E0540460030232C5900AB612B5
:103223003F2C740778081209138E828F83A3A3A3FC
:10323300A3A3A3E04508F0A3E04509F08E828F83A2
:10324300A3A3A3A3123379740778081209F8E50836
:103253005407F508E50B607A8E828F83A3A3A3A39B
:10326300A3A3A3A3A3740212416D240D123C3BE05C
:10327300A2E2500B90034D124608A3A31245D7E5D3
:10328300087003023337EE2406F8EF3400F9E8FA46
:10329300E9FB8A828B83E0547FFCA3E054FCFDE5C9
:1032A3000824FFF508E434FFF509740778081209C8
:1032B30013EC4508F8ED4509F98A828B831245D74B
:1032C30080728E828F83A3A3A3A3A3A3E04480026F
:1032D300323EE5087005750A0080598E828F83A3FC
:1032E300A3A3A3A3A3E05420601212112BEA547FDB
:1032F300245F8E828F83A3A3A3A380238E828F83D5
:10330300A3A3A3A3A3A3E05410600A12112BEA54AE
:103313000F240A80DD8E828F83A3A3A3A37401F0FD
:10332300A3E412338374041235C18B09EA4509708F
:1033330003124553E50CA2E050288E828F83A3A38A
:10334300A3A3124B6EF9EEFAEFFB120C69E96012BC
:10335300124582600312374BEEFAEFFB1211AF7581
:103363000A00A90A024CF91246CB22FAE5093400F5
:10337300FB8A828B8322A3A3E0F508A3E0F509224D
:1033830012338722124DCCA3A3A3A3A32274F41256
:10339300036A74F71208707E00120C7BEA4B700309
:1033A3000234528A828B83A3A3A3A3A3A3A3A3A3BD
:1033B300E0640660030234528A828B83A3A3A3A32F
:1033C300A3A3A3E0FF8A828B83123C4EE0C0E07488
:1033D30008120A46D0E01237861248111245D71256
:1033E3000C8DEF54086066851882851983124E3D53
:1033F3007A007B00120C5D8B0BEA450B704F900338
:103403005F12387612191D7C007D007A007B0080E4
:10341300288E828F83123770F47003A3E0F4602D3B
:1034230090035F12345912493B1215C9E9641A60BB
:103433001C7C007D00EEFAEFFB120C5D8A0A8B0BFD
:10344300AE0AAF0BEE4F70C979001219237E01EE5D
:10345300F974090229C512345D22E0FCA3E0FD8E54
:10346300828F8322C082C083EA4B70059003B180B0
:10347300068A828B83A3A312367660258A828B8386
:10348300A3A3A3A3A3A3A3E0540860E5EC4D601595
:103493008A828B831237706C7003A3E06D70D280C5
:1034A300047A007B00023B0E74F212036AEAFEEB1D
:1034B300FF890A8C088D097A107B001211A9EA4B47
:1034C300603F8A828B83A3A3A3A3A3A3A3A3A3E4A1
:1034D300123774A3E50A125012A312350E8A828B97
:1034E30083A3A3A3A3E4F0A3123780A3F0124EA6F1
:1034F300EA240CF582EB123A12123507A3A3F0A3C8
:10350300F0022327A3F08A828B8322A3A3E508F08A
:10351300A3E509F02274F412036AEAFEEBFF8908BB
:103523008C0A8D0BEE4F6055740165087014790198
:10353300120C6FE9F8901EE3E493C398500F7911CE
:10354300806A74046508702F1235B240F18E828F41
:1035530083A3A3A3A3A3A3A3A3A3E508123A22A32C
:103563001255978E828F83A3A3E4F0A3F09003B147
:1035730012458C6021800D7402650860D079C1808A
:103583002BE0F8A3124601A3A3123676888289831F
:10359300A3A370ED80039003B1EEF0A3EF1235C146
:1035A3008B0BEA450B700312455379000229C87946
:1035B30004120C6FE9F8901EDFE493C39822F01213
:1035C30035C6227A207B009003ACE0F912127522F3
:1035D300C082C083E9F879009003B1801D8A828B91
:1035E30083A3A3A3A3A3A3A3A3A3E068600574FF7A
:1035F300687001098A828B83A3A312367670DE0278
:103603003B0E74F712036AEA4B70059003B1800610
:103613008A828B83A3A312367660248A828B83A348
:10362300A3A3A3A3A3A3A3A3E06970E4EC60148AF8
:10363300828B83E0240D124E2EA2E240D380047AC3
:10364300007B00024B81C082C0839003B180068A55
:10365300828B83A3A312367660128A828B83A3A301
:10366300A3A3A3A3A3A3E06970E580047A007B006E
:10367300023B0E1229BEEA4B2274F212036A8A0A33
:103683008B0B8C0C8D0D750800750900EA450B60DA
:103693002E9003B180068E828F83A3A31236C96056
:1036A3001EAC0CAD0DEEFAEFFB850A82850B83127F
:1036B3001A84E9640170DFEEF8EFF988088909AA32
:1036C30008AB09022327E0FEA3E0FFEE4F2274F7C5
:1036D30012036A9003B11237667C007D00800DE807
:1036E300FCE9FD88828983A3A3123766E849603029
:1036F300EA687002EB6970E79003B112493BE86A2C
:103703007002E96B88828983A3A3700812376690DD
:1037130003B180091237668C828D83A3A31245D728
:10372300024B8174F712036AEAFEEBFFEE4F60155A
:10373300120C87123798124582600312374BEEFA48
:10374300EFFB1211AF024B81EE240C1237581237E4
:10375300AD22EE241DF582EF3400F58322F582EFCE
:1037630012375B123B0522F582EF12375B12378D5E
:10377300221237782212501AA3A3A3A32212377856
:10378300A3A32212350812378D22125005E022E03E
:10379300FEA3E0FF228E828F83E0241C123C3F12A3
:1037A30037AD8E828F831237AD221237B5FB1211DC
:1037B300AF22E0FAA3E022C082C083EAFCEBFDEC77
:1037C3004D700479058044EC24FBF582ED34FF123F
:1037D300458A7007123811E0F4600512113780E34F
:1037E3009003ACE0C0E0123811D0E0F0901EE0E4AA
:1037F30093F97AB37B03121161E96401700B7A00C8
:103803007B20124557790080027904023B0EEC2499
:10381300FFF582ED34FFF5832274F412036AA2AF3D
:10382300E433F508C2AF9003B31236C96038EE240F
:10383300FBF582EF34FF12458A7A007B209003ACBC
:10384300600512455A8005E0F912116DE4F50AF599
:103853000B780A1207DDEEFCEFFD7AB37B0312113E
:103863005B7402120825E508A2E092AFEEFAEFFBC3
:103873000229C8124E41851882851983AA82AB8317
:103883002274F212036A74FC120870EAFEEBFF75ED
:103893000AFE750BFF120C4BE960057911023A071A
:1038A300EE24151229D06037900ACFE0C43354E0D8
:1038B300F8E0333354FC48C0E0EE2415122903D05A
:1038C300E0123A22123A188B09EA45096011750A87
:1038D300FFEE240F1229D044041245E5D2E0F08E06
:1038E300828F831222EC6006EE2412123A0FEE242A
:1038F300131229D07010901EE6E493C0E0EE241357
:10390300122903D0E0F08E828F83E0A2E7500454A3
:1039130003801CEE24141229D0701590033EE0C0DE
:10392300E0EE2414122903D0E0F090033EE004F00B
:10393300EE24111229D06401701690059CE0600DED
:10394300900349E0700A8E828F83E07003123A0C71
:103953008E828F83E064017013EE240B12376A6446
:10396300027009EE240F1229D04440F08518828595
:103973001983AC82AD83EEFAEFFB120CB18A088B8C
:103983000974FE650A700374FFF470098E828F83D5
:10399300A3A3124DBCEA450960668E828F83E0C003
:1039A300E07401120A46D0E0F07402120A46124E85
:1039B300AA7401120A4685820C85830D780C1207BE
:1039C300DDEE240F122903120664EE240E1229D011
:1039D300F50C780C1207E190035212066474071277
:1039E3000A46E0F9AC0AAD0B120CAB7407120825BA
:1039F300E9FE74106E700BAA08AB091211AF8002B6
:103A03007E10EEF97404022324EE2411F582EF12E2
:103A1300375BE4F022A31229BE79FF121947221261
:103A23003A2622F08E828F83A322C082C08374DE63
:103A33001208708A828B83A3A3A3A3123766740E22
:103A4300120A46E8F0A3E9123AFC740C120A461271
:103A53003AF5240DF582EB1229D3C0E0741A120A49
:103A630046D0E0F0124D09EB1237637420120A4678
:103A7300123AF52415F582EB1229D3C0E07408122B
:103A83000A46D0E0F0EA241CF582EB123763741285
:103A9300120A46123AF52411F582EB1229D3C0E03B
:103AA3007409120A46D0E0123AE974FFF074011265
:103AB3000A4674FFF07402120A4674FFF090806C99
:103AC3001206607404120A46AC82AD837407120AAC
:103AD30046AA82AB83120AFB740412082579007488
:103AE300221208258025123AED22F08518828519C5
:103AF3008322E8F0A3E9F0EA22123508A3123B047B
:103B030022A3E0F8A3E0F92212493BD083D082023A
:103B130007A174EC12036A74EE1208708A128B13F5
:103B2300ECFEEDFF89097426120A46124DBC742877
:103B3300120A46E0F5107429120A46123C30742B1F
:103B4300120A46E0F50EA3E0F50F7508107A1E7B06
:103B5300001211A97402120A461245647402120A71
:103B63004612458C7003023C29851882851983AA65
:103B730082AB83795012443F12493B7402120A46C6
:103B8300123C4EA31245647410120A4612559974DE
:103B930002120A46E0240B123C3B7402F0120A465E
:103BA300123C4E7402F0120A46124FFD124EAA74D2
:103BB30002120A46124950E509F07402120A46E05D
:103BC300240C123C3BE510F07402120A46123C38F6
:103BD300E512F0A3E513F07408120A46E50CF0A30E
:103BE300E50DF0740A120A46E510F0850E82850F82
:103BF30083C082C083740D120A46AC82AD83D08326
:103C0300D082740312073CF97402120A46AA82ABEB
:103C130083120C51E9640170057508008008740271
:103C2300120A46123751A9087412024DD3E0F50C5B
:103C3300A3E0F50D22E0241C123C3F22F8A3E0127E
:103C43003C46223400F98882898322124943A3A384
:103C5300A3A3A32274EE12036AEAFEEBFF8C088D82
:103C6300098E828F83A37408124620E060088E8237
:103C73008F83A37410F01229CD60098E828F83A3E2
:103C8300E02408F0EE24151229D060088E828F8379
:103C9300A3E004F08E828F83A3A3A3A3A3A3E06076
:103CA300198E828F83A3A3A3A3A3A3A3E0C3332467
:103CB30002F88E828F83A3E028F0EE24111229D01C
:103CC3006005750B0E8003750B008E828F83A3C076
:103CD30082C083EE240D1229D0D083D082F8E0284D
:103CE300250B8C828D83F0EE24111229D0600512EE
:103CF300414B28F0850882850983E0C39475400908
:103D0300750800750900023E39E0FA7B00124F582E
:103D13007003023E39EEFAEFFB120CB7EA85088214
:103D2300850983124565EE2402F8EF122C2D123F0C
:103D330033123E75F0EE24040808EF122C2D1243C3
:103D430075A3123E75A3A3F0EE2413123E5BF0EEAF
:103D53002414123E5BA3F0750A08EE24161229D030
:103D63006010EE2418124E3AE508240812503B75F1
:103D73000A101229CD6016EE241A124E3A850A0C47
:103D8300E508250C12503B7408250AF50A8E828F2C
:103D930083A3A3A3A3A3A3E06059EE2407F510EF25
:103DA3003400F511851082F583E0C0E0123E421223
:103DB3002906D0E0123E65E0C0E0123E4212290619
:103DC300D0E0123E65A3123E4E1207D985108285BC
:103DD3001183E0C333FCE433FD850A0CE508250CAD
:103DE300124DB0120825851082851183E0C3332557
:103DF3000AF50AEE24151229D0600BC0E0123E42E8
:103E0300122906D0E0F0122900123E4E1207D9EE15
:103E1300240D1229D0FC7D00850B0A8E828F83A38B
:103E2300E0F8E50828F8E5093400F9E8250AFAE995
:103E3300124DB3120825AA08AB097F0A020595851E
:103E43000A0CE508250CF582E50922E0F50CA3E050
:103E5300F50D750E00780C22123758123E7FA3A37E
:103E6300A322F0050A8E828F83A3A3A3A3A3A3A3F4
:103E7300A322A3A31250A6A3123E7F22124379A327
:103E8300A32274F612036A8A828B83E0FC90034FA9
:103E9300123F2C74027808120913EC4508FCAD0993
:103EA300EA2412123F2674067808120913EC450817
:103EB300FCED4509FDEA2415F582EB1229D36004D4
:103EC300780180027800E4C8F9ED49FDEA2411F590
:103ED30082EB1229D3F508880974097808120913AB
:103EE300ED4509FDEA2416123F26740B78081209E2
:103EF30013ED4509FDEA2417123F26740C780812C6
:103F03000913ED4509FD8A828B83A3A3A3A3A3A36E
:103F1300123F2C740A7808120913ECFAED4509FBD9
:103F2300024595F582EB12375BE0F508750900222F
:103F3300E085088285098322A3E0F9850882850943
:103F4300832274EE12036A8A0A8B0BECFEEDFF7573
:103F53000F01E9C39408500579000241388E828F1E
:103F630083E9F012439EE96003750F001243828ECA
:103F7300828F831243CCEE124D0AEF1243C1C0E08D
:103F8300EE2411122903D0E01243B9C0E0EE24124B
:103F9300122903D0E0123A227408124DC4A3A3A33A
:103FA300E0601512436AEE2413F582EF1245D48EB6
:103FB300828F83A3E02408F08E828F83A3A3A3A31D
:103FC300A3A3A3A3E060218E828F83A385820885A8
:103FD30083091243ADEE2415F582EF1245D485080B
:103FE30082850983E02408F08E828F83A3A3A3A391
:103FF300A3E0601A8E828F83A385820885830912CA
:1040030043918E828F83A3A3A3A3A312415DEE24C6
:1040130019123A0FEE241B123A0FA3124618E0703E
:10402300030240CCEE2419F8EF3400F98E828F831B
:10403300A3858208858309E0FAE50A2AF582E50B60
:104043001229D38882898312415DFAE50A2AF5820F
:10405300E50B1229D3C0E0EE241A122903D0E01293
:10406300415D88828983E06059F8901EE9E493C337
:1040730098500575110C8008EE24191229D0F511FA
:104083008E828F83A3E0F8E50A28F50CE50B124135
:10409300411207D9E511C333FCE433FD7A757B097B
:1040A30012413B120825EE241B1229037475F0A359
:1040B3007409F0E511C333F8850882850983E02884
:1040C3008006EE2418125275F08E828F83A3E0F8D7
:1040D3008E828F83E0C3985003023F5BA3E0FA8A8A
:1040E30008E50A2508F8E50B3400F9EE241DF582EE
:1040F300EF1246E012416DC39AC0E0EE2417122975
:1041030003D0E01245DD602BEE2417F8EF3400F9FD
:10411300880889098882F583E024F21246C1240EB7
:10412300FAA3E03400FB8882898312456412414B71
:10413300C398F0A90F023E3D1211137403223400F9
:10414300F50D750E00780C2290034AE0F91219DD83
:10415300E9F8850882850983E022F08508828509CC
:1041630083E004F022A3A3A3A3A3F08E828F83E0B2
:104173002274F412036A8A088B09EA124202F0EAF3
:104183001313543F1241FBA3A3A3F0EAC413131266
:104193004202A3A3F0EB1241F412420C7409780A11
:1041A3001209F81241F212420B740A780A1209F842
:1041B300E50A5401C0E0EC2418F582ED122906D07B
:1041C300E0124211740B780A1209F81241F2A31299
:1041D300420B740C780A1209F81241F2A3A3A3A3A9
:1041E300A3A3A3A3F0740D78081209F8022532E5FE
:1041F3000A54018C828D8322540F8C828D83225426
:10420300038C828D83A3A322A3A3A3A3A3A3F08AD6
:104213000A8B0B22C082C08379008A828B83A3A37B
:10422300A3A3A3A3E0900349600FE070228A828BCB
:1042330083A3A3E07019098016E060138A828B833D
:10424300124932900352E06A7003A3E06B70E702F5
:104253003B0E74F012036A8A0A8B0B890C8C088D4F
:104263000912439E1243828508828509831243CC37
:10427300E508124D0AE5091243C1C0E0E50824111F
:10428300F582E509122906D0E01243B9C0E01230E5
:1042930004122906D0E01246E8740812470160119F
:1042A30012436AE50824131246DC1246E8E02408A8
:1042B300F0850882850983A3A3A3A3A3A3A3A3E0F3
:1042C3006017850882850983A31243A9E50824158D
:1042D3001246DC12416D2408F0850882850983A308
:1042E300A3A3A3A3E06019850882850983A3AE82F3
:1042F300AF8312439185088285098312416804F0D4
:10430300AA08AB09120CC9E9F50D70568508828518
:104313000983A3A3A3A3A3A31243757014E0FA8A8A
:104323000EE50A250EF8E50B1245C9E50CC39A8084
:10433300211243A9E8240EF8E91245C990034AE083
:10434300F91219DD8E828F83E0F8E50CC39824F20D
:10435300C399C0E0E5082417F582E509122906D0C0
:10436300E0F0A90D024CF9E50A2408F8E50B340046
:10437300F92212437922E0850882850983A32285E5
:104383000A82850B83A3A31243E2E0F9EA22E0F851
:10439300E50A28F582E50B1245F0228A828B831207
:1043A3004CFE120CC322AE82AF83E0F8E50A28F874
:1043B300E50B3400F9221243F5A3A3A3E02212373D
:1043C3005BE81243EEA3A3E022A3A3A3A3A3A3A3A7
:1043D300A3A31243EE1243E2A3A3E0F9EAF822E017
:1043E300FA850A82850B83A3A3A322F0A3E91243D0
:1043F300F522F0850A82850B83A3A3A3A322C0829F
:10440300C0837AC17B0379E21218ED7AC17B030280
:104413003B0EC082C083900352023B0BC082C08319
:1044230074FE120870851882851983AA82AB83797A
:104433004B12443F12493B7402023AE41218ED85D1
:10444300188285198322C082C083794A1218ED022B
:104453003B0E74F612036A9003C9E0FE04F0EEF912
:10446300120C7B8B09EA450970EDEE60EAF902450F
:104473009574F012036AEAFEEBFF8C088D09890A32
:104483007410120A46E0F50B7411120A46E0F50C9B
:10449300120D9BEA4B7013E50C7042A90AAC08ADF0
:1044A30009EEFAEFFB120DB3806EE50A6021EA24F0
:1044B30002F582EB1229D3850A082508F8E43400B3
:1044C30013E813F070098A828B83A3A37401F0E5C8
:1044D3000C6045E50B70068A828B83E4F0740165FA
:1044E3000C7035E50B9003D07004E4F0802AE004EF
:1044F300F0900AB7E0F89003D0E0C398401AE4F0D4
:10450300900355E06E7003A3E06F700CEEFAEFFBBF
:104513007901120B1F12451E024CF97A017B0090A0
:1045230003ACE0F912126F22C082C08374016A7077
:1045330001EB70077A011245558012900AAE1245BD
:1045430064EA4B60051222AE800312451E023B0E45
:104553007A207B009003ACE0F9121167223400F556
:1045630083EAF0A3EBF022C082C083900AB0023149
:104573000EC082C083900AB202310E12500C22EE9A
:10458300240CF582EF3400F583123B05E84922122F
:1045930008257F02020595A2F0E433851882851968
:1045A300831245B679521218F3221245B679421294
:1045B30018F322F0AA82AB8322AA08AB099003ACBA
:1045C300E0F912113D223400F9E508241DF582E5D6
:1045D3000912375BE8F0A3E9F022124DC8A3A3E068
:1045E30022A3F0EE24151245ED22F582EF3400F5F7
:1045F30083E0221245FA223400F583E0F8A3E0F9C0
:104603008882898322E0F812460E22A3E0F98E8283
:104613008F83A3A322F0EE241812375822F0EE243E
:10462300161237582274F412036AEAFEEBFF7A007B
:104633007B041245221246B71245D79003617409D1
:10464300F0120CD58A088B09AC08AD09EE241312BD
:10465300290312493B12480B640170487A0F124632
:10466300AA60418A828B8374021246C1FAA3E0FBDB
:104673008A828B83A3E0FC8A828B83A3A3E0FBEC77
:10468300850882850983A3A31245658882898312DD
:10469300493F123F331245E4FAA3E0FB794A12186B
:1046A300F31245BC0229C87B001211318A088B0919
:1046B300EA450922900332123B05900AB222F0EE3A
:1046C300241DF8EF1246CB22123C46E0221246D4B8
:1046D300223400F5837401F022F582E50912375B79
:1046E300E8F0A3E9221246EC221246F022F08508F4
:1046F30082850983A3221246F0A3A3A3A322124611
:10470300F9A3A3E022124B12120D2922EE2417F56E
:1047130082EF1246D4120CD5EE241A123758EAF05F
:10472300A3EBF02274F412036A74F312087089087D
:10473300EAFEEBFF7C0D7D007900851882851983E5
:10474300AA82AB8312111FEE241D122903124FFDFF
:10475300A3E0F8741F58600A7901121893790002D4
:104763004802E8A2E55008740C120A467401F0E806
:10477300A2E75008740B120A467401F0E8A2E6742B
:104783000A5008120A467401F08008120A46E064CF
:10479300017005EE24138003EE2415124E3A7402C1
:1047A300120A46AA82AB831218AB122900124810D0
:1047B3001245D7740A120A46E0640170331222E1EB
:1047C300703B120CE18A0A8B0BA80AA90BEE240B8F
:1047D3001229D0687003A3E0697022120CD5EAFC99
:1047E300EBFD7402120A46AA82AB8312480B600DDA
:1047F300851882851983AA82AB83120B19A90874C1
:104803000D0229C5EEFAEFFB1218A5E922E01248C2
:104813001522F8A3E0F98518828519832274F6120C
:10482300036A74F31208708A088B09ECFEEDFF7CAF
:104833000D7D007900851882851983AA82AB8312C6
:1048430051A2A3A3A3A3A3A3A3A3A31248AA124859
:10485300B3F8A2E55008740B120A467401F0E8A2FB
:10486300E75008740A120A467401F0E8A2E6EE5013
:1048730004241380022415124E3A7402120A4612BB
:10488300489CA3A3E0C0E0740C120A46D0E0124B8C
:104893000A120B13740D024592AA82AB831218AB52
:1048A30085088285098322E0124815E8F0A3E922EE
:1048B300F0123755125001A3E02274F712036A7401
:1048C300E1120870EAFEEBFF8E828F8312493FA349
:1048D300A3A3E0A2E050518E828F831224418A82E7
:1048E3008B83A3A3A3A3A3A3E054FE1249578A82F5
:1048F3008B83124950E0F98A828B83E0241CFAA34C
:10490300E012337112493B120CCFE9701B741D1274
:104913000A4612494A7011851882851983AC82AD03
:1049230083EEFAEFFB120D17024B7C8E828F83A36B
:10493300A3A3A3A3A3A3A3A31229BE221249432281
:10494300125005A3A3A32212378D640422E0241B73
:10495300123C3F22123AEDAC82AD8322E9F8790092
:10496300740468600A740A68600574036870010956
:104973000207A174F612036A8A828B837420F0A360
:10498300A37401F0120AC58A088B09AE08AF09EEB9
:104993004F60108E828F837401F090039FE0700349
:1049A30012470FEEFAEFFB024595C082C0839003D6
:1049B300B57401F0E9A2E350037403F0E9A2E150F6
:1049C30004E0D2E2F0023B0E74F612036A79007C33
:1049D300008A088B0978081205DBF8FF07FE49FCFB
:1049E30049FC49FC49FC49F549F949FE49F2490C9E
:1049F30080097C0480050C80F67C089003B5E05C9C
:104A03006003098003EC60010902459574F6120303
:104A13006A8A828B83E07012A312458C600C8A82AF
:104A23008B8312493A1219BF80047A007B00024536
:104A33009574F512036A74F31208708A088B09ECF3
:104A4300FEEDFF750A12EA450970057900024B0372
:104A5300900352E065087004A3E065097014120C1A
:104A6300D5EAFCEBFD1248077005750A0180037552
:104A73000A00851882851983E4F004120A46E508C2
:104A8300F0A3E509124B0A120A89E960277403129D
:104A93000A46AA82AB83120A6BE964017016750A8F
:104AA300017403120A46AC82AD8312480760217574
:104AB3000A00801C7412650A701690039EE064025B
:104AC300700EEEFCEFFDAA08AB09120AA1E970DF34
:104AD300EEFCEFFDAA08AB09120DA1E9F8740A6810
:104AE3007005750A01801774A0687012EEFCEFFD63
:104AF300AA08AB09120DADAA08AB09120DBFA90A8A
:104B0300740D02550A7402124B0E22124B1222121A
:104B13003AEDAA82AB832274F712036AEAFEEBFF33
:104B23008E828F83A3A3A3A3A3A3A3A3E06015EE05
:104B330024151229031229AE120D41E964017004F0
:104B4300790180258E828F83A3A3A3A3A3A3A3E0CC
:104B53006015EE2413122903124B6EFAA3E0FB1225
:104B63000D41E9640160D97900801312345DA3A378
:104B7300A3A3A3A3A3A3A3E022741F1208257F0169
:104B830002059574F012036A74FD1208708A088B8B
:104B930009ECFEEDFF890B7413120A46E0F50C7560
:104BA3000A017401120A4674041250356048E50C78
:104BB300601DEA2417F582EB1252781250238A8281
:104BC3008B83E0D2E7F0EA2414F582EB123A121257
:104BD3004D09EB1245F6740312559BEE88828983C7
:104BE300A3A3F0EF88828983A3A312350712350E9E
:104BF300120ABFE9F50AA90A7403024CF674EC120F
:104C0300036A74F51208708A0A8B0B890C8C0E8D5B
:104C13000F741F120A46E0F50D7420120A46E0F5E0
:104C230010A3E0F5117E01EE120A46740AF0E97052
:104C330007E50DC333240AF0124DDB7003024CDD8C
:104C4300124DF07409F0A3E50CC43354E0450D1282
:104C53004E02E50C702D7C008023ECC333F8E43363
:104C6300F9E51028F8E51139F988828983124CEAAD
:104C730088828983122C20F0A30EAF830CECC3959A
:104C83000D40D7E5082417F582E5091246D0120C2A
:104C9300D5E508241AF582E5091245607403120A62
:104CA30046AC82AD83AA0AAB0B120A71E96019E51F
:104CB300082416F582E509124CE4120A46A882A9D3
:104CC30083E50824181245D0850882850983125587
:104CD30097AA08AB09120ABFE9FEEEF9740B024D5D
:104CE300D31246D4740322E08E828F83F0A3AE8264
:104CF300AF83221208257F080205951237B5F9EA1A
:104D03002400E439FB22EA240BF5822274EE120319
:104D13006A8A0C8B0D890E8C088D097412120A464F
:104D2300E0F50F7413120A46124DBC90050B1245A1
:104D33008C6077E50FC333F8E433F9E8240EFAE91E
:104D43003400FB1211318A108B11AE10AF11EE4FEC
:104D530060588E828F8374D4F0A3A3E50CF0A3E58F
:104D63000D124DC4E50EF0AC08AD09EE2405FAEFC3
:104D730012503EEE240D122903E50FF0850A088533
:104D83000B09750A0078081207D9E50FC333FCE451
:104D930033FDEE240EFAEF124DB3120825EEFAEFAF
:104DA300FB90050B124FFD121A84023E3DFAE509F2
:104DB3003400FB121113740322E0F50AA3E0F50B90
:104DC30022124DC822124DCC22123A26A3A3A322AB
:104DD3001208257F0C020595851882851983AA82FE
:104DE300AB83120D298A088B09EA450922EA240BB1
:104DF300F582EB1245F0FEA3E0FF8E828F8322F053
:104E0300A3AE82AF83AC0EAD0FEEFAEFFB124E14DE
:104E1300221218AB124E1B22EE2408FEEF3400FFC1
:104E230022E0FA8E828F83A3A3E022FEA3E0340064
:104E3300FF8E828F83E022123758124E4122E0FC0C
:104E4300A3E0FD221229BE120CBD2274F612036ADE
:104E5300EAFEEBFF9003B6801388828983E06E70CD
:104E630003A3E06F603A88828983A3A312458C7001
:104E7300E87A047B001211A98A088B09A808A909FA
:104E8300E849601C88828983124EAA9003B61249AE
:104E93003B88828983A3A31245649003B61245D746
:104EA3000245958A828B83EEF0A3EFF02274F4120D
:104EB300036A7E009003B680070E88828983A3A3CA
:104EC30012458C70F4EEC333FAE433FB124F58608F
:104ED3007E7F009003B6802488828983124E3DEF43
:104EE300C333FAE433FBE5082AF582E5093BF5838E
:104EF300ECF0A3EDF00F88828983A3A312458C7095
:104F0300D79003A712231B7003A3E06978087019D5
:104F13001207DDEEF50A780A1207E17C737D037947
:104F2300009003A7124F63801A1207DDEEF50A788B
:104F33000A1207E17C737D0379009003A712493BB2
:104F4300120D537403120825AA08AB091211AF12EC
:104F53000AD70229C81211A98A088B09EA4509222E
:104F63001229BE120D5922C082C08380128A828BFD
:104F730083A3A31237669003B61245D71211AF90DD
:104F830003B612367670E6023B0E74F612036A908D
:104F9300035F1237929003CA124FEC1245D77ACAB5
:104FA3007B0379501218F39003CA12253AFAEFFBE8
:104FB300120DB99003CA12379290050D12458C60F9
:104FC300257A067B00121131EA4B601A8A828B83A1
:104FD30074D5F0A3A3E41250120412502390050DCC
:104FE300124FFD121A84024595124FF022E0F8A3E6
:104FF300E0F990035F228E828F83125001221250B8
:105003000522E0F812500B22A3E0F58388822212D6
:1050130050162212501A22F08A828B83A3A3A32252
:10502300125016A3EEF0A3EFF022F582EF1245F033
:10503300F922124708EA4B22FAE5093400FB121859
:10504300AB2212460FA3A3A3A3A3A3A322901EE103
:10505300E4932401F8E43400F97A027B002274F724
:1050630012036A7E00800412564E0E12517240F7EC
:105073007E00EE12508D74FEF0A3041250A2E4F0F1
:105083000EEEC3940340EB024B8175F003A4F8A921
:10509300F074B828F8740339F988828983A322123B
:1050A30050A622F0888289832274F712036A7F0054
:1050B30080010F901EDEE493F8EFC3985026EF12A1
:1050C300525E6A7003A3E06B70E81255FB6C7003C9
:1050D300A3E06D600A74FF6C700374FF6D70D312EC
:1050E300516980047A007B00024B8174F612036AD3
:1050F3007CFF7DFF7AFE7BFF120D7DEA4B704075CE
:1051030008008036E50875F017A4F8A9F074102894
:10511300F5827408125270600C740F28F5827408BB
:105123001252707013740128FE740839FF8E828F37
:105133008312527DEEFAEFFB05081251D840C502E7
:10514300459574F412036A8A088B09ECFEEDFF801F
:105153000B120D8FEEFCEFFDAA08AB09120D7DEAD1
:105163004B70EE0229C8740128FA740839FB2290A7
:105173001EDEE493F8EEC3982274F712036AEAFE84
:10518300EBFFEE4F601012519C74FEF0A304125516
:10519300A114F0A304F0024B817C177D0079001267
:1051A300111F8E828F832274F712036AEAFEEBFFCC
:1051B3007508008018E50875F017A4F8A9F01256D1
:1051C300067003A3E06F600312565605081251D808
:1051D30040E3024B81901EDEE493F8E508C3982276
:1051E30074F612036A120D7D8A088B09A808A909AF
:1051F300E849600AE8240DFAE93400FB80047A00E8
:105203007B0002459574F412036A8A0A8B0BECFE49
:10521300EDFF750800750900802EE50975F017A4E8
:10522300F8A9F0125641601EE50912525E650A7034
:1052330004A3E0650B700375080AEEFCEFFD12543E
:10524300FD60034308A00509901EDEE493F8E50919
:10525300C3985004E50860C202253275F017A4F81C
:10526300A9F012526922740128F582740839F58372
:10527300E022F582EF12375BE4221229BE120BB54E
:10528300221250A6A3A3A3A3A3A3A3A32274F2123F
:10529300036A8A088B09ECFEEDFF740E120A4612AC
:1052A3004DBC750C007C007D01801012112BE50CA8
:1052B300F5F0EA84ACF0750C007D0078007900808D
:1052C3000312543A125496400302535CE8FAE9FB82
:1052D300EA75F017A4FA85F00D75F017EBA4250D08
:1052E3001254727003A3E0F460D71254506508702F
:1052F30004A3E0650960CA1254506E7003A3E06F03
:1053030060BF125450650A7004A3E0650B60B2E8F5
:10531300FAE9FBEA75F017A4FA75F017EBA4250D6B
:10532300FB740F2AF5827408125431509474016D82
:10533300050C608DE50CC39C4087E875F017A4F855
:10534300AAF075F017E9A42AF9740128F582740804
:1053530039F58312493B02542E78007900800312F9
:10536300543A1254A34003025415E8FAE9FBEA75D0
:10537300F012A4FA85F00D12548264FE7003A3E0C8
:10538300F460DC12547865087004A3E0650960CF0B
:105393001254786E7003A3E06F60C4125478650AE8
:1053A3007004A3E0650B60B7E8FAE9FBEA75F01255
:1053B300A4FA75F012EBA4250DFB74902AF5827400
:1053C300061254315099E8FAE9FBEA75F012A4FA8F
:1053D30075F012EBA4250D12544364016081E0645F
:1053E30002700302536274016D050C700302536271
:1053F300E50CC39C5003025362E875F012A4F8AAAB
:10540300F075F012E9A42AF9748728F5827406026C
:105413005353E50C6011EC700E7401650C600302CC
:1054230052AE7C010252B97AFE7BFF0223273BF581
:1054330083E014C3940622E8240108E93400F92226
:10544300FB748B2AF58274063BF583E022E8FAE9C4
:10545300FBEA75F017A4FA75F017EBA4250D1254A7
:105463006522FB74012AF58274083BF583E022125E
:10547300546564FE22E8FAE9FBEA75F012A4FA75B2
:10548300F012EBA4250DFB74872AF58274063BF515
:1054930083E022901EDEE493FAC3E89AE9940022A3
:1054A300901ED9E493FA740193FBC3E89AE99B2213
:1054B30074F512036A8A088B09ECFEEDFF750A0086
:1054C3008002050A901EDEE493F8E50AC39850288B
:1054D300EEFCEFFDE50A75F017A4F8A9F01254FDF0
:1054E30060E0E50A75F017A4F8A9F0740128F582C5
:1054F300740839F5831235108010740328FA740880
:1055030039FB1218A5E9221208257F0302059574B9
:10551300F012036A8A088B098C0A8D0B890C120D11
:10552300838A0E8B0FAE0EAF0FEE4F605512519C58
:10553300E508F0A3E5091255A1125599E50C600A97
:10554300EE240F122903E50C8006EE240F12559169
:10555300F09003CC12458C601A9003A6E0640170AE
:1055630008EE240E1252758010EE240E12290374D5
:10557300078006EE240E125591122E5612021912AE
:105583005588024CF9EE240D123758E8F0221237F1
:1055930058740122A3A3E50AF0A3E50BF02212330A
:1055A30087A32274F512036A8A088B09ECFEEDFFC8
:1055B300750A00800F1256067003A3E06F60031292
:1055C3005656050A901EDEE493F8E50AC398502563
:1055D300E50A75F017A4F8A9F01255FB65087004E5
:1055E300A3E0650970CF740B28F582740839F5833D
:1055F300124EAA80CD02550D740B28F58274081241
:10560300527022740B28F58274081252706E227441
:10561300F712036AEAFEEBFF7508008019E508122A
:10562300525E6E7003A3E06F700A1256417005E577
:105633000812564F05081251D840E2024B817403F9
:1056430028FA740839FB120A6BE922EE75F017A4E5
:10565300F8A9F0125169120D8F221250A6123B05C0
:10566300E84922C082C08374F812087085188285C5
:105673001983AC82AD8375838075823C74081207ED
:105683003C851882851983AC82AD8312480B640173
:1056930070047900800279017408023AE4126A34D2
:1056A300F9EA22E0F508E4F509F50AF50B22740995
:1056B3001208257F04020595EE2412FAEF3400FB4D
:1056C300120F3FE9227905120F4B740422E024F5EF
:1056D300C39412221256DB2212160B8A0C8B0D8CEA
:1056E3000E8D0F2212102F9006521271D07A147B56
:1056F3000022FB125700E8F0A3E9F0EE221257084C
:105703008A828B83228A828B83E024FFF8A3E0348E
:10571300FFF922EE240E127426740122125760122E
:1057230008257F0802059512575AA2E5221274290B
:10573300E4F0227F05020595E508126D6FE5091275
:10574300575A227AD17B0312115B740222125754E7
:1057530022EE2410F582EF3400F583E022121023A9
:10576300740422F582EF12575AF822EE240DF582C3
:10577300EF12575A640122E0FEA3E0FFEE4F22F539
:1057830082EF12575A22FAEF3400FB79E112170D18
:1057930022F0EEFAEFFB22EE240EF582EF127429CB
:1057A30022F0A3F0025EEFF582EB12575AFA2212AF
:1057B300082502634AC082C08374FE120870800702
:1057C3007AD17B031257F69003D11267DA70F19006
:1057D30003D31267DA60097AD37B031257F680EF9B
:1057E3009003D1E4F0A3F09003D7F0A3F0A3F074F7
:1057F300028016121155851882851983EAF0A3EBEE
:10580300127A0D120F2D227411120825025EEF7405
:10581300F612036AE9FF8F0874911268F9741E1275
:1058230068FEFE8E08FA7B00121131EA4B6017EA1C
:105833002508F8EB3400F98A828B831272B9A3A38B
:10584300A3A3E4F080227A027B00121131EA4B60B9
:10585300138F08749C1268F9741E125BD9F0A37439
:105863001A125BEE7A007B00027374E9FDEAFC74A2
:10587300062DFAECA2E0501EEA75F00A84A8F0E8BF
:105883006014740A2AC398FAE8C394054004740A9E
:105893002AFA740B2AFAEDC3941340047814800295
:1058A3007806E82A2409F8E43400F97A0A7B00121E
:1058B3000219E8F90207A1C082C083900401E054F1
:1058C30002600A12192FE96004790180027900024B
:1058D3005EEFC082C083900401E054026014900321
:1058E300D7E0700A1267D760091258FA5004790199
:1058F30080027900025EEF9003DAE02410125DC9A2
:10590300A2E722C082C083908061E0F89003D9E0CF
:10591300C398500512113180047A007B00025EEFB8
:10592300C082C083120F2D7900025EEFC082C08354
:1059330074FE120870851882851983125A95600DBA
:1059430014606524FE70030259CF025A599006323F
:10595300E0640F6018120F03E9701285188285192D
:1059630083126A2F900A85125E50121A8490065A87
:10597300E0C0E08518828519831264F2D0E0125AE0
:105983007BF8125A697414125A7BFCA3E0FD7AD394
:105993007B0312114FE5A8F8C2AF9003D9125A8CBA
:1059A3007920120EEB0257F2120EF7E98518828561
:1059B30019836011125E50740D125A7BFAA3E0FB37
:1059C30012192980E0125E50741580BB125DCF70EE
:1059D30003025A5985188285198312734AC0E0124B
:1059E3005A6ED0E0125A7B2402F8125CC02401FAEA
:1059F300A3E03400FB88828983125A9514C3940967
:105A03005020125DCFFA851882851983A3127C3446
:105A1300A3A3A3E0F874C528F582741E1268FE6A76
:105A2300600F125A6EE06408702C125DCF64087028
:105A330025851882851983E0F8125DD514125A99C9
:105A4300240AC0E0851882851983125A69D0E012AE
:105A53005A990402598A851882851983AA82AB83CD
:105A6300120F2D0259A8A3125E5B22851882851995
:105A730083127C41A3A3A322125A7F22127AFDE050
:105A830022E5A8F8C2AF9003D8E004F0E8A2E792B9
:105A9300AF22EAF0A3EB125A7FF8125DDAA3E022F9
:105AA300C082C0839003DC1267DA6008125A6A125C
:105AB3001A8480027900025EEF74F712036AEAFE29
:105AC300EBFFEE240D125719F0EE242F125782C06C
:105AD300E012579AD0E0F0EE2430125782C0E0EE85
:105AE300241212579DD0E0127080C0E0EE241312EE
:105AF300579DD0E0F0EE242B12579D120664EE243E
:105B030022FCEF3400FDEE242D125782F9126E773A
:105B1300120825E97007EEFAEFFB120E3102634A11
:105B2300C082C083120F03E96004792080027901E7
:105B3300025EEFC082C083EA126D66E0D2E00257D4
