:020000040000FA
:060000000209D90201BD56
:03002B000207B910
:030033000206AB17
:030053000200EBBD
:03006B00020691F9
:10008300020152010101050301630F630F630F6353
:100093000F190E130E630F561C00000000B81C004E
:1000A3000000000C0000000C0001FFFF010100F63E
:1000B300040000004805E80364006400B80102027C
:1000C3000008000005020701051E02051E020A0AB8
:1000D30003B80B02803E010201F1FF020A1401E0A2
:1000E3009651180002020612C0E074F2120441A2F3
:1000F300AFE433FED2AFE5A7FFE5A1F5085F5410E7
:1001030060061215F975A1EFE5085F54086008123F
:1001130015FF75A1F7802BEFA2E0C0D0E508A2E0A0
:1001230092F0120926158182F05017906198E0F839
:1001330090061AE0C398A2D265D0335002E8F07556
:10014300A1FE751A00EEA2E092AF7F010204A0C0E7
:10015300E074F2120441A2AFE433FED2AF9061A483
:10016300E0F8759B00E59158540860087591F71203
:100173001647802AE59158541060087591EF1216BE
:100183004D801BE8A2E0C0D0E591A2E092F01209F5
:1001930026158182F05007E0C2E0F012179D9061AE
:1001A300A3E0F8E5E9585404600E12177375E9FBF0
:1001B300906193E0A2E640F28088C0E074F21204FA
:1001C30041A2AFE433FED2AF9061A5E0F8E5BF589A
:1001D3005404600675BFFB1217B5020145C3E498CA
:1001E300F8E499F91202218026C3E49AFAE49BFB0E
:1001F300E920E7E9120221E498F8E499F922C3E43B
:1002030098F8E499F9120221E498F8E499F9C3E41F
:100213009AFAE49BFB22EB20E7CFE920E7E0B90061
:1002230010BB0008E88AF084F8AAF022E4FBC8FABD
:1002330022EB70227B10C833C8C933C9335007C3BC
:100243009AC3DBF280069A50012ADBEAC833F4C86A
:10025300C933F4C9FA2275F008E4C833C8C933C9ED
:1002630033C99AC99B5004C92AC93BD5F0ECFBC8D2
:1002730033F4C8E4C9FA22080808EAC0E0EBC0E096
:1002830086F0E7A4FA180986F0E7A42AFA18098683
:10029300F0E7A42AFA180986F0E7A42AFA1986F0E7
:1002A300E7A4FBE5F02AFA190886F0E7A42BFBE59F
:1002B300F03AFA190886F0E7A42BFBE5F03AFA18AE
:1002C300180986F0E7A4C5F02BFBE43AFA1908E70E
:1002D300C5F0C6A426F6E5F03BFBE43AFA1886F02F
:1002E300E7A4F6E5F00826F6E43B08F6E43A08F658
:1002F300D0E0FBD0E0FA22E4CFC0E0E4CEC0E0E4FB
:10030300CDC0E0E4CCC0E075F020C3E633F608E6E8
:1003130033F608E633F608E633F6181818EC33FC20
:10032300ED33FDEE33FEEF33FFC3EC9709ED970991
:10033300EE9709EF97191919400FFFEC97FC09ED98
:1003430097FD09EE97FE191906D5F0BEECF709EDF6
:10035300F709EEF709EFF7191919D0E0FCD0E0FD22
:10036300D0E0FED0E0FF222518C582C0E0E51934B5
:10037300FFC583C0E0E518C3958224F810AF088554
:1003830083198582188008858319858218D2AFCE98
:10039300F0A3E520F0A37808E608F0A3DEFAEFF077
:1003A300A3E58124FAF8E608F0A3E608F0A3E6083B
:1003B300F0A30808E608F0A3E608F0A31581158169
:1003C300D0E0FED0E0F8158115811581E8C0E0EE9C
:1003D300C0E022120A3BB9000302042BE49003019C
:1003E300787C79088002F0A3D8FCD9FA781A9000B7
:1003F300867A01BA00028007E493A3F608DAF9903B
:100403000A7CAA82AB83900087786579018015E422
:1004130093A3AC82AD838A828B83F0A3AA82AB833E
:100423008C828D83D8E9D9E77582777583D7740277
:1004330012079B75825B75831A740012079BC0D0E9
:100443002518C582C0E0E51934FFC583C0E0E5186F
:10045300C3958224F310AF08858319858218800819
:10046300858319858218D2AFC8F0A3E9F0A3EAF017
:10047300A3EBF0A37908E709F0A3D8FAECF0A3ED16
:10048300F0A3EEF0A3EFF0A3D0E0F0A3D0E0F0A34D
:10049300D0E0F0A3E520F0A3E5F0F0A322851983D3
:1004A300851882E0C0E0A3E0F9A3E0FAA3E0FBA390
:1004B3007808E0F608A3DFFAE0FCA3E0FDA3E0FE82
:1004C300A3E0FFA3E0C0E0A3E0C0E0A3E0F5D0A376
:1004D300E0F520A3E0A3F5F010AF0885831985822A
:1004E300188008858319858218D2AFD082D083D033
:1004F300E0F8D0E03275F0108E218F2285822685B8
:100503008325851882851983E0CEA3E0CF852682D3
:10051300852583EBC9EAC8EDCBECCAC3E833C8E948
:1005230033C9EA33CAEB33CBC3EA9EF524EB9FF519
:1005330023B35004AB23AA24EC33CCED33CDD5F055
:10054300DAAE21AF2222D083D082ECC0E0EDC0E04E
:10055300E493A3FCE493A3FDED4C600D120621ECA0
:1005630024FFFCED34FFFD80EFE493A3FCE493A3AD
:10057300FDED4C600D1206EFEC24FFFCED34FFFDA6
:1005830080EFD0E0FDD0E0FCE493A3C0E0E493C0AF
:10059300E022851983851882E0A3FEE0A3F5207885
:1005A30008E0A3F608DFFAE0A3FFE0A3C0E0E0A3BE
:1005B300C0E0E0A3C0E0E0A3C0E0E0A3C0E010AF70
:1005C300088582188583198008858218858319D246
:1005D300AFD083D0820207A1D083D082E9C0E0E408
:1005E30093A3C386F0C5F095F0F908E493A386F0CE
:1005F300C5F095F0700BE493A3C3994005E904801B
:1006030002A3E475F002A42582F582E5F03583F5B3
:1006130083D0E0F9E493A3C0E0E493C0E022C0E018
:10062300C3E49396087401939618400FE49366709D
:100633000808740193661870007019A3A3C3E493A8
:1006430096087401939618A3A3400DD0E0D0E0D090
:10065300E0020585A3A3A3A3A3A3D0E0227404808F
:100663000474028000CCC0E0EDC0E0E518C39CCC6C
:10067300AD1950011D10AF068C188D1980068C180A
:100683008D19D2AF12073CD0E0FDD0E0FC22C0E0D0
:1006930074F2120441E589A2E150031214F775893B
:1006A30000C2C57F010204A0C0E074F2120441E558
:1006B3008BA2E050031214F7758B00C2E880E47438
:1006C300028000CCC0E0EDC0E0E518C39CCCAD19BE
:1006D30050011D10AF068C188D1980068C188D19CA
:1006E300D2AF12071AD0E0FDD0E0FC22C0E0C0F088
:1006F30088F0E4936670080874019366187000A884
:10070300F0A3A3700BD0F0D0E0D0E0D0E0020585D9
:10071300A3A3D0F0D0E022CAC0E0E493A3C582CC67
:10072300C582C583CDC583F0A3C582CCC582C583ED
:10073300CDC583DAE5D0E0CA22CAC0E0E0A3C58212
:10074300CCC582C583CDC583F0A3C582CCC582C584
:1007530083CDC583DAE6D0E0CA22C008C3E096F5AC
:100763000808A3E096420808A3E096420808A3E01D
:100773009645087001D3D008227009080808226042
:1007830016181818C6C333C608C633C608C633C6F8
:1007930008C633C6D5E0EA22C09FF59FE473D09F15
:1007A30022D083D082C09FE493C0E0740193C0E061
:1007B300740293F59F22C0E0C0D0E8C0E0E5A8D260
:1007C300AFC2C7751A00A2E792AFD0E0F8D0D0D07D
:1007D300E0327404800A7403800674028002740198
:1007E300C0E0F4041207F0D0E0120A16222518F52F
:1007F3008210AF08F518400215198008F518400259
:100803001519D2AF85198322BB0102E722C082C02A
:100813008389828A83BB0003E08002E493D083D080
:100823008222C0D0251810AF08F518500205198090
:1008330008F51850020519D2AFD0D0226016080867
:1008430008C6C313C618C613C618C613C618C613DC
:10085300C6D5E0EA22C3E0C696F608A3E0C696F63C
:1008630008A3E0C696F608A3E0C696F6222518105C
:10087300AF08F518400215198008F518400215193C
:10088300D2AF22E066701008A3E066700A08A3E006
:1008930066700408A3E06622C3E09608A3E0960806
:1008A300A3E09608A3E096A2D265D03322E7667050
:1008B300100809E766700A0809E76670040809E783
:1008C3006622C3E697F60809E697F60809E697F65F
:1008D3000809E697F622C3E096F008A3E096F0082D
:1008E300A3E096F008A3E096F022E627F60809E6CF
:1008F30037F60809E637F60809E637F622E026F068
:1009030008A3E036F008A3E036F008A3E036F022AF
:10091300700422600D18C6C333C608C633C6D5E0BB
:10092300F41822C0E0E8C0E0E58124FCF8E6A2E781
:10093300D0E0F8D0E022E657F60809E657F60809B2
:10094300E657F60809E657F622E056F608A3E056FE
:10095300F608A3E056F608A3E056F622E056F008A0
:10096300A3E056F008A3E056F008A3E056F022E611
:1009730047F60809E647F60809E647F60809E64791
:10098300F622E026F608A3E036F608A3E036F608DA
:10099300A3E036F622E4C396F608E496F608E49656
:1009A300F608E496F622C6F4C608C6F4C608C6F4EA
:1009B300C608C6F4C622C3E7960809E7960809E7FE
:1009C300960809E79622C3E09608A3E09608A3E0F9
:1009D3009608A3E0962275D00075814075180175BD
:1009E3001903000203D6E0F608A3E0F608A3E0F635
:1009F30008A3E0F622600C08C6C313C618C613C6C4
:100A0300D5E0F422E6F008A3E6F008A3E6F008A395
:100A1300E6F022CAC0E0E6F0A308DAFAD0E0FA2250
:100A2300E0FAA3E0FBA3E0FCA3E0FD22EAF0A3EBE2
:100A3300F0A3ECF0A3EDF022E5C754F84401F5C7A9
:100A43007901222518F582E43519F58322C2AF75A1
:100A5300D69F020000221207A400A5011207A4A436
:100A6300A5011207A4F8A5011207A411A6011207F4
:100A7300A437A6011207A472A6011207A4B6A60101
:100A83001207A4DDA6011207A42EA7011207A4DEF4
:100A9300A7011207A496A8011207A45EA9011207D1
:100AA300A43BAA011207A4C1AA011207A4D0AA0158
:100AB3001207A4DBAA011207A4E4AB011207A4F5F1
:100AC300AB011207A46BAC011207A4FDAC01120722
:100AD300A455AD011207A41BAE011207A44CAE012D
:100AE3001207A491AE011207A49EAE011207A4320D
:100AF300B0011207A495B1011207A4B1B201120704
:100B0300A41BB5011207A426B5011207A430B50131
:100B13001207A43BB5011207A445B5011207A44F60
:100B2300B5011207A45AB5011207A465B50112074E
:100B3300A496B5011207A4BAB5011207A4DEB50144
:100B43001207A443B6011207A487B6011207A4A390
:100B5300B6011207A41AB7011207A452B70112076C
:100B6300A49EB7011207A4FBB7011207A4DDB901C4
:100B73001207A463BA011207A434BB011207A444E9
:100B8300BE011207A499BE011207A4C5BE01120734
:100B9300A411C0011207A461C0011207A4B6C001C9
:100BA3001207A4B7C1011207A44FC2011207A4D1AF
:100BB300C2011207A471C3011207A4C71E001207C2
:100BC300A4001F001207A4DA20001207A4192100B1
:100BD3001207A46321001207A40822001207A467C6
:100BE30022001207A49B22001207A4082300120765
:100BF300A42524001207A42D25001207A4C3250051
:100C03001207A40A29001207A4B329001207A48F0C
:100C13002A001207A4F02A001207A40D2C001207C1
:100C2300A4372E001207A4EE2E001207A4F82E00FC
:100C33001207A42B2F001207A4F22F001207A48D72
:100C430030001207A4F230001207A41B3100120770
:100C5300A43D31001207A46C33001207A4433400EF
:100C63001207A48734001207A4F434001207A4AFB8
:100C730035001207A4E135001207A4253600120738
:100C8300A45836001207A4AD36001207A402370099
:100C93001207A49637001207A4F837001207A460BE
:100CA30038001207A4093A001207A4F13A00120708
:100CB300A4333C001207A4613E001207A4213F00A5
:100CC3001207A45041001207A4F341001207A431F4
:100CD30042001207A4DD43001207A4F143001207E8
:100CE300A4FB43001207A42544001207A4314400C7
:100CF3001207A45044001207A40745001207A44694
:100D030045001207A45045001207A4044600120729
:100D1300A40347001207A4FC47001207A499480044
:100D23001207A43B49001207A45249001207A489E1
:100D330049001207A4A749001207A4EB49001207B0
:100D4300A4104A001207A4F64A001207A4624B003B
:100D53001207A4DC4B001207A4EB4C001207A42AD1
:100D63004E001207A48C4E001207A4464F00120730
:100D7300A4694F001207A43D50001207A488500035
:100D83001207A4CA50001207A42151001207A45845
:100D930051001207A48651001207A4BF5100120785
:100DA300A4E451001207A46C52001207A48F54004C
:100DB3001207A4EE54001207A48255001207A4EEF2
:100DC30055001207A44256001207A403EA021207B1
:100DD300A442EA021207A49457001207A4EE570094
:100DE3001207A44A58001207A49658001207A4B188
:100DF30058001207A4E258001207A4FF5800120774
:100E0300A40B59001207A47F5A001207A4985A0092
:100E13001207A4FF5A001207A4125B001207A420B2
:100E23005B001207A4D45B001207A4B85C0012078E
:100E3300A4BE5D001207A4445E001207A44E5E0028
:100E43001207A4BB5E001207A4D25E001207A4041B
:100E53005F001207A43D5F001207A4675F0012073B
:100E6300A4C85F001207A4E85F001207A40660008D
:100E73001207A44C60001207A47261001207A4BFFA
:100E830061001207A4EE61001207A4646200120756
:100E9300A48C62001207A4C562001207A4D36200E7
:100EA3001207A42B63001207A47A63001207A4B9E4
:100EB30063001207A4E963001207A4156400120774
:100EC300A42064001207A43E64001207A400650076
:100ED3001207A40A65001207A44565001207A45B64
:100EE30065001207A46465001207A4B96500120720
:100EF300A4CD65001207A4DB66001207A4EE66000A
:100F03001207A40567001207A41A67001207A4BCFE
:100F130067001207A43F68001207A4FD68001207C8
:100F2300A40869001207A42E6A001207A44A6A00E3
:100F33001207A49C6A001207A4DB6A001207A4F03C
:100F43006A001207A4326B001207A47F6D00120718
:100F5300A4FD6D001207A4706E001207A492700026
:100F63001207A4AA70001207A4AD70001207A4B957
:100F730070001207A4CD70001207A4D570001207E9
:100F8300A40871001207A4B871001207A42E7200FE
:100F93001207A4A172001207A45573001207A40A32
:100FA30074001207A42974001207A4C9740012075D
:100FB300A4D574001207A40075001207A4037500DA
:100FC3001207A43275001207A44775001207A4B1D3
:100FD30075001207A4D976001207A4B1770012078F
:100FE300A43C78001207A45579001207A4127A00D2
:100FF3001207A44B7A001207A47C7A001207A41CE0
:101003007B001207A44C7B001207A4277C00120765
:10101300A4C07C001207A44B7D001207A4FC7D0032
:101023001207A47E7E001207A4B07E001207A4F16B
:101033007E001207A4267F001207A4C58B021207A5
:10104300A42A8C021207A4678C021207A4B68C028E
:101053001207A4CC8E021207A4AF90021207A419A0
:1010630094021207A45494021207A476940212075E
:10107300A4D994021207A40D95021207A435950270
:101083001207A45895021207A48595021207A4001B
:1010930080021207A47E80021207A4B48002120702
:1010A300A42081021207A49382021207A4AF820232
:1010B3001207A4F482021207A48283021207A4DB9C
:1010C30083021207A40885021207A41A86021207D4
:1010D300A47786021207A4E386021207A4448702B8
:1010E3001207A48587021207A43288021207A444B8
:1010F30089021207A46F89021207A4BA8902120790
:10110300A4018A021207A4938A021207A44E8B0237
:101113001207A4229F021207A46E9F021207A4DCE7
:101123009F021207A4FD9F021207A4ADA00212079B
:10113300A4B6A0021207A409A1021207A432A102B5
:101143001207A499A1021207A42AA2021207A46CEF
:10115300A2021207A4B6A2021207A415A302120741
:10116300A4A6A3021207A4E5A3021207A424A402BF
:101173001207A459A4021207A46BA4021207A47DA8
:10118300A4021207A49CA4021207A4A5A402120796
:10119300A472A5021207A4C4E5021207A42DD30268
:1011A3001207A463D3021207A4ACD3021207A4FC50
:1011B300D4021207A4239E011207A463C5011207D8
:1011C300A49FC5011207A45EC7011207A487C70124
:1011D3001207A41ACA011207A45ECA011207A4E7E0
:1011E300CB011207A47FCC011207A4E7CC0112079D
:1011F300A488CD011207A4CACD011207A40ACE0107
:101203001207A495CF011207A405D1011207A476F2
:10121300A4011207A458D3011207A47FD301120714
:10122300A488D3011207A4E3D3011207A476D4013F
:101233001207A494D7011207A4B5E9021207A4CB9D
:10124300E9021207A4DAE9021207A416B802120788
:10125300A429B8021207A4C6B8021207A402B9024D
:101263001207A419B9021207A43EB9021207A480F7
:10127300B9021207A4B1B9021207A4ECB90212070A
:10128300A466BB021207A4A7BB021207A449E70284
:101293001207A47FE7021207A49BE7021207A4DD4B
:1012A300E7021207A4EDE7021207A45FD5021207B3
:1012B300A49ED5021207A4F6D5021207A4A7D6024C
:1012C3001207A4D3D6021207A415D8011207A46AE1
:1012D300D8011207A422D9011207A4BDD90112070C
:1012E300A407DA011207A41BDA011207A4E5DB0144
:1012F3001207A460DC011207A48ADC011207A444CC
:10130300DE011207A45FDE011207A4AEDE0112079D
:10131300A4C4DE011207A4D1DE011207A405DF0174
:101323001207A41BDF011207A4A6DF011207A40002
:10133300E0011207A44EE0011207A458E1011207CD
:10134300A4DAE3011207A474E4011207A4B6E401CA
:101353001207A44BE5011207A468E5011207A46B69
:10136300E5011207A46EE5011207A4E1E5011207E6
:10137300A4FCE5011207A428E6011207A463E60111
:101383001207A466E6011207A432E9021207A43E7B
:10139300E9021207A478E9021207A49FE6011207E3
:1013A300A4CAE6011207A48CE7011207A411E801FD
:1013B3001207A47AE8011207A4C6E8011207A4459C
:1013C300E9011207A4D7E9011207A467EA0112078A
:1013D300A4A9EA011207A4F2EE011207A472F00114
:1013E3001207A4C9F1011207A455F2011207A44C74
:1013F300F3011207A4C1F4011207A47BF50112073C
:10140300A4EDF5011207A467F6011207A4CCF601B7
:101413001207A43CF7011207A470F8011207A44CA9
:10142300F9011207A4BDF9011207A43AFB0112073F
:10143300A4FCFB011207A413FD011207A4B2FD01D2
:101443001207A46FFE011207A439C9021207A48D63
:10145300C9021207A4E5C9021207A430CA0212077F
:10146300A492CA021207A42BCB021207A493CB02A5
:101473001207A49FCB021207A45EDB021207A48FFC
:10148300DB021207A449DC021207A4AFDC02120735
:10149300A4F6D7021207A405EB021207A416EB0267
:1014A3001207A438DD021207A446DD021207A4E1E5
:1014B3007F001207A497E8021207A4A7E802120705
:1014C300A4BFE8021207A42CE9021207A4C2E40293
:1014D3001207A447E5021207A4ABE5021207A48E84
:1014E300E1021207A4B0E1021207A41AE2021207F2
:1014F300A425E2021207A469E2021207A4A0E202F1
:101503001207A4A3E2021207A4B4BB021207A4CADF
:10151300BB021207A4F3BB021207A40EBC021207FC
:10152300A429BC021207A433BC021207A43DBC02C7
:101533001207A450BC021207A469BC021207A4102C
:10154300BD021207A48FBD021207A421B402120721
:10155300A42FB4021207A4A9B4021207A48DB502E2
:101563001207A446B7021207A4ABB7021207A402DC
:10157300B8021207A4F87F001207A482D902120747
:10158300A4A4D9021207A4D7DA021207A45BDB02D0
:101593001207A4B2AA021207A407AB021207A403FC
:1015A300AD021207A435AD021207A457AD0212070C
:1015B300A470AD021207A489AD021207A493AE0270
:1015C3001207A42EAF021207A4F0DE021207A4141E
:1015D300DF021207A42DDF021207A460DF02120745
:1015E300A491DF021207A4BFDF021207A4C9DF021E
:1015F3001207A42BE0021207A43AE0021207A44444
:10160300E0021207A451E0021207A4DACB02120788
:10161300A400CC021207A43DCC021207A44CCC02B6
:101623001207A46BCC021207A4D3CC021207A4DCCA
:10163300CC021207A43BCD021207A45FCD0212070E
:10164300A41ECE021207A42BCE021207A43CCE0284
:101653001207A4C4FF011207A4E1FF011207A4D3D8
:10166300A5021207A431A7021207A43EA70212077C
:10167300A451A7021207A470A7021207A486A70207
:101683001207A49AA7021207A40FA8021207A474B0
:10169300A8021207A4FCA8021207A485A902120734
:1016A300A45AAA021207A46AAA021207A479AA02D8
:1016B3001207A4FEE7021207A422E8021207A44AB3
:1016C300E8021207A472E8021207A46ACE02120704
:1016D300A491CE021207A4B2CE021207A417CF021E
:1016E3001207A4D0D0021207A4E9D0021207A4F56E
:1016F300D0021207A409D1021207A427D1021207AC
:10170300A431D1021207A43BD1021207A44ED10285
:101713001207A4A1D1021207A4DAD1021207A40965
:10172300D2021207A457D2021207A4A6D2021207AA
:10173300A4C1D2021207A4CBD2021207A4DCD202A4
:101743001207A422D3021207A4847F001207A4D590
:101753007F001207A4E695021207A410960212074F
:10176300A42C96021207A43F96021207A4559602D0
:101773001207A4B296021207A4E596021207A42147
:101783009B021207A4479C021207A47A9C02120729
:10179300A4C69C021207A4F29D021207A41A9E0279
:1017A3001207A42F9E021207A43F9E021207A483CE
:1017B3009E021207A4E49E021207A4F49E021207DB
:1017C300A45BE0021207A476E0021207A49FE002E2
:1017D3001207A4B9E0021207A4DEE0021207A4FD77
:1017E300E0021207A415E1021207A443E102120763
:1017F300A45DE1021207A497E6021207A4DBE60246
:101803001207A439BF021207A440BF021207A44C57
:10181300C0021207A47CC0021207A4A2C0021207CE
:10182300A4C5C0021207A4E7C0021207A421C10283
:101833001207A487C1021207A4C0C1021207A40C95
:10184300C2021207A439C2021207A459C202120724
:10185300A4BFE3021207A4D1E3021207A4BCE4026B
:101863001207A4BFE4021207A4ACE2021207A41EEB
:10187300E3021207A45CE3021207A49DE30212072A
:10188300A4B9C2021207A40CC3021207A47CC302A8
:101893001207A4C9C3021207A480C4021207A450EA
:1018A300C5021207A499C5021207A4D2C5021207E2
:1018B300A419C6021207A435C6021207A484C602DD
:1018C3001207A4A0C6021207A4D1C6021207A4E1FC
:1018D300C6021207A4CDC7021207A4D7C702120774
:1018E300A4E4C7021207A4F4C8021207A408C90299
:1018F3001207A411C9021207A46DAF021207A4B202
:10190300B3021207A4B7B3021207A44CEA021207E8
:10191300A4D8EA021207A492EA021207A4B49D0112
:101923001207A46C9D011207A4399A011207A4059A
:101933009A011207A4D299011207A4B699011207BA
:10194300A4E898011207A4A098011207A4D5960150
:101953001207A45596011207A45296011207A46315
:1019630095011207A43195011207A46E9401120781
:10197300A49992011207A42A92011207A4FC9101CF
:101983001207A4F991011207A4E691011207A48892
:1019930091011207A47791011207A469900112071C
:1019A300A43390011207A415A4011207A4C3A30131
:1019B3001207A4B1A3011207A489A3011207A46B00
:1019C300A3011207A4F68F011207A4978F01120730
:1019D300A4668F011207A468A2011207A4218C0137
:1019E3001207A4128B011207A4A18A011207A4668D
:1019F3008A011207A4C5A1011207A42AD301120761
:101A0300A4318A011207A4258A011207A488890137
:101A13001207A4CF88011207A4A286011207A42EDD
:101A230084011207A4EC83011207A4B782011207F1
:101A3300A46C82011207A49E81011207A4F5800100
:101A43001207A4CB80011207A472A0011207A4916C
:101A530080011207A424C40100000080FBE4738FFB
:101A6300000100B40587000100D30A24000200AE80
:101A73000A25000200B00A26000200B20A2700026B
:101A830000B40A28000100B60A29000100B70A843D
:101A9300000400B80A86000100BC0A2A000100BD48
:101AA3000A2B000100BE0A2C000100C10A2D000808
:101AB300009F052E000100C20A2F000100C30A3057
:101AC300000100C40A31000100C50A32000100A769
:101AD3000533000100A80534000100C60A360001E1
:101AE30000A90538000100C70A39000100C00A83B4
:101AF300000200D10A63000100B305640001009CE9
:101B03000565000100BF0A6D000100D00A6E0002E6
:101B1300009D0543000100C80A44000200C90A45AC
:101B2300000100CB0A46000200CC0A47000800ABC4
:101B33000548000100CE0A4B000100CF0A04000152
:101B430000D40AA1000100D70A37000100D60A8891
:101B5300000100D50A3C000100AA050000000000B6
:101B630000000136360101000102010001030100FA
:101B73000104010606050200000701003408010004
:101B83000F090401010D0100FF0E080000170200F8
:101B930000190100FF1A0100011B0100FE1C0100D6
:101BA300081D0200001F01000120010001210200A5
:101BB300002301000F240200002601000127010079
:101BC30008280200FF2A0100072B0102402C010014
:101BD300002D0100012E0100012F0100FF30010B38
:101BE3001C310800003A0100083B01000F2F0100DF
:101BF300000302710230016002110270020102024D
:101C03000202028002100261023A00410063027381
:101C13000272026202430200021302380000020051
:101C23000204021202000200020002000204020483
:101C330002370037003C0244020002390000020070
:101C4300026502000235028102000205028202835C
:101C530002000203007100300160001100700031C6
:101C63000220035004800010006100000014006390
:101C730000730072006200430000001300060000BE
:101C83000000000400120000000000000000000437
:101C9300000400370037003C02440000000000004D
:101CA3000000006500000035008100000005000011
:101CB3000083000000010371030103010301030119
:101CC30003010322030203010310030003000300C3
:101CD300030003000300030003420300032403067D
:101CE3000300030003040312032503230325032333
:101CF300030403040300030003000344030003007D
:101D03000323030003650321003503810300030557
:101D1300030003000300030101710101010101112B
:101D23000101013101010101018001100161013B48
:101D33000014006301730172016201430100011386
:101D43000106013D013500040112010001000100FB
:101D530001000104010401330133013C0144013258
:101D63000136000001000165010001350081010019
:101D73000105018201830100013600010006000014
:101D8300000F00000000000000000000000000033E
:101D9300FFFF00000403FFFF0000FFFF0FF401003B
:101DA30005C4040320000100030B00000000000031
:101DB300000003010F010013140200B3130300B961
:101DC300130400BF130500C5130600D113FFFF0062
:101DD30000730EA30E790E7F0E9D0E910E8B0EA92E
:101DE3000EAF0EB50EC10E850E6D0E670E03EAF52E
:101DF300E5D5D5C5B5A595958585757565655555A0
:101E03004545353525251515050A3F0C02090C05F1
:101E13001B0C070F0C0CEB0B0DFD0BFF000000164A
:101E23000F00000B150B020002220F3200000663A5
:101E33000F750F7B0F3D0E810F370E430ECF0FED46
:101E43000FF30FD50FE10FDB0F00034948424D1885
:101E5300172505020C0E020B040B0A0708000F00DE
:101E63000119161816161523030000383C3E363B9D
:101E73003B352B432C303017181921301B1D1F30D5
:101E8300303016181920231A1C1E30970EBB0EE78C
:101E93000FC70ECD0EB70F870F8D0F990F930F023C
:101EA300040201010101090200BE040AE8030E0055
:101EB3000400150028000804050A030908FF1E1E74
:101EC3000F040C0C74F712036AE99003ACF090034F
:101ED30061E4F01218519003B1E4F0A3F09003AD64
:101EE300F0A3F0120D77121857900330E4F0A3F02B
:101EF300901EC393FA79021218E7024B5D74F21233
:101F0300036AEAFEEBFF548060699003ACE0F912C8
:101F130011438A088B09EA4509604F7C0080010C54
:101F2300EC75F003A4F8A9F0740C28F582741E393B
:101F3300F583E493F4602CE493F88508828B83E0C3
:101F43006870DCAA08EC75F003A4F8740D28F58218
:101F5300741E39F583E493C0E0740193F583D08252
:101F6300121A60AA08AB09121137EEFAEF6480FB6C
:101F73000220CDEF5420601D120C998A088B09EAC8
:101F83004509600A120BFDAA08AB09121137EEFAD4
:101F9300EF642080DAEEA2E0501A900366E0640F4B
:101FA300700B7900120BC7E960031220D0EE6401B5
:101FB300FAEF80BB5420700302209B750C0012358E
:101FC300A28B09EA450970107C027D007A207B0010
:101FD3009003ACE0F91212697C0079047A007B006B
:101FE300120C758A088B098018850882850983A3DA
:101FF300A3A3A3A3A3A3A3A37401F0850A08850B3A
:1020030009E5084509606D7C007904AA08AB09124B
:102013000C758A0A8B0B750C01E5082404F8E50995
:1020230012334624FFF0A3E034FF12563970CC85F7
:102033000882850983A3A3A3A3A3A3A3A3A3A3E0C4
:10204300640170A5850882850983A3A3A3A3A3A321
:10205300E054047094850882850983A3A3A3A3A3F2
:10206300A3A3A3A37406F07AB78508828509831214
:1020730021FC8087120C457C0079017A007B0012D9
:102083000C758B09EA45097009E50C70057A201275
:1020930044FCEE6420021FB3EF5402600B120D7177
:1020A300EEFAEF6402021F72EF54046019124693B2
:1020B3001245B3790190035F124917120B0DEEFA23
:1020C300EF6404021F727A007B00022303900AAEBE
:1020D30012299A120BDF22C082C08374EA1208709D
:1020E300851882851983AA82AB83794B1218BD7434
:1020F30008120A467402F07409120A46AA82AB83D4
:1021030079501218BD7413120A46E4124AE61218E3
:10211300DB7416023AC074F712036A74E112087092
:10212300EAFEEBFFEE4F6033851882851983AC829C
:10213300AD83120CBD7406120A46E0601E741712BA
:102143000A46E0FD7401120A46E0FCEEFAEFFB7961
:10215300001219BFE9600479A480027900024B5888
:1021630074F612036AEAFEEBFF8E828F83A3A3A3A6
:10217300A3A3A3E05440601B124FD51222CA6006EA
:102183007AFF7BFF801A8E828F8312374CFAA3E08B
:10219300FB8003120CE174FE6A700374FF6B6041F1
:1021A300124FD5124540120D35E98E828F8360069A
:1021B3001221F5E480051221F57401F07CCD7D0B2D
:1021C3008E828F831249171218E1E9F5087015EE14
:1021D3004F60097901EEFAEFFB120C51A908024591
:1021E300717508CDAA088E828F831221FCE960DF06
:1021F30080EAE0240D123C1B22E0240C123C1BE07D
:10220300F9120BD92274F612036AE9FEEAFF7A0F78
:102213007B00121131EA4B60198A828B83740CF0B4
:10222300EEA3A3F0EF8A828B83A3F012459C79007F
:10223300802FEEF9120C7B8A088B09A808A909E8FC
:1022430049601C88828983A3A3A3A3A3A3A3A3A3F5
:102253007406125260E0F9120B91EEF9120C5779E1
:1022630010024571C082C083900366E0640F70144E
:10227300EA4B6010900361E064086005E064047059
:102283000312228A023AEAEAFCEBFD7A017B009010
:1022930003ACE0F912126322C082C0837900EA24FE
:1022A3001DF582EB12374924FD600B14600824FDF1
:1022B300600424FD700109023AEA8E828F83A3A38E
:1022C300A3A3A3A3A3A3A31222CE22123791FB128B
:1022D3000D35E9228E828F83A3A3A3A3A3A3A3A374
:1022E300A31222CE6402228E828F83A3A3A3A3A36D
:1022F300A3A3A3A3123AE1900352E0682212082594
:102303007F0602059574F412036A74FD1208708A3D
:10231300088B098A828B83A3A3E0F9120C7B8A0AB8
:102323008B0BAE0AAF0BEE4F700302240F850882AE
:10233300850983A3E064F16030850882850983A35E
:10234300E064CD6024850882850983A3E0641A6074
:1023530018850882850983A3E064E9600C850882F7
:10236300850983A3E064E170087900120C51E970D8
:102373006C850882850983A3E0C0E07402120A46D3
:10238300D0E0123AC5EEF0A3EF122DF08518828546
:102393001983AA82AB837005120AF58003120D1DFF
:1023A3007402120A46E064E970338E828F8312242A
:1023B3001B750A01780A1207E1750AE9780A120700
:1023C300E1E508240CF582E5091228E2122DCDFC83
:1023D300A3E0FD8A828B83122DE71208258E828F5C
:1023E30083A3A3A3A3A3A3A3A3A3E0640270108E58
:1023F300828F83A3A3A3A3A3A3A3A3A37406F0859C
:102403000882850983A3A3E0F9120C57120C4590A7
:102413000AB21220D302299FE0F8A3E0F9E8FAE90F
:10242300FB2274F412036AEAFEEBFF7508008E8246
:102433008F83A3A3A3A3A3E060427508088E828FB2
:1024430083A3A3A3A3A3A3A3A31239F48B0BEA45EA
:102453000B601075082C8E828F83A3A3A3A3A3E024
:10246300D2E0F08E828F83A3A3A3A3A3E0540364DB
:1024730001600302250E43081102250EEE241812F3
:1024830029AC6033EE241A1229AC700F1222EA70C1
:1024930003A3E06970757508228070EE241BF58232
:1024A300EF122513241AF582EF122DF8EE241912D8
:1024B3005009120B7F80541222D770037508011242
:1024C30022EA7003A3E0697006E508D2E1F508E5A6
:1024D3000860158E828F83A3A3E07006E508D2E51A
:1024E3008004E508D2E6F5081222BD64017006E512
:1024F30008D2E0F5088E828F83A3A3E0600D122536
:102503002164016006E508C2E0F508A9080229A4D0
:1025130012373712251A22E0FCA3E0FDEE22123710
:1025230031123769F9120D23E922C082C083790180
:102533008A828B83A3A3E0C394024001198A828B0E
:1025430083A3A3A3A3E0C39402400279008A828BEE
:1025530083A3A3A3A3A3A3A3A3A3E064F87003A3E8
:10256300E0F460458A828B83A3A3A3A3A3A3A3A3BD
:10257300A3E064F97003A3E0F4602E8A828B83A343
:10258300A3A3A3A3A3A3A3A3E064FA7003A3E0F408
:1025930060178A828B83A3A3A3A3A3A3A3A3A3E00C
:1025A30064FB7003A3E0F4700279008A828B83A337
:1025B300A3A3E0F890034FE06860027900023AEACF
:1025C30074F012036A74DE120870EAFEEBFF8E8267
:1025D3008F83A3A3A3A3E0600E900AB012456860A3
:1025E30006900AB01220D37403120A46AC82AD835C
:1025F3008E828F83A3A3A31245EA124E23E9600FB1
:102603007403120A46AA82AB83120BF7E9700879A6
:10261300011218630228D7EE241B12373C741012E0
:102623000A461245B37409120A46E06021741A126D
:102633000A46E0FD7404120A46E0FC8E828F831280
:10264300491579011219BFE96004790280C3740343
:10265300120A46AA82AB83120BF1E9F50A74091236
:102663000A46E0702A900349E060247422550A6404
:1026730022601C7442550A644270CF7420120A46C9
:102683001228F5600A7420120A461228EE70BBE97C
:10269300A2E650417403120A46AA82AB83120BE5E9
:1026A300E970030226127420120A4612374C64039F
:1026B300700F7420120A46A312455AA3E0640D60FA
:1026C300147403120A46AA82AB83120D47E964010C
:1026D30070030228D7EE242C1228DF122C03700378
:1026E300A3E069701C75080078081207E1780812E6
:1026F30007E1EE242E1250091228FB122DE71208CF
:10270300257409120A46E070030227B41228FB124B
:102713004917120D9B8A088B09EA450970030228A1
:10272300517404120A46E0F88E828F83A3A3E02833
:10273300F8A3E03400F9E8240D1228E68A828B839B
:10274300A3A3A3E068601CE88A828B83A3A3A3F0FE
:1027530090804E120A23850882850983A3A3A3A32D
:10276300120A2F7904E9120A46124E002AF8A3E04E
:1027730034008882F583A3AA82AB831211258A0CC5
:102783008B0D8C0E8D0F850882850983A3A3A3A3CC
:10279300780C12075D40030228D7908052780C1200
:1027A3000985850882850983A3A3A3A3780C120A4C
:1027B30007900361E064046008E064096003022891
:1027C300D7E50AA2E5400302288FEE242E1229AC96
:1027D300851882851983F0EE242F1229ACC0E0748A
:1027E30001120A46D0E0F0EE24301229ACC0E074A6
:1027F30002120A46D0E0F07414120A46E064017033
:1028030027740E120A46123742EE24121229AC68BC
:102813007003A3E0697011740C120A461222E4706B
:10282300077414120A46E4F0EE24241228DF120679
:10283300607404120A46AC82AD837407120A46AA76
:1028430082AB83120AFB74041208250228D7900373
:10285300A6E0640160030227B47420120A4612281A
:10286300F57009E50AA2E650030227B47410120AB0
:1028730046E0F47003A3E0F4605AEEFCEFFD74034A
:10288300120A46AA82AB83120C038048A2E6504484
:102893007420120A46124926701A741A120A46E064
:1028A300640270307403120A46AA82AB8379001261
:1028B3000D1180207420120A461228EE7016741A25
:1028C300120A46E06404700C7403120A46AA82AB2F
:1028D30083120D0B7422024CD2EE240BF582EF12FD
:1028E300373722F582E91245CCF822124FE7E0642C
:1028F3000722123769640622EE242A12373412257E
:102903001A24121237342274F412036AEAFEEBFF1C
:102913008C088D099005A7E0600F1222EA7003A3CB
:10292300E0697005120B6D804F790012490A120B92
:102933009D8A828B83E58245836035A3A3A3A3A3EA
:10294300A3E05418602AE508241BF582E509122840
:10295300E2120664122FE01228E2120664EE241833
:1029630012500912297D120BAF7404120825800836
:10297300790012297D120B7380278E828F83A3A384
:10298300A3A3A3A3A3A3A312251A240BF582EF12D7
:102993002996223400F583123791FB22740312081F
:1029A300257F04020595EE2417F582EF1245CC220C
:1029B30074F712036A74F7120870EAFEEBFF9003D0
:1029C30061E06403600DE064016008E06409600392
:1029D300022A7D8E828F83A3E0707E7C007D007A45
:1029E300027B0012185DEE2402FAEF12334D123708
:1029F300429003521245B379531218C37900122A35
:102A030082E064096003122E158518828519837488
:102A1300011245899003617404F07401120A46AAF5
:102A230082AB83794A1218BD7401120A46AC82AD97
:102A3300837A577B0312187B900352124E197A0341
:102A4300122E1F90034CE0A2E35004D2F08002C286
:102A5300F01245761220D0801E8E828F83A3AE8221
:102A6300AF83FC7D007A037B1012185D8E828F8307
:102A7300E0F9122A82E4F0120C2D7409024B5A90E9
:102A8300035F12299A120B0D90036122C082C08347
:102A9300900330124568701F900361E014600924AD
:102AA300FC600A14600C800F90033880329003346A
:102AB300802D9003368028E8496008900331122D59
:102AC300C7700C8A828B83A3E0F9120B01801B90E1
:102AD300033112307C7005120D65800E9003CE1207
:102AE3004568600612455A121A60023AEA74F412F3
:102AF300036A74FB1208708A088B097A0F7B001231
:102B030011318A0A8B0BAE0AAF0BEE4F7003022B07
:102B1300F78E828F83124AE479501218BD8508829A
:102B2300850983A3E06003022BDF90035FE0F47069
:102B330003A3E0F4603490035FE064FE7003A3E05A
:102B4300F46027851882851983122C037003A3E090
:102B5300696017850882850983A374EA122DFD7ABB
:102B63005F7B0379501218C380728518828519839D
:102B7300124FC81245B37A527B0379531218BD9092
:102B830003521245E41245B37A557B03794B12186D
:102B9300BD7A547B0379E11218BD900366E0C394B8
:102BA3000F5021900354E0C0E07402120A46D0E0B3
:102BB300F07404120A467401F004120A46AA82ABA6
:102BC300831218D5750A00780A1207E1780A1207EA
:102BD300E1900ADEE0F9122DDE12082585088285D0
:102BE3000983122BFCA3F09003617403F0EEFAEF58
:102BF300FB12459C74050229A1A3E08E828F8322D8
:102C0300124FCCE06822123C222274F512036A743C
:102C1300D81208708A088B098A828B83A3A3A31214
:102C2300376E7415120A46AC82AD838A828B83A3F6
:102C3300A3A3A3A3A3A3A3122DCDFAA3E0FB120C7A
:102C4300337415120A46E0706B850882850983A3E5
:102C5300A3A3A3A3A3A3A3E0C3940B40578E828F84
:102C630083A3A3A3A3A3A3A3A3E064027046EE24B8
:102C73000B1229ACF4703D900361E06402603AE00A
:102C8300640660359003301245686005122DC760F5
:102C93004F900361E064086005E0640470167417E4
:102CA300120A46E0F9741C120A46AC82AD8312493B
:102CB3000A120C3974280254E690033012456870E6
:102CC3001F75080078081207E178081207E1EE245F
:102CD300101228DF125021123435122DE712082565
:102CE3008E828F8312488612335F12374274021228
:102CF3000A461245B3EE240D1229ACC0E074041247
:102D03000A46D0E0122DF0F508A3E0F509740F7818
:102D1300081209F87405120A46E508F07419120A34
:102D230046E0C0E07406120A46D0E0F0741B120AB3
:102D330046E0C0E07407120A46D0E0F07416120AA7
:102D430046E0C0E07409120A46D0E0F07417120A94
:102D530046E0C0E07408120A46D0E0F0EE241012F8
:102D630029ACC0E0740A120A46D0E0F0741A120AC1
:102D730046E0C0E0740B120A46D0E0F07427120A52
:102D830046E0C0E0740C120A46D0E0F0741C120A4C
:102D930046A982AA8389088A09750A007808120756
:102DA300D97C087D007410120A46AA82AB831241B3
:102DB30017120825851882851983AA82AB83120B03
:102DC30007022CB7123082640122E0F98A828B83D6
:102DD300A3A3A3A3A3A3A3A3A3E02290035F124EE1
:102DE3001D90035512299A120CF3740222F0EE245B
:102DF3000B1245C9221245CCFA22F07A527B037991
:102E030053122E08221218C37A557B03794B1218DA
:102E1300C32290035F12299A120D95227B00121888
:102E23005D900355124E1D7A047B0012185D22F04B
:102E330012502C2274F212036A74F8120870EAFE1C
:102E4300EBFF8C0A8D0B890C851882851983AC8264
:102E5300AD83758380758236740812073CF50DEED9
:102E6300FCEFFD851882851983AA82AB831247E79D
:102E73007003750D019003AD803BEEFCEFFDE5089B
:102E8300240BFAE50934001247E6601E85088285A3
:102E93000983A3A3E0650C7011850882850983E08B
:102EA300650A7004A3E0650B6038E5082414F58215
:102EB300E5091228E2123357E50845096024E50DB8
:102EC300A2E040B6850882850983E0650A7004A301
:102ED300E0650B70D5850882850983A3A3E0650CA3
:102EE30070C8AA08AB097408022300C082C083908B
:102EF30003AD023AE774F712036A9003AD123791F8
:102F03008012EA2414F582EB1228E212376E1211B2
:102F1300AFEEFAEFFBEA4B70E99003ADE4F0A3F0F8
:102F2300024B5D7F0702059574F112036AEAFEEB1B
:102F3300FF890A8C088D098E828F83E08C828D83B2
:102F43001239FEAE82AF83E01241D7124148C41258
:102F530041D7122FE9E054038C828D83124146A29C
:102F6300E2E4338C828D83124145131313541F12F1
:102F730041D7124144A2E7E4338C828D83A3A3A3F8
:102F8300A3122FE98E0C8F0D750E00780C1207D942
:102F93007C087D00E5082407124D8C120825124D8C
:102FA300F78E0C8F0D780C1207D97C037D00E50892
:102FB300240F124D8C120825E50AC3940F40148E7A
:102FC300828F83A3A3A3E0C0E0122FE01228E2D0F4
:102FD300E08006122FE0125254F0022F26E5082457
:102FE30012F582E50922A3A3123A020EAF832274DB
:102FF300F412036A74F9120870EAFEEBFF89089071
:103003000330124568600E12307C7009EEFAEFFB54
:10301300120D5F805F90035FE06E7003A3E06F703B
:10302300537401650860097A737B031247E77044A0
:103033007A007B021235A68B0BEA450B70369003A0
:1030430062120A23851882851983120A2F90036856
:10305300E0C0E07404120A46D0E0F07405120A4698
:103063007401F07406120A46124AE4120AD1E960A6
:103073009B120AD774070229A1123082640222121A
:103083004FE8A3A3A3A3A3A3E02274F512036A8AC0
:10309300088B098A828B83A3AE82AF83E0F9120B7C
:1030A300258E828F83E064EB600C8508828509831B
:1030B300A3E064E17009850882850983A3E4F01223
:1030C30020D0750A01780A1207E1850882850983F1
:1030D300A3E0F50878081207E17900122DDE120843
:1030E30025120C450254E9EAF0A3EBF0023AEA7424
:1030F300F612036A9003B0E0701B7C0079017A003A
:103103007B00120C75EA4B600C8A828B8312456834
:103113006003120BD3024571C082C08312358E4007
:103123001079FF120C6FE9F8901EC6E493C3985010
:1031330004790180027900023AEA74F012036A8A80
:10314300088B09890B750C008A828B83A3A3A3A325
:10315300A3A3A3A3E0F9120C7B8A0E8B0FAE0EAFD1
:103163000F750A01EE4F600302321B850882850941
:1031730083A3A3A3A3A3A3124E198508828509835E
:10318300A3A3A3A3A3A3A3123F17124917120C636C
:103193008A0C8B0DAE0CAF0DEE4F700302333E8ED7
:1031A300828F83A3A3A3A3E4F0A3F0E508240B1267
:1031B300334AE0C0E01228DCD0E0F0120D3BEE24ED
:1031C3000CF582EF12453CE508240EF582E5091261
:1031D300373FEE240EF582EF1245B0750C01EE2455
:1031E30006F8EF123346547FF0A3E054FC12507EEE
:1031F300E0540460030232A1900AB6123F08740738
:1032030078081209138E828F83A3A3A3A3A3A3E039
:103213004508F0A3E04509F08E828F83A3A3A3A3FF
:10322300123355740778081209F8E5085407F508AE
:10323300E50B607A8E828F83A3A3A3A3A3A3A3A387
:10324300A37402124149240D123C17E0A2E2500B71
:1032530090034D1245E4A3A31245B3E5087003029E
:103263003313EE2406F8EF3400F9E8FAE9FB8A8217
:103273008B83E0547FFCA3E054FCFDE50824FFF5B9
:1032830008E434FFF50974077808120913EC4508BC
:10329300F8ED4509F98A828B831245B380728E82D9
:1032A3008F83A3A3A3A3A3A3E0448002321AE50858
:1032B3007005750A0080598E828F83A3A3A3A3A3ED
:1032C300A3E05420601212112BEA547F245F8E82F4
:1032D3008F83A3A3A3A380238E828F83A3A3A3A3FC
:1032E300A3A3E05410600A12112BEA540F240A809E
:1032F300DD8E828F83A3A3A3A37401F0A3E412330F
:103303005F740412359D8B09EA4509700312452F3A
:10331300E50CA2E050288E828F83A3A3A3A3124BB4
:103323004AF9EEFAEFFB120C69E9601212455E608E
:1033330003123727EEFAEFFB1211AF750A00A90A41
:10334300024CD51246A722FAE5093400FB8A828B88
:103353008322A3A3E0F508A3E0F509221233632235
:10336300124DA8A3A3A3A3A32274F412036A74F7B0
:103373001208707E00120C7BEA4B700302342E8A13
:10338300828B83A3A3A3A3A3A3A3A3A3E064066045
:103393000302342E8A828B83A3A3A3A3A3A3A3E054
:1033A300FF8A828B83123C2AE0C0E07408120A462B
:1033B300D0E01237621247ED1245B3120C8DEF5471
:1033C300086066851882851983124E197A007B007E
:1033D300120C5D8B0BEA450B704F90035F12385252
:1033E3001218ED7C007D007A007B0080288E828F8E
:1033F3008312374CF47003A3E0F4602D90035F1243
:103403003435124917121599E9641A601C7C007D42
:1034130000EEFAEFFB120C5D8A0A8B0BAE0AAF0BC0
:10342300EE4F70C979001218F37E01EEF9740902A8
:1034330029A112343922E0FCA3E0FD8E828F83227E
:10344300C082C083EA4B70059003B180068A828BE9
:1034530083A3A312365260258A828B83A3A3A3A3DB
:10346300A3A3A3E0540860E5EC4D60158A828B8327
:1034730012374C6C7003A3E06D70D280047A007B2A
:1034830000023AEA74F212036AEAFEEBFF890A8C3D
:10349300088D097A107B001211A9EA4B603F8A82DA
:1034A3008B83A3A3A3A3A3A3A3A3A3E4123750A330
:1034B300E50A124FEEA31234EA8A828B83A3A3A3F5
:1034C300A3E4F0A312375CA3F0124E82EA240CF5B6
:1034D30082EB1239EE1234E3A3A3F0A3F002230329
:1034E300A3F08A828B8322A3A3E508F0A3E509F066
:1034F3002274F412036AEAFEEBFF89088C0A8D0B2F
:10350300EE4F60557401650870147901120C6FE970
:10351300F8901EBFE493C398500F7911806A740426
:103523006508702F12358E40F18E828F83A3A3A37B
:10353300A3A3A3A3A3A3E5081239FEA31255738E75
:10354300828F83A3A3E4F0A3F09003B112456860D4
:1035530021800D7402650860D079C1802BE0F8A347
:103563001245DDA3A312365288828983A3A370ED8B
:1035730080039003B1EEF0A3EF12359D8B0BEA4568
:103583000B700312452F79000229A47904120C6FE2
:10359300E9F8901EBBE493C39822F01235A2227A75
:1035A300207B009003ACE0F912127522C082C08325
:1035B300E9F879009003B1801D8A828B83A3A3A3CA
:1035C300A3A3A3A3A3A3E068600574FF6870010924
:1035D3008A828B83A3A312365270DE023AEA74F70F
:1035E30012036AEA4B70059003B180068A828B83CB
:1035F300A3A312365260248A828B83A3A3A3A3A31B
:10360300A3A3A3A3E06970E4EC60148A828B83E034
:10361300240D124E0AA2E240D380047A007B0002FA
:103623004B5DC082C0839003B180068A828B83A3E3
:10363300A312365260128A828B83A3A3A3A3A3A3EC
:10364300A3A3E06970E580047A007B00023AEA12E2
:10365300299AEA4B2274F212036A8A0A8B0B8C0CA6
:103663008D0D750800750900EA450B602E9003B1B6
:1036730080068E828F83A3A31236A5601EAC0CAD89
:103683000DEEFAEFFB850A82850B83121A60E9645B
:103693000170DFEEF8EFF988088909AA08AB09027F
:1036A3002303E0FEA3E0FFEE4F2274F712036A90B8
:1036B30003B11237427C007D00800DE8FCE9FD88F0
:1036C300828983A3A3123742E8496030EA68700213
:1036D300EB6970E79003B1124917E86A7002E96B6E
:1036E30088828983A3A370081237429003B18009AB
:1036F3001237428C828D83A3A31245B3024B5D74B0
:10370300F712036AEAFEEBFFEE4F6015120C871205
:10371300377412455E6003123727EEFAEFFB12117E
:10372300AF024B5DEE240C12373412378922EE249C
:103733001DF582EF3400F58322F582EF123737123D
:103743003AE122F582EF12373712376922123754E2
:1037530022124FF6A3A3A3A322123754A3A3221228
:1037630034E412376922124FE1E022E0FEA3E0FFC6
:10377300228E828F83E0241C123C1B1237898E8297
:103783008F8312378922123791FB1211AF22E0FA8D
:10379300A3E022C082C083EAFCEBFDEC4D70047908
:1037A300058044EC24FBF582ED34FF124566700777
:1037B3001237EDE0F4600512113780E39003ACE0BB
:1037C300C0E01237EDD0E0F0901EBCE493F97AB379
:1037D3007B03121161E96401700B7A007B201245AF
:1037E30033790080027904023AEAEC24FFF582ED92
:1037F30034FFF5832274F412036AA2AFE433F508AD
:10380300C2AF9003B31236A56038EE24FBF582EF06
:1038130034FF1245667A007B209003AC60051245A5
:10382300368005E0F912116DE4F50AF50B780A12FA
:1038330007DDEEFCEFFD7AB37B0312115B7402121A
:103843000825E508A2E092AFEEFAEFFB0229A412E5
:103853004E1D851882851983AA82AB832274F212C6
:10386300036A74FC120870EAFEEBFF750AFE750B1F
:10387300FF120C4BE9600579110239E3EE241512AE
:1038830029AC6037900ACFE0C43354E0F8E0333317
:1038930054FC48C0E0EE24151228DFD0E01239FEB4
:1038A3001239F48B09EA45096011750AFFEE240FFA
:1038B3001229AC44041245C1D2E0F08E828F8312E8
:1038C30022C86006EE24121239EBEE24131229AC3F
:1038D3007010901EC2E493C0E0EE24131228DFD0D0
:1038E300E0F08E828F83E0A2E750045403801CEE45
:1038F30024141229AC701590033EE0C0E0EE2414AA
:103903001228DFD0E0F090033EE004F0EE24111221
:1039130029AC6401701690059CE0600D900349E0AA
:10392300700A8E828F83E070031239E88E828F8350
:10393300E064017013EE240B12374664027009EE43
:10394300240F1229AC4440F0851882851983AC8278
:10395300AD83EEFAEFFB120CB18A088B0974FE6596
:103963000A700374FFF470098E828F83A3A3124D30
:1039730098EA450960668E828F83E0C0E074011285
:103983000A46D0E0F07402120A46124E86740112FF
:103993000A4685820C85830D780C1207DDEE240F11
:1039A3001228DF120664EE240E1229ACF50C780CF3
:1039B3001207E19003521206647407120A46E0F9F3
:1039C300AC0AAD0B120CAB7407120825E9FE741098
:1039D3006E700BAA08AB091211AF80027E10EEF9CC
:1039E3007404022300EE2411F582EF123737E4F05A
:1039F30022A312299A79FF12192322123A0222F0E2
:103A03008E828F83A322C082C08374DE1208708AE1
:103A1300828B83A3A3A3A3123742740E120A46E830
:103A2300F0A3E9123AD8740C120A46123AD1240DC3
:103A3300F582EB1229AFC0E0741A120A46D0E0F007
:103A4300124CE5EB12373F7420120A46123AD12486
:103A530015F582EB1229AFC0E07408120A46D0E0D4
:103A6300F0EA241CF582EB12373F7412120A461255
:103A73003AD12411F582EB1229AFC0E07409120A7E
:103A830046D0E0123AC574FFF07401120A4674FF7F
:103A9300F07402120A4674FFF090804E12066074AE
:103AA30004120A46AC82AD837407120A46AA82AB9B
:103AB30083120AFB74041208257900742212082564
:103AC3008025123AC922F085188285198322E8F0ED
:103AD300A3E9F0EA221234E4A3123AE022A3E0F8C5
:103AE300A3E0F922124917D083D0820207A174EC14
:103AF30012036A74EE1208708A128B13ECFEEDFF48
:103B030089097426120A46124D987428120A46E04F
:103B1300F5107429120A46123C0C742B120A46E063
:103B2300F50EA3E0F50F7508107A1E7B001211A99C
:103B33007402120A461245407402120A461245687C
:103B43007003023C05851882851983AA82AB8379A9
:103B53005012441B1249177402120A46123C2AA33C
:103B63001245407410120A461255757402120A4621
:103B7300E0240B123C177402F0120A46123C2A741A
:103B830002F0120A46124FD9124E867402120A46E6
:103B930012492CE509F07402120A46E0240C123C87
:103BA30017E510F07402120A46123C14E512F0A352
:103BB300E513F07408120A46E50CF0A3E50DF07462
:103BC3000A120A46E510F0850E82850F83C082C073
:103BD30083740D120A46AC82AD83D083D082740302
:103BE30012073CF97402120A46AA82AB83120C51E3
:103BF300E96401700575080080087402120A461210
:103C0300372DA9087412024DAFE0F50CA3E0F50DB2
:103C130022E0241C123C1B22F8A3E0123C22223493
:103C230000F9888289832212491FA3A3A3A3A32295
:103C330074EE12036AEAFEEBFF8C088D098E828F05
:103C430083A374081245FCE060088E828F83A374FB
:103C530010F01229A960098E828F83A3E02408F053
:103C6300EE24151229AC60088E828F83A3E004F042
:103C73008E828F83A3A3A3A3A3A3E060198E828F55
:103C830083A3A3A3A3A3A3A3E0C3332402F88E8235
:103C93008F83A3E028F0EE24111229AC6005750B85
:103CA3000E8003750B008E828F83A3C082C083EEC8
:103CB300240D1229ACD083D082F8E028250B8C8206
:103CC3008D83F0EE24111229AC600512412728F0F0
:103CD300850882850983E0C39475400975080075DA
:103CE3000900023E15E0FA7B00124F347003023ED6
:103CF30015EEFAEFFB120CB7EA85088285098312E9
:103D03004541EE2402F8EF122C09123F0F123E51E7
:103D1300F0EE24040808EF122C09124351A3123EBB
:103D230051A3A3F0EE2413123E37F0EE2414123EF7
:103D330037A3F0750A08EE24161229AC6010EE249E
:103D430018124E16E5082408125017750A10122986
:103D5300A96016EE241A124E16850A0CE508250CE6
:103D63001250177408250AF50A8E828F83A3A3A322
:103D7300A3A3A3E06059EE2407F510EF3400F51177
:103D8300851082F583E0C0E0123E1E1228E2D0E0E7
:103D9300123E41E0C0E0123E1E1228E2D0E0123E85
:103DA30041A3123E2A1207D9851082851183E0C3ED
:103DB30033FCE433FD850A0CE508250C124D8C1207
:103DC3000825851082851183E0C333250AF50AEEA1
:103DD30024151229AC600BC0E0123E1E1228E2D05B
:103DE300E0F01228DC123E2A1207D9EE240D122924
:103DF300ACFC7D00850B0A8E828F83A3E0F8E50877
:103E030028F8E5093400F9E8250AFAE9124D8F127A
:103E13000825AA08AB097F0A020595850A0CE5085F
:103E2300250CF582E50922E0F50CA3E0F50D750EEE
:103E330000780C22123734123E5BA3A3A322F005B1
:103E43000A8E828F83A3A3A3A3A3A3A3A322A3A3C3
:103E5300125082A3123E5B22124355A3A32274F68F
:103E630012036A8A828B83E0FC90034F123F08742B
:103E7300027808120913EC4508FCAD09EA24121272
:103E83003F0274067808120913EC4508FCED450956
:103E9300FDEA2415F582EB1229AF60047801800254
:103EA3007800E4C8F9ED49FDEA2411F582EB122903
:103EB300AFF508880974097808120913ED4509FD5F
:103EC300EA2416123F02740B7808120913ED450910
:103ED300FDEA2417123F02740C7808120913ED450A
:103EE30009FD8A828B83A3A3A3A3A3A3123F087410
:103EF3000A7808120913ECFAED4509FB024571F53E
:103F030082EB123737E0F50875090022E085088255
:103F130085098322A3E0F98508828509832274EE4B
:103F230012036A8A0A8B0BECFEEDFF750F01E9C3DE
:103F33009408500579000241148E828F83E9F012B0
:103F4300437AE96003750F0012435E8E828F8312FA
:103F530043A8EE124CE6EF12439DC0E0EE2411128B
:103F630028DFD0E0124395C0E0EE24121228DFD000
:103F7300E01239FE7408124DA0A3A3A3E06015124A
:103F83004346EE2413F582EF1245B08E828F83A34E
:103F9300E02408F08E828F83A3A3A3A3A3A3A3A3E8
:103FA300E060218E828F83A3858208858309124373
:103FB30089EE2415F582EF1245B0850882850983C1
:103FC300E02408F08E828F83A3A3A3A3A3E0601A47
:103FD3008E828F83A385820885830912436D8E8227
:103FE3008F83A3A3A3A3A3124139EE24191239EBA0
:103FF300EE241B1239EBA31245F4E070030240A830
:10400300EE2419F8EF3400F98E828F83A38582089A
:10401300858309E0FAE50A2AF582E50B1229AF88C0
:10402300828983124139FAE50A2AF582E50B1229BE
:10403300AFC0E0EE241A1228DFD0E01241398882A3
:104043008983E06059F8901EC5E493C398500575C1
:10405300110C8008EE24191229ACF5118E828F837E
:10406300A3E0F8E50A28F50CE50B12411D1207D968
:10407300E511C333FCE433FD7A757B091241171252
:104083000825EE241B1228DF7475F0A37409F0E5EC
:1040930011C333F8850882850983E0288006EE245E
:1040A30018125251F08E828F83A3E0F88E828F8391
:1040B300E0C3985003023F37A3E0FA8A08E50A25D4
:1040C30008F8E50B3400F9EE241DF582EF1246BC27
:1040D300124149C39AC0E0EE24171228DFD0E01240
:1040E30045B9602BEE2417F8EF3400F988088909E5
:1040F3008882F583E024F212469D240EFAA3E0346D
:1041030000FB88828983124540124127C398F0A996
:104113000F023E191211137403223400F50D750EAC
:1041230000780C2290034AE0F91219B9E9F88508DE
:1041330082850983E022F0850882850983E004F003
:1041430022A3A3A3A3A3F08E828F83E02274F4128D
:10415300036A8A088B09EA1241DEF0EA1313543F1B
:104163001241D7A3A3A3F0EAC413131241DEA3A3FE
:10417300F0EB1241D01241E87409780A1209F812DF
:1041830041CE1241E7740A780A1209F8E50A54018C
:10419300C0E0EC2418F582ED1228E2D0E01241EDE4
:1041A300740B780A1209F81241CEA31241E7740C7A
:1041B300780A1209F81241CEA3A3A3A3A3A3A3A32E
:1041C300F0740D78081209F802250EE50A54018CE3
:1041D300828D8322540F8C828D832254038C828D93
:1041E30083A3A322A3A3A3A3A3A3F08A0A8B0B22D3
:1041F300C082C08379008A828B83A3A3A3A3A3A3D2
:10420300E0900349600FE070228A828B83A3A3E0CE
:104213007019098016E060138A828B8312490E900D
:104223000352E06A7003A3E06B70E7023AEA74F0AA
:1042330012036A8A0A8B0B890C8C088D0912437A44
:1042430012435E8508828509831243A8E508124C50
:10425300E6E50912439DC0E0E5082411F582E5096E
:104263001228E2D0E0124395C0E0122FE01228E2B8
:10427300D0E01246C474081246DD6011124346E5CD
:104283000824131246B81246C4E02408F0850882B5
:10429300850983A3A3A3A3A3A3A3A3E0601785080E
:1042A30082850983A3124385E50824151246B812B3
:1042B30041492408F0850882850983A3A3A3A3A306
:1042C300E06019850882850983A3AE82AF83124318
:1042D3006D85088285098312414404F0AA08AB095D
:1042E300120CC9E9F50D7056850882850983A3A3CD
:1042F300A3A3A3A31243517014E0FA8A0EE50A257F
:104303000EF8E50B1245A5E50CC39A8021124385EF
:10431300E8240EF8E91245A590034AE0F91219B909
:104323008E828F83E0F8E50CC39824F2C399C0E032
:10433300E5082417F582E5091228E2D0E0F0A90D7B
:10434300024CD5E50A2408F8E50B3400F9221243A0
:104353005522E0850882850983A322850A82850B7D
:1043630083A3A31243BEE0F9EA22E0F8E50A28F5A5
:1043730082E50B1245CC228A828B83124CDA120C13
:10438300C322AE82AF83E0F8E50A28F8E50B3400D8
:10439300F9221243D1A3A3A3E022123737E8124331
:1043A300CAA3A3E022A3A3A3A3A3A3A3A3A31243E8
:1043B300CA1243BEA3A3E0F9EAF822E0FA850A820F
:1043C300850B83A3A3A322F0A3E91243D122F08593
:1043D3000A82850B83A3A3A3A322C082C0837AC1CD
:1043E3007B0379E21218BD7AC17B03023AEAC082E9
:1043F300C083900352023AE7C082C08374FE12085E
:1044030070851882851983AA82AB83794B12441B6A
:104413001249177402023AC01218BD851882851911
:104423008322C082C083794A1218BD023AEA74F625
:1044330012036A9003C9E0FE04F0EEF9120C7B8BC1
:1044430009EA450970EDEE60EAF902457174F0126C
:10445300036AEAFEEBFF8C088D09890A7410120ABD
:1044630046E0F50B7411120A46E0F50C120D9BEAB7
:104473004B7013E50C7042A90AAC08AD09EEFAEFD4
:10448300FB120DB3806EE50A6021EA2402F582EB8C
:104493001229AF850A082508F8E4340013E813F05D
:1044A30070098A828B83A3A37401F0E50C6045E550
:1044B3000B70068A828B83E4F07401650C7035E51A
:1044C3000B9003D07004E4F0802AE004F0900AB764
:1044D300E0F89003D0E0C398401AE4F0900355E06D
:1044E3006E7003A3E06F700CEEFAEFFB7901120B11
:1044F3001F1244FA024CD57A017B009003ACE0F919
:1045030012126F22C082C08374016A7001EB7007BC
:104513007A011245318012900AAE124540EA4B608F
:104523000512228A80031244FA023AEA7A207B00B7
:104533009003ACE0F9121167223400F583EAF0A38B
:10454300EBF022C082C083900AB00230EAC082C07E
:1045530083900AB20230EA124FE822EE240CF5826D
:10456300EF3400F583123AE1E849221208257F026D
:10457300020595A2F0E433851882851983124592CA
:1045830079521218C32212459279421218C322F0AB
:10459300AA82AB8322AA08AB099003ACE0F91211FB
:1045A3003D223400F9E508241DF582E50912373769
:1045B300E8F0A3E9F022124DA4A3A3E022A3F0EEB6
:1045C30024151245C922F582EF3400F583E0221247
:1045D30045D6223400F583E0F8A3E0F98882898385
:1045E30022E0F81245EA22A3E0F98E828F83A3A387
:1045F30022F0EE241812373422F0EE241612373448
:104603002274F412036AEAFEEBFF7A007B0412447D
:10461300FE1246931245B39003617409F0120CD550
:104623008A088B09AC08AD09EE24131228DF12495E
:10463300171247E7640170487A0F12468660418A71
:10464300828B83740212469DFAA3E0FB8A828B83DA
:10465300A3E0FC8A828B83A3A3E0FBEC850882851D
:104663000983A3A31245418882898312491B123F00
:104673000F1245C0FAA3E0FB794A1218C3124598FA
:104683000229A47B001211318A088B09EA45092209
:10469300900332123AE1900AB222F0EE241DF8EFB1
:1046A3001246A722123C22E0221246B0223400F521
:1046B300837401F022F582E509123737E8F0A3E9A4
:1046C300221246C8221246CC22F08508828509832D
:1046D300A3221246CCA3A3A3A3221246D5A3A3E0ED
:1046E30022124AEE120D2922EE2417F582EF12460A
:1046F300B0120CD5EE241A123734EAF0A3EBF022F1
:1047030074F412036A74F31208708908EAFEEBFF6B
:104713007C0D7D007900851882851983AA82AB837D
:1047230012111FEE241D1228DF124FD9A3E0F874D3
:104733001F58600A790112186379000247DEE8A264
:10474300E55008740C120A467401F0E8A2E7500819
:10475300740B120A467401F0E8A2E6740A500812B8
:104763000A467401F08008120A46E064017005EEFF
:1047730024138003EE2415124E167402120A46AA5D
:1047830082AB8312187B1228DC1247EC1245B374F8
:104793000A120A46E0640170331222BD703B120C08
:1047A300E18A0A8B0BA80AA90BEE240B1229AC6829
:1047B3007003A3E0697022120CD5EAFCEBFD7402CE
:1047C300120A46AA82AB831247E7600D85188285D9
:1047D3001983AA82AB83120B19A908740D0229A1AC
:1047E300EEFAEFFB121875E922E01247F122F8A363
:1047F300E0F98518828519832274F612036A74F32B
:104803001208708A088B09ECFEEDFF7C0D7D0079A0
:1048130000851882851983AA82AB8312517EA3A3D4
:10482300A3A3A3A3A3A3A312488612488FF8A2E5C8
:104833005008740B120A467401F0E8A2E75008749A
:104843000A120A467401F0E8A2E6EE50042413802B
:10485300022415124E167402120A46124878A3A3B4
:10486300E0C0E0740C120A46D0E0124AE6120B13C1
:10487300740D02456EAA82AB8312187B850882856C
:10488300098322E01247F1E8F0A3E922F01237315D
:10489300124FDDA3E02274F712036A74E112087069
:1048A300EAFEEBFF8E828F8312491BA3A3A3E0A230
:1048B300E050518E828F8312241D8A828B83A3A39F
:1048C300A3A3A3A3E054FE1249338A828B83124924
:1048D3002CE0F98A828B83E0241CFAA3E012334D87
:1048E300124917120CCFE9701B741D120A461249A4
:1048F300267011851882851983AC82AD83EEFAEF99
:10490300FB120D17024B588E828F83A3A3A3A3A37D
:10491300A3A3A3A312299A2212491F22124FE1A390
:10492300A3A322123769640422E0241B123C1B2236
:10493300123AC9AC82AD8322E9F879007404686045
:104943000A740A6860057403687001090207A17498
:10495300F612036A8A828B837420F0A3A37401F096
:10496300120AC58A088B09AE08AF09EE4F60108E94
:10497300828F837401F090039FE070031246EBEE85
:10498300FAEFFB024571C082C0839003B57401F056
:10499300E9A2E350037403F0E9A2E15004E0D2E298
:1049A300F0023AEA74F612036A79007C008A088BF3
:1049B3000978081205DBF8FF07DA49D849D849D83E
:1049C30049D849D149D549DA49CE490C80097C04F3
:1049D30080050C80F67C089003B5E05C60030980D9
:1049E30003EC60010902457174F612036A8A828B33
:1049F30083E07012A3124568600C8A828B8312498C
:104A03001612199B80047A007B0002457174F5121B
:104A1300036A74F31208708A088B09ECFEEDFF75C4
:104A23000A12EA450970057900024ADF900352E051
:104A330065087004A3E065097014120CD5EAFCEB59
:104A4300FD1247E37005750A018003750A00851896
:104A530082851983E4F004120A46E508F0A3E50908
:104A6300124AE6120A89E960277403120A46AA82E7
:104A7300AB83120A6BE964017016750A01740312A1
:104A83000A46AC82AD831247E36021750A00801C9D
:104A93007412650A701690039EE06402700EEEFCB9
:104AA300EFFDAA08AB09120AA1E970DFEEFCEFFDE6
:104AB300AA08AB09120DA1E9F8740A687005750A12
:104AC30001801774A0687012EEFCEFFDAA08AB0911
:104AD300120DADAA08AB09120DBFA90A740D025439
:104AE300E67402124AEA22124AEE22123AC9AA8252
:104AF300AB832274F712036AEAFEEBFF8E828F8385
:104B0300A3A3A3A3A3A3A3A3E06015EE24151228D4
:104B1300DF12298A120D41E96401700479018025AD
:104B23008E828F83A3A3A3A3A3A3A3E06015EE2484
:104B3300131228DF124B4AFAA3E0FB120D41E9647A
:104B43000160D979008013123439A3A3A3A3A3A3CB
:104B5300A3A3A3E022741F1208257F010205957405
:104B6300F012036A74FD1208708A088B09ECFEEDDB
:104B7300FF890B7413120A46E0F50C750A017401E0
:104B8300120A4674041250116048E50C601DEA24B1
:104B930017F582EB125254124FFF8A828B83E0D2B5
:104BA300E7F0EA2414F582EB1239EE124CE5EB122E
:104BB30045D27403125577EE88828983A3A3F0EF5D
:104BC30088828983A3A31234E31234EA120ABFE969
:104BD300F50AA90A7403024CD274EC12036A74F541
:104BE3001208708A0A8B0B890C8C0E8D0F741F129E
:104BF3000A46E0F50D7420120A46E0F510A3E0F52D
:104C0300117E01EE120A46740AF0E97007E50DC33E
:104C130033240AF0124DB77003024CB9124DCC7411
:104C230009F0A3E50CC43354E0450D124DDEE50C49
:104C3300702D7C008023ECC333F8E433F9E51028AE
:104C4300F8E51139F988828983124CC688828983F1
:104C5300122BFCF0A30EAF830CECC3950D40D7E5EC
:104C6300082417F582E5091246AC120CD5E5082491
:104C73001AF582E50912453C7403120A46AC82AD6B
:104C830083AA0AAB0B120A71E96019E5082416F529
:104C930082E509124CC0120A46A882A983E50824BA
:104CA300181245AC850882850983125573AA08AB8F
:104CB30009120ABFE9FEEEF9740B024DAF1246B0BA
:104CC300740322E08E828F83F0A3AE82AF8322121D
:104CD30008257F08020595123791F9EA2400E43983
:104CE300FB22EA240BF5822274EE12036A8A0C8BF0
:104CF3000D890E8C088D097412120A46E0F50F74A3
:104D030013120A46124D9890050B1245686077E519
:104D13000FC333F8E433F9E8240EFAE93400FB1245
:104D230011318A108B11AE10AF11EE4F60588E8285
:104D33008F8374D4F0A3A3E50CF0A3E50D124DA06B
:104D4300E50EF0AC08AD09EE2405FAEF12501AEEA9
:104D5300240D1228DFE50FF0850A08850B09750A73
:104D63000078081207D9E50FC333FCE433FDEE24C2
:104D73000EFAEF124D8F120825EEFAEFFB90050B9A
:104D8300124FD9121A60023E19FAE5093400FB12D8
:104D93001113740322E0F50AA3E0F50B22124DA4CC
:104DA30022124DA822123A02A3A3A3221208257F9E
:104DB3000C020595851882851983AA82AB83120D8F
:104DC300298A088B09EA450922EA240BF582EB12AA
:104DD30045CCFEA3E0FF8E828F8322F0A3AE82AF89
:104DE30083AC0EAD0FEEFAEFFB124DF02212187BDF
:104DF300124DF722EE2408FEEF3400FF22E0FA8E74
:104E0300828F83A3A3E022FEA3E03400FF8E828F70
:104E130083E022123734124E1D22E0FCA3E0FD2270
:104E230012299A120CBD2274F612036AEAFEEBFFF2
:104E33009003B6801388828983E06E7003A3E06FCA
:104E4300603A88828983A3A312456870E87A047B59
:104E5300001211A98A088B09A808A909E849601C4E
:104E630088828983124E869003B6124917888289F5
:104E730083A3A31245409003B61245B30245718A3A
:104E8300828B83EEF0A3EFF02274F412036A7E00A8
:104E93009003B680070E88828983A3A312456870A6
:104EA300F4EEC333FAE433FB124F34607E7F009099
:104EB30003B6802488828983124E19EFC333FAE440
:104EC30033FBE5082AF582E5093BF583ECF0A3ED16
:104ED300F00F88828983A3A312456870D79003A734
:104EE3001222F77003A3E069780870191207DDEE48
:104EF300F50A780A1207E17C737D0379009003A712
:104F0300124F3F801A1207DDEEF50A780A1207E105
:104F13007C737D0379009003A7124917120D537414
:104F230003120825AA08AB091211AF120AD70229E6
:104F3300A41211A98A088B09EA45092212299A1297
:104F43000D5922C082C08380128A828B83A3A3124D
:104F530037429003B61245B31211AF9003B612361F
:104F63005270E6023AEA74F612036A90035F12374C
:104F73006E9003CA124FC81245B37ACA7B037950A5
:104F83001218C39003CA122516FAEFFB120DB9903B
:104F930003CA12376E90050D12456860257A067BA9
:104FA30000121131EA4B601A8A828B8374D5F0A305
:104FB300A3E4124FEE04124FFF90050D124FD912C6
:104FC3001A60024571124FCC22E0F8A3E0F9900376
:104FD3005F228E828F83124FDD22124FE122E0F88F
:104FE300124FE722A3E0F583888222124FF22212A6
:104FF3004FF622F08A828B83A3A3A322124FF2A33C
:10500300EEF0A3EFF022F582EF1245CCF92212461F
:10501300E4EA4B22FAE5093400FB12187B2212451D
:10502300EBA3A3A3A3A3A3A322901EBDE4932401F4
:10503300F8E43400F97A027B002274F712036A7EE3
:1050430000800412562A0E12514E40F77E00EE12D3
:10505300506974FEF0A30412507EE4F00EEEC39484
:105063000340EB024B5D75F003A4F8A9F074B82874
:10507300F8740339F988828983A32212508222F0BB
:10508300888289832274F712036A7F0080010F905C
:105093001EBAE493F8EFC3985026EF12523A6A709F
:1050A30003A3E06B70E81255D76C7003A3E06D6047
:1050B3000A74FF6C700374FF6D70D3125145800442
:1050C3007A007B00024B5D74F612036A7CFF7DFF5E
:1050D3007AFE7BFF120D7DEA4B7040750800803627
:1050E300E50875F017A4F8A9F0741028F582740880
:1050F30012524C600C740F28F582740812524C70D3
:1051030013740128FE740839FF8E828F831252595B
:10511300EEFAEFFB05081251B440C502457174F471
:1051230012036A8A088B09ECFEEDFF800B120D8FC8
:10513300EEFCEFFDAA08AB09120D7DEA4B70EE02FF
:1051430029A4740128FA740839FB22901EBAE49347
:10515300F8EEC3982274F712036AEAFEEBFFEE4FF0
:10516300601012517874FEF0A30412557D14F0A35D
:1051730004F0024B5D7C177D00790012111F8E82B3
:105183008F832274F712036AEAFEEBFF750800802F
:1051930018E50875F017A4F8A9F01255E27003A3F7
:1051A300E06F600312563205081251B440E3024B1C
:1051B3005D901EBAE493F8E508C3982274F61203CF
:1051C3006A120D7D8A088B09A808A909E849600AB3
:1051D300E8240DFAE93400FB80047A007B000245E1
:1051E3007174F412036A8A0A8B0BECFEEDFF7508E7
:1051F30000750900802EE50975F017A4F8A9F012CF
:10520300561D601EE50912523A650A7004A3E06553
:105213000B700375080AEEFCEFFD1254D9600343CB
:1052230008A00509901EBAE493F8E509C398500451
:10523300E50860C202250E75F017A4F8A9F0125212
:105243004522740128F582740839F583E022F5823A
:10525300EF123737E42212299A120BB52212508229
:10526300A3A3A3A3A3A3A3A32274F212036A8A088A
:105273008B09ECFEEDFF740E120A46124D98750C65
:10528300007C007D01801012112BE50CF5F0EA84FF
:10529300ACF0750C007D0078007900800312541681
:1052A3001254724003025338E8FAE9FBEA75F01727
:1052B300A4FA85F00D75F017EBA4250D12544E706A
:1052C30003A3E0F460D712542C65087004A3E065CF
:1052D3000960CA12542C6E7003A3E06F60BF1254AE
:1052E3002C650A7004A3E0650B60B2E8FAE9FBEAF7
:1052F30075F017A4FA75F017EBA4250DFB740F2AAC
:10530300F582740812540D509474016D050C608D70
:10531300E50CC39C4087E875F017A4F8AAF075F074
:1053230017E9A42AF9740128F582740839F5831260
:10533300491702540A780079008003125416125454
:105343007F40030253F1E8FAE9FBEA75F012A4FA8D
:1053530085F00D12545E64FE7003A3E0F460DC126A
:10536300545465087004A3E0650960CF1254546E69
:105373007003A3E06F60C4125454650A7004A3E081
:10538300650B60B7E8FAE9FBEA75F012A4FA75F069
:1053930012EBA4250DFB74902AF582740612540DAA
:1053A3005099E8FAE9FBEA75F012A4FA75F012EBEA
:1053B300A4250D12541F64016081E064027003028E
:1053C300533E74016D050C700302533EE50CC39C00
:1053D300500302533EE875F012A4F8AAF075F012D8
:1053E300E9A42AF9748728F582740602532FE50C81
:1053F3006011EC700E7401650C600302528A7C012B
:105403000252957AFE7BFF0223033BF583E014C32C
:10541300940622E8240108E93400F922FB748B2A5C
:10542300F58274063BF583E022E8FAE9FBEA75F0BE
:1054330017A4FA75F017EBA4250D12544122FB743F
:10544300012AF58274083BF583E02212544164FE7D
:1054530022E8FAE9FBEA75F012A4FA75F012EBA45C
:10546300250DFB74872AF58274063BF583E02290B1
:105473001EBAE493FAC3E89AE9940022901EB5E4B5
:1054830093FA740193FBC3E89AE99B2274F5120320
:105493006A8A088B09ECFEEDFF750A008002050A93
:1054A300901EBAE493F8E50AC3985028EEFCEFFD8A
:1054B300E50A75F017A4F8A9F01254D960E0E50ADB
:1054C30075F017A4F8A9F0740128F582740839F56A
:1054D300831234EC8010740328FA740839FB121811
:1054E30075E9221208257F0302059574F012036AF9
:1054F3008A088B098C0A8D0B890C120D838A0E8BFB
:105503000FAE0EAF0FEE4F6055125178E508F0A3C2
:10551300E50912557D125575E50C600AEE240F124C
:1055230028DFE50C8006EE240F12556DF09003CCB6
:10553300124568601A9003A6E064017008EE240E19
:105543001252518010EE240E1228DF74078006EEEB
:10555300240E12556D122E32120219125564024C8A
:10556300D5EE240D123734E8F022123734740122B9
:10557300A3A3E50AF0A3E50BF022123363A322747D
:10558300F512036A8A088B09ECFEEDFF750A0080A9
:105593000F1255E27003A3E06F6003125632050A3F
:1055A300901EBAE493F8E50AC3985025E50A75F00E
:1055B30017A4F8A9F01255D765087004A3E065098C
:1055C30070CF740B28F582740839F583124E8680E8
:1055D300CD0254E9740B28F582740812524C2274DC
:1055E3000B28F582740812524C6E2274F712036A68
:1055F300EAFEEBFF7508008019E50812523A6E7057
:1056030003A3E06F700A12561D7005E50812562BAE
:1056130005081251B440E2024B5D740328FA740882
:1056230039FB120A6BE922EE75F017A4F8A9F01200
:105633005145120D8F22125082123AE1E84922C0DD
:1056430082C08374F8120870851882851983AC822E
:10565300AD8375838075822E740812073C8518828A
:10566300851983AC82AD831247E764017004790026
:10567300800279017408023AC0126A10F9EA22E042
:10568300F508E4F509F50AF50B2274091208257FDC
:1056930004020595EE2412FAEF3400FB120F3FE9E2
:1056A300227905120F4B740422E024F5C3941222CD
:1056B3001256B7221215DB8A0C8B0D8C0E8D0F221E
:1056C30012102F9006521271AC7A147B0022FB1237
:1056D30056DCE8F0A3E9F0EE221256E48A828B83CB
:1056E300228A828B83E024FFF8A3E034FFF922EEC1
:1056F300240E12740274012212573C1208257F08EB
:10570300020595125736A2E522127405E4F0227FB2
:1057130005020595E508126D4BE509125736227A05
:10572300D17B0312115B74022212573022EE241034
:10573300F582EF3400F583E022121023740422F57E
:1057430082EF125736F822EE240DF582EF12573608
:10575300640122E0FEA3E0FFEE4F22F582EF125731
:105763003622FAEF3400FB79E11216DD22F0EEFA6D
:10577300EFFB22EE240EF582EF12740522F0A3F064
:10578300025ECBF582EB125736FA2212082502632A
:1057930026C082C08374FE12087080077AD17B030F
:1057A3001257D29003D11267B670F19003D31267E8
:1057B300B660097AD37B031257D280EF9003D1E40A
:1057C300F0A3F09003D7F0A3F0A3F07402801612B5
:1057D3001155851882851983EAF0A3EB1279E91232
:1057E3000F2D227411120825025ECB74F612036A80
:1057F300E9FF8F08746D1268D5741E1268DAFE8E85
:1058030008FA7B00121131EA4B6017EA2508F8EB1E
:105813003400F98A828B83127295A3A3A3A3E4F0C5
:1058230080227A027B00121131EA4B60138F0874D5
:10583300781268D5741E125BB5F0A3741A125BCA92
:105843007A007B00027350E9FDEAFC74062DFAEC42
:10585300A2E0501EEA75F00A84A8F0E86014740A06
:105863002AC398FAE8C394054004740A2AFA740B0D
:105873002AFAEDC394134004781480027806E82AC8
:105883002409F8E43400F97A0A7B00120219E8F9D2
:105893000207A1C082C083900401E05402600A128F
:1058A30018FFE96004790180027900025ECBC082AF
:1058B300C083900401E0540260149003D7E0700A9F
:1058C3001267B360091258D6500479018002790037
:1058D300025ECB9003DAE02410125DA5A2E722C09A
:1058E30082C08390804BE0F89003D9E0C3985005C1
:1058F30012113180047A007B00025ECBC082C08328
:10590300120F2D7900025ECBC082C08374FE120891
:1059130070851882851983125A71600D146065248D
:10592300FE70030259AB025A35900632E0640F60F1
:1059330018120F03E97012851882851983126A0BF6
:10594300900A85125E2C121A6090065AE0C0E08518
:1059530018828519831264CED0E0125A57F8125A6E
:10596300457414125A57FCA3E0FD7AD37B0312113A
:105973004FE5A8F8C2AF9003D9125A687920120EE6
:10598300EB0257CE120EF7E9851882851983601151
:10599300125E2C740D125A57FAA3E0FB1218F98009
:1059A300E0125E2C741580BB125DAB7003025A3596
:1059B300851882851983127326C0E0125A4AD0E0F3
:1059C300125A572402F8125C9C2401FAA3E0340013
:1059D300FB88828983125A7114C394095020125D83
:1059E300ABFA851882851983A3127C10A3A3A3E0C5
:1059F300F874A128F582741E1268DA6A600F125ACD
:105A03004AE06408702C125DAB6408702585188227
:105A1300851983E0F8125DB114125A75240AC0E0A7
:105A2300851882851983125A45D0E0125A750402EB
:105A33005966851882851983AA82AB83120F2D02BA
:105A43005984A3125E3722851882851983127C1D1F
:105A5300A3A3A322125A5B22127AD9E022E5A8F863
:105A6300C2AF9003D8E004F0E8A2E792AF22EAF0D5
:105A7300A3EB125A5BF8125DB6A3E022C082C08387
:105A83009003DC1267B66008125A46121A6080024D
:105A93007900025ECB74F712036AEAFEEBFFEE2491
:105AA3000D1256F5F0EE242F12575EC0E012577612
:105AB300D0E0F0EE243012575EC0E0EE241212570D
:105AC30079D0E012705CC0E0EE2413125779D0E075
:105AD300F0EE242B125779120664EE2422FCEF34E5
:105AE30000FDEE242D12575EF9126E53120825E9BC
:105AF3007007EEFAEFFB120E31026326C082C083F9
:105B0300120F03E96004792080027901025ECBC0A1
:105B130082C083EA126D42E0D2E0025782C082C0A3
:105B230083126D3B1257507011125BBF400C8A8277
:105B33008B83A3E0F9120EF18069125BA9125761FE
